:100000000C9478020C94E4270C94A0020C94A002A7
:100010000C94A0020C94A0020C94A0020C94A002D8
:100020000C94A0020C94A0020C94A0020C94A002C8
:100030000C94A0020C94A0020C94A0020C94A002B8
:100040000C9496250C94A0020C9481280C94A00288
:100050000C94A0020C94A0020C94A0020C94A00298
:100060000C94FE250C94A0025F0003020304030518
:1000700004050C00FE07FE08FF0142028603AE20C5
:1000800005006A0721073943C7A00422079B56478A
:100090006209230D35424F65504A49322815002424
:1000A0000E4D3E57B654946C4B94CA1601250A3D2A
:1000B000428734659D2601260D3D424F96444956A0
:1000C00049A4480927061957C700280BCB3E5712E9
:1000D00025512DCA02290CCB3E47166551254A22CF
:1000E000002A0B3D4257A5B2654B53042B0A2D46FF
:1000F00057180D5218012C081B3E8F3224002D0674
:100100000D4EC7202E069242C7102F0A3D42671699
:1001100066C52C04300ABC428F12794A140031089B
:10012000BB424F227519320A3D42CF928559DB20DE
:10013000330C3D42C7206699AA250B00340C3D4282
:100140005F2625A564D0C204350B3D42C7714843E4
:100150002D5900360C3D42979485439269C9023768
:100160000B3D42C7206661169600380C3D42CF9287
:1001700069C99269C902390C3D42CF9269C91066BA
:1001800091043A08AA42C7100D013B09333E8F5132
:100190001912003C07AB4657522B3D081D4AC7A019
:1001A0000E023E08AB46475629013F0A3D42CF9218
:1001B00035E65004400D3D42CF922943922843BA80
:1001C00000410B3D42CF9269C390D902420D3D429E
:1001D000C71055A264AA448302430A3D42CF9289C4
:1001E0006DC902440F3D42C71055A2244AA2241AE9
:1001F0001400450B3D42C7311C92301C04460A3D99
:1002000042C7311C92B008470B3D42CF9289A52DC1
:100210005900480A3D4247661B86CC164908BB4236
:10022000C71275194A0A3D42D716B64491044B0DC0
:100230003D42472625252D892A59004C083D424735
:10024000D8E3204D0A3D4247B62C89E6164E0C3DB8
:100250004247A64D4A226D5A004F0A3D42CF92793D
:100260004B1600500C3D42C79064DAA08445005103
:100270000B3D42CF92B92452A404520D3D42C79087
:1002800064DAA0942A5900530B3D42CF92A9AB9651
:100290002C0054093D42C720853D0155093D424788
:1002A000E65BB200560B3D4247E69694922C02570D
:1002B0000A3D4247E62551BA00580B3D4247A62564
:1002C000B54A4D0B590A3D4247A625B5B0095A0A11
:1002D0003D42C720661D07015B08CB3EC710F5698C
:1002E0005C093D42471AA6C5345D08CB3EC7D4A77A
:1002F000215E081D565796D4025F060D3AC720604E
:10030000069B564756610A2D42CF9A0C5A32046218
:100310000C3D4247180E49661B1400630A2D42CF5C
:10032000928959B200640A3D426765D06CC9106574
:100330000A2D42CF920D4ABA00660A3D429754C92F
:10034000B6B006670C3D3ACF92D992214C160068A0
:100350000A3D4247180E49E6166908BB424F28B5C8
:100360000C6A0ACC3A5FACB54989026B0B3D424737
:10037000589392A992056C08BB4287D4CB006D0BB1
:100380002D4287D2A2244AA2146E092D424762D27E
:100390006C016F092D42CF92D99205700C3D3AC77E
:1003A0009064B641094300710A3D3ACFA0D9922129
:1003B0002C72092D424762128B0073092D42CFA087
:1003C0001E1400740A3D4257180D52581575092D18
:1003D0004247E6A42801760A2D4247664B6A11007F
:1003E000770A2D42476649942E00780A2D42479697
:1003F000D42AB500790A3D3A47664B6A8D007A09DE
:100400002D42C7A0B50D027B0ACB3E571255B2A8AC
:10041000167C06493FC7037D0BCB3E4716D592A8F5
:1004200012017E091D4A4FA424520200000004FF5D
:10043000FF00007152636D642C3732363537333626
:10044000353734007173546872656164496E666F44
:10045000007166546872656164496E666F0071432D
:100460000071537570706F7274656400545858321F
:10047000303A58583B32313A585858583B32323A51
:1004800058585858585858583B7468726561643ABF
:10049000313B0000000000240027002A000000007B
:1004A00000250028002B0000000000230026002962
:1004B000000404040404040404020202020202030D
:1004C0000303030303010204081020408001020417
:1004D000081020010204081020000000080002019A
:1004E0000000030407000000000000000000892550
:1004F00011241FBECFEFD8E0DEBFCDBF12E0A0E0D9
:10050000B1E0EAE7F2E502C005900D92A031B10733
:10051000D9F725E0A0E1B2E001C01D92A635B207EF
:10052000E1F712E0C8E7D2E004C02197FE010E9483
:100530000B29C737D107C9F70E94F1250C943B2935
:100540000C9400008330B1F060F08730E9F088301F
:1005500009F1843021F5E0E8F0E080818F7D80832F
:100560000895813069F0823021F484B58F7D84BD97
:1005700008950895E0E8F0E080818F778083089502
:1005800084B58F7784BD0895E0EBF0E080818F77AC
:1005900080830895E0EBF0E080818F7D8083089573
:1005A000CF93DF93282F30E0F901E752FB4F84917E
:1005B000F901EB53FB4FD491F901EF54FB4FC49178
:1005C000CC23B1F081110EC0EC2FF0E0EE0FFF1F35
:1005D000E955FB4FA591B491EC91ED2331F490E0F6
:1005E00080E008C00E94A202EFCF81E090E002C04C
:1005F00090E080E0DF91CF9108951F93CF93DF9338
:10060000282F30E0F901E752FB4F8491F901EB53B9
:10061000FB4F1491F901EF54FB4FC491CC23A9F087
:10062000D62F811116C0EC2FF0E0EE0FFF1FE3561E
:10063000FB4FA591B4918FB7F894D1110DC09C9147
:10064000E12FE095E923EC938FBFDF91CF911F91CC
:1006500008950E94A202E7CFEC91E12BEC93F4CF36
:10066000CF93DF9390E0FC01EB53FB4F24918F5429
:100670009B4FFC018491882319F190E0880F991F0A
:10068000FC01ED56FB4FA591B491FC01E356FB4FE5
:10069000C591D491662349F06230A9F08FB7F894E0
:1006A000EC91E22BEC938FBF0BC09FB7F8948C9129
:1006B000E22FE0958E238C938881E823E8839FBF07
:1006C000DF91CF9108959FB7F8943C91822F809548
:1006D00083238C93E881E22BE8839FBFF1CF78944A
:1006E00084B5826084BD84B5816084BD85B5826037
:1006F00085BD85B5816085BDEEE6F0E080818160D5
:100700008083E1E8F0E010828081826080838081D4
:1007100081608083E0E8F0E0808181608083E1EBAC
:10072000F0E0808184608083E0EBF0E08081816094
:100730008083EAE7F0E0808184608083808182604A
:100740008083808181608083808180688083109233
:10075000C10008958230910538F0880F991F880FE5
:10076000991F05970197F1F708953FB7F894809185
:10077000520590915305A0915405B091550526B5A9
:10078000A89B05C02F3F19F00196A11DB11D3FBFC9
:10079000BA2FA92F982F8827BC01CD01620F711D98
:1007A000811D911D660F771F881F991F660F771F88
:1007B000881F991F08952FB7F89460914E05709186
:1007C0004F0580915005909151052FBF08950895D0
:1007D00008958F929F92AF92BF92CF92DF92EF9245
:1007E000FF926B017C010E94B5034B015C011BC0B1
:1007F00021E0C21AD108E108F10888EE880E83E0F2
:10080000981EA11CB11CC114D104E104F10459F0DB
:100810000E94B503681979098A099B09683E7340EB
:100820008105910528F7C114D104E104F10459F7B9
:10083000FF90EF90DF90CF90BF90AF909F908F9000
:100840000895FC0110820895FC0186A597A591AB3F
:1008500080AB77A766A70895FC0117A616A611AA74
:1008600010AA17AA16AA12AA13AA14AA15AA0895BA
:10087000CF92DF92EF92FF921F93CF93DF93EC0121
:10088000162F0E94DB036B017C018AA99BA9ACA9EE
:10089000BDA9B701A601481B590B6A0B7B0B8EA59E
:1008A0009FA58230910509F463C0C4F0863091059C
:1008B00009F4D2C08730910509F4E8C0039709F420
:1008C0007DC070E060E0CE010E942404DF91CF91F2
:1008D0001F91FF90EF90DF90CF900895009751F116
:1008E000019779F7111109C08A819B81B0E0A0E0DE
:1008F000481759076A077B0758F1112379F18E8150
:100900009F81B0E0A0E084179507A607B707F0F62F
:10091000EC8DFD8D309709F00995EE8DFF8D3097A8
:1009200019F088A199A1099566E070E0CE010E94B6
:100930002404CCCF112351F261E070E0CE010E947B
:100940002404CAAADBAAECAAFDAA1FAA1EAABECF2B
:1009500068A979A9CE010E942404B8CF62E070E0B2
:10096000CE010E942404CAAADBAAECAAFDAAAECF3B
:10097000112349F08A819B81B0E0A0E04817590714
:100980006A077B07A8F08A819B81B0E0A0E0481746
:1009900059076A077B0708F499CF8EA99FA901968A
:1009A0009FAB8EAB63E070E0CE010E9424048ECF3B
:1009B00068A979A9CE010E94240488CF111128C00A
:1009C0008C819D81B0E0A0E084179507A607B7074A
:1009D00040F02EA93FA988AD99AD2817390709F035
:1009E00075CF8EA99FA981309105E1F0029739F169
:1009F000EE89FF89309709F00995E88DF98D3097D8
:100A000019F08A8D9B8D0995CE010E942C045ECF32
:100A100061E070E0CE010E942404CAAADBAAECAA1D
:100A2000FDAA54CFEA85FB85309709F00995EC853E
:100A3000FD85309749F38E859F850995E5CFE88937
:100A4000F989309709F00995EA89FB893097E1F235
:100A50008C899D890995D8CF112371F0E8A5F9A556
:100A6000309709F00995EAA5FBA5309709F42ECF38
:100A70008CA59DA509952ACF67E070E0CE010E9464
:100A80002404CAAADBAAECAAFDAA20CF112349F0AC
:100A90008A819B81B0E0A0E0481759076A077B076D
:100AA000D0F08A819B81B0E0A0E0481759076A071F
:100AB0007B0708F40BCFEAA1FBA1309709F0099559
:100AC000ECA1FDA1309719F08EA19FA10995CE014F
:100AD0000E942C04FBCE68A979A9CE010E942404AF
:100AE000F5CECF93DF93FC0120813181332374F065
:100AF000EC01822F0E94D0022885398561E082179F
:100B0000930709F060E0CE010E943804DF91CF9195
:100B10000895FC01718B608B80AD91AD82309105A1
:100B20001CF091AF80AF089582E090E0FACFFC0115
:100B3000862FA2E3B0E0B383A283A0E9B1E0B5833E
:100B4000A483A0E2B3E0B783A6831386128615863A
:100B5000148617861686118A108A138A128A158AB5
:100B6000148A178A168A118E108E138E128E158E85
:100B7000148E178E168E11A210A213A212A215A205
:100B800014A211A610A613A612A615A614A617A69F
:100B900016A611AA10AAA1E0B0E0B1AFA0AF608381
:100BA0007183442341F011861086211109C060E051
:100BB0000E943003089541E050E051874087F5CF0F
:100BC00062E00E943003089521E0FC0120838DEC57
:100BD00094E00895DC0111961C921E928EE196E03D
:100BE00015969C938E93149717969C938E931697B5
:100BF00019969C938E9318971B969C938E931A9795
:100C000055961C92559758961C9258971C961D9273
:100C10001D921D921C921F978FEF56968C9356979C
:100C20005A968C935A9790E006C0FD01E90FF11D8A
:100C30002FEF268F9F5F9631C0F3089580E00895CF
:100C4000DC011A96ED91FC9130E020E009950895C1
:100C5000DC011496ED91FC9130E020E040E060E191
:100C600009950895462FDC011496ED91FC9130E032
:100C700020E06BE009950895DC011496ED91FC915C
:100C800030E020E040E06AE009950895DC01149628
:100C9000ED91FC9130E020E040E069E00995089595
:100CA000AF92BF92CF92DF92EF92FF920F931F937A
:100CB000CF93DF93EC015B016A0179010E94EA05A1
:100CC000BD82AC82DF82CE82F986E8861B870A87E6
:100CD000CE010E944606DF91CF911F910F91FF90A8
:100CE000EF90DF90CF90BF90AF9008950F931F9338
:100CF000CF93DF9300D000D01F92CDB7DEB76C83C7
:100D00004D832B831A830983DC011496ED91FC91AA
:100D10009E012F5F3F4F41E06FE009950F900F90CC
:100D20000F900F900F90DF91CF911F910F91089529
:100D3000CF93DF93EC01EA85FB8530E020E040E0D3
:100D400068E20995EE81FF8130E020E040E064E157
:100D5000CE01099541E06BE4CE010E942006E881B6
:100D6000F981448169E2CE010E94200640E06BE4F3
:100D7000CE010E942006E881F981448169E2CE011A
:100D80000E94200641E06BE4CE010E942006E8812B
:100D9000F981458169E2CE010E942006DF91CF9161
:100DA0000895FC0171836083FB012289FC01248B7F
:100DB0000895DC011696ED91FC9130E020E040E0D2
:100DC00069E109950895DC011696ED91FC9130E0FA
:100DD00020E040E068E1099508959A01DC0116964B
:100DE000ED91FC91462F67E109950895CF92DF922E
:100DF000EF92FF920F931F93CF93DF931F92CDB784
:100E0000DEB76C017B01D7016D918D01673109F16E
:100E100078F06A3160F16E3FA9F5FD0140814983A8
:100E200069E2C6010E942006F2E0EF0EF11CEBCF52
:100E3000653140F1FD0140814983D6011696ED915F
:100E4000FC9130E020E0C6010995B2E0EB0EF11C08
:100E5000DACFF70181818983AE014F5F5F4F61E097
:100E6000C6010E94ED06F2E0EF0EF11CCCCFD601D8
:100E70001696ED91FC9130E020E040E0C601099526
:100E80007801C1CF0F90DF91CF911F910F91FF900B
:100E9000EF90DF90CF900895462FDC011696ED91EC
:100EA000FC9130E020E066E109950895462FDC01D1
:100EB0001696ED91FC9130E020E065E109950895EA
:100EC000EF92FF920F931F93CF93DF938C01C42F68
:100ED00079016D3009F44DC0D8F16E3009F465C068
:100EE0006F3009F077C00E94E306F701D3816D2FC0
:100EF000660F660F660FD8015496DC91D60F60E43A
:100F0000C8010E9456076D2F62956F706061C8011D
:100F10000E9456076D2F6F70C8010E944C07F701A1
:100F20006481606BC8010E944C07D70112966C91D6
:100F300012974D915C91660F660F660FC8010E9473
:100F4000ED06C15091F7C8010E94D90681E03BC06F
:100F50006B3009F03FC0411106C063E471E00E94AC
:100F6000F60681E030C06EE371E00E94F60681E093
:100F70002AC041110DC067E371E00E94F606D80156
:100F8000ED91FC911197828954968C9381E01BC05E
:100F900060E371E00E94F606D801ED91FC91119793
:100FA000838954968C9381E00EC00E94E30661E829
:100FB000C8010E9456076C2FC8010E944C07C80147
:100FC0000E94D90681E0DF91CF911F910F91FF9090
:100FD000EF90089580E0F7CF0F931F93CF938C018C
:100FE000C62F0E946007811115C0C93061F0CA3058
:100FF00091F4C8010E94980660E671E0C8010E9461
:10100000F60681E008C068E471E0C8010E94D106DC
:1010100081E001C081E0CF911F910F910895DC0123
:101020001896ED91FC9130E020E040E069E10995EF
:101030000895DC011896ED91FC9130E020E040E04D
:1010400068E1099508959A01DC011896ED91FC91EB
:10105000462F67E109950895CF93DF931F92CDB78F
:10106000DEB76983AE014F5F5F4F61E00E942308E6
:101070000F90DF91CF910895EF92FF921F93CF933E
:10108000DF93EC01162F7A010E94190860E4CE016B
:101090000E942C08E885F9859701412F67E1CE0170
:1010A0000995CE010E940F08DF91CF911F91FF900B
:1010B000EF900895EF92FF920F931F93CF937C01CF
:1010C000C42F8901663191F178F0683109F461C06B
:1010D00090F1693109F065C08091CC0481115DC047
:1010E0001092CC0481E018C0643109F43FC065312E
:1010F00009F057C08091CC04811114C0C7010E942F
:10110000190860E0C7010E942C086C2FC7010E94DB
:101110002C0881E08093CC04CF911F910F91FF9018
:10112000EF900895C7010E940F08E8CF642F0E9436
:101130002C0881E0F1CF8091CC04882361F0C701B5
:101140000E940F0808C0A80168E1C7010E943C087E
:10115000C851085E1F4FC931B0F7A8016C2FC701F5
:101160000E943C081092CC0481E0D6CFDC01569658
:101170008C9156978F3F49F0D7011896ED91FC91CD
:1011800098014C2FC7010995C7CF88E756968C93D5
:10119000F3CF1092CC0481E0BFCFC7010E940F08AB
:1011A0009FCF80E0B9CF662329F06A3031F0862FD7
:1011B00090E008958FEF9FEF08958FEF9FEF0895D0
:1011C000FC01108E0895CF93DF93FC01A081B181C3
:1011D00082AD982F990F990F990F95AF50969C91CA
:1011E0005097903208F09FE1990F990F990F94AFA3
:1011F00023AD922F990F990F990F96AF622F680F19
:101200007727771F51963C9151973617170614F49C
:10121000832F821B880F880F880F97AFEF01C05C68
:10122000DF4F890F888380EF2196888354968D91B4
:101230009C915597813F910508F4888356968C912F
:10124000EE5BFF4F8083DF91CF9108950E94E3080A
:101250000895FC01E95BFF4F1082329610823197AE
:101260002FEF208332962083DC01D696ED91FC91FE
:101270000280F381E02D099508950F931F93CF937A
:10128000DF93DC01342F377081E090E0032E02C041
:10129000880F991F0A94E2F7182FFD01E758FF4FB6
:1012A0005081523018F170E0513011F150E0487F18
:1012B000ED91FC9111978089849FF001859FF00D3D
:1012C0001124D8968D919C91D997E60FF11DE80FC6
:1012D000F91F011115C08081872B8127819321502F
:1012E000D1F7DF91CF911F910F910895782FDCCF27
:1012F00010E0DCCF71E019C0770F110F222389F3C2
:101300009081972B912790833F5F37702150311147
:10131000F3CFDC968C91DC97E80FF11DCD01875857
:101320009F4FEC018881823028F3813039F311E03E
:10133000E5CF461730F4821760F0241760F481E09F
:101340000895821750F4241710F080E0089581E08A
:10135000089581E0089580E0089580E00895FF9267
:101360000F931F93CF93DF93EC01162FF22E202FB4
:10137000DC01AA5BBF4FFC01EB5BFF4F6C918081EE
:101380000E949909882359F0FE01EC5BFF4FCD5B69
:10139000DF4F2F2D412F608188810E949909DF91B5
:1013A000CF911F910F91FF9008950F93CF93DF93EB
:1013B000EC019C01265B3F4F885B9F4FDE01A75BE2
:1013C000BF4FBE01695B7F4FF9010081FC012081A5
:1013D0004C91FB016081CE010E94AF09882369F125
:1013E00081E0FE01ED58FF4F8083F09790813496A5
:1013F0008081981710F434978083FE01EC5BFF4FD7
:10140000908134968081891710F434978083FE018F
:10141000EB5BFF4F908134968081981710F43497DE
:101420008083FE01EA5BFF4F9081349680818917AB
:1014300038F4CA5BDF4F888303C0CD58DF4F188272
:10144000DF91CF910F910895FC01ED5BFF4F10826A
:101450003297208133962083FC0127ADEB5BFF4F51
:10146000208335972081369620830E94D5090895E0
:101470000F93DC01DE963C91DE97431BD496ED91F1
:10148000FC9109950F9108950F930E94380A0F91CE
:101490000895FC013081DB019C91930F931720F498
:1014A000321790F49FEF920F321780F4491780F4AF
:1014B000341708F0432F291708F0292F4083241BE5
:1014C000FB01208381E00895342FEECF80E0089562
:1014D00080E00895EF92FF920F931F93CF93DF93D5
:1014E00000D01F92CDB7DEB769834A832B83FC01FE
:1014F000ED58FF4F20812223C9F02B812223B1F028
:10150000223020F00230E1F0033001F17C01102F95
:10151000117000FD3CC0FC01EB5BFF4F90818A81A4
:10152000891720F0319690818917B0F00F900F90B5
:101530000F90DF91CF911F910F91FF90EF90089541
:10154000362F321B232F2F5F2983E0CF3A81321BA6
:10155000232F2F5F2A83DACF329720813197408162
:10156000BE016D5F7F4FCE0101960E94490A88231C
:10157000E9F2D701D696ED91FC910480F581E02D3A
:10158000012F2B814A816981C7010995CFCFFC01C9
:10159000ED5BFF4F90818981891740F231969081F0
:1015A000891720F63296208131974081BE016D5F08
:1015B0007F4FCE0102960E94490A8111DACFB6CF41
:1015C0000F93FC01EB5BFF4F2081421760F03196D7
:1015D0002081421740F433972081621720F0319622
:1015E0002081621710F00F91089500E021E00E9421
:1015F0006A0AF9CFAF92BF92CF92DF92EF92FF9239
:101600000F931F93CF93DF936C01142FD22F2617C4
:1016100020F5F62EF21A011718F5B12EB01AFB14A8
:1016200010F18B2DBF2CF82E802F0D2FD82F812F4E
:10163000162F682FE12C011730F08D2FD62F682F31
:10164000802F012F182FCB2DC695D61778F4AA24FA
:10165000A3941F3FB1F4115014C0F22EF61ADBCF41
:10166000B02EB11ADCCFEE24E394E5CFAA24AA94DD
:10167000F0CF402F6D2FC6010E94E00ACF195AF01B
:101680000F5F101758F0E110F4CF4D2F602FC601F7
:101690000E94E00AF3CFDA0DCB0DF2CFDF91CF91AC
:1016A0001F910F91FF90EF90DF90CF90BF90AF9080
:1016B00008950F9301E00E946A0A0F9108950F9315
:1016C00000E00E946A0A0F910895855A9F4FFC011D
:1016D00060830895835B9F4F20EA3BE0FC013183E8
:1016E000208308950F931F93CF93DF93EC01FC01A8
:1016F000E55BFF4F118210823DAB2CAB79AF68AF39
:101700004AAF1BAE3D961082B0961082319681E0B2
:101710008083319680831FAB0EABD801ED91FC9195
:10172000CE010995CE010E942909CE010E946A0BC3
:10173000C55ADF4F1882DF91CF911F910F91089505
:1017400080E00895FC01E55BFF4F20813181232B70
:1017500069F17E9620813C9620833B9740813C96A0
:10176000408332973081332309F1313001F1022E69
:10177000000C330BFC01EA59FF4FE081DC01A85952
:10178000BF4F5C91652F052E000C770B6E0F711DFE
:10179000E7FD7A95261737071CF4E50F1D96EC93A5
:1017A000541724F48A589F4FFC01508308953997A9
:1017B0003081231714F43A963083FC01E459FF4F2B
:1017C000208124179CF78A589F4FFC01208308959D
:1017D000213039F020F0223031F0840F0895860F47
:1017E0000895841B0895861B0895213039F020F058
:1017F000223031F0861B0895840F0895860F0895D6
:10180000841B08958F929F92AF92BF92CF92DF92E6
:10181000EF92FF920F931F93CF93DF937C01D62E0D
:10182000942EFC01E15BFF4FC480158113C08D2C09
:1018300019C0F701E15BFF4F9285BA969083282D7E
:10184000482F6B2DC7010E946A0ADC1680F1DC1A52
:101850001F5FC12CF701E15BFF4FC681CC19DC167D
:1018600030F38C2EF701E15BFF4FD3810485A12E6D
:10187000202F412F6C2D82810E94E80BB82E202F43
:10188000412F6C2D8D2F0E94F50B9110D2CFF701B7
:10189000E15BFF4F91859111D8CF9385BA969083E4
:1018A000282D482F6B2DC7010E946A0ACECF6D2DBF
:1018B0006C0DF701E15BFF4F6483A582DF91CF914F
:1018C0001F910F91FF90EF90DF90CF90BF90AF905E
:1018D0009F908F900895DC0118964C911897ED9188
:1018E000FC911197249130E0042E02C03595279584
:1018F0000A94E2F7822F942F960F983080F088E0B8
:10190000841B31961196FC93EE93E491F0E002C0B3
:10191000EE0FFF1F8A95E2F78E2F822B98502FEF44
:101920003FEF02C0220F331F6A95E2F72095189609
:101930009C93822308950F931F93CF93DF93EC0121
:101940008C01015B1F4FF8017183608310867196D3
:101950006081C8010E946B0CF801868372966081D9
:10196000C8010E946B0CF8018783BA968081F80148
:10197000828791E0811190E0C15BDF4F9B87DF910F
:10198000CF911F910F910895CF93C62F0E946B0C9A
:10199000C15021E030E002C0220F331FCA95E2F7A8
:1019A000821BCF9108957F928F929F92AF92BF92A8
:1019B000CF92DF92EF92FF920F931F93CF93DF931B
:1019C000EC017C018FE4E80EF11CCE010E949B0C1F
:1019D000FE01EA5AFF4FC0803C966081C7010E9419
:1019E000C40C782EFE01ED59FF4F6081C7010E94A3
:1019F000C40C182FFE01EC59FF4F6081C7010E94F3
:101A0000C40CD82EF701968019140CF05BC0048525
:101A10001C0D1195202F412F672D82810E94E80B0C
:101A2000882EF7018283202F412F672D83810E940A
:101A3000F50BF7018383013009F453C048F00230FD
:101A400009F459C0033009F464C0082F282D04C0DC
:101A5000282D290D0C2D080F482F682DCE010E942E
:101A6000AF09882379F1FE01E15BFF4F14821582F3
:101A7000FE01E25AFF4F6081C7010E946B0C082FE4
:101A8000FE01E15AFF4F6081C7010E946B0C182FC5
:101A900040E0602FCE010E94020C41E0612FCE0198
:101AA0000E94020C61E0C7010E946B0C8111F0CF13
:101AB000FE01E15BFF4F85818C15D4F28285C7580A
:101AC000DF4F88838D2DDF91CF911F910F91FF9074
:101AD000EF90DF90CF90BF90AF909F908F907F90CE
:101AE0000895982D9C1921E0280D082F090D8824B0
:101AF0008394890EB1CF982D991921E0280D382FA4
:101B00003C1901E0080F81E0830F88248394890E3B
:101B1000A3CF2C2D280D982F991901E0080F81E0F3
:101B2000890F9ACFFC01E60FF11D849190E0319668
:101B3000982F8827E4918E0F911D0895EF92FF92C0
:101B40000F931F93CF93DF93FC01E55BFF4FC081A1
:101B5000D18167966F3F710509F040F561367105D7
:101B6000C0F081599F4FFC0180819181C80FD91F1E
:101B7000CE010196FC012491222309F446C0FE0106
:101B800024912617170681F0FC018491C80FD11DFE
:101B9000EFCF6134710560F383599F4FFC01808161
:101BA0009181C80FD91FE4CF019631C08B01FC0190
:101BB000EF58FF4F80819181C80FD91F7E0160E0EF
:101BC000C7010E94920DC80FD91F62E0C7010E9491
:101BD000920DF4E0EF0EF11C8017910780F3FE01E7
:101BE000849190E0982F88273196E4918E2B00976E
:101BF000A9F00817190731F0FE013296E491CE0FD3
:101C0000D11DEDCFCE01039602C090E080E0DF91C0
:101C1000CF911F910F91FF90EF90089590E080E099
:101C2000F6CFCF93DF93EC01FC01EF5AFF4F6083B7
:101C300031964083B9010E949E0D009739F0BC0196
:101C4000CE010E94D30CDF91CF91089580E0FBCFAD
:101C5000EF92FF920F931F93CF93DF93EC01162F18
:101C6000042F7901FC01E55AFF4F80818130E1F0BA
:101C700088F0823019F1833059F19701402F612F9C
:101C8000CE010E94110EDF91CF911F910F91FF9015
:101C9000EF900895FE01E35BFF4F0190F081E02D8E
:101CA000CE010995080FE9CFFE01E35BFF4F0190DC
:101CB000F081E02DCE010995181BDFCFFE01E35B1B
:101CC000FF4F0190F081E02DCE010995081BD5CF83
:101CD000FE01E35BFF4F0190F081E02DCE010995FD
:101CE000180FCBCF860F911DFC01849108950F939F
:101CF0001F93CF93DF93EC018B0160E0C8010E943A
:101D0000720E888361E0C8010E94720E898362E0CE
:101D1000C8010E94720E8A8363E0C8010E94720E9D
:101D20008B8364E0C8010E94720E8C8365E0C80159
:101D30000E94720E8D8366E0C8010E94720E8E832F
:101D400067E0C8010E94720E8F8368E0C8010E949C
:101D5000720E888769E0C8010E94720E89876AE066
:101D6000C8010E94720E8A876BE0C8010E94720E41
:101D70008B876CE0C8010E94720E8C876DE0C801F1
:101D80000E94720E8D876EE0C8010E94720E8E87CF
:101D90006FE0C8010E94720E8F8760E1C8010E9447
:101DA000720E888B61E1C8010E94920D9A8B898B1B
:101DB00063E1C8010E94920D9C8B8B8B65E1C80189
:101DC0000E94920D9E8B8D8BDF91CF911F910F9171
:101DD0000895CF93DF93FC01E55BFF4F20813181B4
:101DE0002617370751F0EC0171836083845A9F4FA7
:101DF0000E94770ECE010E94A20BDF91CF91089531
:101E0000CF92DF92EF92FF920F931F93CF93DF93C6
:101E10001F92CDB7DEB77C016B0189019A014AE5BB
:101E200058E06CEE77E00E945006CE0101960E94C9
:101E3000E40586012DE339E04981BC01C7010E9418
:101E4000720B0F90DF91CF911F910F91FF90EF9048
:101E5000DF90CF900895CF92DF92EF920F931F9370
:101E6000CF93DF936C01162FD42FC22FE0FC0EC04E
:101E7000E1FC1AC0E3FC27C0E2FC34C0DF91CF9143
:101E80001F910F91EF90DF90CF900895402F4D1B41
:101E9000622F610F0E94E00A402F411B6D2F6C0FD3
:101EA000C6010E94E00AE4CF402F4D1B6C2F611B3E
:101EB000C6010E94E00A402F411B6C2F6D1BC6011A
:101EC0000E94E00AD7CF402F4D0F6C2F610FC60143
:101ED0000E94E00A402F410F6D2F6C0FC6010E9437
:101EE000E00ACACF402F4D0F6C2F611BC6010E9424
:101EF000E00A402F410F6C2F6D1BC6010E94E00AC3
:101F0000BDCF8F929F92AF92BF92CF92DF92EF920E
:101F1000FF920F931F93CF93DF935C01C62E942EF5
:101F2000122F802EC1E0C21B822F8195D82EDD0C8E
:101F3000E02E042F262F412F60E0C5010E942B0FB9
:101F4000D0E0FF24F3940CC0DF5FF394F394CF0D43
:101F5000E82C092D2C2D412F6D2FC5010E942B0F30
:101F6000D11738F4CC2384F31150D394D394CD0DEE
:101F7000EBCFDF91CF911F910F91FF90EF90DF900A
:101F8000CF90BF90AF909F908F900895DF92EF9287
:101F9000FF920F931F93CF93DF937C01D62F142FC3
:101FA000C22FD02E042F020F260F0F5F2F5F4C1B66
:101FB0006C1B0E94AF09811108C0DF91CF911F9166
:101FC0000F91FF90EF90DF9008950D2D2C2F412F52
:101FD0006D2FC7010E94810FF0CFCF93DF93EC01EB
:101FE0006BAFEEA9FFA90190F081E02D0995EEA954
:101FF000FFA90280F381E02DCE010995DF91CF91F9
:1020000008950F931F93DC01ED91FC9111972089A6
:10201000D896ED91FC91629F80011124000F111F51
:10202000000F111F000F111F0E0F1F1F60E00E94F5
:1020300076061F910F910895EF92FF920F931F93D1
:10204000CF93DF938C01DC01DA96FC90DA97DB9674
:10205000DC91DB97ED91FC91E188C0E04D2F6C2F76
:10206000C8010E940110CF5FDF5FCF1510F4DE15AD
:10207000A8F3DF91CF911F910F91FF90EF900895FA
:102080008F929F92AF92BF92CF92DF92EF92FF9288
:102090000F931F93CF93DF936C01162FF42EB22E64
:1020A000A02ED42FD00FC62FC20F0D2F2C2F0E9481
:1020B000AF0981110DC0DF91CF911F910F91FF905A
:1020C000EF90DF90CF90BF90AF909F908F9008954A
:1020D000812E8E0C9F2C9E0CCE19C150DE19D15032
:1020E00002E02E2D492D682DC6010E94C60F01E089
:1020F0002E2D492D6C2FC6010E94C60F04E02E2DF7
:102100004D2F682DC6010E94C60F08E02E2D4D2FC1
:102110006C2FC6010E94C60F2B2D2E192E19CA2D09
:10212000CE19CE1983949394233090F4C33018F2CF
:10213000C250BA942C2F492D612FC6010E94590B11
:10214000612F6B0D2C2F492DC6010E94590BB3CF67
:10215000DEEFD20FAA942D2F4F2D682DC6010E94BD
:102160005F0B4F2D4A0D2D2F682DC6010E945F0B6E
:10217000DDCFFC0161A742A723A708950F931F930A
:10218000CF93DF938C01E8EDE60FE63208F06DC0E7
:10219000F0E0E353FF4E0C940B29F31008114F119C
:1021A0004F1135111011351135113511351135110A
:1021B00035113511351135113511351135113511EF
:1021C00035113511351135113511351135113511DF
:1021D00035113511351135113511351135113511CF
:1021E00035111B111B11C0E004C062E00E943003D6
:1021F000CF5FC63108F059C0F801EC0FF11D868D94
:102200008F3FB1F3C03188F761E00E943003F0CF17
:10221000642F70E090E080E00E94E90381E040C01C
:10222000433030F082E090E00E94AA0381E038C0A1
:1022300085E090E0F9CF41110EC06F73EC01C60F3D
:10224000D11D61E08E8D0E94300360E08E8D0E9472
:10225000FD0281E025C06F73060F111D62E0F801D9
:10226000868D0E94300381E01BC0603400F16F73E3
:10227000F801E60FF11D868D8F3FD9F0603150F0E7
:102280000E94D00221E0892B09F420E0F801218F7F
:1022900081E006C0642F0E94FD0281E001C081E060
:1022A000DF91CF911F910F91089581E0F9CF80E0E8
:1022B000F7CF81E0F5CFFC017183608329E32283AE
:1022C000089585EC8093BC0010929A0408958111C2
:1022D00004C085E88093BC00089585EC8093BC0021
:1022E00008959093730480937204089590937704F3
:1022F000809376040895AC0120917404260F33274F
:10230000331F21323105F4F480919A048430E1F4D2
:1023100090E00FC0E0917404292F30E0E20FF32F1A
:10232000F11D240F351FD9012C91EE5AFB4F20834C
:102330009F5F961778F380917404680F609374041C
:1023400080E0089581E0089582E008959B01AC014A
:1023500060E074E284EF90E00E94E92820513109A6
:102360004109510956954795379527952093B8000F
:102370000895ECEBF0E080818A7B808360E082E16D
:102380000E94FD0260E083E10E94FD020895109228
:102390009A0481E080939C0410929B0461E082E1A6
:1023A0000E94FD0261E083E10E94FD02E9EBF0E0A2
:1023B00080818E7F808380818D7F808388E480937D
:1023C000B80085E48093BC000895EF92FF920F93CC
:1023D0001F93CF93DF9391E090935104811107C035
:1023E000DF91CF911F910F91FF90EF900895C8EB6F
:1023F000D0E0F8800AEB10E0F801E0800E94B9110B
:102400000E94C711F801E082F882EACF4F925F92F2
:102410006F927F928F929F92AF92BF92EF92FF92B4
:102420000F931F93CF93DF93413280F081E0DF91D0
:10243000CF911F910F91FF90EF90BF90AF909F9021
:102440008F907F906F905F904F900895D22FC42F00
:102450007B01182F0E94B5034B015C0190919A04F7
:10246000992329F180914D0490914E04A0914F043D
:10247000B0915004892B8A2B8B2B81F30E94B503DA
:10248000681979098A099B0940904D0450904E04BF
:1024900060904F04709050044616570668067906FF
:1024A000E8F680914C040E94E51185E0C0CF82E0FF
:1024B00080939A0400939C048FEF80939904109268
:1024C000BE04C093BD040AC0E92FF0E0D701AE0FEF
:1024D000BF1F8C91E356FB4F80839F5F9C17A0F337
:1024E0001092BF04812F90E0880F991F1091BF04B4
:1024F000812B8093BF0480919B048130A1F185EEF4
:102500008093BC000E94B5034B015C01DD2309F4FC
:1025100062C080919A04823009F05DC080914D04C0
:1025200090914E04A0914F04B0915004892B8A2BB6
:102530008B2B61F30E94B503681979098A099B09FD
:1025400000914D0410914E0420914F04309150049D
:102550000617170728073907C8F680914C040E9410
:10256000E51185E064CF10929B040E94B5034B01F6
:102570005C0104C08091BC0083FF29C08091BF042E
:102580008093BB0080914D0490914E04A0914F0424
:10259000B0915004892B8A2B8B2B61F30E94B503D9
:1025A000681979098A099B0900914D0410914E041C
:1025B00020914F0430915004061717072807390758
:1025C000C8F680914C040E94E51185E030CF85EC7F
:1025D0008093BC0097CF809199048F3F61F08091E8
:1025E0009904803251F080919904803311F084E095
:1025F0001ECF83E01CCF80E01ACF82E018CF8F92ED
:102600009F92AF92BF92DF92EF92FF920F931F9330
:10261000CF93DF93413268F080E0DF91CF911F913B
:102620000F91FF90EF90DF90BF90AF909F908F90B1
:102630000895D22EF42EEB01E82E0E94B5034B0133
:102640005C0190919A04992329F100914D04109115
:102650004E0420914F0430915004012B022B032B88
:1026600081F30E94B503681979098A099B090091D1
:102670004D0410914E0420914F04309150040617E0
:10268000170728073907E8F680914C040E94E511E6
:1026900080E0C3CF81E080939A04D0929C049FEFA6
:1026A000909399041092BE049F0D9093BD04809363
:1026B000BF048E2D90E0880F991F9091BF04892B45
:1026C0008093BF0480919B04813089F185EE8093D3
:1026D000BC000E94B5034B015C0190919A049130BB
:1026E00009F05DC000914D0410914E0420914F04FB
:1026F00030915004012B022B032B79F30E94B50378
:10270000681979098A099B0900914D0410914E04BA
:1027100020914F04309150040617170728073907F6
:10272000E0F680914C040E94E51180E076CF109293
:102730009B040E94B5034B015C0104C08091BC0066
:1027400083FF29C08091BF048093BB0080914D041A
:1027500090914E04A0914F04B0915004892B8A2B84
:102760008B2B61F30E94B503681979098A099B09CB
:1027700000914D0410914E0420914F04309150046B
:102780000617170728073907C8F680914C040E94DE
:10279000E51180E042CF85EC8093BC009ACF809118
:1027A000BE048F1520F48091BE0490E00DC08F2DE3
:1027B000FCCF292F30E0FE01E20FF31F23563B4FE1
:1027C000D9012C9120839F5F981798F326CF089505
:1027D00008950895E091490480914804E81730F481
:1027E000F0E0E85DFB4F808190E008958FEF9FEF70
:1027F00008959091490480914804981758F4E92F5E
:10280000F0E0E85DFB4F208130E09F5F909349044A
:10281000C90108952FEF3FEFFBCF809148049091BD
:102820004904891B990B0895CF92DF92EF92FF9292
:102830000F931F93CF93DF938C016B017A018091EB
:102840002704882399F0D0E0C0E0CE15DF0590F48E
:10285000D801ED91FC910190F081E02DD601AC0FF3
:10286000BD1F6C91C80109952196EFCF642FC60159
:102870000E947B11C701DF91CF911F910F91FF90B3
:10288000EF90DF90CF900895CF93DF931F92CDB755
:10289000DEB7FC016983909127049923F1F09091B0
:1028A0004A04903250F081E090E09383828390E07C
:1028B00080E00F90DF91CF91089580914B04E82F35
:1028C000F0E0E95FFB4F998190838F5F80934B0429
:1028D00080934A0481E090E0ECCF61E0CE01019664
:1028E0000E947B1181E090E0E4CF0F9340914A0475
:1028F000062F21E067E074E0809106040E94061232
:1029000010924B0410924A04109227040F910895DC
:1029100061E00E947514089581E08093270460931C
:10292000060410924B0410924A040895CF92DF924D
:10293000EF92FF920F931F93CF93DF938C01C62FDB
:102940006A017901DC0112966C9112978D919C912C
:102950000E948C14F80180819181DC01ED91FC9141
:102960000190F081E02D6C2F0995D0E0C0E0CE15EC
:10297000DF0580F4F80180819181DC01ED91FC910B
:102980000190F081E02DD601AC0FBD1F6C9109952F
:102990002196EDCFF801808191810E948814DF910A
:1029A000CF911F910F91FF90EF90DF90CF900895FE
:1029B000CF93DF931F92CDB7DEB7498321E030E09C
:1029C000AE014F5F5F4F0E9496140F90DF91CF9141
:1029D0000895CF93DF93EC0140E060E00E94D814AB
:1029E00040E061E0CE010E94D81440E062E0CE01F8
:1029F0000E94D81440E463E0CE010E94D81442E063
:102A000064E0CE010E94D81440E065E0CE010E944F
:102A1000D81440E166E0CE010E94D81443E067E09C
:102A2000CE010E94D81440E568E0CE010E94D8147F
:102A300040E169E0CE010E94D81443E06AE0CE0193
:102A40000E94D81440E06BE0CE010E94D81440E010
:102A50006CE0CE010E94D81440E06DE0CE010E94EF
:102A6000D81444E26EE0CE010E94D81440E06FE03A
:102A7000CE010E94D81440E060E1CE010E94D8143B
:102A800040E561E1CE010E94D81440E062E1CE0150
:102A90000E94D81446E063E1CE010E94D814DF9171
:102AA000CF910895CF93DF93EC0140E360E00E9463
:102AB000D81441E061E0CE010E94D81440E062E009
:102AC000CE010E94D81440E063E0CE010E94D814E9
:102AD00040E064E0CE010E94D81442E465E0CE01FB
:102AE0000E94D81440E066E0CE010E94D81440E075
:102AF00067E0CE010E94D81440E568E0CE010E9454
:102B0000D81440E069E0CE010E94D81440E06AE0A9
:102B1000CE010E94D81440E06BE0CE010E94D81490
:102B200040E26CE0CE010E94D81444E06DE0CE019A
:102B30000E94D81440E06EE0CE010E94D81440E319
:102B40006FE0CE010E94D81441E060E1CE010E9406
:102B5000D81440E561E1CE010E94D81440E062E162
:102B6000CE010E94D81446E063E1CE010E94D81441
:102B7000DF91CF9108950E948C1408958F929F92B7
:102B8000AF92BF92CF92DF92EF92FF920F931F937B
:102B9000CF93DF93EC01D62EF42E48015901E110BA
:102BA0001EC030E23F1518F46894FF24F5F82C2D70
:102BB0004F2D68E274E08D2D0E94FF12109249049F
:102BC00080934804DF91CF911F910F91FF90EF9078
:102BD000DF90CF90BF90AF909F908F9008950E940C
:102BE0008C1423E02E1520F40F2EF3E0EF2EF02DA1
:102BF0001FEF1E0DEE20D9F0E881F9810190F081E0
:102C0000E02D812F90E0880F991F880F991F880F62
:102C1000991FA501940104C05695479537952795AE
:102C20008A95D2F7B901CE010995E12EE1CF60E096
:102C3000CE010E947514B5CFCF92EF920F931F93E0
:102C4000C22EE12C00E010E098010E94BE151F91F9
:102C50000F91EF90CF90089521E00E941C160895E7
:102C6000BF92CF92DF92EF92FF920F931F93CF9379
:102C7000DF938C01C62F6A017901DC0112966C91F9
:102C800012978D919C910E948C14F8018081918102
:102C9000DC01ED91FC910190F081E02D6C2F099504
:102CA000F801808191810E948814882361F0B12C01
:102CB0008B2DDF91CF911F910F91FF90EF90DF90BF
:102CC000CF90BF9008956AE070E080E090E00E94AD
:102CD000E903BE2C4E2DD80112966C9112978D915E
:102CE0009C910E942C16D0E0C0E0CE15DF0500F7C5
:102CF000F80180819181DC01ED91FC910284F385E2
:102D0000E02D0995F601EC0FFD1F80832196EDCF94
:102D1000FF920F931F93CF93DF931F92CDB7DEB730
:102D20008C01F62E198221E030E0AE014F5F5F4F3B
:102D300069EA0E94301681E0F816A9F0F11003C08C
:102D400089818F7E898321E030E0AE014F5F5F4F44
:102D500069EAC8010E9496140F90DF91CF911F91EC
:102D60000F91FF900895898180618983E7CFEF9269
:102D7000FF921F93CF93DF931F92CDB7DEB77C01F5
:102D80001982611101C061E01FEF160F143108F0C4
:102D900013E161E0C7010E9488161068198321E0E1
:102DA00030E0AE014F5F5F4F64E7C7010E949614A9
:102DB00064E670E080E090E00E94E90360E0C70113
:102DC0000E9488160F90DF91CF911F91FF90EF9096
:102DD0000895FF920F931F93CF93DF9300D0CDB749
:102DE000DEB78C01F62E19821A8261E00E948816E5
:102DF00021E030E0AE014F5F5F4F60E7C8010E9405
:102E0000301621E030E0AE014E5F5F4F64E7C8014D
:102E10000E943016F11024C08981877F89838A81BE
:102E20008F778A8321E030E0AE014F5F5F4F60E72C
:102E3000C8010E94961421E030E0AE014E5F5F4F62
:102E400064E7C8010E94961460E0C8010E948816D9
:102E50000F900F90DF91CF911F910F91FF900895E8
:102E60008981886089838A8180688A83DBCFFF9229
:102E70000F931F93CF93DF931F92CDB7DEB78C01D3
:102E8000F62E21E030E0AE014F5F5F4F6EEB0E9407
:102E90003016F11003C089818460898381E0F816BF
:102EA00081F021E030E0AE014F5F5F4F6EEBC80173
:102EB0000E9496140F90DF91CF911F910F91FF9078
:102EC000089589818B7F8983ECCFEF92FF920F93D6
:102ED0001F93CF93DF9300D0CDB7DEB77C01162FC1
:102EE000660F6B5621E030E0AE014F5F5F4F0E94EE
:102EF00030166BE4610F660F21E030E0AE014E5FEB
:102F00005F4FC7010E9430160A818981102F082F58
:102F100062E370E080E090E00E94E903C8010F9056
:102F20000F90DF91CF911F910F91FF90EF90089537
:102F30000F931F93CF93DF93EC018B0160E0C801E7
:102F40000E9465179983888361E0C8010E94651714
:102F50009B838A8362E0C8010E9465179D838C83EE
:102F600063E0C8010E9465179F838E8364E0C801F7
:102F70000E9465179987888765E0C8010E946517D8
:102F80009B878A87CE01DF91CF911F910F91089582
:102F90000F931F93CF93DF93EC018B0160E0C80187
:102FA0000E9465179983888361E0C8010E946517B4
:102FB0009B838A8362E0C8010E9465179D838C838E
:102FC00063E0C8010E9465179F838E8364E0C80197
:102FD0000E9465179987888765E0C8010E94651778
:102FE0009B878A87CE01DF91CF911F910F91089522
:102FF000CF93DF931F92CDB7DEB721E030E0AE0173
:103000004F5F5F4F63EA0E943016898186FD05C0DD
:1030100080E00F90DF91CF91089581E0FACFEF9299
:10302000FF920F931F93CF93DF931F92CDB7DEB71D
:103030008C017B0161E00E94881621E030E0AE0146
:103040004F5F5F4F60E7C8010E94301681E0E816CD
:10305000F104F1F0C8F083E0E816F104F1F021E0AA
:1030600030E0AE014F5F5F4F60E7C8010E949614E9
:1030700060E0C8010E9488160F90DF91CF911F91E8
:103080000F91FF90EF90089589818C7F8983E7CF1E
:1030900089818C7F81608983E2CF89818360898384
:1030A000DECFFF920F931F93CF93DF931F92CDB785
:1030B000DEB78C01F62E21E030E0AE014F5F5F4FAE
:1030C00060E80E943016F11013C089818F7E8983D9
:1030D00021E030E0AE014F5F5F4F60E8C8010E9421
:1030E00096140F90DF91CF911F910F91FF9008954B
:1030F000898180618983ECCFFF920F931F93CF93D7
:10310000DF931F92CDB7DEB78C01F62E21E030E0C1
:10311000AE014F5F5F4F60E80E943016F11013C0A0
:1031200089818D7F898321E030E0AE014F5F5F4F61
:1031300060E8C8010E9496140F90DF91CF911F9113
:103140000F91FF900895898182608983ECCFEF927F
:10315000FF920F931F93CF93DF931F92CDB7DEB7EC
:103160008C017B01198221E030E0AE014F5F5F4F9F
:1031700069EA0E94301689818F7E898321E030E0E0
:10318000AE014F5F5F4F69EAC8010E94961460E08C
:10319000C8010E947C1840E16FEAC8010E94D8145F
:1031A000E114F10421F1EA94EF2829F161E0C8016A
:1031B0000E945118F8018481958181309105F9F0C0
:1031C000892B39F161E0C8010E947C18F8018481E3
:1031D0009581892B21F5C8010E94F81781111FC024
:1031E00061E070E080E090E00E94E903F4CFC80164
:1031F0000E945215DBCFC8010E94E914D7CF60E0CE
:10320000C8010E94371761E070E0C8010E940F18E2
:10321000D9CF70E060E0C8010E940F18D3CF0F90A3
:10322000DF91CF911F910F91FF90EF900895FF9242
:103230000F931F93CF93DF931F92CDB7DEB78C010F
:10324000F62E21E030E0AE014F5F5F4F60E80E9454
:103250003016F11013C089818E7F898321E030E020
:10326000AE014F5F5F4F60E8C8010E9496140F9057
:10327000DF91CF911F910F91FF9008958981816017
:103280008983ECCFCB01BA010E94A6110895109258
:1032900049041092480410924B0410924A040E9470
:1032A000C71187EE93E10E94711188EE93E10E94AD
:1032B00076110895CF93DF93EC01683199F160F4B2
:1032C0006431A1F0673171F450E0B90180EC94E011
:1032D0000E94141481E007C06931B1F1603211F429
:1032E00081E001C080E0DF91CF9108958C859D85BC
:1032F000AE85BF85892B8A2B8B2B71F4E881F981F0
:10330000A585B0E020EA36E841E050E00E941129AE
:103310006C877D878E879F8780EC94E00E94471999
:1033200081E0E1CF4C855D856E857F8580EC94E002
:103330000E9442196E8970E07595679580EC94E063
:103340000E94BB1581E0CFCF80EC94E00E948814EE
:1033500081E0C9CF0F931F93CF93DF93EC018B01D3
:10336000888199810E9447196A81888199810E9488
:103370008C14888199810E94881481110DC061E0AC
:10338000CE010E9417191D830C8390E080E0DF912D
:10339000CF911F910F9108958FEF9FEFF8CFFC0110
:1033A0001382128288EE93E0A0E0B0E084839583DC
:1033B000A683B78382E291E0918380830895019789
:1033C00009F008956F3F7F4FE1F780EC94E00E9491
:1033D000CF19F7CFFB01849108959FEB980F96309A
:1033E00010F4875308959FE9980F963010F487558D
:1033F000089580538A3008F08FEF0895FF920F935D
:103400001F93CF93DF938C01EB01188219821A82EC
:103410001B82F12CF801EF0DF11D80810E94ED1946
:10342000282F8F3F39F48F2DDF91CF911F910F916E
:10343000FF90089588819981AA81BB8134E0880F2B
:10344000991FAA1FBB1F3A95D1F7820F911DA11D8D
:10345000B11D88839983AA83BB83F394DBCFAC012E
:1034600090E080E012C0E92FF0E0EE0FFF1FEA0FBE
:10347000FB1F65817681220F331FA20FB31F1696A3
:103480007C936E9315978F5F9F5FA0910404B0911A
:10349000050458966C9158979617B8F4282F30E089
:1034A000F901EE0FFF1FEA0FFB1F0580F681E02DEB
:1034B000E417F507C1F69F5F9617A8F2220F331F96
:1034C000FD01E20FF31F16821582891778F45896D2
:1034D0009C915897915058969C935897E82FF0E0FC
:1034E000EE0FFF1FEA0FFB1F1682158258968C9174
:1034F0005897811102C057961C9208959091C00070
:1035000095FFFCCF8093C60008950F931F93CF9330
:10351000DF938C01D62F84E20E947E1AC0E0D15046
:10352000B0F483E20E947E1A8C2F82958F708A30CD
:10353000B8F0895A0E947E1ACF70CA3098F0C95AE2
:103540008C2FDF91CF911F910F910C947E1AF8016F
:1035500080810E947E1AF80181918F01C80FDFCF10
:10356000805DE8CFC05DECCFCF93DF93E0910404A2
:10357000F091050483819481B0E0A0E0880F991F49
:10358000AA1FBB1F4FED53E0BF01EA012991AE0115
:10359000322F32953F703A3008F4D8C0395AEB01D7
:1035A000398F2F702A300CF4D3C0295AEB012A8F9F
:1035B0006E5F7F4FD3E04F3F5D0739F72091FF03E8
:1035C000322F32953F703A3008F4C4C0395AEF01B7
:1035D000C75ADF4F38832F702A3008F4BDC0295AEC
:1035E000EF01C65ADF4F288321813281B901C4E03F
:1035F00076956795CA95E1F7462F4F706F707727DC
:103600006A30710508F4AAC0495AEF01C55ADF4F64
:103610004883422F4F70B9016F7077276A30710568
:1036200008F49EC0495AEF01C45ADF4F4883A901EC
:10363000452F552742954F704A30510508F492C0E6
:10364000495AEF01C35ADF4F4883232F3327422FB4
:103650004F702F7033272A30310508F485C0495A3E
:10366000EF01C25ADF4F4883AC01BD01C4E076953B
:10367000679557954795CA95D1F7242F2F704F70AE
:103680005527662777274A3051056105710508F4EB
:103690006DC0295AEF01C15ADF4F2883282F2F70A0
:1036A000AC01BD014F705527662777274A30510579
:1036B0006105710508F45CC0295AEF01C05ADF4F5B
:1036C0002883AC01BD013CE07695679557954795F9
:1036D0003A95D1F7242F2F704F70552766277727FB
:1036E0004A3051056105710508F444C0295AEF01BB
:1036F000CF59DF4F2883492F5A2F6B2F7727242F3D
:103700002F704F705527662777274A30510561057E
:10371000710590F1295AEF01CE59DF4F2883219688
:1037200020E32883219680E38A0F8883DF01AB5949
:10373000BF4F2C9311962C9354968EE48C936EE489
:10374000CF014996DF91CF910C94851A305D27CF38
:10375000205D2CCF305D3BCF205D42CF405D55CF0B
:10376000405D61CF405D6DCF405D7ACF205D92CFEF
:10377000205DA3CF205DBBCF205DCDCF8091C00069
:103780008823E4F78091C600089582E08093C0000A
:10379000E1ECF0E088E1808386E08093C200109243
:1037A000C50080E18093C400808180688083089593
:1037B000CF93DF93019719F0DF91CF9108956F3F79
:1037C0007F4FD1F7CFE8D2E01B821A8280E191E0EF
:1037D0009983888383ED98E090930F0380930E0381
:1037E000109210031092110383E992E00E94E00806
:1037F00084E091E0998388832EEB30E14AE559E13A
:1038000068E171E083E992E00E94000F2FEF4FEF33
:103810006FEF83E992E00E94B91021E041E06FE090
:1038200070E085E592E00E94970584E592E00E94B1
:10383000210460EC74E08EE492E00E945B11BCCF46
:10384000CF93DF93CDB7DEB72C970FB6F894DEBFDA
:103850000FBECDBF64E68EE492E00E94B71661E031
:103860008EE492E00E94E9166CE271E080E090E064
:103870000E94E90370E060E08EE492E00E94A718E5
:103880006EE472E0CE0101960E94C8178CE0FE0142
:103890003196A0E4B2E001900D928A95E1F761E0E3
:1038A00070E08EE492E00E94A7186EE472E0CE0110
:1038B00001960E9498178CE0FE013196A4E3B2E0D5
:1038C00001900D928A95E1F76CE271E080E090E062
:1038D0000E94E90360E08EE492E00E94E9162C96D3
:1038E0000FB6F894DEBF0FBECDBFDF91CF91089524
:1038F00085E592E00E9471056AE070E080E090E06A
:103900000E94E9030895CF92DF92EF92FF920F9306
:103910001F93CF93DF937C01DB01EA0110E000E00D
:10392000209799F0F70180819181FC0120813181FC
:103930006D01FFEFCF1ADF0A6C91C701F9010995FC
:10394000080F191F2197D601EBCFC801DF91CF9146
:103950001F910F91FF90EF90DF90CF900895CF933C
:10396000DF93EC01FC01E158FF4F0190F081E02D65
:10397000049609958E3F2FEF920728F081E090E0A2
:10398000DF91CF910895FE01EE57FF4F40813197AF
:1039900060819C01CE0104960E94280EFE01E15A2E
:1039A000FF4F9081913089F050F09230A1F0933028
:1039B00029F7CE57DF4F9881981B9883DFCFCF57D9
:1039C000DF4F9881890F8883D9CFCE57DF4F9881F9
:1039D000890F8883D3CFCF57DF4F9881981B988367
:1039E000CDCF089590E080E00895DF92EF92FF92AE
:1039F0000F931F93CF93DF93CDB7DEB7A1970FB689
:103A0000F894DEBF0FBECDBF7C01CB01BA01D22E30
:103A100019A221E02D1520F48E010F5D1F4F0EC05D
:103A20000F2EFAE0DF2EF02DF7CFE95CD801EE93F0
:103A30008D01611571058105910579F02D2D30E01D
:103A400050E040E00E94E928E62F622F732F842F78
:103A5000952FEA3054F7E05DE9CF1097F9F0FD01BA
:103A600001900020E9F73197AF014A1B5B0BD701AA
:103A7000ED91FC910280F381E02DB801C701099519
:103A8000A1960FB6F894DEBF0FBECDBFDF91CF91E8
:103A90001F910F91FF90EF90DF90089590E080E0EC
:103AA000EFCF2115310549F4DC01ED91FC91019036
:103AB000F081E02D642F099508950E94F51C08956A
:103AC0009A01AB0170E060E00E94511D08956115FC
:103AD000710581F0FB0101900020E9F73197AF01FA
:103AE000461B570BDC01ED91FC910280F381E02D28
:103AF0000995089590E080E00895FC01A081B181CE
:103B000050964C9182AD489FA0011124440F551F3F
:103B1000440F551F440F551F70E060E080AD91AD1C
:103B20000E94342908951F93CF93DF93EC010E94E4
:103B30001C108BAD1AAD180FE881F9818189181717
:103B400078F4FE01E658FF4F808181110EC0612F8D
:103B5000CE010E94ED0F81E0DF91CF911F9108957A
:103B6000CE010E94280680E0F7CFCE010E947D1D85
:103B7000EECFCF93DF93EC01FC01E658FF4F80813D
:103B8000811107C060E0CE010E94ED0FDF91CF915F
:103B90000895CE010E947D1DF5CFCF93DF93EC01F8
:103BA0000E94B91DCE010E94931D8111FBCF60E0E0
:103BB000CE010E94ED0FDF91CF9108957F928F92F9
:103BC0009F92AF92BF92CF92DF92EF92FF920F93AC
:103BD0001F93CF93DF9368E670E083E992E00E9441
:103BE000E90E60E083E992E00E94650B83E992E0D0
:103BF0000E94B91DE12C00E420E840E060E083E988
:103C000092E00E94401020E440E060E483E992E00A
:103C10000E94FA0A00E113E06894FF24F1F8F80129
:103C2000F082C1E1D3E00F2EFCE07F2EF02D7882F0
:103C300065E971E08FE892E00E94671D0F2EF6E1C2
:103C4000EF2EF02DF801E08278820F2EF0E4CF2ED7
:103C5000F2E0DF2EF02DF601608171814AE050E044
:103C60008FE892E00E94601DF801F0820F2EF8E1CB
:103C70008F2EF02D888269E971E08FE892E00E9432
:103C8000671DF801E0828882F601628173814AE053
:103C900050E08FE892E00E94601DF801F0820F2E44
:103CA000F4E29F2EF02D98826DE971E08FE892E0AA
:103CB0000E94671DF801E0829882F6016481758197
:103CC0004AE050E08FE892E00E94601DF801F08227
:103CD0000F2EF0E3BF2EF02DB88261EA71E08FE87D
:103CE00092E00E94671DF801E082B882F6016681C9
:103CF00077814AE050E08FE892E00E94601DF80171
:103D0000F0820F2EFCE3CF2EF02DC88265EA71E021
:103D10008FE892E00E94671D8AE1F8018083C882E3
:103D20000F2EF4E3EF2EF2E0FF2EF02DF701608569
:103D300071854AE050E08FE892E00E94601D0F2EEE
:103D4000F2E4DF2EF02DF801D08278826AEA71E089
:103D50008FE892E00E94671D0F2EF6E5AF2EF02D42
:103D6000F801A0827882F701608171814AE050E019
:103D70008FE892E00E94601DF801D08288826EEA8E
:103D800071E08FE892E00E94671DF801A0828882AE
:103D9000F701628173814AE050E08FE892E00E946F
:103DA000601DF801D082988262EB71E08FE892E0AA
:103DB0000E94671DF801A0829882F70164817581D5
:103DC0004AE050E08FE892E00E94601DF801D08246
:103DD000B88266EB71E08FE892E00E94671DF801FF
:103DE000A082B882F701668177814AE050E08FE8CF
:103DF00092E00E94601DF801D082C8826AEB71E0F7
:103E00008FE892E00E94671D8AE5F8018083C882EE
:103E1000F701628573854AE050E08FE892E00E94E6
:103E2000601D83E992E00E94931D8111E3CE68EE4C
:103E300073E080E090E00E94E903DF91CF911F9151
:103E40000F91FF90EF90DF90CF90BF90AF909F9039
:103E50008F907F90089561E080E020914C02309136
:103E60004D02232B09F060E060934C0280934D02D9
:103E70008DE00E94FD020E94201C0E94DE1D08951C
:103E8000CF93DF93E2E1F3E0F0930504E0930404C1
:103E900012821182108E10928C03108210928D0368
:103EA000A7E1B3E082E1ED0119928A95E9F7178A5B
:103EB0000E94C51BDF91CF9108950E94401F83E9A6
:103EC00092E00E943C0683E992E00E94CD1D60E0F2
:103ED00083E992E00E9432066BE27FE185E592E0A1
:103EE0000E94890561E08DE00E94300370E060E08F
:103EF0008EE492E00E94AA19892B39F168E670E0FD
:103F000083E992E00E94E90E60E083E992E00E947A
:103F1000650B83E992E00E94B91D109210038CE0BA
:103F2000809311036FEB71E08FE892E00E94671DB0
:103F300083E992E00E94931D8111EFCF68EE73E058
:103F400080E090E00E94E903D1CF68E670E083E969
:103F500092E00E94E90E60E083E992E00E94650B26
:103F600083E992E00E94B91D109210038CE08093C7
:103F7000110362ED71E08FE892E00E94671D83E912
:103F800092E00E94931D8111EFCF60ED77E080E019
:103F900090E00E94E903089585ED8093BC00409174
:103FA0004D0450914E0460914F0470915004495F4C
:103FB0005F4F6F4F7F4F689412F8769567955795CE
:103FC00047951694D1F78091BC0084FF1FC0809163
:103FD0004D0490914E04A0914F04B0915004892B50
:103FE0008A2B8B2B81F3411551056105710549F031
:103FF00085E38A95F1F70000415051096109710983
:10400000E2CF80914C040E94E511089510929A0429
:104010000895CF92DF92EF92FF92CF93C82F8091B5
:10402000040490910504FC01C380D480F12CE12CA0
:10403000CC0CDD1CEE1CFF1C46E250E06CE674E08C
:1040400049960E94D328E0910404F0910504DF0111
:10405000A658BF4F86E28C938C2F82958F708A3042
:1040600008F4ABC0895A828F8C2F8F708A3008F485
:10407000A6C0895A838F8091FF03982F92959F70D5
:104080009A3008F49EC0995A978F8F708A3008F43E
:104090009AC0895A80A381819281AC0164E05695CF
:1040A00047956A95E1F7242F2F704F7055274A30B6
:1040B000510508F48AC0295A25A3282F2F70AC0176
:1040C0004F7055274A30510508F481C0295A26A35C
:1040D0009C01232F332722952F702A30310508F4B5
:1040E00078C0295A27A3892F9927282F2F708F70DE
:1040F00099270A9708F46FC0295A20A7B701A6018B
:1041000024E076956795579547952A95D1F7842FA2
:104110008F704F705527662777274A305105610504
:10412000710508F45AC0895A85A78C2D8F70B70184
:10413000A6014F705527662777274A30510561053C
:10414000710508F44CC0895A86A7B701A6019CE006
:1041500076956795579547959A95D1F7842F8F70E7
:104160004F705527662777274A305105610571053D
:10417000C0F1895A87A777276F2D5E2D4D2D842F8B
:104180008F704F705527662777274A305105610594
:10419000710548F1895A80AB80E381AB90E39E0DB5
:1041A00092AB83AB84AB66E2CF014996CF91FF908F
:1041B000EF90DF90CF900C94851A805D54CF805D96
:1041C00059CF905D61CF805D65CF205D75CF205D5B
:1041D0007ECF205D87CF205D90CF805DA5CF805DB5
:1041E000B3CF805DC7CF805DD6CF0F931F93CF93A2
:1041F000DF93FC0101900020E9F73197E81BF90BF0
:10420000C0910404D09105048E0106581F4FED356E
:1042100098F4D801EC936996D8014C9150E0BC0118
:10422000CE010E942B29F8016081CE01DF91CF9150
:104230001F910F910C94851A2CE5F8012083EBCF88
:10424000AF92BF92CF92DF92EF92FF920F931F93A4
:10425000CF93DF93CDB7DEB728970FB6F894DEBFC4
:104260000FBECDBF6C01BE016F5F7F4F0E94FE1974
:10427000C80ED11CBE016B5F7F4FC60101960E9424
:10428000FE1909811A812B813C81B901A8014427BB
:10429000552777274115510560487105C1F578010B
:1042A00089010027E982FA820B831C83082F10E022
:1042B0000E5F1F4F0C0D1D1DD12C8D2D90E0B0E019
:1042C000A0E04D815E816F81788584179507A607F0
:1042D000B70728F08CEE91E00E94F5201CC0F80191
:1042E00080810E94ED195701AD0CB11CC82EC294FB
:1042F00080EFC822F501C082F80181810E94ED198A
:104300008C29F5018083D3940E5F1F4FD6CF88EEA2
:1043100091E00E94F52028960FB6F894DEBF0FBEFC
:10432000CDBFDF91CF911F910F91FF90EF90DF9064
:10433000CF90BF90AF900895CF92DF92EF92FF920F
:104340000F931F93CF93DF93CDB7DEB728970FB6A8
:10435000F894DEBF0FBECDBF8C01BE016F5F7F4FF3
:104360000E94FE1990E00196BE016B5F7F4F800FA7
:10437000911F0E94FE1989819A81AB81BC81AC0199
:10438000BD014427552777274115510520E86207CD
:10439000710509F042C0AA2789839A83AB83BC8345
:1043A0009C01CD80DE80EF80F884609104047091E0
:1043B000050440E0842F90E0B0E0A0E08C159D055E
:1043C000AE05BF0570F080910404909105046D81E5
:1043D000660FFC01E658FF4F608349960E94851ADC
:1043E00060C0E42FF0E0D901AE0FBF1F8C91982F71
:1043F00092959F709A3068F0995AEE0FFF1FE60F62
:10440000F71F918F8F708A3030F0895A828F4F5FFB
:10441000D1CF905DF2CF805DF9CF452B462B472B56
:10442000E1F5AA2789839A83AB83BC8310E0812FAF
:1044300090E0B0E0A0E0CD80DE80EF80F8848C15C5
:104440009D05AE05BF0508F0BECFC980DA80EB80C0
:10445000FC80BC01CD016C0D7D1D8E1D9F1D0E9439
:10446000EA19982F92959F709A3098F0995AE09196
:104470000404F0910504212F30E0220F331FE20FD6
:10448000F31F918F8F708A3030F0895A828F1F5FAF
:10449000CECF905DECCF805DF9CF88EE91E00E94A9
:1044A000F52028960FB6F894DEBF0FBECDBFDF9182
:1044B000CF911F910F91FF90EF90DF90CF900895D3
:1044C0004F925F926F927F928F929F92AF92BF9224
:1044D000DF92EF92FF920F931F93CF93DF93EC0144
:1044E0008C015C0120E4A20EB11CF80180810E94C5
:1044F000ED19F82EF80181810E94ED19F294A0EFD8
:10450000FA22F82AF092DF030E5F1F4FA016B106C1
:1045100061F7F50180810E94ED19182F1295107F27
:10452000FE01EF5BFF4F80810E94ED19812B80938C
:10453000FF03FE01EE5BFF4F80810E94ED190091A9
:10454000040410910504F0E18F9F50011124F8013B
:10455000B282A182FE01ED5BFF4F80810E94ED19C6
:10456000A82AF801B282A182FE01EC5BFF4F808194
:104570000E94ED19E82EF12CFE2CEE24F29480EF2F
:10458000F822EA28FB28F801F282E182FE01EB5BC7
:10459000FF4F80810E94ED1990E0982F8827E82A2C
:1045A000F92AF801F282E182FE01EA5BFF4F808185
:1045B0000E94ED19D82EFE01E95BFF4F80810E9419
:1045C000ED19782EFE01E85BFF4F80810E94ED1906
:1045D000E82EFE01E75BFF4F80810E94ED19F82E67
:1045E000FE01E65BFF4F80810E94ED19882EFE01DF
:1045F000E55BFF4F80810E94ED19912CB12CA12C1D
:1046000034E1880C991CAA1CBB1C3A95D1F790E0A8
:10461000B0E0A0E0DC019927882788299929AA29F8
:10462000BB299C01AD01272929013A01FE01E45B68
:10463000FF4F80810E94ED1990E0B0E0A0E05CE1C6
:10464000880F991FAA1FBB1F5A95D1F7482A592ACC
:104650006A2A7B2AC35BDF4F88810E94ED1990E0B4
:10466000B0E0A0E0B82FAA279927882784299529A8
:10467000A629B72930E1D39EA0011124052E000CF4
:10468000660B770B842B952BA62BB72B4E2D50E06A
:10469000542F44275295507F052E000C660B770B44
:1046A000842B952BA62BB72B2F2D30E0322F2227D2
:1046B000A901330F660B770B842B952BA62BB72BF9
:1046C000B695A79597958795F801948383838CEE8B
:1046D00091E0DF91CF911F910F91FF90EF90DF90CC
:1046E000BF90AF909F908F907F906F905F904F9012
:1046F0000C94F520EF92FF920F931F93CF93DF93CB
:10470000CDB7DEB728970FB6F894DEBF0FBECDBF8A
:104710008C01BE016F5F7F4F03960E94FE1990E0EF
:104720000496BE016B5F7F4F800F911F0E94FE19A0
:10473000F8018181803309F04BC089819A81AB8176
:10474000BC81B695A795979587957C0120812A35E0
:10475000E1F52091040430910504F901508DB9016F
:104760006B5F7F4F452F411113C05830D0F08FEE53
:1047700091E00E94F52028960FB6F894DEBF0FBE98
:10478000CDBFDF91CF911F910F91FF90EF900895D2
:10479000FB0101911191BF010E151F0589F04150D8
:1047A000E2CF41E0450FF901408FE52FF0E0EE0F39
:1047B000FF1FE20FF31F9683858381E0F901878B4A
:1047C0008CEE91E00E94F520D6CF0E942F1AF8CFF0
:1047D00087EE91E00E94F520CECF3F924F925F92FC
:1047E0006F927F928F929F92AF92BF92CF92DF9201
:1047F000EF92FF920F931F93CF93DF93CDB7DEB766
:104800002A970FB6F894DEBF0FBECDBFE091040427
:10481000F0910504108281E694E04C01B12CA12CAA
:104820008EE594E06C01F12CE12C81E594E02C0103
:10483000712C612C84E494E09C0150E040E02983D9
:104840003A834B835C8383E394E09C0150E040E037
:104850002D833E834F8358870E94BE1B40910404E2
:10486000509105045A8749878432C9F040F4833057
:1048700009F445C187EE91E00E94F520EDCF8B321F
:1048800009F434C18D32B1F7E985FA85E658FF4F56
:10489000608189859A8549960E94851ADDCF0985B0
:1048A0001A8506581F4FD8011C920E94BE1B312C3E
:1048B000F8019081E985FA85E90FF11D833299F4B9
:1048C000118E0E94BE1B0E94ED19182F1295107FA9
:1048D0000E94BE1B0E94ED19812B381661F08DE2FB
:1048E0000E947E1AB9CF9F5FD8019C93818F380EAA
:1048F0000E94BE1BDDCF8BE20E947E1A09851A85BD
:10490000075E1F4FA985BA8559968C918A3509F49F
:104910009EC008F055C0873409F482C008F043C037
:104920008F3309F475C0843409F0A4CF8CEE91E084
:104930000E94F52081E0E985FA85E558FF4F8083E4
:10494000A985BA858C91811105C057968C918823D1
:1049500009F4C8C0809169008C7F809369008AB196
:1049600084608AB98CB381608CBB8DB381608DBB50
:104970008BB18B7F8BB92A960FB6F894DEBF0FBE32
:10498000CDBFDF91CF911F910F91FF90EF90DF90FE
:10499000CF90BF90AF909F908F907F906F905F90DF
:1049A0004F903F9008958D3409F446C0843519F036
:1049B000883409F05FCF8CEE91E00E94F5204CCF57
:1049C0008D36A1F178F4873641F18B3609F4AECFFC
:1049D000833609F04FCF81E0E985FA85E558FF4F2E
:1049E0008083AECF833771F18A3789F1813709F03F
:1049F00041CF2AE030E0B501A401C8010E94DC28C3
:104A0000892B49F56DE087EF91E00E94851A24CF4C
:104A100083EF91E00E94F5201FCF0E94B41A1CCFB3
:104A200089859A854A960E94602216CF89859A8543
:104A30004A960E949C2110CF89859A854A960E94A9
:104A400020210ACF81E0E985FA85808379CFC801EA
:104A50000E947A2301CF22E030E0B701A601C8010D
:104A60000E94DC28892B29F485E092E00E94F52041
:104A7000F3CE2CE030E0B301A201C8010E94DC2893
:104A8000892B29F48AE092E00E94F520E5CE2CE003
:104A900030E049815A816B817C81C8010E94DC2809
:104AA000892B29F48DE092E00E94F520D5CE20E1FB
:104AB00030E04D815E816F817885C8010E94DC28DD
:104AC000892B09F0D7CE8CEE91E00E94F52088E189
:104AD00098E00FB6F894A895809360000FBE90936D
:104AE0006000FFCF8DB38E7F8DBB45CFE985FA8502
:104AF000E558FF4F8081882309F4AECE3CCF29854D
:104B00003A8525583F4FD9011C9282E00E94092026
:104B1000A3CE6FEF7FEF81E090E00E94DF196FEF8F
:104B20007FEF81E090E00E94D81B08951F920F92C2
:104B30000FB60F9211240F931F932F933F934F9310
:104B40005F936F937F938F939F93AF93BF930091E6
:104B50004E0510914F0520915005309151059091CF
:104B60004D05B901A8014F5F5F4F6F4F7F4F83E045
:104B7000890F8D3740F086E8890FB901A8014E5F93
:104B80005F4F6F4F7F4F80934D0540934E0550937D
:104B90004F05609350057093510580915205909197
:104BA0005305A0915405B09155050196A11DB11D65
:104BB0008093520590935305A0935405B0935505E7
:104BC000BF91AF919F918F917F916F915F914F9125
:104BD0003F912F911F910F910F900FBE0F901F903B
:104BE00018950E946F030E945D1F0E94781C80E050
:104BF00090E0892BD1F30E940000F7CF1F920F9213
:104C00000FB60F9211242F933F934F935F936F939F
:104C10007F938F939F93AF93BF93EF93FF93E09115
:104C2000B900E87FE93C08F0D5C0F0E0E65EF94D58
:104C30000C940B29DF27EA26EA26EA26EA26EA264A
:104C4000EA26EA26E326EA26EA26EA26EA26EA26EB
:104C5000EA26EA26E326EA26EA26EA26EA26EA26DB
:104C6000EA26EA26FB26EA26EA26EA26EA26EA26B3
:104C7000EA26EA262127EA26EA26EA26EA26EA267C
:104C8000EA26EA26FB26EA26EA26EA26EA26EA2693
:104C9000EA26EA262727EA26EA26EA26EA26EA2656
:104CA000EA26EA262D27EA26EA26EA26EA26EA2640
:104CB000EA26EA263F27EA26EA26EA26EA26EA261E
:104CC000EA26EA266927EA26EA26EA26EA26EA26E4
:104CD000EA26EA263327EA26EA26EA26EA26EA260A
:104CE000EA26EA264D27EA26EA26EA26EA26EA26E0
:104CF000EA26EA266C27EA26EA26EA26EA26EA26B1
:104D0000EA26EA266C27EA26EA26EA26EA26EA26A0
:104D1000EA26EA266C27EA26EA26EA26EA26EA2690
:104D2000EA26EA266C27EA26EA26EA26EA26EA2680
:104D3000EA26EA267527EA26EA26EA26EA26EA2667
:104D4000EA26EA26A627EA26EA26EA26EA26EA2626
:104D5000EA26EA267527EA26EA26EA26EA26EA2647
:104D6000EA26EA26A627EA26EA26EA26EA26EA2606
:104D7000EA26EA268D27EA26EA26EA26EA26EA260F
:104D8000EA26EA26AA27EA26EA26EA26EA26EA26E2
:104D9000EA26EA26AA27EA26EA26EA26EA26EA26D2
:104DA000EA26EA26BF27EA26EA26EA26EA26EA26AD
:104DB000EA26EA26D927EA26EA26EA26EA26EA2683
:104DC000EA26EA26D9278091BF048093BB0081E0C0
:104DD0000E946711FF91EF91BF91AF919F918F91C9
:104DE0007F916F915F914F913F912F910F900FBEE7
:104DF0000F901F9018959091BE048091BD04981754
:104E000068F080919C04811119C081E080939B041B
:104E100084EA8093BC0010929A04DCCFE091BE0437
:104E200081E08E0F8093BE04F0E0E356FB4F80815B
:104E30008093BB0081E00E946711CCCF0E94CC1F01
:104E4000C9CF80E2809399040E94CC1FC3CF80E336
:104E5000809399040E94CC1FBDCF88E3809399046E
:104E60000E946111B7CFE091BE0481E08E0F809364
:104E7000BE04F0E08091BB00E356FB4F808390912D
:104E8000BE048091BD04981720F481E00E94671150
:104E9000A1CF80E00E9467119DCFE091BE0481E028
:104EA0008E0F8093BE04F0E08091BB00E356FB4F71
:104EB000808380919C04811109C081E080939B04D0
:104EC00084EA8093BC0010929A0484CF0E94CC1F85
:104ED00081CF0E94CC1F7ECF83E080939A041092F2
:104EE000980481E00E94671175CF80919804803208
:104EF00080F4E091980481E08E0F80939804F0E0B4
:104F00008091BB00E858FB4F808381E00E946711CD
:104F100061CF80E00E9467115DCF0E946111809196
:104F20009804803230F4E0919804F0E0E858FB4FA8
:104F300010826091980470E0E0917604F09177041B
:104F400088E794E009951092980444CF80E00E948D
:104F5000671140CF84E080939A04109275041092F8
:104F60007404E0917204F0917304099580917404C3
:104F7000811105C081E08093740410925204E09185
:104F8000750481E08E0F80937504F0E0EE5AFB4FBC
:104F900080818093BB009091750480917404981770
:104FA00020F481E00E94671115CF80E00E94671114
:104FB00011CF81E00E94671110929A040BCF1092DA
:104FC00099040E94CC1F06CF0F920FB6F89400925E
:104FD000FF030F90F093FE03E093FD03F3E0EFED8A
:104FE000D58FC48FD0E0C0E0B38FB991B193CB31EE
:104FF000E1F7BF91AF91A087B187ADB7BEB7A683E8
:10500000B78311248EED93E09EBF8DBFEFEDF3E0EB
:1050100084A18F7384A3A0910404B091050483A19B
:1050200094A114969C938E93139781A192A11296AA
:105030009C938E9311978C9181113EC057968C91C1
:105040005797882309F444C08091C0008823A4F4B2
:105050000E94BE1B80938E03833071F4E0910404A0
:10506000F0910504E558FF4F108282E00E9409206C
:105070008DB38E7F8DBB2CC010928E0311C0E82F94
:10508000F0E0EE0FFF1FEA0FFB1F458156811396DC
:105090002D913C914217530779F08F5F80938E03D7
:1050A000A0910404B091050458969C915897809162
:1050B0008E03891720F30CC0E0910404F0910504DD
:1050C000E558FF4F108285E00E9409200E94ED23E1
:1050D000F3E0EFEDD0E0C0E0B191B993CC31E1F76E
:1050E000D581DDBFD681DEBFD781DF93D085DF9349
:1050F000C081D181E281F091FF03FFBFF091FE03F7
:1051000018950F920FB6F8940092FF030F90F0934A
:10511000FE03E093FD03F3E0EFEDD58FC48FD0E005
:10512000C0E0B38FB991B193CB31E1F7BF91AF91AB
:10513000A087B187ADB7BEB7A683B78311248EED24
:1051400093E09EBF8DBFEFEDF3E084A18F7384A346
:10515000A0910404B091050483A194A114969C939A
:105160008E93139781A192A112969C938E9311977F
:105170000E94ED23F3E0EFEDD0E0C0E0B191B993F0
:10518000CC31E1F7D581DDBFD681DEBFD781DF939A
:10519000D085DF93C081D181E281F091FF03FFBF11
:1051A000F091FE031895FB01DC0102C005900D9201
:1051B00041505040D8F70895FA01DC0104C08D91A8
:1051C0000590801921F421503040C8F7881B990BB5
:1051D0000895A1E21A2EAA1BBB1BFD010DC0AA1F38
:1051E000BB1FEE1FFF1FA217B307E407F50720F050
:1051F000A21BB30BE40BF50B661F771F881F991FCB
:105200001A9469F760957095809590959B01AC0113
:10521000BD01CF010895EE0FFF1F0590F491E02D21
:1052200009940E941C29A59F900DB49F900DA49FE6
:10523000800D911D11240895A29FB001B39FC0015C
:10524000A39F700D811D1124911DB29F700D811DB2
:105250001124911D0895FB01DC0102C001900D9203
:1052600041505040D8F70895DC0101C06D93415082
:0A5270005040E0F70895F894FFCFD6
:10527A0000000000AF1C831CF21CF11C000000009F
:10528A00AF1C831CF21CF11C2609240A440A0000E4
:10529A00000044141414F21CE9130D14F913EA1350
:1052AA001815A015C019FF1815A115C819FF18154A
:1052BA00AE19FF1815AF19FF0001140A64643232DF
:1052CA0000093D00030428961008020280004000ED
:1052DA001815AE15D5168015A8163F15D316001544
:1052EA0040158D16141520160015A115C815DA16C5
:1052FA0012158116CF15D916F115DB1640152E1584
:10530A00A415A619FF46313A0046323A0046333A06
:10531A000046343A00434C523A0046353A00463683
:10532A003A0046373A0046383A004E49523A004166
:10533A00533734333120496E6974696E67202E2ED3
:10534A002E00526561647920666F72206D65617303
:10535A00757265696E672000453035004F4B004510
:10536A00353000533035005061636B657453697A88
:10537A00653D36300051433031006D31006C00001C
:00000001FF
