:100000000C9445020C9485220C946D020C946D02A4
:100010000C946D020C946D020C946D020C946D02A4
:100020000C946D020C946D020C946D020C946D0294
:100030000C946D020C946D020C946D020C946D0284
:100040000C941D220C946D020C9422230C946D02CE
:100050000C946D020C946D020C946D020C946D0264
:100060000C9474230C946D0200407A10F35A00A093
:10007000724E18090010A5D4E80000E87648170071
:1000800000E40B54020000CA9A3B000000E1F505B1
:10009000000080969800000040420F000000A086FB
:1000A00001000000102700000000E803000000002D
:1000B0006400000000000A000000000001000000D1
:1000C00000002C76D888DC674F0823DFC1DFAE59EB
:1000D000E1B1B796E5E3E453C63AE651997696E87E
:1000E000E6C28426EB898C9B62ED407C6FFCEFBC02
:1000F0009C9F40F2BAA56FA5F490055A2AF75C932D
:100100006B6CF9676DC11BFCE0E40D47FEF520E662
:10011000B500D0ED902E0300943577050080841E45
:10012000080000204E0A000000C80C333333330FA0
:10013000986E12831141EF8D2114893BE65516CF3D
:10014000FEE6DB18D1844B381BF77C1D901DA4BB49
:10015000E424203284725E228100C9F124ECA1E5FE
:100160003D270000000000000000002F00000000FC
:100170000700070000147F147F1400242A7F2A122E
:10018000006264081323003649552250000005031D
:10019000000000001C224100000041221C0000144D
:1001A000083E08140008083E0808000000A060008F
:1001B000000808080808000060600000002010081F
:1001C0000402003E5149453E0000427F400000428B
:1001D00061514946002141454B31001814127F10EE
:1001E000002745454539003C4A494930000171091D
:1001F000050300364949493600064949291E0000D1
:100200003636000000005636000000081422410077
:1002100000141414141400004122140800020151A7
:10022000090600324959513E007C1211127C007FB0
:1002300049494936003E41414122007F4141221C4B
:10024000007F49494941007F09090901003E4149B0
:10025000497A007F0808087F0000417F41000020A4
:1002600040413F01007F08142241007F4040404050
:10027000007F020C027F007F0408107F003E414196
:10028000413E007F09090906003E4151215E007F81
:10029000091929460046494949310001017F0101F8
:1002A000003F4040403F001F2040201F003F40389B
:1002B000403F0063140814630007087008070061DA
:1002C0005149454300007F414100020408102000CD
:1002D000000041417F000004020102040040404050
:1002E0004040000001020400002054545478007F74
:1002F0004844443800384444442000384444487F4B
:1003000000385454541800087E0901020018A4A4AF
:10031000A47C007F080404780000447D4000004075
:1003200080847D00007F102844000000417F400051
:10033000007C04180478007C0804047800384444E5
:10034000443800FC242424180018242418FC007CC1
:100350000804040800485454542000043F4440203A
:10036000003C4040207C001C2040201C003C4030D1
:10037000403C004428102844001CA0A0A07C00445D
:1003800064544C4400000877410000000063000002
:10039000000041770800000804080804003D4040C0
:1003A000207D003D4040403D002154545479007D63
:1003B0001211127D003944444439003D4242423D0D
:1003C000000205020000007E014955737152636D01
:1003D000642C373236353733363537340071735441
:1003E0006872656164496E666F0071665468726513
:1003F0006164496E666F0071430071537570706F70
:10040000727465640054585832303A58583B32314F
:100410003A585858583B32323A5858585858585801
:10042000583B7468726561643A313B00000000001B
:10043000240027002A0000000000250028002B00CF
:100440000000000023002600290004040404040422
:100450000404020202020202030303030303010273
:100460000408102040800102040810200102040842
:100470001020000000080002010000030407000033
:1004800000000000000010225A2511241FBECFEFEB
:10049000D8E0DEBFCDBF23E0A0E8B1E001C01D92EF
:1004A000AC3AB207E1F711E0A0E0B1E0ECE3F7E528
:1004B00002C005900D92A038B107D9F712E0C4E44C
:1004C000D2E004C02197FE010E942029C334D10745
:1004D000C9F70E9478220C94912B0C940000FC0127
:1004E000608352834183138280E290E0958384830A
:1004F0000895FC0180850895FC0171836083428327
:1005000023830895EF920F93FC011786108A118AB6
:10051000128A7183608313821282E1865783468335
:10052000028720870F91EF9008958330B1F060F03B
:100530008730E9F0883009F1843021F5E0E8F0E017
:1005400080818F7D80830895813069F0823021F42D
:1005500084B58F7D84BD08950895E0E8F0E0808142
:100560008F778083089584B58F7784BD0895E0EBFD
:10057000F0E080818F7780830895E0EBF0E0808168
:100580008F7D80830895CF93DF93282F30E0F9018A
:10059000EE58FB4F8491F901E25AFB4FD491F901D7
:1005A000E65BFB4FC491CC23B1F081110EC0EC2F60
:1005B000F0E0EE0FFF1FE05CFB4FA591B491EC91D2
:1005C000ED2331F490E080E008C00E949502EFCF67
:1005D00081E090E002C090E080E0DF91CF9108954B
:1005E0001F93CF93DF93282F30E0F901EE58FB4F94
:1005F0008491F901E25AFB4F1491F901E65BFB4F3C
:10060000C491CC23A9F0D62F811116C0EC2FF0E0B5
:10061000EE0FFF1FEA5CFB4FA591B4918FB7F894E2
:10062000D1110DC09C91E12FE095E923EC938FBF90
:10063000DF91CF911F9108950E949502E7CFEC9131
:10064000E12BEC93F4CFFC0183858F3F11F00E94E6
:10065000F0020895CF93DF9390E0FC01E25AFB4F44
:100660002491865B9B4FFC018491882319F190E0D3
:10067000880F991FFC01E45DFB4FA591B491FC012B
:10068000EA5CFB4FC591D491662349F06230A9F032
:100690008FB7F894EC91E22BEC938FBF0BC09FB710
:1006A000F8948C91E22FE0958E238C938881E82337
:1006B000E8839FBFDF91CF9108959FB7F8943C9155
:1006C000822F809583238C93E881E22BE8839FBF60
:1006D000F1CF789484B5826084BD84B5816084BD97
:1006E00085B5826085BD85B5816085BDEEE6F0E0AB
:1006F000808181608083E1E8F0E010828081826007
:100700008083808181608083E0E8F0E08081816087
:100710008083E1EBF0E0808184608083E0EBF0E0B7
:10072000808181608083EAE7F0E08081846080835B
:100730008081826080838081816080838081806805
:1007400080831092C10008958230910538F0880F9F
:10075000991F880F991F05970197F1F708954F92F8
:100760005F926F927F928F929F92AF92BF92CF9241
:10077000DF92EF92FF920F931F93CF93DF93EC01E1
:100780005B014A0188819981892BE1F488859985EB
:10079000892B09F044C044244394F50180818421CD
:1007A000552453948111512C2C813D814E815F81C0
:1007B00060E271EA87E090E00E94FE28022FD12CCF
:1007C000C12CC4C0452BD1F0FB0180818EBDF1E06E
:1007D0008F1A910869F0F50191810DB407FEFDCFE4
:1007E0008EB59EBDF5018083C50101965C01EFCFFA
:1007F0000DB407FEFDCF8EB5F5018083DF91CF915B
:100800001F910F91FF90EF90DF90CF90BF90AF902E
:100810009F908F907F906F905F904F900895689415
:10082000442447F8BACF802F90E00E94A4033DC033
:10083000912F962181E009F480E02D852F3F61F012
:10084000581651F0992309F45DC0EF85F88990811D
:100850002F89922B9083582EE989FA898081998D6E
:10086000892B8083011157C08E858F3F39F0EB892A
:10087000FC898081988D892309F0712AE989FA8998
:100880009081898D8095892380838E858F3F11F09B
:10089000F701708288859985892B09F04EC0110F68
:1008A000112309F450C00111BECF8A85882309F4B1
:1008B000BFCF883009F4BCCFE989FA898081998D4E
:1008C000892B808301112CC08D858F3F49F0812FAA
:1008D000862159F1EF85F88980819F89892B808352
:1008E000E989FA899081898D8095892380838E8515
:1008F0008F3F59F2EB89FC898081988D892329F2F9
:10090000712AC3CFEF85F88920819F899095922322
:100910009083582EA1CF802F90E00E94A403A4CFF3
:10092000802F90E00E94A403CFCFEF85F8899081BB
:100930008F89809589238083D3CF812F90E09595EF
:100940008795182FADCFFFEFCF1ADF0AC814D9044F
:1009500008F054CF7501EC0CFD1CF7016080142DDC
:10096000712C9ECFCF93DF931F92CDB7DEB76983F3
:1009700041E050E0BE016F5F7F4F0E94AF0389816D
:100980000F90DF91CF9108956F927F928F929F92F7
:10099000AF92BF92CF92DF92EF920F931F93CF93BC
:1009A000DF936C014B01EA015901DC018D919C91AF
:1009B0001197892B39F01296ED91FC9190818181EC
:1009C0009CBD8DBD70E060E0C6010E942303712CC8
:1009D000612C6C167D0658F4F401E60DF71D60815C
:1009E000C6010E94B204BFEF6B1A7B0AF2CFD0E0BF
:1009F000C0E0C017D10758F445018C0E9D1E6E2D26
:100A0000C6010E94B204F40180832196F2CF61E016
:100A100070E0C6010E94230381E0DF91CF911F9116
:100A20000F91EF90DF90CF90BF90AF909F908F90FD
:100A30007F906F9008958F929F92AF92BF92CF92C6
:100A4000DF92EF92FF920F931F93CF93DF937C017E
:100A50005B016A01E901DC018D919C911197892B61
:100A600039F01296ED91FC91908181819CBD8DBDF4
:100A700070E060E0C7010E942303912C812C801656
:100A8000910658F4FE01E80DF91D6081C7010E942E
:100A9000B204BFEF8B1A9B0AF2CFD0E0C0E0CC15B6
:100AA000DD0548F4F501EC0FFD1F6081C7010E94D0
:100AB000B2042196F4CF61E070E0C7010E942303E5
:100AC00081E0DF91CF911F910F91FF90EF90DF9028
:100AD000CF90BF90AF909F908F9008953FB7F894BC
:100AE0008091A4039091A503A091A603B091A703C0
:100AF00026B5A89B05C02F3F19F00196A11DB11D79
:100B00003FBFBA2FA92F982F8827BC01CD01620FB4
:100B1000711D811D911D660F771F881F991F660F1C
:100B2000771F881F991F08952FB7F8946091A0032D
:100B30007091A1038091A2039091A3032FBF089508
:100B4000089508958F929F92AF92BF92CF92DF92B5
:100B5000EF92FF926B017C010E946E054B015C01DC
:100B60001BC021E0C21AD108E108F10888EE880E06
:100B700083E0981EA11CB11CC114D104E104F1044E
:100B800059F00E946E05681979098A099B09683E27
:100B900073408105910528F7C114D104E104F104E3
:100BA00059F7FF90EF90DF90CF90BF90AF909F905C
:100BB0008F900895DB0114964D915C9115976D917E
:100BC0007C91DC01ED91FC910280F381E02D09958F
:100BD0000895FB01849108959FEB980F963010F4CF
:100BE000875308959FE9980F963010F4875508951C
:100BF00080538A3008F08FEF0895FF920F931F9370
:100C0000CF93DF938C01EB01188219821A821B8229
:100C1000F12CF801EF0DF11D80810E94EC05282FC9
:100C20008F3F39F48F2DDF91CF911F910F91FF905E
:100C3000089588819981AA81BB8134E0880F991F2A
:100C4000AA1FBB1F3A95D1F7820F911DA11DB11D9F
:100C500088839983AA83BB83F394DBCFAC0190E0B4
:100C600080E012C0E92FF0E0EE0FFF1FEA0FFB1F3C
:100C700065817681220F331FA20FB31F16967C93D6
:100C80006E9315978F5F9F5FA0919D03B0919E0318
:100C900058966C9158979617B8F4282F30E0F901C0
:100CA000EE0FFF1FEA0FFB1F0580F681E02DE41712
:100CB000F507C1F69F5F9617A8F2220F331FFD01BB
:100CC000E20FF31F16821582891778F458969C91CB
:100CD0005897915058969C935897E82FF0E0EE0F54
:100CE000FF1FEA0FFB1F1682158258968C915897AA
:100CF000811102C057961C9208959091C00095FFF3
:100D0000FCCF8093C60008950F931F93CF93DF937A
:100D10008C01D62F84E20E947D06C0E0D150B0F451
:100D200083E20E947D068C2F82958F708A30B8F006
:100D3000895A0E947D06CF70CA3098F0C95A8C2F0C
:100D4000DF91CF911F910F910C947D06F801808166
:100D50000E947D06F80181918F01C80FDFCF805D71
:100D6000E8CFC05DECCFCF93DF93E0919D03F0918E
:100D70009E0383819481B0E0A0E0880F991FAA1F91
:100D8000BB1F48E753E0BF01EA012991AE01322FB2
:100D900032953F703A3008F4D8C0395AEB01398F98
:100DA0002F702A300CF4D3C0295AEB012A8F6E5FC2
:100DB0007F4FD3E048395D0739F720919803322FF0
:100DC00032953F703A3008F4C4C0395AEF01C75A1F
:100DD000DF4F38832F702A3008F4BDC0295AEF0145
:100DE000C65ADF4F288321813281B901C4E076954C
:100DF0006795CA95E1F7462F4F706F7077276A3075
:100E0000710508F4AAC0495AEF01C55ADF4F48835B
:100E1000422F4F70B9016F7077276A30710508F45F
:100E20009EC0495AEF01C45ADF4F4883A901452F9C
:100E3000552742954F704A30510508F492C0495ADF
:100E4000EF01C35ADF4F4883232F3327422F4F70C0
:100E50002F7033272A30310508F485C0495AEF0135
:100E6000C25ADF4F4883AC01BD01C4E07695679557
:100E700057954795CA95D1F7242F2F704F70552756
:100E8000662777274A3051056105710508F46DC062
:100E9000295AEF01C15ADF4F2883282F2F70AC0148
:100EA000BD014F705527662777274A3051056105E8
:100EB000710508F45CC0295AEF01C05ADF4F28833E
:100EC000AC01BD013CE076956795579547953A95FD
:100ED000D1F7242F2F704F705527662777274A3078
:100EE00051056105710508F444C0295AEF01CF5935
:100EF000DF4F2883492F5A2F6B2F7727242F2F70EE
:100F00004F705527662777274A30510561057105CF
:100F100090F1295AEF01CE59DF4F2883219620E323
:100F20002883219680E38A0F8883DF01AB59BF4F66
:100F30002C9311962C9354968EE48C936EE4CF01EF
:100F40004996DF91CF910C948406305D27CF205DC8
:100F50002CCF305D3BCF205D42CF405D55CF405D13
:100F600061CF405D6DCF405D7ACF205D92CF205D37
:100F7000A3CF205DBBCF205DCDCF8091C000882363
:100F8000E4F78091C600089582E08093C000E1EC10
:100F9000F0E088E1808386E08093C2001092C50073
:100FA00080E18093C4008081806880830895FC0183
:100FB000228533852130310509F008956487FDCFFE
:100FC000FC018489811102C0628B438B08950F93C9
:100FD0001F93FC018781681708F080C0908549172E
:100FE00008F07CC070E0942F969596959695989F02
:100FF000600D711D11248589811120950130110525
:1010000099F0477009F044C086859785681779077D
:1010100008F064C00088F189E02DE60FF71F2095E5
:101020008081282320835AC0477079F4868597856C
:101030006817790708F052C00088F189E02DE60FA3
:10104000F71F8081282B208349C030E002C0220F87
:10105000331F4A95E2F7868597856817790738F434
:10106000A089B189A60FB71F8C91822B8C938781A1
:10107000680F711D868597856817790778F5008850
:10108000F189E02DE60FF71F8081832B808326C036
:1010900030E002C0220F331F4A95E2F7868597851C
:1010A0006817790748F4A089B189A60FB71F8C91FA
:1010B000922F909589238C938781680F711D868567
:1010C00097856817790750F40088F189E02DE60FBD
:1010D000F71F932F90958081892380831F910F9113
:1010E00008952F923F924F925F926F927F928F92CC
:1010F0009F92AF92BF92CF92DF92EF92FF920F93A7
:101100001F93CF93DF9300D01F92CDB7DEB73C0182
:10111000B62E542E4901402E3A2CA12C14C0F401B5
:101120002081FFEF8F1A9F0A61E0E616F10499F023
:1011300061E06B0D69838601452D6B2DC3010E9413
:10114000E707B980A394A41408F053C0332039F3FF
:10115000F4012491E6CF80E01B821A8201C08F5FE8
:10116000873028F5422F50E0082E02C0559547954C
:101170000A94E2F740FFF3CF982F990FE92FF0E0A0
:1011800041E050E0BA0102C0660F771F9A95E2F77E
:10119000319602C0440F551FEA95E2F7462B572BB4
:1011A000EA81FB81E42BF52BFB83EA83D8CF860110
:1011B0002A81452D6B2DC3010E94E7072B81F8E0A2
:1011C000F50DF9834F2F6B2DC3010E94E7072224F1
:1011D00023942B0C2A81452D622DC3010E94E70721
:1011E0002B814981622DC3010E94E707B394B39418
:1011F000A9CF0F900F900F90DF91CF911F910F917A
:10120000FF90EF90DF90CF90BF90AF909F908F9026
:101210007F906F905F904F903F902F900895AF9286
:10122000CF92DF92EF92FF920F931F93FC013781D1
:10123000631708F08CC03085431708F092C0203245
:101240000CF492C0E0E5E20FED3408F061C0F0E08C
:10125000E45DF64F0C9420298309880988098809E0
:1012600088098809880988098809880988098809F6
:1012700088098809880988098809880988098809E6
:101280007D098809880988098809880988098809E1
:1012900088098809880988098809880988098809C6
:1012A00088098809810988098809880988098809BD
:1012B00079098809880985098809880988098809B8
:1012C0007B098809880988098809880988098809A3
:1012D0008809880988098809880988098809880986
:1012E000880988097F09880988098809880988097F
:1012F000870920E80DC021E80BC022E809C023E8D7
:1013000007C024E805C025E803C026E801C02FE790
:10131000022E000C330B20523109F901EE0FFF1F92
:101320002E0F3F1F220F331F2A36F2E03F0718F01F
:1013300090E080E00EC02E593E4FAA24A39467018E
:10134000780106E00E94710881E090E002C090E020
:1013500080E01F910F91FF90EF90DF90CF90AF90C2
:10136000089590E080E0F5CF90E080E0F2CFEF923A
:10137000FF920F931F93CF93DF93EC01262FEE2460
:10138000E394F12C10E000E04B896A890E940F0978
:101390002A892A5F2A8BDF91CF911F910F91FF90AD
:1013A000EF9008950F931F93CF93DF93EC01062FD7
:1013B00017E02BC060E08C810E942A0361E08C81E1
:1013C0000E94F00281E090E00E94A40360E08D8121
:1013D0000E942A0361E08D810E94F00281E090E08A
:1013E0000E94A4038D810E94C302892BD9F360E07F
:1013F0008D810E94F00261E08D810E942A0381E0CC
:1014000090E00E94A403000F115011235CF0002310
:101410008CF260E08C810E94F00261E08C810E947D
:101420002A03D0CF60E08C810E942A0361E08C8186
:101430000E94F00260E08D810E942A0361E08D81AC
:101440000E94F00281E090E00E94A4038D810E943E
:10145000C302892BD9F38C810E94C30211E0892B2E
:1014600009F010E060E08D810E94F00261E08D8162
:101470000E942A0381E090E00E94A403812FDF9163
:10148000CF911F910F910895CF93DF93EC0160E00E
:101490008D810E942A0361E08D810E94F00281E02B
:1014A00090E00E94A40360E08C810E942A0361E026
:1014B0008C810E94F00281E090E00E94A4038C8164
:1014C0000E94C302892BD9F38D810E94C302892B0C
:1014D000B1F3DF91CF910895CF93DF93EC018C812D
:1014E0000E94C302892BD9F38D810E94C302892BEC
:1014F000B1F360E08C810E94F00261E08C810E9477
:101500002A0381E090E00E94A40360E08D810E94A4
:10151000F00261E08D810E942A0381E090E00E9448
:10152000A403DF91CF910895CF92DF92EF92FF92C3
:101530000F931F93CF93DF93EC0100E0F12CE12C8C
:101540001BC060EB600FCE010E94D20960E0CE01AB
:101550000E94D20960E1CE010E94D20933C060E04E
:10156000CE010E94D20960E0CE010E94D2093CC0A7
:10157000CE010E94440A0F5F8D85081708F048C00D
:10158000CE010E946C0A6985660FCE010E94D209C5
:1015900060E0CE010E94D2098A859B85019789F27D
:1015A00060EB600FCE010E94D20961E2CE010E9481
:1015B000D20960E0CE010E94D2096F816150CE0154
:1015C0000E94D209CE010E94440ACE010E946C0AF8
:1015D0006985660FCE010E94D20960E4CE010E94A7
:1015E000D2098C858111BBCF10E08F81181708F0CC
:1015F000BFCFE889F98967018FEFC81AD80AEE0DC5
:10160000FF1D6081CE010E94D2091F5F7601EDCFE0
:10161000DF91CF911F910F91FF90EF90DF90CF90CE
:1016200008952F923F924F925F926F927F928F9286
:101630009F92AF92BF92CF92DF92EF92FF920F9361
:101640001F93CF93DF93EC01A62E942E411142C03D
:10165000F62EF694F694F694F42F34C0888999897E
:10166000680F791FDB011C92EF5F2F81E21748F5AD
:101670008F2F90E030E0829FB001839F700D929F8A
:10168000700D11244E2F50E0640F751F8F0D911DAA
:10169000289F8001299F100D389F100D1124400FA5
:1016A000511F8E859F8548175907C0F688899989EB
:1016B000680F791F480F591FDA018C91DB018C9359
:1016C000D3CFFF5F8D85F81710F4E92DCECFBA2D5B
:1016D000B770AB2EAA2009F468C00E9494056B0174
:1016E0007C011B01B12C10E000E08824839452C0DF
:1016F000A0E0E889F989E40FF51F808190E09595D5
:1017000087958A2B80834F5F5F4F2F5F3F4F6F5FBF
:101710008F81681780F48E859F852817390740F7D9
:10172000E889F989E20FF31F808180FD02C0A0E003
:10173000E0CFA0E8DECF7F5F8D85781758F42F814A
:1017400030E0729FA001739F500D1124240F351FAC
:1017500060E0DECF090D111D0E9494056219730926
:1017600060177107D8F0882483940E949405882715
:10177000992726013701662477246419750986099B
:1017800097092801712C612C64157505860597054C
:1017900060F3B394BA1438F470E0CECFCE010E9457
:1017A000940A812CE2CF882019F0CE010E94940A7D
:1017B000DF91CF911F910F91FF90EF90DF90CF902D
:1017C000BF90AF909F908F907F906F905F904F9061
:1017D0003F902F900895CF92DF92EF92FF920F9358
:1017E0001F93CF93DF93EC016B017A0110E000E0CF
:1017F00026C01A8A8B89885F8B8BC8010196F601F7
:10180000E80FF91F20812A3071F58C012CC01A8A4B
:101810008B89885F8B8BC8010196F601E80FF91F51
:1018200020812D3001F58C011EC0688540E0CE017D
:101830000E94110B1A8A1B8A16C00F5F1F4F0E15CC
:101840001F0508F5F601E00FF11F60816D3089F288
:101850006A30E9F26C3049F3E881F9810190F08156
:10186000E02DCE0109958C89882339F39B898885E1
:10187000981718F340E068E0CE010E94110B8885AC
:1018800088508B8BDACF8C8981110AC0C701DF9118
:10189000CF911F910F91FF90EF90DF90CF9008951F
:1018A000CE010E94940AF2CF1F93CF93DF93EC01F5
:1018B000162F0E946C0A6985660FCE010E94D2091C
:1018C00060E0CE010E94D209111113C06EEACE0170
:1018D0000E94D2096DE8CE010E94D20960E1CE01DA
:1018E0000E94D209CE010E94440ADF91CF911F913C
:1018F00008956DE8CE010E94D20964E1CE010E94F4
:10190000D2096FEACE010E94D209ECCF0895089562
:10191000FC018CE191E09183808312821482138216
:10192000089585EC8093BC00109285020895811182
:1019300004C085E88093BC00089585EC8093BC00CA
:10194000089590935E0280935D02089590936202E1
:10195000809361020895AC0120915F02260F332726
:10196000331F21323105F4F4809185028430E1F493
:1019700090E00FC0E0915F02292F30E0E20FF32FDB
:10198000F11D240F351FD9012C91E35CFD4F2083FD
:101990009F5F961778F380915F02680F60935F02F4
:1019A00080E0089581E0089582E00895ECEBF0E096
:1019B00080818A7B808360E082E10E94F00260E0A7
:1019C00083E10E94F00208951092850281E08093E5
:1019D00087021092860261E082E10E94F00261E0DB
:1019E00083E10E94F002E9EBF0E080818E7F80834A
:1019F00080818D7F808388E48093B80085E4809324
:101A0000BC000895EF92FF920F931F93CF93DF9343
:101A100091E090933C02811107C0DF91CF911F911B
:101A20000F91FF90EF900895C8EBD0E0F8800AEB9B
:101A300010E0F801E0800E94D60C0E94E40CF8014E
:101A4000E082F882EACF4F925F926F927F928F92FC
:101A50009F92AF92BF92EF92FF920F931F93CF93FB
:101A6000DF93413280F081E0DF91CF911F910F91A0
:101A7000FF90EF90BF90AF909F908F907F906F906E
:101A80005F904F900895D22FC42F7B01182F0E9492
:101A90006E054B015C0190918502992329F180919B
:101AA000380290913902A0913A02B0913B02892B01
:101AB0008A2B8B2B81F30E946E05681979098A099C
:101AC0009B09409038025090390260903A02709021
:101AD0003B024616570668067906E8F680913702FB
:101AE0000E94020D85E0C0CF82E0809385020093C2
:101AF00087028FEF809384021092A902C093A802FC
:101B00000AC0E92FF0E0D701AE0FBF1F8C91E85754
:101B1000FD4F80839F5F9C17A0F31092AA02812F34
:101B200090E0880F991F1091AA02812B8093AA023E
:101B3000809186028130A1F185EE8093BC000E94E5
:101B40006E054B015C01DD2309F462C080918502C2
:101B5000823009F05DC08091380290913902A091E5
:101B60003A02B0913B02892B8A2B8B2B61F30E94A6
:101B70006E05681979098A099B090091380210914C
:101B8000390220913A0230913B02061717072807C5
:101B90003907C8F6809137020E94020D85E064CFB4
:101BA000109286020E946E054B015C0104C0809178
:101BB000BC0083FF29C08091AA028093BB00809162
:101BC000380290913902A0913A02B0913B02892BE0
:101BD0008A2B8B2B61F30E946E05681979098A099B
:101BE0009B09009138021091390220913A023091FC
:101BF0003B020617170728073907C8F680913702F6
:101C00000E94020D85E030CF85EC8093BC0097CF19
:101C1000809184028F3F61F080918402803251F084
:101C200080918402803311F084E01ECF83E01CCFCA
:101C300080E01ACF82E018CF8F929F92AF92BF922E
:101C4000DF92EF92FF920F931F93CF93DF93413276
:101C500068F080E0DF91CF911F910F91FF90EF909E
:101C6000DF90BF90AF909F908F900895D22EF42E6A
:101C7000EB01E82E0E946E054B015C0190918502FC
:101C8000992329F1009138021091390220913A02EA
:101C900030913B02012B022B032B81F30E946E0536
:101CA000681979098A099B09009138021091390253
:101CB00020913A0230913B0206171707280739078F
:101CC000E8F6809137020E94020D80E0C3CF81E0E8
:101CD00080938502D09287029FEF909384021092A6
:101CE000A9029F0D9093A8028093AA028E2D90E0E6
:101CF000880F991F9091AA02892B8093AA02809144
:101D00008602813089F185EE8093BC000E946E05C9
:101D10004B015C0190918502913009F05DC000910A
:101D200038021091390220913A0230913B02012B86
:101D3000022B032B79F30E946E05681979098A0931
:101D40009B09009138021091390220913A0230919A
:101D50003B020617170728073907E0F6809137027C
:101D60000E94020D80E076CF109286020E946E05DE
:101D70004B015C0104C08091BC0083FF29C08091AD
:101D8000AA028093BB008091380290913902A09101
:101D90003A02B0913B02892B8A2B8B2B61F30E9474
:101DA0006E05681979098A099B090091380210911A
:101DB000390220913A0230913B0206171707280793
:101DC0003907C8F6809137020E94020D80E042CFA9
:101DD00085EC8093BC009ACF8091A9028F1520F4E6
:101DE0008091A90290E00DC08F2DFCCF292F30E00B
:101DF000FE01E20FF31F28573D4FD9012C9120839C
:101E00009F5F981798F326CF089508950895E0915D
:101E1000280280912702E81730F4F0E0E95FFD4FD7
:101E2000808190E008958FEF9FEF089590912802B0
:101E300080912702981758F4E92FF0E0E95FFD4FF1
:101E4000208130E09F5F90932802C90108952FEF11
:101E50003FEFFBCF8091270290912802891B990BBD
:101E60000895CF92DF92EF92FF920F931F93CF933B
:101E7000DF938C016B017A0180910602882399F02F
:101E8000D0E0C0E0CE15DF0590F4D801ED91FC91D3
:101E90000190F081E02DD601AC0FBD1F6C91C801FF
:101EA00009952196EFCF642FC6010E94AB0CC701A4
:101EB000DF91CF911F910F91FF90EF90DF90CF9026
:101EC0000895CF93DF931F92CDB7DEB7FC016983EE
:101ED000909106029923F1F090912902903250F0EE
:101EE00081E090E09383828390E080E00F90DF9127
:101EF000CF91089580912A02E82FF0E0EA51FE4F39
:101F0000998190838F5F80932A028093290281E0D8
:101F100090E0ECCF61E0CE0101960E94AB0C81E035
:101F200090E0E4CF0F9340912902062F21E066EE66
:101F300071E08091E5010E94230D10922A02109217
:101F40002902109206020F91089561E00E94920FFB
:101F5000089581E0809306026093E50110922A02C1
:101F60001092290208959F92AF92BF92CF92DF9272
:101F7000EF92FF920F931F93CF93DF93DA01AE0D91
:101F8000BF1DEC01EC81FD81EA17FB0768F480E0DE
:101F9000DF91CF911F910F91FF90EF90DF90CF9045
:101FA000BF90AF909F900895922E6A015B01688167
:101FB00089819A810E94A90FE114F10481F4898139
:101FC0009A81DC01ED91FC910280F381E02DA60164
:101FD000B50109958C159D05A9F080E0D9CF0115B3
:101FE000110569F389819A81DC01ED91FC910280F0
:101FF000F381E02DA701B80109958E159F05F9F22F
:1020000080E0C6CF692D89819A810E94920F882332
:1020100011F080E0BDCF81E0BBCFEF92FF920F9334
:102020001F93CF93DF9300D0CDB7DEB7FC0196812D
:10203000278199832A83A081B181109709F5A28114
:10204000B381109709F447C0E480F58083E0E81677
:10205000F10449F1E114F10411F49F77998382E0CE
:10206000E816F10479F1EA94EF2881F1018510E096
:1020700050E09E012F5F3F4FCD010E941B050AC01B
:10208000E184F12C50E08E010F5F1F4F21E0CD0164
:102090000E94B30F0F900F90DF91CF911F910F917E
:1020A000FF90EF9008952E7F29839A83018510E099
:1020B0000F5F1F4F50E09E012F5F3F4FCD010E94E9
:1020C0001B05E8CF898180688983CDCF89818F778F
:1020D00080648983CBCF80E0DDCFCF93DF93EC01A9
:1020E000211101C02885253048F54F87588B698B11
:1020F0007A8BB0E0A0E00BC0EA1BFB0B3197EC0F32
:10210000FD1F4387452F562F672F77271196E22F04
:10211000F0E0AE17BF0744F48A858111EDCFFE01D0
:10212000EA0FFB1F4387EECFBE01655F7F4F422F53
:10213000CE010E940D10DF91CF91089580E0FBCF7A
:10214000EF920F931F93CF93DF93CDB7DEB76397D3
:102150000FB6F894DEBF0FBECDBF142F462F50E050
:10216000FC0163817481EE24E39400E021E0CE0160
:1021700001960E948202412F50E070E060E020E072
:10218000CE0101960E946D1063960FB6F894DEBFE3
:102190000FBECDBFDF91CF911F910F91EF900895AA
:1021A000CF93DF93EC0140E060E00E94A01040E09C
:1021B00061E0CE010E94A01040E062E0CE010E94EA
:1021C000A01040E463E0CE010E94A01042E064E071
:1021D000CE010E94A01040E065E0CE010E94A01058
:1021E00040E166E0CE010E94A01043E067E0CE012E
:1021F0000E94A01040E568E0CE010E94A01040E1DE
:1022000069E0CE010E94A01043E06AE0CE010E9486
:10221000A01040E06BE0CE010E94A01040E06CE016
:10222000CE010E94A01040E06DE0CE010E94A010FF
:1022300044E26EE0CE010E94A01040E06FE0CE01CB
:102240000E94A01040E060E1CE010E94A01040E595
:1022500061E1CE010E94A01040E062E1CE010E9447
:10226000A01046E063E1CE010E94A010DF91CF9163
:102270000895CF93DF93EC0140E360E00E94A0104B
:1022800041E061E0CE010E94A01040E062E0CE019A
:102290000E94A01040E063E0CE010E94A01040E048
:1022A00064E0CE010E94A01042E465E0CE010E94ED
:1022B000A01040E066E0CE010E94A01040E067E080
:1022C000CE010E94A01040E568E0CE010E94A0105F
:1022D00040E069E0CE010E94A01040E06AE0CE013B
:1022E0000E94A01040E06BE0CE010E94A01040E2EE
:1022F0006CE0CE010E94A01044E06DE0CE010E948F
:10230000A01040E06EE0CE010E94A01040E36FE01C
:10231000CE010E94A01041E060E1CE010E94A01019
:1023200040E561E1CE010E94A01040E062E1CE01F3
:102330000E94A01046E063E1CE010E94A010DF9150
:10234000CF910895CF92DF92EF920F93CF93DF93C7
:10235000CDB7DEB763970FB6F894DEBF0FBECDBF23
:102360006B01FC0163817481EE24E39400E021E0C1
:102370004AEA50E0CE0101960E948202A60170E076
:1023800060E020E0CE0101960E946D1063960FB6CA
:10239000F894DEBF0FBECDBFDF91CF910F91EF90CC
:1023A000DF90CF900895CF92DF92EF920F93CF936B
:1023B000DF93CDB7DEB763970FB6F894DEBF0FBEDD
:1023C000CDBF6B01FC0163817481EE24E39400E0D6
:1023D00022E04AEC50E0CE0101960E948202A60162
:1023E00070E060E020E0CE0101960E946D106396DF
:1023F0000FB6F894DEBF0FBECDBFDF91CF910F9126
:10240000EF90DF90CF900895EF920F931F93CF93AB
:10241000DF93CDB7DEB763970FB6F894DEBF0FBE7C
:10242000CDBF162FFC0163817481EE24E39400E09C
:1024300021E041E850E0CE0101960E948202412F46
:1024400050E070E060E020E0CE0101960E946D1047
:1024500063960FB6F894DEBF0FBECDBFDF91CF916C
:102460001F910F91EF9008958F929F92AF92BF921C
:10247000CF92DF92EF92FF920F931F93CF93DF9350
:10248000EC01D62EF42E48015901E1101EC030E2B5
:102490003F1518F46894FF24F5F82C2D4F2D67E0B4
:1024A00072E08D2D0E941C0E10922802809327024C
:1024B000DF91CF911F910F91FF90EF90DF90CF9020
:1024C000BF90AF909F908F9008950E94A90F23E036
:1024D0002E1520F40F2EF3E0EF2EF02D1FEF1E0D22
:1024E000EE20D9F0E881F9810190F081E02D812F73
:1024F00090E0880F991F880F991F880F991FA501D9
:10250000940104C056954795379527958A95D2F73B
:10251000B901CE010995E12EE1CF60E0CE010E9424
:10252000920FB5CFCF92EF920F931F93C22EE12C53
:1025300000E010E098010E9434121F910F91EF907B
:10254000CF900895CF92DF92EF92FF920F931F9357
:10255000CF93DF937C016B018A01DC016C911196B2
:102560008D919C910E9492128017110651F080E08B
:10257000DF91CF911F910F91FF90EF90DF90CF905F
:102580000895D0E0C0E0C017D10780F4F701818141
:102590009281DC01ED91FC910284F385E02D099597
:1025A000F601EC0FFD1F80832196EDCF81E0E0CF97
:1025B0009F92AF92BF92CF92DF92EF92FF920F93D2
:1025C0001F93CF93DF936C015B017A01922ED0E0D1
:1025D000C0E00CC020E0A801B5016C0F7D1FC60152
:1025E0000E94A2128823E1F0C00FD11FCE15DF0593
:1025F000B0F487010C1B1D0BF601848195818017B7
:10260000910708F48C01C701801B910BC817D907EB
:1026100008F3911002C020E0DECF292DDCCF81E04D
:10262000DF91CF911F910F91FF90EF90DF90CF90AE
:10263000BF90AF909F900895AF92BF92CF92DF92DC
:10264000EF92FF920F931F93CF93DF93EC016901F9
:1026500058012E2DF12CE12C10E000E00E94B30F68
:1026600081110BC0DF91CF911F910F91FF90EF90DF
:10267000DF90CF90BF90AF90089521E0A501B60103
:10268000CE010E94D812EECFEF920F931F93CF93FB
:10269000DF9300D0CDB7DEB7FC01968187819983A7
:1026A0008A83A081B181109719F5A281B381109717
:1026B00009F44DC0248135812330310569F121159C
:1026C000310511F49068998322303105C1F1213030
:1026D0003105C9F1042F10E0418550E0EE24EA9461
:1026E0009B01BE016F5F7F4FCD010E94C4040CC0EF
:1026F000042F10E0418550E0E12C9B01BE016F5F8B
:102700007F4FCD010E941C130F900F90DF91CF914E
:102710001F910F91EF900895816089839A83042F10
:1027200010E0418550E04F5F5F4FEE24EA949B013B
:10273000BE016F5F7F4FCD010E94C404E5CF898148
:102740008F778983C4CF8981806C8983C3CF80E0F0
:10275000DBCFCF93DF93EC01BC01655F7F4F4885F2
:102760000E944413882311F130E020E040E050E063
:10277000BA0107C0FE01E20FF31F8385482B2F5FCC
:102780003F4F888590E0281739079CF4762F652FF6
:10279000542F4427EA85E111EDCFFC01E21BF30B36
:1027A0003197EC0FFD1F8385482BE9CF4FEF5FEF8B
:1027B000BA01CB01BA01DF91CF910895CF92DF9298
:1027C000EF92FF920F931F93CF93DF93EC016A0177
:1027D0007B01888199810E94A9138B019C014A8108
:1027E00081E090E002C0880F991F4A95E2F70197B7
:1027F000092E000CAA0BBB0BC822D922EA22FB220D
:102800004B81042E04C0880F991FAA1FBB1F0A9476
:10281000D2F780959095A095B09580239123A2231F
:10282000B32304C0CC0CDD1CEE1CFF1C4A95D2F770
:10283000C82AD92AEA2AFB2A0990D881C02DCE01BC
:102840000E947902282FB701A601CE010E946D10C7
:10285000DF91CF911F910F91FF90EF90DF90CF907C
:102860000895CF92DF92EF920F93CF93DF93CDB77E
:10287000DEB767970FB6F894DEBF0FBECDBF6B0112
:10288000FC0163817481EE24E39400E021E04FEACF
:1028900050E0CE0101960E94820223E042E0BE0198
:1028A0006F5F7F4FCE0144960E947C02A60170E0CC
:1028B00060E0CE0144960E94DE1367960FB6F8944E
:1028C000DEBF0FBECDBFDF91CF910F91EF90DF90B4
:1028D000CF900895EF920F931F93CF93DF93CDB7CF
:1028E000DEB767970FB6F894DEBF0FBECDBF162FC9
:1028F000FC0163817481EE24E39400E021E040E870
:1029000050E0CE0101960E94820221E041E0BE012A
:102910006F5F7F4FCE0144960E947C02412F50E0B2
:1029200070E060E0CE0144960E94DE1367960FB619
:10293000F894DEBF0FBECDBFDF91CF911F910F91F5
:10294000EF900895EF920F931F93CF93DF93CDB73E
:10295000DEB767970FB6F894DEBF0FBECDBF162F58
:10296000FC0163817481EE24E39400E021E040E8FF
:1029700050E0CE0101960E94820220E041E0BE01BB
:102980006F5F7F4FCE0144960E947C02412F50E042
:1029900070E060E0CE0144960E94DE1367960FB6A9
:1029A000F894DEBF0FBECDBFDF91CF911F910F9185
:1029B000EF900895CF92DF92EF92FF920F931F93C3
:1029C000CF93DF93EC01888199810E94A9132B8119
:1029D0006B017C0104C0F694E794D794C7942A95C0
:1029E000D2F7970186014A8181E090E002C0880F0A
:1029F000991F4A95E2F70197092E000CAA0BBB0B11
:102A0000BC01CD016C2171238E219323DF91CF91E5
:102A10001F910F91FF90EF90DF90CF900895EF926C
:102A20000F93CF93DF93CDB7DEB767970FB6F894C8
:102A3000DEBF0FBECDBFFC0163817481EE24E39441
:102A400000E021E043EA50E0CE0101960E948202BC
:102A500026E041E0BE016F5F7F4FCE0144960E94A9
:102A60007C02CE0144960E94DA1421E0672B682B89
:102A7000692B09F420E0822F67960FB6F894DEBF29
:102A80000FBECDBFDF91CF910F91EF900895CF9200
:102A9000DF92EF92FF920F931F93CF93DF93EC019E
:102AA0008B016115710561F4CE010E940F15811132
:102AB00028C061E070E080E090E00E94A205F4CFC1
:102AC00016161706F4F4C12CD12C7601CE010E9403
:102AD0000F15811116C0C801012E000CAA0BBB0BEB
:102AE000C816D906EA06FB0660F461E070E080E0F3
:102AF00090E00E94A2058FEFC81AD80AE80AF80AE7
:102B0000E5CFDF91CF911F910F91FF90EF90DF9074
:102B1000CF900895EF92FF920F931F93CF93DF937F
:102B2000CDB7DEB767970FB6F894DEBF0FBECDBF47
:102B3000FC0163817481EE24E39400E021E040E82D
:102B400050E0CE0101960E94820224E041E0BE01E5
:102B50006F5F7F4FCE0144960E947C0241E050E0BF
:102B600060E070E0CE0144960E94DE13F82E10E083
:102B700000E0CE0144960E94DA14672B682B692B83
:102B800069F0083EF3E01F074CF461E070E080E07C
:102B900090E00E94A2050F5F1F4FEBCF083E13404D
:102BA00074F48F2D67960FB6F894DEBF0FBECDBFBD
:102BB000DF91CF911F910F91FF90EF900895F12C2D
:102BC000F0CF1F93CF93DF93EC01162F60E00E94AC
:102BD0006A1462E070E0CE010E94311411110AC043
:102BE000CE010E94D010CE010E948A15DF91CF91B4
:102BF0001F910895CE010E943911F5CFEF920F93E6
:102C0000CF93DF93CDB7DEB763970FB6F894DEBFEF
:102C10000FBECDBFFC0163817481EE24E39400E01C
:102C200021E04AEA50E0CE0101960E948202CE01E4
:102C300001960E94A913CB0163960FB6F894DEBFEC
:102C40000FBECDBFDF91CF910F91EF900895EF921E
:102C50000F93CF93DF93CDB7DEB763970FB6F8949A
:102C6000DEBF0FBECDBFFC0163817481EE24E3940F
:102C700000E022E04AEC50E0CE0101960E94820280
:102C8000CE0101960E94A913CB0163960FB6F8946A
:102C9000DEBF0FBECDBFDF91CF910F91EF900895B2
:102CA000EF920F93CF93DF93CDB7DEB763970FB655
:102CB000F894DEBF0FBECDBFFC0163817481EE24AA
:102CC000E39400E021E041E850E0CE0101960E944B
:102CD0008202CE0101960E94A913862F63960FB639
:102CE000F894DEBF0FBECDBFDF91CF910F91EF9073
:102CF00008958F929F92AF92BF92CF92DF92EF9200
:102D0000FF92CF93DF93EC015B010E94FE158B30A5
:102D1000910580F48157994EFC010C942029EF16FF
:102D20009E16A716AD16B416BC16C516CD16D61629
:102D3000DE16E716C12CD12C760158C00F2EC12CFF
:102D4000D12CF0E8EF2EFFE3FF2EF02D4FC0C12C69
:102D5000D12C76016894F6F849C0C12CD12C7601AB
:102D60006894E7F8F6F842C00F2EC12CD12CE12C64
:102D7000F1E4FF2EF02D3AC00F2EC12CD12CF0E83B
:102D8000EF2EF1E4FF2EF02D31C00F2EC12CD12CEF
:102D9000E12CF2E4FF2EF02D29C00F2EC12CD12CF6
:102DA000F0E8EF2EF2E4FF2EF02D20C00F2EC12C04
:102DB000D12CE12CF3E4FF2EF02D18C00F2EC12CE6
:102DC000D12CF0E8EF2EF3E4FF2EF02D0FC00F2EE4
:102DD000C12CD12CE12CF4E4FF2EF02D07C00F2ED6
:102DE000C12CD12CE12CFFE3FF2EF02DB50190E09A
:102DF00080E00E94CC274B015C01CE010E9450165E
:102E0000682F70E06F5F7F4F072E000C880B990BC7
:102E10000E94CE27A70196010E9409286B017C0120
:102E2000CE010E9427160196BC0190E080E00E942E
:102E3000CC27A70196010E94092825E83BEE41E333
:102E400050E40E94092820E030E04AE754E40E9460
:102E500026299B01AC01C501B4010E942629DF91FE
:102E6000CF91FF90EF90DF90CF90BF90AF909F9069
:102E70008F900895CF92DF92EF920F93CF93DF93CD
:102E8000CDB7DEB763970FB6F894DEBF0FBECDBFE8
:102E90006C01FC0163817481EE24E39400E021E085
:102EA00042E950E0CE0101960E948202CE010196D5
:102EB0000E94A91360FF0EC080E063960FB6F894DD
:102EC000DEBF0FBECDBFDF91CF910F91EF90DF90AE
:102ED000CF90089561E0C6010E94A21481E0EDCF79
:102EE000CF92DF92EF920F931F93CF93DF93CDB7E3
:102EF000DEB763970FB6F894DEBF0FBECDBF6C018F
:102F0000FC01858D968D892BA9F0C6010E940F15B5
:102F1000182F8823E9F0F601858D968D8330910571
:102F200009F461C08130910511F1029709F442C0A2
:102F300010E00EC061E0C6010E94E11561E0C6012B
:102F40000E946A1481E090E0F601968F858F10E070
:102F5000812F63960FB6F894DEBF0FBECDBFDF9111
:102F6000CF911F910F91EF90DF90CF9008956381E3
:102F70007481EE24E39400E022E045E950E0CE01C4
:102F800001960E948202B6016B5F7F4F4CE0CE013A
:102F900001960E94441360E0C6010E94E11561E0C1
:102FA000C6010E946A1482E090E0F601968F858F38
:102FB00010E0CECF83E090E0968F858F638174819F
:102FC000EE24E39400E022E045E950E0CE010196D2
:102FD0000E948202B6016F5E7F4F4CE0CE010196E7
:102FE0000E944413B5CF10E0B3CFFC01168E158EAE
:102FF0000E94701781E00895AF92BF92CF92DF9246
:10300000EF920F931F93CF93DF93CDB7DEB7639704
:103010000FB6F894DEBF0FBECDBF6C015B0161E05F
:103020000E94E11561E0C6010E946A1470E060E050
:10303000C6010E944715F60163817481EE24E39472
:1030400000E022E045E950E0CE0101960E948202B4
:103050004CE0B501CE0101960E944413182F60E0A8
:10306000C6010E94E11561E0C6010E946A1470E089
:1030700060E0C6010E944715111111C0812F6396AF
:103080000FB6F894DEBF0FBECDBFDF91CF911F9179
:103090000F91EF90DF90CF90BF90AF900895B50162
:1030A000645F7F4F4CE0CE0101960E944413182FBD
:1030B000E5CFBC016B5F7F4F0E94FC170895109213
:1030C00028021092270210922A02109229020E94CE
:1030D000E40C84E09FE00E94A10C85E09FE00E9448
:1030E000A60C08951F93CF93DF93EC01162F8981CF
:1030F0009A810E945F1881E08B83111105C081E0E5
:10310000DF91CF911F910895CE010E948818F8CFCA
:10311000CF93DF93EC018B81811106C061E0CE017A
:103120000E947218882361F0688189819A810E94C7
:10313000A90F89819A810E94A50F882321F080E040
:10314000DF91CF91089581E0FBCFFC0113821282C1
:1031500088EE93E0A0E0B0E084839583A683B783F4
:103160008AE091E0918380830895019709F00895A2
:103170006F3F7F4FE1F78BE292E00E94A518F7CFF7
:1031800090E080E008951F93CF93DF9386EC91E069
:103190000E94591881111CC010E001C01F5F1C3033
:1031A000B8F48CEF810F8230C8F3C12FD0E070E00B
:1031B00060E086EC91E00E947916CC0FDD1FCC0F09
:1031C000DD1FC058DE4F688379838A839B83E6CFF7
:1031D00068EE73E080E090E00E94A205DF91CF915D
:1031E0001F9108950E94342A0895CF93DF93EC0134
:1031F00088819981009711F00E94342A19821882DF
:103200001D821C821B821A82DF91CF910895FC01DE
:1032100080819181009711F00E94342A0895FC0169
:10322000808991890E94342A0895CF93DF93EC011D
:103230000E940F19CE010E94F218DF91CF910895DC
:103240000E94982908958F929F92AF92BF92CF9239
:10325000DF92FF920F931F93CF93DF93EC01F62E33
:103260006A01480159018B819C81009711F00E94ED
:10327000F21886E090E00E9420198C01A6016F2DC3
:103280000E946F021C830B8361E0C8010E947218C8
:10329000882349F0E881F9810190F081E02DB501A2
:1032A000A401CE010995DF91CF911F910F91FF905D
:1032B000DF90CF90BF90AF909F908F900895AF9286
:1032C000CF92DF92EF92FF920F931F93CF93DF93F2
:1032D000EC011B821A8282E291E0998388836C83DD
:1032E0004D832E830F83E886A986DB86CA8687E016
:1032F000E80EF11C9701FF200CF1359527953595C7
:103300002795359527952D87209FC001219F900DEA
:1033100011249F878E870E949829998B888B1A8AFF
:103320001B8A1C8A1D8A1C86DF91CF911F910F91E9
:10333000FF90EF90DF90CF90AF900895295F3F4FBF
:10334000DCCF8F929F92AF92CF92DF92EF92FF925B
:103350000F931F93CF93DF93EC014B01019789F0FB
:10336000CD2B19F48920809441F1DF91CF911F91E9
:103370000F91FF90EF90DF90CF90AF909F908F9044
:1033800008956F3F7F4F61F786EC91E00E94880CB3
:103390000F2EFCE3AF2EF02DCC24C394D12C6894D7
:1033A000EE24E6F8F12C00E810E02FEF43E162E1B3
:1033B00080EB91E00E945F19D3CF80EB91E00E94F7
:1033C0000F19D3CF6115710581F0FB010190002029
:1033D000E9F73197AF01461B570BDC01ED91FC91EA
:1033E0000280F381E02D0995089590E080E0089532
:1033F0000F931F93CF93DF93EC018B016F5F7F4F90
:10340000888199810E94BD2A009751F09983888311
:103410001B830A8381E0DF91CF911F910F91089563
:1034200080E0F9CFCF93DF93EC0128813981232B02
:1034300029F02A813B812617370770F4CE010E94BC
:10344000F819882351F08C819D81892B49F4E881FA
:10345000F981108281E001C081E0DF91CF91089570
:1034600081E0FBCFEF92FF920F931F93CF93DF93F7
:10347000EC017B018A01BA010E94121A882379F0BB
:103480001D830C83B701888199810E948A2BCE010C
:10349000DF91CF911F910F91FF90EF900895CE0192
:1034A0000E94F518F4CFCF93DF93EC0161157105FD
:1034B00071F0FB0101900020E9F73197AF01461B45
:1034C000570B0E94321ACE01DF91CF9108950E94CE
:1034D000F518F9CFEF92FF920F931F93CF93DF93DD
:1034E000CDB7DEB7A1970FB6F894DEBF0FBECDBF44
:1034F0007C01CB01BA01F701118210821382128282
:103500001582148242E0420F8E010F5F1F4F0E940E
:103510006125BC01C7010E94531AA1960FB6F89409
:10352000DEBF0FBECDBFDF91CF911F910F91FF90F6
:10353000EF900895CF92DF92EF92FF92CF93C82F32
:1035400080919D0390919E03FC01C380D480F12C57
:10355000E12CCC0CDD1CEE1CFF1C46E250E065E0CB
:1035600074E049960E947F25E0919D03F0919E03AF
:10357000DF01A658BF4F86E28C938C2F82958F7007
:103580008A3008F4ABC0895A828F8C2F8F708A30B2
:1035900008F4A6C0895A838F80919803982F92953A
:1035A0009F709A3008F49EC0995A978F8F708A3016
:1035B00008F49AC0895A80A381819281AC0164E0A9
:1035C000569547956A95E1F7242F2F704F70552730
:1035D0004A30510508F48AC0295A25A3282F2F7094
:1035E000AC014F7055274A30510508F481C0295A63
:1035F00026A39C01232F332722952F702A303105D3
:1036000008F478C0295A27A3892F9927282F2F70CB
:103610008F7099270A9708F46FC0295A20A7B7011D
:10362000A60124E076956795579547952A95D1F799
:10363000842F8F704F705527662777274A305105A2
:103640006105710508F45AC0895A85A78C2D8F70C1
:10365000B701A6014F705527662777274A305105D5
:103660006105710508F44CC0895A86A7B701A60107
:103670009CE076956795579547959A95D1F7842F55
:103680008F704F705527662777274A30510561059F
:103690007105C0F1895A87A777276F2D5E2D4D2DB3
:1036A000842F8F704F705527662777274A30510532
:1036B0006105710548F1895A80AB80E381AB90E3E5
:1036C0009E0D92AB83AB84AB66E2CF014996CF915E
:1036D000FF90EF90DF90CF900C948406805D54CFE4
:1036E000805D59CF905D61CF805D65CF205D75CFE6
:1036F000205D7ECF205D87CF205D90CF805DA5CF00
:10370000805DB3CF805DC7CF805DD6CF0F931F9311
:10371000CF93DF93FC0101900020E9F73197E81B7C
:10372000F90BC0919D03D0919E038E0106581F4F47
:10373000ED3598F4D801EC936996D8014C9150E09E
:10374000BC01CE010E947A2BF8016081CE01DF918D
:10375000CF911F910F910C9484062CE5F8012083E2
:10376000EBCFAF92BF92CF92DF92EF92FF920F9387
:103770001F93CF93DF93CDB7DEB728970FB6F8949A
:10378000DEBF0FBECDBF6C01BE016F5F7F4F0E94D9
:10379000FD05C80ED11CBE016B5F7F4FC6010196AF
:1037A0000E94FD0509811A812B813C81B901A80184
:1037B0004427552777274115510560487105C1F504
:1037C000780189010027E982FA820B831C83082F84
:1037D00010E00E5F1F4F0C0D1D1DD12C8D2D90E0A4
:1037E000B0E0A0E04D815E816F81788584179507F8
:1037F000A607B70728F08BE691E00E94861B1CC045
:10380000F80180810E94EC055701AD0CB11CC82E57
:10381000C29480EFC822F501C082F80181810E9424
:10382000EC058C29F5018083D3940E5F1F4FD6CF12
:103830008EE291E00E94861B28960FB6F894DEBFB8
:103840000FBECDBFDF91CF911F910F91FF90EF90F1
:10385000DF90CF90BF90AF900895CF92DF92EF921C
:10386000FF920F931F93CF93DF93CDB7DEB72897C7
:103870000FB6F894DEBF0FBECDBF8C01BE016F5FE7
:103880007F4F0E94FD0590E00196BE016B5F7F4F68
:10389000800F911F0E94FD0589819A81AB81BC81B7
:1038A000AC01BD014427552777274115510520E874
:1038B0006207710509F042C0AA2789839A83AB8306
:1038C000BC839C01CD80DE80EF80F88460919D03F5
:1038D00070919E0340E0842F90E0B0E0A0E08C1552
:1038E0009D05AE05BF0570F080919D0390919E03EC
:1038F0006D81660FFC01E658FF4F608349960E9478
:10390000840660C0E42FF0E0D901AE0FBF1F8C9198
:10391000982F92959F709A3068F0995AEE0FFF1F7A
:10392000E60FF71F918F8F708A3030F0895A828F9F
:103930004F5FD1CF905DF2CF805DF9CF452B462B05
:10394000472BE1F5AA2789839A83AB83BC8310E0D8
:10395000812F90E0B0E0A0E0CD80DE80EF80F884A1
:103960008C159D05AE05BF0508F0BECFC980DA8075
:10397000EB80FC80BC01CD016C0D7D1D8E1D9F1D5B
:103980000E94E905982F92959F709A3098F0995A65
:10399000E0919D03F0919E03212F30E0220F331F11
:1039A000E20FF31F918F8F708A3030F0895A828F27
:1039B0001F5FCECF905DECCF805DF9CF8EE291E0BE
:1039C0000E94861B28960FB6F894DEBF0FBECDBFAF
:1039D000DF91CF911F910F91FF90EF90DF90CF90EB
:1039E00008954F925F926F927F928F929F92AF92C3
:1039F000BF92DF92EF92FF920F931F93CF93DF93CB
:103A0000EC018C015C0120E4A20EB11CF801808164
:103A10000E94EC05F82EF80181810E94EC05F294D9
:103A2000A0EFFA22F82AF09278030E5F1F4FA0163B
:103A3000B10661F7F50180810E94EC05182F1295FF
:103A4000107FFE01EF5BFF4F80810E94EC05812B10
:103A500080939803FE01EE5BFF4F80810E94EC058E
:103A600000919D0310919E03F0E18F9F500111245E
:103A7000F801B282A182FE01ED5BFF4F80810E94BE
:103A8000EC05A82AF801B282A182FE01EC5BFF4F8F
:103A900080810E94EC05E82EF12CFE2CEE24F2949D
:103AA00080EFF822EA28FB28F801F282E182FE0189
:103AB000EB5BFF4F80810E94EC0590E0982F8827F8
:103AC000E82AF92AF801F282E182FE01EA5BFF4F5F
:103AD00080810E94EC05D82EFE01E95BFF4F8081BA
:103AE0000E94EC05782EFE01E85BFF4F80810E946A
:103AF000EC05E82EFE01E75BFF4F80810E94EC059C
:103B0000F82EFE01E65BFF4F80810E94EC05882EB7
:103B1000FE01E55BFF4F80810E94EC05912CB12CEA
:103B2000A12C34E1880C991CAA1CBB1C3A95D1F736
:103B300090E0B0E0A0E0DC01992788278829992946
:103B4000AA29BB299C01AD01272929013A01FE01BF
:103B5000E45BFF4F80810E94EC0590E0B0E0A0E0C4
:103B60005CE1880F991FAA1FBB1F5A95D1F7482AFD
:103B7000592A6A2A7B2AC35BDF4F88810E94EC05A1
:103B800090E0B0E0A0E0B82FAA27992788278429E1
:103B90009529A629B72930E1D39EA0011124052E2D
:103BA000000C660B770B842B952BA62BB72B4E2D79
:103BB00050E0542F44275295507F052E000C660B81
:103BC000770B842B952BA62BB72B2F2D30E0322F84
:103BD0002227A901330F660B770B842B952BA62B7D
:103BE000B72BB695A79597958795F801948383830E
:103BF0008BE691E0DF91CF911F910F91FF90EF90B5
:103C0000DF90BF90AF909F908F907F906F905F906C
:103C10004F900C94861BEF92FF920F931F93CF93BC
:103C2000DF93CDB7DEB728970FB6F894DEBF0FBE8F
:103C3000CDBF8C01BE016F5F7F4F03960E94FD05D3
:103C400090E00496BE016B5F7F4F800F911F0E9432
:103C5000FD05F8018181803309F04BC089819A818B
:103C6000AB81BC81B695A795979587957C012081FE
:103C70002A35E1F520919D0330919E03F901508D85
:103C8000B9016B5F7F4F452F411113C05830D0F001
:103C900082E391E00E94861B28960FB6F894DEBF5F
:103CA0000FBECDBFDF91CF911F910F91FF90EF908D
:103CB0000895FB0101911191BF010E151F0589F0B7
:103CC0004150E2CF41E0450FF901408FE52FF0E090
:103CD000EE0FFF1FE20FF31F9683858381E0F9014A
:103CE000878B8BE691E00E94861BD6CF0E942E0622
:103CF000F8CF83E691E00E94861BCECF3F924F9291
:103D00005F926F927F928F929F92AF92BF92CF926B
:103D1000DF92EF92FF920F931F93CF93DF93CDB774
:103D2000DEB72A970FB6F894DEBF0FBECDBFE09185
:103D30009D03F0919E0310828AEF93E04C01B12C19
:103D4000A12C87EF93E06C01F12CE12C8AEE93E03B
:103D50002C01712C612C8DED93E09C0150E040E032
:103D600029833A834B835C838CEC93E09C0150E085
:103D700040E02D833E834F8358870E94BD074091CA
:103D80009D0350919E035A8749878432C9F040F4BD
:103D9000833009F445C183E691E00E94861BEDCF94
:103DA0008B3209F434C18D32B1F7E985FA85E658D2
:103DB000FF4F608189859A8549960E948406DDCFF0
:103DC00009851A8506581F4FD8011C920E94BD070D
:103DD000312CF8019081E985FA85E90FF11D8332D4
:103DE00099F4118E0E94BD070E94EC05182F1295C0
:103DF000107F0E94BD070E94EC05812B381661F0F0
:103E00008DE20E947D06B9CF9F5FD8019C93818F80
:103E1000380E0E94BD07DDCF8BE20E947D0609852A
:103E20001A85075E1F4FA985BA8559968C918A35E8
:103E300009F49EC008F055C0873409F482C008F028
:103E400043C08F3309F475C0843409F0A4CF8BE6E6
:103E500091E00E94861B81E0E985FA85E558FF4FD5
:103E60008083A985BA858C91811105C057968C9164
:103E7000882309F4C8C0809169008C7F8093690011
:103E80008AB184608AB98CB381608CBB8DB3816048
:103E90008DBB8BB18B7F8BB92A960FB6F894DEBFA2
:103EA0000FBECDBFDF91CF911F910F91FF90EF908B
:103EB000DF90CF90BF90AF909F908F907F906F904A
:103EC0005F904F903F9008958D3409F446C084353B
:103ED00019F0883409F05FCF8BE691E00E94861BD1
:103EE0004CCF8D36A1F178F4873641F18B3609F449
:103EF000AECF833609F04FCF81E0E985FA85E558EA
:103F0000FF4F8083AECF833771F18A3789F18137D4
:103F100009F041CF2AE030E0B501A401C8010E94B8
:103F20008825892B49F56DE08AE391E00E9484069B
:103F300024CF86E391E00E94861B1FCF0E94B30628
:103F40001CCF89859A854A960E94F11C16CF8985D7
:103F50009A854A960E942D1C10CF89859A854A968B
:103F60000E94B11B0ACF81E0E985FA85808379CF71
:103F7000C8010E940B1E01CF22E030E0B701A6016C
:103F8000C8010E948825892B29F488E491E00E94C9
:103F9000861BF3CE2CE030E0B301A201C8010E94E1
:103FA0008825892B29F48DE491E00E94861BE5CEBB
:103FB0002CE030E049815A816B817C81C8010E94EC
:103FC0008825892B29F480E591E00E94861BD5CEB7
:103FD00020E130E04D815E816F817885C8010E94CB
:103FE0008825892B09F0D7CE8BE691E00E94861BAD
:103FF00088E198E00FB6F894A895809360000FBE12
:1040000090936000FFCF8DB38E7F8DBB45CFE98548
:10401000FA85E558FF4F8081882309F4AECE3CCF66
:1040200029853A8525583F4FD9011C9282E00E948C
:104030009A1AA3CECF93DF93EBEAF2E0F0939E03BC
:10404000E0939D0312821182108E1092250310823C
:1040500010922603A0EBB2E082E1ED0119928A955D
:10406000E9F7178A0E94C407DF91CF910895CF9393
:10407000DF93EC016130710569F04E855F8570E07A
:1040800060E0888999890E94832B1A8A1B8ADF91B4
:10409000CF9108954E855F856FEF70E0888999898B
:1040A0000E94832BF2CFCF93DF93EC0160E08C81F1
:1040B0000E942A0360E08D810E942A038E818F3F37
:1040C00009F091C064E670E080E090E00E94A205F3
:1040D000CE010E946C0A6985660FCE010E94D2094A
:1040E00060E0CE010E94D2096EEACE010E94D209A0
:1040F00065EDCE010E94D20960E8CE010E94D2098E
:1041000068EACE010E94D20968856150CE010E9402
:10411000D20963EDCE010E94D20960E0CE010E9477
:10412000D20960E4CE010E94D2096DE8CE010E945E
:10413000D20964E1CE010E94D20960E2CE010E9460
:10414000D20960E0CE010E94D20961EACE010E944C
:10415000D20968ECCE010E94D2098F81803809F41F
:1041600054C0803809F45EC0803609F468C061E844
:10417000CE010E94D20960E8CE010E94D20969ED09
:10418000CE010E94D20962E2CE010E94D2096BEDFB
:10419000CE010E94D20960E2CE010E94D20964EAF7
:1041A000CE010E94D20966EACE010E94D2096EE2D7
:1041B000CE010E94D209CE010E94440A64E670E05A
:1041C00080E090E00E94A20570E060E0CE010E94D5
:1041D0003720CE010E94940A61E0CE010E94540C67
:1041E000DF91CF91089561E00E942A0360E08E8103
:1041F0000E94F0026AE070E080E090E00E94A20578
:1042000061E08E810E94F0025DCF9885903209F0C6
:10421000A8CF6AEDCE010E94D20962E0CE010E94D1
:10422000D209A5CF9885903409F09ECF6AEDCE01D2
:104230000E94D20962E1CE010E94D20998CF8885FE
:10424000803109F094CF6AEDCE010E94D20962E07C
:10425000CE010E94D2098BCFCF93DF9300D000D044
:1042600000D0CDB7DEB70E94C31864EF71E080E0E4
:1042700090E00E94A20570E060E080EB91E00E9477
:10428000372048E262E080EB91E00E94E007409135
:1042900088015091890160918A0170918B0122E01F
:1042A000CE0101960E946A1ABE016F5F7F4F80EBBC
:1042B00091E00E94DA05CE0101960E94071980EB79
:1042C00091E00E94940A26960FB6F894DEBF0FBEC6
:1042D000CDBFDF91CF9108950F931F930E941A20B5
:1042E00080EB91E00E94532061E080EB91E00E941E
:1042F000D70770E060E080EB91E00E94372040E05B
:1043000060E080EB91E00E94E00762E571E080EB05
:1043100091E00E94E21980EB91E00E94940A00E093
:1043200010E098014BE252E069E386EC91E00E94D4
:10433000231964E686EC91E00E94041267EE73E0B4
:1043400086EC91E00E94D31169E070E086EC91E088
:104350000E94A21186EC91E00E94F51770E060E0E7
:1043600080EB91E00E94372040E060E080EB91E03C
:104370000E94E00764E671E080EB91E00E94E219A0
:1043800044E160E080EB91E00E94E0076EE671E0BE
:1043900080EB91E00E94E21980EB91E00E94940A88
:1043A0001F910F91089585ED8093BC0040913802D4
:1043B0005091390260913A0270913B02495F5F4F20
:1043C0006F4F7F4F689412F876956795579547958C
:1043D0001694D1F78091BC0084FF1FC080913802F1
:1043E00090913902A0913A02B0913B02892B8A2B1D
:1043F0008B2B81F3411551056105710549F085E36A
:104400008A95F1F700004150510961097109E2CF25
:10441000809137020E94020D08951092850208953E
:104420006FEF7FEF81E090E00E94B5186FEF7FEFB4
:1044300081E090E00E94A11908951F920F920FB69B
:104440000F9211240F931F932F933F934F935F93DA
:104450006F937F938F939F93AF93BF930091A0032C
:104460001091A1032091A2033091A30390919F0387
:10447000B901A8014F5F5F4F6F4F7F4F83E0890FF6
:104480008D3740F086E8890FB901A8014E5F5F4F74
:104490006F4F7F4F80939F034093A0035093A103DE
:1044A0006093A2037093A3038091A4039091A5034A
:1044B000A091A603B091A7030196A11DB11D809301
:1044C000A4039093A503A093A603B093A703BF9161
:1044D000AF919F918F917F916F915F914F913F919C
:1044E0002F911F910F910F900FBE0F901F90189555
:1044F0000E9469030E946C210E942C2180E090E0C0
:10450000892BD1F30E940000F7CF0F920FB6F894D9
:10451000009298030F90F0939703E0939603F3E0D3
:10452000E8E7D58FC48FD0E0C0E0B38FB991B193E5
:10453000CB31E1F7BF91AF91A087B187ADB7BEB7DF
:10454000A683B783112487E793E09EBF8DBFE8E77A
:10455000F3E084A18F7384A3A0919D03B0919E0387
:1045600083A194A114969C938E93139781A192A1F9
:1045700012969C938E9311978C9181113EC0579601
:104580008C915797882309F444C08091C0008823F8
:10459000A4F40E94BD0780932703833071F4E09157
:1045A0009D03F0919E03E558FF4F108282E00E9428
:1045B0009A1A8DB38E7F8DBB2CC01092270311C029
:1045C000E82FF0E0EE0FFF1FEA0FFB1F4581568139
:1045D00013962D913C914217530779F08F5F80938A
:1045E0002703A0919D03B0919E0358969C915897E4
:1045F00080912703891720F30CC0E0919D03F0916F
:104600009E03E558FF4F108285E00E949A1A0E948F
:104610007E1EF3E0E8E7D0E0C0E0B191B993CC3181
:10462000E1F7D581DDBFD681DEBFD781DF93D085AD
:10463000DF93C081D181E281F0919803FFBFF091B7
:10464000970318950F920FB6F894009298030F9065
:10465000F0939703E0939603F3E0E8E7D58FC48FD8
:10466000D0E0C0E0B38FB991B193CB31E1F7BF9106
:10467000AF91A087B187ADB7BEB7A683B78311242A
:1046800087E793E09EBF8DBFE8E7F3E084A18F73D7
:1046900084A3A0919D03B0919E0383A194A114963D
:1046A0009C938E93139781A192A112969C938E93C3
:1046B00011970E947E1EF3E0E8E7D0E0C0E0B191E0
:1046C000B993CC31E1F7D581DDBFD681DEBFD7818B
:1046D000DF93D085DF93C081D181E281F09198038F
:1046E000FFBFF091970318951F920F920FB60F928C
:1046F00011242F933F934F935F936F937F938F93E7
:104700009F93AF93BF93EF93FF93E091B900E87F3E
:10471000E93C08F0D5C0F0E0E057FC4D0C942029AE
:104720005525602460246024602460246024602473
:104730005924602460246024602460246024602460
:104740005924602460246024602460246024602450
:104750007124602460246024602460246024602428
:1047600097246024602460246024602460246024F2
:104770007124602460246024602460246024602408
:104780009D246024602460246024602460246024CC
:10479000A3246024602460246024602460246024B6
:1047A000B524602460246024602460246024602494
:1047B000DF2460246024602460246024602460245A
:1047C000A924602460246024602460246024602480
:1047D000C324602460246024602460246024602456
:1047E000E224602460246024602460246024602427
:1047F000E224602460246024602460246024602417
:10480000E224602460246024602460246024602406
:10481000E2246024602460246024602460246024F6
:10482000EB246024602460246024602460246024DD
:104830001C2560246024602460246024602460249B
:10484000EB246024602460246024602460246024BD
:104850001C2560246024602460246024602460247B
:104860000325602460246024602460246024602484
:104870002025602460246024602460246024602457
:104880002025602460246024602460246024602447
:104890003525602460246024602460246024602422
:1048A0004F256024602460246024602460246024F8
:1048B0004F258091AA028093BB0081E00E94970C53
:1048C000FF91EF91BF91AF919F918F917F916F91E8
:1048D0005F914F913F912F910F900FBE0F901F90BE
:1048E00018959091A9028091A802981768F080917C
:1048F0008702811119C081E08093860284EA809347
:10490000BC0010928502DCCFE091A90281E08E0FFD
:104910008093A902F0E0E857FD4F80818093BB00AF
:1049200081E00E94970CCCCF0E94D321C9CF80E2B6
:10493000809384020E94D321C3CF80E380938402BA
:104940000E94D321BDCF88E3809384020E94910C02
:10495000B7CFE091A90281E08E0F8093A902F0E029
:104960008091BB00E857FD4F80839091A902809110
:10497000A802981720F481E00E94970CA1CF80E054
:104980000E94970C9DCFE091A90281E08E0F809349
:10499000A902F0E08091BB00E857FD4F8083809131
:1049A0008702811109C081E08093860284EA8093A6
:1049B000BC001092850284CF0E94D32181CF0E9437
:1049C000D3217ECF83E0809385021092830281E021
:1049D0000E94970C75CF80918302803280F4E09121
:1049E000830281E08E0F80938302F0E08091BB0010
:1049F000ED59FD4F808381E00E94970C61CF80E0EC
:104A00000E94970C5DCF0E94910C809183028032AE
:104A100030F4E0918302F0E0ED59FD4F1082609197
:104A2000830270E0E0916102F091620283E692E01D
:104A300009951092830244CF80E00E94970C40CFEA
:104A400084E0809385021092600210925F02E091F0
:104A50005D02F0915E02099580915F02811105C0AF
:104A600081E080935F0210923D02E091600281E05C
:104A70008E0F80936002F0E0E35CFD4F80818093B5
:104A8000BB009091600280915F02981720F481E052
:104A90000E94970C15CF80E00E94970C11CF81E007
:104AA0000E94970C109285020BCF109284020E94F4
:104AB000D32106CF6FEF7FEF90E080E00E94A11935
:104AC0000895EF920F931F93CF93DF93E80134E0A3
:104AD00047FD34E1042E000C550B57FF03C05195E0
:104AE00041955109E32E022F242FAE010E949525F6
:104AF000CE01DF91CF911F910F91EF900895FB01AF
:104B0000DC0102C005900D9241505040D8F7089545
:104B1000FA01DC0104C08D910590801921F4215027
:104B20003040C8F7881B990B0895A9E0B0E0EBE985
:104B3000F5E20C94CD286A01F22EB02E102FFBE383
:104B4000AF2EA01608F41BE31F5F012F27E0AE0174
:104B50004F5F5F4F0E94F426BC018981982F9970A6
:104B6000913009F43FC09BE2E1FC04C09E2D91709E
:104B7000E0FC3AC05E2D5071E82FE87083FF46C01C
:104B800084E0911101C083E0EF2DE81B8F1508F040
:104B9000E0E0D6018E2F20E2552351F1992329F030
:104BA000D6019C93C60101966C0196012D5F3F4F83
:104BB000E2FE24C08EE4D6018C9391E411969C937E
:104BC000119712968C93D9018E2F90E281111BC000
:104BD000E20FF32FF11D10828EEF9FEF2996ECE08C
:104BE0000C94E9289DE2C6CF90E2C4CF2D9381506A
:104BF0008111FCCFCE0ED11CE0E0D0CF8EE6D601E5
:104C00008C9391E6DBCF9D938150E0CF482F447089
:104C100082FF3DC084E0911101C083E08F1510F444
:104C2000EF2DE81BD6018E2F20E2552309F19923A1
:104C300029F0D6019C93C60101966C0196012D5F67
:104C40003F4FE2FE1BC089E4D6018C938EE411969F
:104C50008C93119786E412968C93D9018E2F90E253
:104C6000882309F4B5CF9D938150FACF2D938150BD
:104C70008111FCCFCE0ED11CE0E0D9CF89E6D60160
:104C80008C938EE611968C93119786E6E4CF9B0168
:104C900077FF02C030E020E0A1E0B0E0911102C057
:104CA000B0E0A0E0F9013196AE0FBF1F8B2C912C24
:104CB000BB2009F461C05401EFEFAE1ABE0AAA0D81
:104CC000BB1DFA161B0619F014F04F2D4A1B51118B
:104CD00088C0E3FC59C07601A42FB0E2A1114FC0F7
:104CE000C40ED11C992309F45BC040E0D601119693
:104CF000F60190836D01552309F448C0012F060F7A
:104D00009A81582F507184FF03C0913309F40150E8
:104D100010160CF047C0093008F008E0EEE2FE2E55
:104D20005B01A01AB10885019194819491082F3FED
:104D3000320729F4D601FC92F60131966F01621711
:104D4000730794F1021713077CF5DB01A21BB30B69
:104D5000AA24A394B12CAC0EBD1EAA0DBB1D1196A6
:104D60008C9121503109D601119628153905F4F09E
:104D7000F60180836D01DBCFB12CA12CA0CFF70110
:104D8000B1937F01A150AACF9111B0CFD601942F3A
:104D900050E302C05D9391509111FCCFC40ED11C21
:104DA00040E0ACCF01E0BACF80E3DBCF62177307FE
:104DB00031F4963388F4953311F4552369F0F601F4
:104DC0008083FD01842F90E2811108C0A40FB11DE2
:104DD0001C9290E080E002CF81E3F1CF919381506B
:104DE000F3CF911183CF8ACF283008F027E0332703
:104DF000DA01990F311D87FD9160009661057105FB
:104E000039F432602E5F3D9330E32A95E1F708953F
:104E10009F3F30F080387105610509F03C5F3C5FD1
:104E20003D93913008F08068911DDF93CF931F93DD
:104E30000F93FF92EF92192F987F9695E92F9695F1
:104E40009695E90FFF27EE53FF4F99273327EE245E
:104E5000FF24A701E70105900894079428F4360F72
:104E6000E71EF81E491F511D660F771F881F991FE7
:104E70000694A1F70590079428F4E70EF81E491F41
:104E8000561FC11D770F881F991F661F0694A1F733
:104E90000590079428F4F80E491F561FC71FD11D0F
:104EA000880F991F661F771F0694A1F70590079436
:104EB00020F4490F561FC71FD81F990F661F771F71
:104EC000881F0694A9F784911095177041F0D69524
:104ED000C79557954795F794E7941A95C1F7E8E673
:104EE000F0E0689415901591359165919591059034
:104EF0007FE27395E118F10A430B560BC90BD009F9
:104F0000C0F7E10CF11E431F561FC91FD01D7EF4D0
:104F1000703311F48A95E6CFE894015030F0080F11
:104F20000AF40027021708F4202F2395022F7A3362
:104F300028F079E37D932A95E9F710C07D932A95AF
:104F400089F6069497956795379517951794E11804
:104F5000F10A430B560BC90BD00998F023957E91AB
:104F600073957A3308F070E37C932013B8F77E9141
:104F700070617D9330F0839571E37D9370E32A95A2
:104F8000E1F71124EF90FF900F911F91CF91DF91E6
:104F9000992787FD90950895E89409C097FB3EF402
:104FA00090958095709561957F4F8F4F9F4F992376
:104FB000A9F0F92F96E9BB279395F69587957795F4
:104FC0006795B795F111F8CFFAF4BB0F11F460FFB4
:104FD0001BC06F5F7F4F8F4F9F4F16C0882311F00C
:104FE00096E911C0772321F09EE8872F762F05C020
:104FF000662371F096E8862F70E060E02AF09A95BB
:10500000660F771F881FDAF7880F9695879597F9AF
:1050100008950E941C280C948D280E947F2838F047
:105020000E94862820F0952311F00C9476280C9489
:105030007C2811240C94C1280E949E2870F3959F0F
:10504000C1F3950F50E0551F629FF001729FBB277F
:10505000F00DB11D639FAA27F00DB11DAA1F649F1B
:105060006627B00DA11D661F829F2227B00DA11DCE
:10507000621F739FB00DA11D621F839FA00D611D54
:10508000221F749F3327A00D611D231F849F600D75
:10509000211D822F762F6A2F11249F5750409AF09E
:1050A000F1F088234AF0EE0FFF1FBB1F661F771F2A
:1050B000881F91505040A9F79E3F510580F00C94F5
:1050C00076280C94C1285F3FE4F3983ED4F386958C
:1050D00077956795B795F795E7959F5FC1F7FE2B95
:1050E000880F911D9695879597F9089597F99F6771
:1050F00080E870E060E008959FEF80EC0895002460
:105100000A941616170618060906089500240A942C
:1051100012161306140605060895092E0394000CB2
:1051200011F4882352F0BB0F40F4BF2B11F460FF41
:1051300004C06F5F7F4F8F4F9F4F089557FD90586A
:10514000440F551F59F05F3F71F04795880F97FB4B
:10515000991F61F09F3F79F0879508951216130605
:105160001406551FF2CF4695F1DF08C01616170634
:105170001806991FF1CF8695710561050894089569
:10518000E894BB2766277727CB0197F908952F92DC
:105190003F924F925F926F927F928F929F92AF92C7
:1051A000BF92CF92DF92EF92FF920F931F93CF9314
:1051B000DF93CDB7DEB7CA1BDB0B0FB6F894DEBFAB
:1051C0000FBECDBF09942A88398848885F846E84D1
:1051D0007D848C849B84AA84B984C884DF80EE801B
:1051E000FD800C811B81AA81B981CE0FD11D0FB624
:1051F000F894DEBF0FBECDBFED010895A1E21A2ED7
:10520000AA1BBB1BFD010DC0AA1FBB1FEE1FFF1F6A
:10521000A217B307E407F50720F0A21BB30BE40BBA
:10522000F50B661F771F881F991F1A9469F7609501
:105230007095809590959B01AC01BD01CF010895BB
:10524000EE0FFF1F0590F491E02D09940E943A297A
:105250000C948D280E94862858F00E947F2840F0E8
:1052600029F45F3F29F00C94762851110C94C12841
:105270000C947C280E949E2868F39923B1F355234F
:1052800091F3951B550BBB27AA2762177307840759
:1052900038F09F5F5F4F220F331F441FAA1FA9F3EF
:1052A00035D00E2E3AF0E0E832D091505040E695DD
:1052B000001CCAF72BD0FE2F29D0660F771F881F3E
:1052C000BB1F261737074807AB07B0E809F0BB0B31
:1052D000802DBF01FF2793585F4F3AF09E3F510545
:1052E00078F00C9476280C94C1285F3FE4F3983E44
:1052F000D4F3869577956795B795F7959F5FC9F72E
:10530000880F911D9695879597F90895E1E0660FAE
:10531000771F881FBB1F621773078407BA0720F027
:10532000621B730B840BBA0BEE1F88F7E095089590
:105330000F931F93CF93DF938230910510F482E097
:1053400090E0E091AA03F091AB0330E020E0B0E000
:10535000A0E0309799F42115310509F44AC0281BC3
:10536000390B24303105D8F58A819B81611571058F
:1053700089F1FB0193838283FE0111C04081518139
:105380000281138148175907E0F04817590799F42B
:10539000109761F012960C93129713961C93329605
:1053A000CF01DF91CF911F910F9108950093AA0330
:1053B0001093AB03F4CF2115310551F04217530779
:1053C00038F0A901DB019A01BD01DF01F801C1CF6D
:1053D000EF01F9CF9093AB038093AA03CDCFFE01E9
:1053E000E20FF31F8193919322503109398328836F
:1053F000D7CF2091A8033091A903232B41F420910A
:105400000201309103013093A9032093A803209156
:105410000001309101012115310541F42DB73EB74E
:105420004091040150910501241B350BE091A80324
:10543000F091A903E217F307A0F42E1B3F0B2817E6
:10544000390778F0AC014E5F5F4F2417350748F0FD
:105450004E0F5F1F5093A9034093A803819391932C
:105460009FCFF0E0E0E09CCFCF93DF930097E9F08F
:10547000FC01329713821282A091AA03B091AB0370
:10548000ED0130E020E01097A1F420813181820FFE
:10549000931F2091A8033091A9032817390709F019
:1054A00061C0F093A903E093A803DF91CF91089521
:1054B000EA01CE17DF07E8F54A815B819E014115BD
:1054C0005105B1F7E901FB83EA8349915991C40F72
:1054D000D51FEC17FD0761F4808191810296840F3E
:1054E000951FE90199838883828193819B838A83B5
:1054F000F0E0E0E012968D919C9113970097B9F53A
:105500002D913C911197CD010296820F931F20910E
:10551000A8033091A9032817390739F6309751F5B8
:105520001092AB031092AA03B093A903A093A8030F
:10553000BCCFD383C28340815181840F951FC8178C
:10554000D90761F44E5F5F4F88819981480F591FD9
:10555000518340838A819B81938382832115310506
:1055600009F0B0CFF093AB03E093AA039ECFFD0107
:10557000DC01C0CF13821282D7CFB0E0A0E0E3EC11
:10558000FAE20C94C9288C01009751F4CB010E94D7
:1055900098298C01C801CDB7DEB7E0E10C94E5286D
:1055A000FC01E60FF71F9C0122503109E217F307B7
:1055B00008F49DC0D901CD91DC911197C617D7078A
:1055C00098F0C530D10530F3CE01049786179707C0
:1055D00008F3C61BD70B2297C193D1936D937C938D
:1055E000CF010E94342AD6CF5B01AC1ABD0A4C0110
:1055F0008C0E9D1EA091AA03B091AB03512C412C9F
:10560000F12CE12C109731F58091A8039091A9031A
:105610008815990509F05CC04616570608F058C071
:105620008091000190910101009741F48DB79EB7E0
:105630004091040150910501841B950BE817F9076F
:1056400008F055C0F093A903E093A803F901718312
:105650006083A0CF8D919C91119712966C901297B8
:1056600013967C901397A815B90559F56C0142E083
:10567000C40ED11CCA14DB0420F1AC014A195B0929
:10568000DA011296159780F062827382518340830B
:10569000D9016D937C93E114F10471F0D701139655
:1056A000FC93EE93129776CF22968C0F9D1FF901F3
:1056B00091838083F301EFCFF093AB03E093AA03D0
:1056C00069CF4816590608F42C017D01D3019ACF01
:1056D000CB010E9498297C01009749F0AE01B801E6
:1056E0000E947A2BC8010E94342A870153CF10E010
:1056F00000E050CFFB01DC0102C001900D9241504F
:105700005040D8F70895DC0101C06D9341505040DE
:10571000E0F70895FB01DC0101900D920020E1F714
:10572000089512E0C4E4D2E004C0FE010E942029E2
:0C5730002196C534D107C9F7F894FFCFCB
:10573C000000AC03800000000000610F310FC018A6
:10574C00060F2A0F160F070F000000003A17000073
:10575C000000B709EB0BC018860C0F191519453052
:10576C00350045353000533035005061636B65743E
:10577C0053697A653D36300051433031006D31004C
:10578C006C0041533733343120496E6974696E674C
:10579C002E2E2E00415337333431204F4B0052659F
:1057AC0061647920666F72206D6561737572650036
:00000001FF
