:100000000C9448020C9470020C9470020C947002D0
:100010000C9470020C9470020C9470020C94700298
:100020000C9470020C9470020C9470020C94700288
:100030000C9470020C9470020C9470020C94700278
:100040000C94441B0C9470020C9470020C9470027B
:100050000C9470020C9470020C9470020C94700258
:100060000C94AC1B0C9470025F00030203040305A4
:1000700004050C00FE07FE08FF0142028603AE20C5
:1000800005006A0721073943C7A00422079B56478A
:100090006209230D35424F65504A49322815002424
:1000A0000E4D3E57B654946C4B94CA1601250A3D2A
:1000B000428734659D2601260D3D424F96444956A0
:1000C00049A4480927061957C700280BCB3E5712E9
:1000D00025512DCA02290CCB3E47166551254A22CF
:1000E000002A0B3D4257A5B2654B53042B0A2D46FF
:1000F00057180D5218012C081B3E8F3224002D0674
:100100000D4EC7202E069242C7102F0A3D42671699
:1001100066C52C04300ABC428F12794A140031089B
:10012000BB424F227519320A3D42CF928559DB20DE
:10013000330C3D42C7206699AA250B00340C3D4282
:100140005F2625A564D0C204350B3D42C7714843E4
:100150002D5900360C3D42979485439269C9023768
:100160000B3D42C7206661169600380C3D42CF9287
:1001700069C99269C902390C3D42CF9269C91066BA
:1001800091043A08AA42C7100D013B09333E8F5132
:100190001912003C07AB4657522B3D081D4AC7A019
:1001A0000E023E08AB46475629013F0A3D42CF9218
:1001B00035E65004400D3D42CF922943922843BA80
:1001C00000410B3D42CF9269C390D902420D3D429E
:1001D000C71055A264AA448302430A3D42CF9289C4
:1001E0006DC902440F3D42C71055A2244AA2241AE9
:1001F0001400450B3D42C7311C92301C04460A3D99
:1002000042C7311C92B008470B3D42CF9289A52DC1
:100210005900480A3D4247661B86CC164908BB4236
:10022000C71275194A0A3D42D716B64491044B0DC0
:100230003D42472625252D892A59004C083D424735
:10024000D8E3204D0A3D4247B62C89E6164E0C3DB8
:100250004247A64D4A226D5A004F0A3D42CF92793D
:100260004B1600500C3D42C79064DAA08445005103
:100270000B3D42CF92B92452A404520D3D42C79087
:1002800064DAA0942A5900530B3D42CF92A9AB9651
:100290002C0054093D42C720853D0155093D424788
:1002A000E65BB200560B3D4247E69694922C02570D
:1002B0000A3D4247E62551BA00580B3D4247A62564
:1002C000B54A4D0B590A3D4247A625B5B0095A0A11
:1002D0003D42C720661D07015B08CB3EC710F5698C
:1002E0005C093D42471AA6C5345D08CB3EC7D4A77A
:1002F000215E081D565796D4025F060D3AC720604E
:10030000069B564756610A2D42CF9A0C5A32046218
:100310000C3D4247180E49661B1400630A2D42CF5C
:10032000928959B200640A3D426765D06CC9106574
:100330000A2D42CF920D4ABA00660A3D429754C92F
:10034000B6B006670C3D3ACF92D992214C160068A0
:100350000A3D4247180E49E6166908BB424F28B5C8
:100360000C6A0ACC3A5FACB54989026B0B3D424737
:10037000589392A992056C08BB4287D4CB006D0BB1
:100380002D4287D2A2244AA2146E092D424762D27E
:100390006C016F092D42CF92D99205700C3D3AC77E
:1003A0009064B641094300710A3D3ACFA0D9922129
:1003B0002C72092D424762128B0073092D42CFA087
:1003C0001E1400740A3D4257180D52581575092D18
:1003D0004247E6A42801760A2D4247664B6A11007F
:1003E000770A2D42476649942E00780A2D42479697
:1003F000D42AB500790A3D3A47664B6A8D007A09DE
:100400002D42C7A0B50D027B0ACB3E571255B2A8AC
:10041000167C06493FC7037D0BCB3E4716D592A8F5
:1004200012017E091D4A4FA424520200000004FF5D
:10043000FF000000000000240027002A0000000048
:1004400000250028002B00000000002300260029C2
:10045000000404040404040404020202020202036D
:100460000303030303010204081020408001020477
:1004700008102001020408102000000008000201FA
:100480000000030407000000000000000000371B0C
:1004900011241FBECFEFD8E0DEBFCDBF11E0A0E03A
:1004A000B1E0EAEBFBE302C005900D92A83EB10774
:1004B000D9F723E0A8EEB1E001C01D92AD3FB2072D
:1004C000E1F712E0C8E4D2E004C02197FE010E94E7
:1004D000B41DC734D107C9F70E949F1B0C94DB1DC4
:1004E0000C9400008330B1F060F08730E9F0883080
:1004F00009F1843021F5E0E8F0E080818F7D808390
:100500000895813069F0823021F484B58F7D84BDF7
:1005100008950895E0E8F0E080818F778083089562
:1005200084B58F7784BD0895E0EBF0E080818F770C
:1005300080830895E0EBF0E080818F7D80830895D3
:10054000CF93DF93282F30E0F901E758FB4F8491D8
:10055000F901EB59FB4FD491F901EF5AFB4FC491CC
:10056000CC23B1F081110EC0EC2FF0E0EE0FFF1F95
:10057000E95BFB4FA591B491EC91ED2331F490E050
:1005800080E008C00E947202EFCF81E090E002C0DC
:1005900090E080E0DF91CF9108951F93CF93DF9398
:1005A000282F30E0F901E758FB4F8491F901EB590E
:1005B000FB4F1491F901EF5AFB4FC491CC23A9F0E2
:1005C000D62F811116C0EC2FF0E0EE0FFF1FE35C79
:1005D000FB4FA591B4918FB7F894D1110DC09C91A8
:1005E000E12FE095E923EC938FBFDF91CF911F912D
:1005F00008950E947202E7CFEC91E12BEC93F4CFC7
:10060000CF93DF9390E0FC01EB59FB4F24918F5A7D
:100610009B4FFC018491882319F190E0880F991F6A
:10062000FC01ED5CFB4FA591B491FC01E35CFB4F39
:10063000C591D491662349F06230A9F08FB7F89440
:10064000EC91E22BEC938FBF0BC09FB7F8948C9189
:10065000E22FE0958E238C938881E823E8839FBF67
:10066000DF91CF9108959FB7F8943C91822F8095A8
:1006700083238C93E881E22BE8839FBFF1CF7894AA
:1006800084B5826084BD84B5816084BD85B5826097
:1006900085BD85B5816085BDEEE6F0E08081816035
:1006A0008083E1E8F0E01082808182608083808135
:1006B00081608083E0E8F0E0808181608083E1EB0D
:1006C000F0E0808184608083E0EBF0E080818160F5
:1006D0008083EAE7F0E080818460808380818260AB
:1006E0008083808181608083808180688083109294
:1006F000C10008958230910538F0880F991F880F46
:10070000991F05970197F1F708953FB7F8948091E5
:10071000F9039091FA03A091FB03B091FC0326B575
:10072000A89B05C02F3F19F00196A11DB11D3FBF29
:10073000BA2FA92F982F8827BC01CD01620F711DF8
:10074000811D911D660F771F881F991F660F771FE8
:10075000881F991F0895089508958F929F92AF92D0
:10076000BF92CF92DF92EF92FF926B017C010E94C9
:1007700085034B015C011BC021E0C21AD108E108CE
:10078000F10888EE880E83E0981EA11CB11CC114EC
:10079000D104E104F10459F00E9485036819790934
:1007A0008A099B09683E73408105910528F7C114A9
:1007B000D104E104F10459F7FF90EF90DF90CF905E
:1007C000BF90AF909F908F90089521E0FC0120830F
:1007D00084E793E00895DC0111961C921E928FE14C
:1007E00094E015969C938E93149717969C938E93F2
:1007F000169719969C938E9318971B969C938E939D
:100800001A9755961C92559758961C9258971C9675
:100810001D921D921D921C921F978FEF56968C93DE
:1008200056975A968C935A9790E006C0FD01E90FAF
:10083000F11D2FEF268F9F5F9631C0F3089580E062
:100840000895DC011A96ED91FC9130E020E00995C5
:100850000895DC011496ED91FC9130E020E040E039
:1008600060E109950895462FDC011496ED91FC9105
:1008700030E020E06BE009950895DC011496ED91DD
:10088000FC9130E020E040E06AE009950895DC0149
:100890001496ED91FC9130E020E040E069E009958C
:1008A0000895AF92BF92CF92DF92EF92FF920F9393
:1008B0001F93CF93DF93EC015B016A0179010E94E2
:1008C000EB03BD82AC82DF82CE82F986E8861B878D
:1008D0000A87CE010E944704DF91CF911F910F91AB
:1008E000FF90EF90DF90CF90BF90AF9008950F935F
:1008F0001F93CF93DF9300D000D01F92CDB7DEB708
:100900006C834D832B831A830983DC011496ED914C
:10091000FC919E012F5F3F4F41E06FE009950F90E2
:100920000F900F900F900F90DF91CF911F910F912B
:100930000895CF93DF93EC01EA85FB8530E020E05A
:1009400040E068E20995EE81FF8130E020E040E080
:1009500064E1CE01099541E06BE4CE010E942104DF
:10096000E881F981448169E2CE010E94210440E0DE
:100970006BE4CE010E942104E881F981448169E29F
:10098000CE010E94210441E06BE4CE010E942104CB
:10099000E881F981458169E2CE010E942104DF915D
:1009A000CF910895FC0171836083FB012289FC01D2
:1009B000248B0895DC011696ED91FC9130E020E047
:1009C00040E069E109950895DC011696ED91FC91EE
:1009D00030E020E040E068E1099508959A01DC01EB
:1009E0001696ED91FC91462F67E109950895CF92F7
:1009F000DF92EF92FF920F931F93CF93DF931F929B
:100A0000CDB7DEB76C017B01D7016D918D016731E8
:100A100009F178F06A3160F16E3FA9F5FD0140817E
:100A2000498369E2C6010E942104F2E0EF0EF11C45
:100A3000EBCF653140F1FD0140814983D601169627
:100A4000ED91FC9130E020E0C6010995B2E0EB0E9B
:100A5000F11CDACFF70181818983AE014F5F5F4FCF
:100A600061E0C6010E94EE04F2E0EF0EF11CCCCF73
:100A7000D6011696ED91FC9130E020E040E0C601F1
:100A800009957801C1CF0F90DF91CF911F910F9100
:100A9000FF90EF90DF90CF900895462FDC011696DF
:100AA000ED91FC9130E020E066E109950895462F34
:100AB000DC011696ED91FC9130E020E065E10995AE
:100AC0000895EF92FF920F931F93CF93DF938C01C2
:100AD000C42F79016D3009F44DC0D8F16E3009F49E
:100AE00065C06F3009F077C00E94E404F701D3813C
:100AF0006D2F660F660F660FD8015496DC91D60FE6
:100B000060E4C8010E9457056D2F62956F706061A7
:100B1000C8010E9457056D2F6F70C8010E944D05D6
:100B2000F7016481606BC8010E944D05D7011296E0
:100B30006C9112974D915C91660F660F660FC8011C
:100B40000E94EE04C15091F7C8010E94DA0481E0CE
:100B50003BC06B3009F03FC0411106C063E471E057
:100B60000E94F70481E030C06EE371E00E94F70458
:100B700081E02AC041110DC067E371E00E94F704D3
:100B8000D801ED91FC911197828954968C9381E064
:100B90001BC060E371E00E94F704D801ED91FC9165
:100BA0001197838954968C9381E00EC00E94E404CF
:100BB00061E8C8010E9457056C2FC8010E944D05CD
:100BC000C8010E94DA0481E0DF91CF911F910F915B
:100BD000FF90EF90089580E0F7CF0F931F93CF938E
:100BE0008C01C62F0E946105811115C0C93061F0CA
:100BF000CA3091F4C8010E94990460E671E0C8010E
:100C00000E94F70481E008C068E471E0C8010E9416
:100C1000D20481E001C081E0CF911F910F9108952E
:100C2000DC011896ED91FC9130E020E040E069E1B4
:100C300009950895DC011896ED91FC9130E020E0D3
:100C400040E068E1099508959A01DC011896ED915C
:100C5000FC91462F67E109950895CF93DF931F928A
:100C6000CDB7DEB76983AE014F5F5F4F61E00E9491
:100C700024060F90DF91CF910895EF92FF921F937A
:100C8000CF93DF93EC01162F7A010E941A0660E4DD
:100C9000CE010E942D06E885F9859701412F67E175
:100CA000CE010995CE010E941006DF91CF911F91D0
:100CB000FF90EF900895EF92FF920F931F93CF93C1
:100CC0007C01C42F8901663191F178F0683109F413
:100CD00061C090F1693109F065C0809173038111A1
:100CE0005DC01092730381E018C0643109F43FC005
:100CF000653109F057C080917303811114C0C70199
:100D00000E941A0660E0C7010E942D066C2FC701E1
:100D10000E942D0681E080937303CF911F910F9164
:100D2000FF90EF900895C7010E941006E8CF642F4E
:100D30000E942D0681E0F1CF80917303882361F03A
:100D4000C7010E94100608C0A80168E1C7010E94FF
:100D50003D06C851085E1F4FC931B0F7A8016C2F7E
:100D6000C7010E943D061092730381E0D6CFDC01DB
:100D700056968C9156978F3F49F0D7011896ED9172
:100D8000FC9198014C2FC7010995C7CF88E756966B
:100D90008C93F3CF1092730381E0BFCFC7010E9401
:100DA00010069FCF80E0B9CF662329F06A3031F07A
:100DB000862F90E008958FEF9FEF08958FEF9FEFBC
:100DC0000895FC01108E0895CF93DF93FC01A0815C
:100DD000B18182AD982F990F990F990F95AF5096C9
:100DE0009C915097903208F09FE1990F990F990FBD
:100DF00094AF23AD922F990F990F990F96AF622F51
:100E0000680F7727771F51963C9151973617170631
:100E100014F4832F821B880F880F880F97AFEF0180
:100E2000C05CDF4F890F888380EF219688835496BA
:100E30008D919C915597813F910508F48883569632
:100E40008C91EE5BFF4F8083DF91CF9108950E94DC
:100E5000E4060895FC01E95BFF4F10823296108290
:100E600031972FEF208332962083DC01D696ED91C7
:100E7000FC910280F381E02D099508950F931F9353
:100E8000CF93DF93DC01342F377081E090E0032EA5
:100E900002C0880F991F0A94E2F7182FFD01E75846
:100EA000FF4F5081523018F170E0513011F150E095
:100EB000487FED91FC9111978089849FF001859F77
:100EC000F00D1124D8968D919C91D997E60FF11DC4
:100ED000E80FF91F011115C08081872B81278193AD
:100EE0002150D1F7DF91CF911F910F910895782F65
:100EF000DCCF10E0DCCF71E019C0770F110F222397
:100F000089F39081972B912790833F5F3770215011
:100F10003111F3CFDC968C91DC97E80FF11DCD01F8
:100F200087589F4FEC018881823028F3813039F354
:100F300011E0E5CF461730F4821760F0241760F413
:100F400081E00895821750F4241710F080E008958E
:100F500081E0089581E0089580E0089580E008959B
:100F6000FF920F931F93CF93DF93EC01162FF22E76
:100F7000202FDC01AA5BBF4FFC01EB5BFF4F6C91A4
:100F800080810E949A07882359F0FE01EC5BFF4F95
:100F9000CD5BDF4F2F2D412F608188810E949A0702
:100FA000DF91CF911F910F91FF9008950F93CF93F1
:100FB000DF93EC019C01265B3F4F885B9F4FDE0176
:100FC000A75BBF4FBE01695B7F4FF9010081FC0148
:100FD00020814C91FB016081CE010E94B0078823E3
:100FE00069F181E0FE01ED58FF4F8083F097908119
:100FF00034968081981710F434978083FE01EC5B5F
:10100000FF4F908134968081891710F43497808344
:10101000FE01EB5BFF4F908134968081981710F4AE
:1010200034978083FE01EA5BFF4F90813496808184
:10103000891738F4CA5BDF4F888303C0CD58DF4F70
:101040001882DF91CF910F910895FC01ED5BFF4F66
:1010500010823297208133962083FC0127ADEB5B11
:10106000FF4F208335972081369620830E94D60734
:1010700008950F93DC01DE963C91DE97431BD496D6
:10108000ED91FC9109950F9108950F930E943908F5
:101090000F910895FC013081DB019C91930F931710
:1010A00020F4321790F49FEF920F321780F4491713
:1010B00080F4341708F0432F291708F0292F4083B4
:1010C000241BFB01208381E00895342FEECF80E0C4
:1010D000089580E00895EF92FF920F931F93CF93AE
:1010E000DF9300D01F92CDB7DEB769834A832B838D
:1010F000FC01ED58FF4F20812223C9F02B812223D0
:10110000B1F0223020F00230E1F0033001F17C0137
:10111000102F117000FD3CC0FC01EB5BFF4F908174
:101120008A81891720F0319690818917B0F00F904D
:101130000F900F90DF91CF911F910F91FF90EF9043
:101140000895362F321B232F2F5F2983E0CF3A815A
:10115000321B232F2F5F2A83DACF329720813197DA
:101160004081BE016D5F7F4FCE0101960E944A080B
:101170008823E9F2D701D696ED91FC910480F581A0
:10118000E02D012F2B814A816981C7010995CFCFBD
:10119000FC01ED5BFF4F90818981891740F2319608
:1011A0009081891720F63296208131974081BE01C7
:1011B0006D5F7F4FCE0102960E944A088111DACFFF
:1011C000B6CF0F93FC01EB5BFF4F2081421760F01D
:1011D00031962081421740F433972081621720F026
:1011E00031962081621710F00F91089500E021E000
:1011F0000E946B08F9CFAF92BF92CF92DF92EF922D
:10120000FF920F931F93CF93DF936C01142FD22F74
:10121000261720F5F62EF21A011718F5B12EB01A7E
:10122000FB1410F18B2DBF2CF82E802F0D2FD82FF3
:10123000812F162F682FE12C011730F08D2FD62F1C
:10124000682F802F012F182FCB2DC695D61778F435
:10125000AA24A3941F3FB1F4115014C0F22EF61A21
:10126000DBCFB02EB11ADCCFEE24E394E5CFAA2475
:10127000AA94F0CF402F6D2FC6010E94E108CF192C
:101280005AF00F5F101758F0E110F4CF4D2F602F78
:10129000C6010E94E108F3CFDA0DCB0DF2CFDF914A
:1012A000CF911F910F91FF90EF90DF90CF90BF9063
:1012B000AF9008950F9301E00E946B080F9108957D
:1012C0000F9300E00E946B080F910895855A9F4F7D
:1012D000FC0160830895835B9F4F21EA39E0FC01A4
:1012E0003183208308950F931F93CF93DF93EC01F5
:1012F000FC01E55BFF4F118210823DAB2CAB79AF57
:1013000068AF4AAF1BAE3D961082B0961082319600
:1013100081E08083319680831FAB0EABD801ED91C5
:10132000FC91CE010995CE010E942A07CE010E94B0
:101330006B09C55ADF4F1882DF91CF911F910F9132
:10134000089580E00895FC01E55BFF4F2081318125
:10135000232B69F17E9620813C9620833B97408128
:101360003C96408332973081332309F1313001F1CB
:10137000022E000C330BFC01EA59FF4FE081DC0127
:10138000A859BF4F5C91652F052E000C770B6E0F8F
:10139000711DE7FD7A95261737071CF4E50F1D969A
:1013A000EC93541724F48A589F4FFC0150830895FE
:1013B00039973081231714F43A963083FC01E459AD
:1013C000FF4F208124179CF78A589F4FFC012083F0
:1013D0000895213039F020F0223031F0840F089543
:1013E000860F0895841B0895861B0895213039F0D7
:1013F00020F0223031F0861B0895840F0895860F67
:101400000895841B08958F929F92AF92BF92CF92BE
:10141000DF92EF92FF920F931F93CF93DF937C01A4
:10142000D62E942EFC01E15BFF4FC480158113C0C2
:101430008D2C19C0F701E15BFF4F9285BA9690831E
:10144000282D482F6B2DC7010E946B08DC1680F1F8
:10145000DC1A1F5FC12CF701E15BFF4FC681CC197D
:10146000DC1630F38C2EF701E15BFF4FD38104854E
:10147000A12E202F412F6C2D82810E94E909B82EC8
:10148000202F412F6C2D8D2F0E94F6099110D2CF65
:10149000F701E15BFF4F91859111D8CF9385BA9603
:1014A0009083282D482F6B2DC7010E946B08CECF4B
:1014B0006D2D6C0DF701E15BFF4F6483A582DF9119
:1014C000CF911F910F91FF90EF90DF90CF90BF9041
:1014D000AF909F908F900895DC0118964C911897CB
:1014E000ED91FC911197249130E0042E02C03595C6
:1014F00027950A94E2F7822F942F960F983080F068
:1015000088E0841B31961196FC93EE93E491F0E011
:1015100002C0EE0FFF1F8A95E2F78E2F822B9850A4
:101520002FEF3FEF02C0220F331F6A95E2F720959D
:1015300018969C93822308950F931F93CF93DF9364
:10154000EC018C01015B1F4FF801718360831086F1
:1015500071966081C8010E946C0AF80186837296B8
:101560006081C8010E946C0AF8018783BA96808165
:10157000F801828791E0811190E0C15BDF4F9B878A
:10158000DF91CF911F910F910895CF93C62F0E94A5
:101590006C0AC15021E030E002C0220F331FCA950F
:1015A000E2F7821BCF9108957F928F929F92AF9224
:1015B000BF92CF92DF92EF92FF920F931F93CF9340
:1015C000DF93EC017C018FE4E80EF11CCE010E9458
:1015D0009C0AFE01EA5AFF4FC0803C966081C70119
:1015E0000E94C50A782EFE01ED59FF4F6081C701A8
:1015F0000E94C50A182FFE01EC59FF4F6081C701F8
:101600000E94C50AD82EF701968019140CF05BC011
:1016100004851C0D1195202F412F672D82810E947A
:10162000E909882EF7018283202F412F672D8381BE
:101630000E94F609F7018383013009F453C048F092
:10164000023009F459C0033009F464C0082F282D72
:1016500004C0282D290D0C2D080F482F682DCE0110
:101660000E94B007882379F1FE01E15BFF4F1482ED
:101670001582FE01E25AFF4F6081C7010E946C0A89
:10168000082FFE01E15AFF4F6081C7010E946C0ADA
:10169000182F40E0602FCE010E94030A41E0612F25
:1016A000CE010E94030A61E0C7010E946C0A811109
:1016B000F0CFFE01E15BFF4F85818C15D4F282856E
:1016C000C758DF4F88838D2DDF91CF911F910F91E8
:1016D000FF90EF90DF90CF90BF90AF909F908F9052
:1016E0007F900895982D9C1921E0280D082F090D51
:1016F00088248394890EB1CF982D991921E0280D63
:10170000382F3C1901E0080F81E0830F882483946F
:10171000890EA3CF2C2D280D982F991901E0080FC1
:1017200081E0890F9ACFFC01E60FF11D849190E0D2
:101730003196982F8827E4918E0F911D0895EF928E
:10174000FF920F931F93CF93DF93FC01E55BFF4F55
:10175000C081D18167966F3F710509F040F5613610
:101760007105C0F081599F4FFC0180819181C80FA4
:10177000D91FCE010196FC012491222309F446C011
:10178000FE0124912617170681F0FC018491C80FF1
:10179000D11DEFCF6134710560F383599F4FFC0178
:1017A00080819181C80FD91FE4CF019631C08B0190
:1017B000FC01EF58FF4F80819181C80FD91F7E0136
:1017C00060E0C7010E94930BC80FD91F62E0C701F8
:1017D0000E94930BF4E0EF0EF11C8017910780F349
:1017E000FE01849190E0982F88273196E4918E2B0A
:1017F0000097A9F00817190731F0FE013296E4911D
:10180000CE0FD11DEDCFCE01039602C090E080E057
:10181000DF91CF911F910F91FF90EF90089590E08D
:1018200080E0F6CFCF93DF93EC01FC01EF5AFF4F3E
:10183000608331964083B9010E949F0B009739F075
:10184000BC01CE010E94D40ADF91CF91089580E0BF
:10185000FBCFEF92FF920F931F93CF93DF93EC0197
:10186000162F042F7901FC01E55AFF4F808181304A
:10187000E1F088F0823019F1833059F19701402F5F
:10188000612FCE010E94120CDF91CF911F910F9119
:10189000FF90EF900895FE01E35BFF4F0190F08110
:1018A000E02DCE010995080FE9CFFE01E35BFF4F64
:1018B0000190F081E02DCE010995181BDFCFFE01CC
:1018C000E35BFF4F0190F081E02DCE010995081BED
:1018D000D5CFFE01E35BFF4F0190F081E02DCE01FB
:1018E0000995180FCBCF860F911DFC0184910895A7
:1018F0000F931F93CF93DF93EC018B0160E0C8013E
:101900000E94730C888361E0C8010E94730C898374
:1019100062E0C8010E94730C8A8363E0C8010E94E0
:10192000730C8B8364E0C8010E94730C8C8365E0A8
:10193000C8010E94730C8D8366E0C8010E94730C7D
:101940008E8367E0C8010E94730C8F8368E0C80132
:101950000E94730C888769E0C8010E94730C898714
:101960006AE0C8010E94730C8A876BE0C8010E947C
:10197000730C8B876CE0C8010E94730C8C876DE040
:10198000C8010E94730C8D876EE0C8010E94730C21
:101990008E876FE0C8010E94730C8F8760E1C801D9
:1019A0000E94730C888B61E1C8010E94930B9A8B93
:1019B000898B63E1C8010E94930B9C8B8B8B65E143
:1019C000C8010E94930B9E8B8D8BDF91CF911F914D
:1019D0000F910895CF93DF93FC01E55BFF4F2081CA
:1019E00031812617370751F0EC0171836083845AE7
:1019F0009F4F0E94780CCE010E94A309DF91CF91E6
:101A00000895CF92DF92EF92FF920F931F93CF939F
:101A1000DF931F92CDB7DEB77C016B0189019A017C
:101A20004BE556E06DEE75E00E945104CE01019643
:101A30000E94E50386012EE337E04981BC01C7011E
:101A40000E9473090F90DF91CF911F910F91FF902A
:101A5000EF90DF90CF900895CF92DF92EF920F93A7
:101A60001F93CF93DF936C01162FD42FC22FE0FC6E
:101A70000EC0E1FC1AC0E3FC27C0E2FC34C0DF91D9
:101A8000CF911F910F91EF90DF90CF900895402F4D
:101A90004D1B622F610F0E94E108402F411B6D2FEB
:101AA0006C0FC6010E94E108E4CF402F4D1B6C2F44
:101AB000611BC6010E94E108402F411B6C2F6D1B6A
:101AC000C6010E94E108D7CF402F4D0F6C2F610F48
:101AD000C6010E94E108402F410F6D2F6C0FC60117
:101AE0000E94E108CACF402F4D0F6C2F611BC60129
:101AF0000E94E108402F410F6C2F6D1BC6010E9410
:101B0000E108BDCF8F929F92AF92BF92CF92DF92AA
:101B1000EF92FF920F931F93CF93DF935C01C62E3A
:101B2000942E122F802EC1E0C21B822F8195D82EB9
:101B3000DD0CE02E042F262F412F60E0C5010E940E
:101B40002C0DD0E0FF24F3940CC0DF5FF394F394EA
:101B5000CF0DE82C092D2C2D412F6D2FC5010E9492
:101B60002C0DD11738F4CC2384F31150D394D39493
:101B7000CD0DEBCFDF91CF911F910F91FF90EF90A3
:101B8000DF90CF90BF90AF909F908F900895DF929D
:101B9000EF92FF920F931F93CF93DF937C01D62F89
:101BA000142FC22FD02E042F020F260F0F5F2F5F8E
:101BB0004C1B6C1B0E94B007811108C0DF91CF91B4
:101BC0001F910F91FF90EF90DF9008950D2D2C2F16
:101BD000412F6D2FC7010E94820DF0CFCF93DF936D
:101BE000EC016BAFEEA9FFA90190F081E02D099502
:101BF000EEA9FFA90280F381E02DCE010995DF91C6
:101C0000CF9108950F931F93DC01ED91FC911197F3
:101C10002089D896ED91FC91629F80011124000FDC
:101C2000111F000F111F000F111F0E0F1F1F60E06B
:101C30000E9477041F910F910895EF92FF920F93E6
:101C40001F93CF93DF938C01DC01DA96FC90DA9737
:101C5000DB96DC91DB97ED91FC91E188C0E04D2FA4
:101C60006C2FC8010E94020ECF5FDF5FCF1510F40A
:101C7000DE15A8F3DF91CF911F910F91FF90EF90A8
:101C800008958F929F92AF92BF92CF92DF92EF9280
:101C9000FF920F931F93CF93DF936C01162FF42EB7
:101CA000B22EA02ED42FD00FC62FC20F0D2F2C2F47
:101CB0000E94B00781110DC0DF91CF911F910F914C
:101CC000FF90EF90DF90CF90BF90AF909F908F905C
:101CD0000895812E8E0C9F2C9E0CCE19C150DE19BA
:101CE000D15002E02E2D492D682DC6010E94C70D4E
:101CF00001E02E2D492D6C2FC6010E94C70D04E076
:101D00002E2D4D2F682DC6010E94C70D08E02E2DE7
:101D10004D2F6C2FC6010E94C70D2B2D2E192E1989
:101D2000CA2DCE19CE1983949394233090F4C330E6
:101D300018F2C250BA942C2F492D612FC6010E946F
:101D40005A09612F6B0D2C2F492DC6010E945A098B
:101D5000B3CFDEEFD20FAA942D2F4F2D682DC601E1
:101D60000E9460094F2D4A0D2D2F682DC6010E943B
:101D70006009DDCFFC0161A742A723A708950F9357
:101D80001F93CF93DF938C01E8EDE60FE63208F066
:101D90006DC0F0E0E253F14F0C94B41DF40E090F46
:101DA000500F500F360F110F360F360F360F360FFC
:101DB000360F360F360F360F360F360F360F360FFB
:101DC000360F360F360F360F360F360F360F360FEB
:101DD000360F360F360F360F360F360F360F360FDB
:101DE000360F360F1C0F1C0FC0E004C062E00E94CB
:101DF0000003CF5FC63108F059C0F801EC0FF11DA8
:101E0000868D8F3FB1F3C03188F761E00E940003F7
:101E1000F0CF642F70E090E080E00E94AD0381E09D
:101E200040C0433030F082E090E00E947A0381E0CD
:101E300038C085E090E0F9CF41110EC06F73EC011E
:101E4000C60FD11D61E08E8D0E94000360E08E8D73
:101E50000E94CD0281E025C06F73060F111D62E064
:101E6000F801868D0E94000381E01BC0603400F100
:101E70006F73F801E60FF11D868D8F3FD9F0603149
:101E800050F00E94A00221E0892B09F420E0F80123
:101E9000218F81E006C0642F0E94CD0281E001C045
:101EA00081E0DF91CF911F910F91089581E0F9CFEB
:101EB00080E0F7CF81E0F5CFFC017183608329E3F7
:101EC0002283089585EC8093BC001092410308950D
:101ED000811104C085E88093BC00089585EC80934F
:101EE000BC00089590931A0380931903089590936A
:101EF0001E0380931D030895AC0120911B03260F40
:101F00003327331F21323105F4F4809141038430AB
:101F1000E1F490E00FC0E0911B03292F30E0E20FC5
:101F2000F32FF11D240F351FD9012C91E750FD4FE0
:101F300020839F5F961778F380911B03680F60934F
:101F40001B0380E0089581E0089582E008959B01DD
:101F5000AC0160E074E284EF90E00E94921D205199
:101F60003109410951095695479537952795209391
:101F7000B8000895ECEBF0E080818A7B808360E01C
:101F800082E10E94CD0260E083E10E94CD020895CB
:101F90001092410381E0809343031092420361E079
:101FA00082E10E94CD0261E083E10E94CD02E9EB73
:101FB000F0E080818E7F808380818D7F808388E4C4
:101FC0008093B80085E48093BC000895EF92FF925F
:101FD0000F931F93CF93DF9391E09093F8028111B9
:101FE00007C0DF91CF911F910F91FF90EF9008955F
:101FF000C8EBD0E0F8800AEB10E0F801E0800E9426
:10200000BA0F0E94C80FF801E082F882EACF4F921F
:102010005F926F927F928F929F92AF92BF92EF9258
:10202000FF920F931F93CF93DF93413280F081E0B3
:10203000DF91CF911F910F91FF90EF90BF90AF90E4
:102040009F908F907F906F905F904F900895D22FC8
:10205000C42F7B01182F0E9485034B015C019091D6
:102060004103992329F18091F4029091F502A09106
:10207000F602B091F702892B8A2B8B2B81F30E94F9
:102080008503681979098A099B094090F4025090E8
:10209000F5026090F6027090F70246165706680641
:1020A0007906E8F68091F3020E94E60F85E0C0CF42
:1020B00082E080934103009343038FEF80934003BA
:1020C00010926503C09364030AC0E92FF0E0D701C2
:1020D000AE0FBF1F8C91EC5BFC4F80839F5F9C1702
:1020E000A0F310926603812F90E0880F991F109142
:1020F0006603812B80936603809142038130A1F1B6
:1021000085EE8093BC000E9485034B015C01DD23BA
:1021100009F462C080914103823009F05DC0809172
:10212000F4029091F502A091F602B091F702892B8A
:102130008A2B8B2B61F30E948503681979098A0920
:102140009B090091F4021091F5022091F602309162
:10215000F7020617170728073907C8F68091F30218
:102160000E94E60F85E064CF109242030E9485032F
:102170004B015C0104C08091BC0083FF29C08091A9
:1021800066038093BB008091F4029091F502A091C8
:10219000F602B091F702892B8A2B8B2B61F30E94F8
:1021A0008503681979098A099B090091F402109145
:1021B000F5022091F6023091F7020617170728075B
:1021C0003907C8F68091F3020E94E60F85E030CF10
:1021D00085EC8093BC0097CF809140038F3F61F0E6
:1021E00080914003803251F080914003803311F0A0
:1021F00084E01ECF83E01CCF80E01ACF82E018CFAE
:102200008F929F92AF92BF92DF92EF92FF920F93C5
:102210001F93CF93DF93413268F080E0DF91CF913D
:102220001F910F91FF90EF90DF90BF90AF909F9024
:102230008F900895D22EF42EEB01E82E0E94850394
:102240004B015C0190914103992329F10091F40223
:102250001091F5022091F6023091F702012B022B2A
:10226000032B81F30E948503681979098A099B0968
:102270000091F4021091F5022091F6023091F702DC
:102280000617170728073907E8F68091F3020E941E
:10229000E60F80E0C3CF81E080934103D0924303F7
:1022A0009FEF90934003109265039F0D90936403FA
:1022B000809366038E2D90E0880F991F909166039E
:1022C000892B8093660380914203813089F185EEEA
:1022D0008093BC000E9485034B015C0190914103F7
:1022E000913009F05DC00091F4021091F502209147
:1022F000F6023091F702012B022B032B79F30E9497
:102300008503681979098A099B090091F4021091E3
:10231000F5022091F6023091F702061717072807F9
:102320003907E0F68091F3020E94E60F80E076CF55
:10233000109242030E9485034B015C0104C080910E
:10234000BC0083FF29C0809166038093BB0080910D
:10235000F4029091F502A091F602B091F702892B58
:102360008A2B8B2B61F30E948503681979098A09EE
:102370009B090091F4021091F5022091F602309130
:10238000F7020617170728073907C8F68091F302E6
:102390000E94E60F80E042CF85EC8093BC009ACF8C
:1023A000809165038F1520F48091650390E00DC046
:1023B0008F2DFCCF292F30E0FE01E20FF31F2C5BA5
:1023C0003C4FD9012C9120839F5F981798F326CF1B
:1023D000089508950895E091F0028091EF02E817C2
:1023E00030F4F0E0E153FD4F808190E008958FEFED
:1023F0009FEF08959091F0028091EF02981758F4A2
:10240000E92FF0E0E153FD4F208130E09F5F909392
:10241000F002C90108952FEF3FEFFBCF8091EF024B
:102420009091F002891B990B0895CF92DF92EF9261
:10243000FF920F931F93CF93DF938C016B017A016F
:102440008091CE02882399F0D0E0C0E0CE15DF0560
:1024500090F4D801ED91FC910190F081E02DD6012E
:10246000AC0FBD1F6C91C80109952196EFCF642F69
:10247000C6010E947C0FC701DF91CF911F910F9180
:10248000FF90EF90DF90CF900895CF93DF931F924E
:10249000CDB7DEB7FC0169839091CE029923F1F0AC
:1024A0009091F102903250F081E090E0938382832A
:1024B00090E080E00F90DF91CF9108958091F2023B
:1024C000E82FF0E0E255FD4F998190838F5F809374
:1024D000F2028093F10281E090E0ECCF61E0CE0166
:1024E00001960E947C0F81E090E0E4CF0F93409131
:1024F000F102062F21E06EEA72E08091AD020E94A7
:1025000007101092F2021092F1021092CE020F9177
:10251000089561E00E947612089581E08093CE02D2
:102520006093AD021092F2021092F1020895CF92E0
:10253000DF92EF92FF920F931F93CF93DF938C0163
:10254000C62F6A017901DC0112966C9112978D9168
:102550009C910E948D12F80180819181DC01ED91A6
:10256000FC910190F081E02D6C2F0995D0E0C0E046
:10257000CE15DF0580F4F80180819181DC01ED91B9
:10258000FC910190F081E02DD601AC0FBD1F6C9144
:1025900009952196EDCFF801808191810E948912E1
:1025A000DF91CF911F910F91FF90EF90DF90CF902F
:1025B0000895CF93DF931F92CDB7DEB7498321E013
:1025C00030E0AE014F5F5F4F0E9497120F90DF9196
:1025D000CF910895CF93DF93EC0140E060E00E943B
:1025E000D91240E061E0CE010E94D91240E062E0E1
:1025F000CE010E94D91240E463E0CE010E94D912BC
:1026000042E064E0CE010E94D91240E065E0CE01D4
:102610000E94D91240E166E0CE010E94D91243E047
:1026200067E0CE010E94D91240E568E0CE010E9429
:10263000D91240E169E0CE010E94D91243E06AE07C
:10264000CE010E94D91240E06BE0CE010E94D91267
:1026500040E06CE0CE010E94D91240E06DE0CE0176
:102660000E94D91244E26EE0CE010E94D91240E0ED
:102670006FE0CE010E94D91240E060E1CE010E94DD
:10268000D91240E561E1CE010E94D91240E062E139
:10269000CE010E94D91246E063E1CE010E94D91218
:1026A000DF91CF910895CF93DF93EC0140E360E099
:1026B0000E94D91241E061E0CE010E94D91240E0AF
:1026C00062E0CE010E94D91240E063E0CE010E9498
:1026D000D91240E064E0CE010E94D91242E465E0E4
:1026E000CE010E94D91240E066E0CE010E94D912CC
:1026F00040E067E0CE010E94D91240E568E0CE01DB
:102700000E94D91240E069E0CE010E94D91240E057
:102710006AE0CE010E94D91240E06BE0CE010E9437
:10272000D91240E26CE0CE010E94D91244E06DE083
:10273000CE010E94D91240E06EE0CE010E94D91273
:1027400040E36FE0CE010E94D91241E060E1CE018A
:102750000E94D91240E561E1CE010E94D91240E009
:1027600062E1CE010E94D91246E063E1CE010E94EF
:10277000D912DF91CF9108950E948D1208958F9202
:102780009F92AF92BF92CF92DF92EF92FF920F9300
:102790001F93CF93DF93EC01D62EF42E48015901FD
:1027A000E1101EC030E23F1518F46894FF24F5F8DC
:1027B0002C2D4F2D6FEC72E08D2D0E940011109288
:1027C000F0028093EF02DF91CF911F910F91FF9064
:1027D000EF90DF90CF90BF90AF909F908F90089533
:1027E0000E948D1223E02E1520F40F2EF3E0EF2E21
:1027F000F02D1FEF1E0DEE20D9F0E881F981019038
:10280000F081E02D812F90E0880F991F880F991F8C
:10281000880F991FA501940104C0569547953795D7
:1028200027958A95D2F7B901CE010995E12EE1CF1E
:1028300060E0CE010E947612B5CFCF92EF920F9357
:102840001F93C22EE12C00E010E098010E94BF13FC
:102850001F910F91EF90CF90089521E00E941D14D9
:102860000895BF92CF92DF92EF92FF920F931F9342
:10287000CF93DF938C01C62F6A017901DC01129698
:102880006C9112978D919C910E948D12F80180811C
:102890009181DC01ED91FC910190F081E02D6C2F94
:1028A0000995F801808191810E948912882361F045
:1028B000B12C8B2DDF91CF911F910F91FF90EF9055
:1028C000DF90CF90BF9008956AE070E080E090E0E4
:1028D0000E94AD03BE2C4E2DD80112966C9112971A
:1028E0008D919C910E942D14D0E0C0E0CE15DF05A3
:1028F00000F7F80180819181DC01ED91FC91028467
:10290000F385E02D0995F601EC0FFD1F80832196DC
:10291000EDCFFF920F931F93CF93DF931F92CDB70D
:10292000DEB78C01F62E198221E030E0AE014F5F58
:102930005F4F69EA0E94311481E0F816A9F0F110A6
:1029400003C089818F7E898321E030E0AE014F5F33
:102950005F4F69EAC8010E9497120F90DF91CF91F3
:102960001F910F91FF900895898180618983E7CF3E
:10297000FF920F931F93CF93DF931F92CDB7DEB7D4
:102980008C01F62E21E030E0AE014F5F5F4F6EEB21
:102990000E943114F11003C089818460898381E031
:1029A000F81681F021E030E0AE014F5F5F4F6EEB33
:1029B000C8010E9497120F90DF91CF911F910F9144
:1029C000FF90089589818B7F8983ECCFEF92FF92EE
:1029D0000F931F93CF93DF9300D0CDB7DEB77C0169
:1029E000162F660F6B5621E030E0AE014F5F5F4F50
:1029F0000E9431146BE4610F660F21E030E0AE01FC
:102A00004E5F5F4FC7010E9431140A818981102FE8
:102A1000082F62E370E080E090E00E94AD03C801FF
:102A20000F900F90DF91CF911F910F91FF90EF903A
:102A300008950F931F93CF93DF93EC018B0160E018
:102A4000C8010E94E6149983888361E0C8010E944E
:102A5000E6149B838A8362E0C8010E94E6149D838A
:102A60008C8363E0C8010E94E6149F838E8364E038
:102A7000C8010E94E6149987888765E0C8010E9412
:102A8000E6149B878A87CE01DF91CF911F910F912A
:102A900008950F931F93CF93DF93EC018B0160E0B8
:102AA000C8010E94E6149983888361E0C8010E94EE
:102AB000E6149B838A8362E0C8010E94E6149D832A
:102AC0008C8363E0C8010E94E6149F838E8364E0D8
:102AD000C8010E94E6149987888765E0C8010E94B2
:102AE000E6149B878A87CE01DF91CF911F910F91CA
:102AF0000895CF93DF931F92CDB7DEB721E030E08A
:102B0000AE014F5F5F4F63EA0E943114898186FDF9
:102B100005C080E00F90DF91CF91089581E0FACF5A
:102B2000EF92FF920F931F93CF93DF931F92CDB736
:102B3000DEB78C017B0161E00E94891421E030E066
:102B4000AE014F5F5F4F60E7C8010E94311481E022
:102B5000E816F104F1F0C8F083E0E816F104F1F0B2
:102B600021E030E0AE014F5F5F4F60E7C8010E9497
:102B7000971260E0C8010E9489140F90DF91CF91F5
:102B80001F910F91FF90EF90089589818C7F898329
:102B9000E7CF89818C7F81608983E2CF89818360DF
:102BA0008983DECFFF920F931F93CF93DF931F9202
:102BB000CDB7DEB78C01F62E21E030E0AE014F5FDD
:102BC0005F4F60E80E943114F11013C089818F7E3D
:102BD000898321E030E0AE014F5F5F4F60E8C801BC
:102BE0000E9497120F90DF91CF911F910F91FF904C
:102BF0000895898180618983ECCFFF920F931F93A1
:102C0000CF93DF931F92CDB7DEB78C01F62E21E074
:102C100030E0AE014F5F5F4F60E80E943114F11069
:102C200013C089818D7F898321E030E0AE014F5F41
:102C30005F4F60E8C8010E9497120F90DF91CF911B
:102C40001F910F91FF900895898182608983ECCF55
:102C5000EF92FF920F931F93CF93DF931F92CDB705
:102C6000DEB78C017B01198221E030E0AE014F5FBD
:102C70005F4F69EA0E94311489818F7E898321E048
:102C800030E0AE014F5F5F4F69EAC8010E949712C2
:102C900060E0C8010E94FD1540E16FEAC8010E9492
:102CA000D912E114F10421F1EA94EF2829F161E04D
:102CB000C8010E94D215F801848195818130910567
:102CC000F9F0892B39F161E0C8010E94FD15F80186
:102CD00084819581892B21F5C8010E947915811184
:102CE0001FC061E070E080E090E00E94AD03F4CF8F
:102CF000C8010E945313DBCFC8010E94EA12D7CF4C
:102D000060E0C8010E94B81461E070E0C8010E9450
:102D10009015D9CF70E060E0C8010E949015D3CF24
:102D20000F90DF91CF911F910F91FF90EF90089539
:102D3000FF920F931F93CF93DF931F92CDB7DEB710
:102D40008C01F62E21E030E0AE014F5F5F4F60E86E
:102D50000E943114F11013C089818E7F898321E094
:102D600030E0AE014F5F5F4F60E8C8010E949712EC
:102D70000F90DF91CF911F910F91FF90089589815E
:102D800081608983ECCFCB01BA010E94A70F08951F
:102D90001092F0021092EF021092F2021092F102E1
:102DA0000E94C80F88EE91E10E94720F89EE91E1B6
:102DB0000E94770F0895CF93DF93EC01683199F16A
:102DC00060F46431A1F0673171F450E0B90187E635
:102DD00093E00E94151281E007C06931B1F16032C1
:102DE00011F481E001C080E0DF91CF9108958C85DE
:102DF0009D85AE85BF85892B8A2B8B2B71F4E8814D
:102E0000F981A585B0E020EA36E841E050E00E9473
:102E1000BA1D6C877D878E879F8787E693E00E9427
:102E2000C81681E0E1CF4C855D856E857F8587E69C
:102E300093E00E94C3166E8970E07595679587E6EA
:102E400093E00E94BC1381E0CFCF87E693E00E941D
:102E5000891281E0C9CF0F931F93CF93DF93EC01C9
:102E60008B01888199810E94C8166A818881998125
:102E70000E948D12888199810E94891281110DC052
:102E800061E0CE010E9498161D830C8390E080E0E3
:102E9000DF91CF911F910F9108958FEF9FEFF8CFA2
:102EA000FC011382128288EE93E0A0E0B0E08483FC
:102EB0009583A683B78382E291E09183808308950E
:102EC000019709F008956F3F7F4FE1F787E693E0A0
:102ED0000E945017F7CFCF93DF93019719F0DF913E
:102EE000CF9108956F3F7F4FD1F767E673E087EA90
:102EF00092E00E945C0FC4E2D2E01B821A8280E161
:102F000091E09983888384ED96E09093A402809366
:102F1000A3021092A5021092A60288E292E00E94FB
:102F2000E10684E091E0998388832FEB3EE04BED4E
:102F300056E168E171E088E292E00E94010D2FEF16
:102F40004FEF6FEF88E292E00E94BA0EC8CFCF93A6
:102F5000DF93CDB7DEB72C970FB6F894DEBF0FBE68
:102F6000CDBF70E060E087EA92E00E94281667EA31
:102F700072E0CE0101960E9449158CE0FE01319667
:102F8000A8E1B2E001900D928A95E1F761E070E06E
:102F900087EA92E00E94281667EA72E0CE01019665
:102FA0000E9419158CE0FE013196ACE0B2E0019070
:102FB0000D928A95E1F768EE73E080E090E00E9460
:102FC000AD032C960FB6F894DEBF0FBECDBFDF91D8
:102FD000CF910895CF92DF92EF92FF920F931F93BC
:102FE000CF93DF937C01DB01EA0110E000E0209742
:102FF00099F0F70180819181FC01208131816D017F
:10300000FFEFCF1ADF0A6C91C701F9010995080F8C
:10301000191F2197D601EBCFC801DF91CF911F91E6
:103020000F91FF90EF90DF90CF900895CF93DF93B3
:10303000EC01FC01E158FF4F0190F081E02D049676
:1030400009958E3F2FEF920728F081E090E0DF9105
:10305000CF910895FE01EE57FF4F40813197608177
:103060009C01CE0104960E94290CFE01E15AFF4FFB
:103070009081913089F050F09230A1F0933029F78F
:10308000CE57DF4F9881981B9883DFCFCF57DF4F04
:103090009881890F8883D9CFCE57DF4F9881890FC8
:1030A0008883D3CFCF57DF4F9881981B9883CDCF9C
:1030B000089590E080E00895DF92EF92FF920F93E1
:1030C0001F93CF93DF93CDB7DEB7A1970FB6F894D8
:1030D000DEBF0FBECDBF7C01CB01BA01D22E19A23B
:1030E00021E02D1520F48E010F5D1F4F0EC00F2E15
:1030F000FAE0DF2EF02DF7CFE95CD801EE938D01D9
:10310000611571058105910579F02D2D30E050E0B4
:1031100040E00E94921DE62F622F732F842F952F7F
:10312000EA3054F7E05DE9CF1097F9F0FD01019026
:103130000020E9F73197AF014A1B5B0BD701ED91F6
:10314000FC910280F381E02DB801C7010995A19699
:103150000FB6F894DEBF0FBECDBFDF91CF911F91A8
:103160000F91FF90EF90DF90089590E080E0EFCF17
:103170002115310549F4DC01ED91FC910190F081BC
:10318000E02D642F099508950E945C1808959A0116
:10319000AB0170E060E00E94B818089561157105F8
:1031A00081F0FB0101900020E9F73197AF01461B48
:1031B000570BDC01ED91FC910280F381E02D099524
:1031C000089590E080E00895FC01A081B1815096BF
:1031D0004C9182AD489FA0011124440F551F440F0C
:1031E000551F440F551F70E060E080AD91AD0E9407
:1031F000D41D08951F93CF93DF93EC010E941D0E01
:103200008BAD1AAD180FE881F9818189181778F410
:10321000FE01E658FF4F808181110EC0612FCE0163
:103220000E94EE0D81E0DF91CF911F910895CE01B4
:103230000E94290480E0F7CFCE010E94E418EECF6F
:10324000CF93DF93EC01FC01E658FF4F80818111A1
:1032500007C060E0CE010E94EE0DDF91CF9108958E
:10326000CE010E94E418F5CFCF93DF93EC010E94CA
:103270002019CE010E94FA188111FBCF60E0CE0127
:103280000E94EE0DDF91CF9108957F928F929F92D1
:10329000AF92BF92CF92DF92EF92FF920F931F9364
:1032A000CF93DF9368E670E088E292E00E94EA0C38
:1032B00060E088E292E00E94660988E292E00E9463
:1032C0002019E12C00E420E840E060E088E292E090
:1032D0000E94410E20E440E060E488E292E00E9417
:1032E000FB0805EA12E06894FF24F1F8F801F08287
:1032F000C6EAD2E00F2EFCE07F2EF02D788265E941
:1033000071E084E292E00E94CE180F2EF6E1EF2EDB
:10331000F02DF801E08278820F2EF8E1CF2EF2E056
:10332000DF2EF02DF601608171814AE050E084E2E9
:1033300092E00E94C718F801F0820F2EF8E18F2E5C
:10334000F02D888269E971E084E292E00E94CE1853
:10335000F801E0828882F601628173814AE050E0E0
:1033600084E292E00E94C718F801F0820F2EF4E286
:103370009F2EF02D98826DE971E084E292E00E9428
:10338000CE18F801E0829882F601648175814AE0E6
:1033900050E084E292E00E94C718F801F0820F2EFC
:1033A000F0E3BF2EF02DB88261EA71E084E292E092
:1033B0000E94CE18F801E082B882F601668177811A
:1033C0004AE050E084E292E00E94C718F801F082DF
:1033D0000F2EFCE3CF2EF02DC88265EA71E084E267
:1033E00092E00E94CE188AE1F8018083C8820F2EF5
:1033F000FCE0EF2EF2E0FF2EF02DF70160857185E5
:103400004AE050E084E292E00E94C7180F2EF2E4F6
:10341000DF2EF02DF801D08278826AEA71E084E232
:1034200092E00E94CE180F2EF6E5AF2EF02DF80197
:10343000A0827882F701608171814AE050E084E2E5
:1034400092E00E94C718F801D08288826EEA71E08B
:1034500084E292E00E94CE18F801A0828882F701EF
:10346000628173814AE050E084E292E00E94C718D2
:10347000F801D082988262EB71E084E292E00E94CF
:10348000CE18F801A0829882F701648175814AE024
:1034900050E084E292E00E94C718F801D082B8821E
:1034A00066EB71E084E292E00E94CE18F801A082FF
:1034B000B882F701668177814AE050E084E292E0C9
:1034C0000E94C718F801D082C8826AEB71E084E2DA
:1034D00092E00E94CE188AE5F8018083C882F70145
:1034E000628573854AE050E084E292E00E94C7184A
:1034F00088E292E00E94FA188111E3CE68EE73E050
:1035000080E090E00E94AD03DF91CF911F910F9179
:10351000FF90EF90DF90CF90BF90AF909F908F90F3
:103520007F9008950E94A7170E944519089588E288
:1035300092E00E943D0488E292E00E94341960E02B
:1035400088E292E00E94330470E060E087EA92E053
:103550000E942B17892B39F168E670E088E292E02F
:103560000E94EA0C60E088E292E00E94660988E22C
:1035700092E00E9420191092A5028CE08093A6028E
:103580006FEB71E084E292E00E94CE1888E292E054
:103590000E94FA188111EFCF68EE73E080E090E0AE
:1035A0000E94AD03D1CF68E670E088E292E00E940D
:1035B000EA0C60E088E292E00E94660988E292E00C
:1035C0000E9420191092A5028CE08093A60262ED61
:1035D00071E084E292E00E94CE1888E292E00E94BC
:1035E000FA188111EFCF60ED77E080E090E00E9463
:1035F000AD03089585ED8093BC004091F402509195
:10360000F5026091F6027091F702495F5F4F6F4FCC
:103610007F4F689412F8769567955795479516945D
:10362000D1F78091BC0084FF1FC08091F40290917B
:10363000F502A091F602B091F702892B8A2B8B2B11
:1036400081F3411551056105710549F085E38A95BE
:10365000F1F700004150510961097109E2CF8091F1
:10366000F3020E94E60F08951092410308956FEF50
:103670007FEF81E090E00E9460176FEF7FEF81E0C5
:1036800090E00E946B1708951F920F920FB60F9251
:1036900011240F931F932F933F934F935F936F9337
:1036A0007F938F939F93AF93BF930091F5031091F6
:1036B000F6032091F7033091F8039091F403B901D8
:1036C000A8014F5F5F4F6F4F7F4F83E0890F8D37AA
:1036D00040F086E8890FB901A8014E5F5F4F6F4F38
:1036E0007F4F8093F4034093F5035093F603609368
:1036F000F7037093F8038091F9039091FA03A09176
:10370000FB03B091FC030196A11DB11D8093F90349
:103710009093FA03A093FB03B093FC03BF91AF9186
:103720009F918F917F916F915F914F913F912F91D9
:103730001F910F910F900FBE0F901F9018950E9430
:103740003F030E94971A0E94921A80E090E0892B12
:10375000D1F30E940000F7CF1F920F920FB60F9285
:1037600011242F933F934F935F936F937F938F9386
:103770009F93AF93BF93EF93FF93E091B900E87FDE
:10378000E93C08F0D5C0F0E0E853F44E0C94B41DC9
:103790008D1D981C981C981C981C981C981C981C93
:1037A000911C981C981C981C981C981C981C981C80
:1037B000911C981C981C981C981C981C981C981C70
:1037C000A91C981C981C981C981C981C981C981C48
:1037D000CF1C981C981C981C981C981C981C981C12
:1037E000A91C981C981C981C981C981C981C981C28
:1037F000D51C981C981C981C981C981C981C981CEC
:10380000DB1C981C981C981C981C981C981C981CD5
:10381000ED1C981C981C981C981C981C981C981CB3
:10382000171D981C981C981C981C981C981C981C78
:10383000E11C981C981C981C981C981C981C981C9F
:10384000FB1C981C981C981C981C981C981C981C75
:103850001A1D981C981C981C981C981C981C981C45
:103860001A1D981C981C981C981C981C981C981C35
:103870001A1D981C981C981C981C981C981C981C25
:103880001A1D981C981C981C981C981C981C981C15
:10389000231D981C981C981C981C981C981C981CFC
:1038A000541D981C981C981C981C981C981C981CBB
:1038B000231D981C981C981C981C981C981C981CDC
:1038C000541D981C981C981C981C981C981C981C9B
:1038D0003B1D981C981C981C981C981C981C981CA4
:1038E000581D981C981C981C981C981C981C981C77
:1038F000581D981C981C981C981C981C981C981C67
:103900006D1D981C981C981C981C981C981C981C41
:10391000871D981C981C981C981C981C981C981C17
:10392000871D809166038093BB0081E00E94680F31
:10393000FF91EF91BF91AF919F918F917F916F9187
:103940005F914F913F912F910F900FBE0F901F905D
:1039500018959091650380916403981768F08091A1
:103960004303811119C081E08093420384EA80936C
:10397000BC0010924103DCCFE091650381E08E0F23
:1039800080936503F0E0EC5BFC4F80818093BB008B
:1039900081E00E94680FCCCF0E94FA1AC9CF80E262
:1039A000809340030E94FA1AC3CF80E380934003C0
:1039B0000E94FA1ABDCF88E3809340030E94620FF1
:1039C000B7CFE091650381E08E0F80936503F0E04F
:1039D0008091BB00EC5BFC4F8083909165038091EC
:1039E0006403981720F481E00E94680FA1CF80E063
:1039F0000E94680F9DCFE091650381E08E0F809358
:103A00006503F0E08091BB00EC5BFC4F808380910C
:103A10004303811109C081E08093420384EA8093CB
:103A2000BC001092410384CF0E94FA1A81CF0E94F9
:103A3000FA1A7ECF83E08093410310923F0381E026
:103A40000E94680F75CF80913F03803280F4E0912F
:103A50003F0381E08E0F80933F03F0E08091BB0035
:103A6000E15EFC4F808381E00E94680F61CF80E0BF
:103A70000E94680F5DCF0E94620F80913F038032E9
:103A800030F4E0913F03F0E0E15EFC4F1082609182
:103A90003F0370E0E0911D03F0911E038FE193E07E
:103AA000099510923F0344CF80E00E94680F40CFF9
:103AB00084E08093410310921C0310921B03E09159
:103AC0001903F0911A03099580911B03811105C018
:103AD00081E080931B031092F902E0911C0381E0C6
:103AE0008E0F80931C03F0E0E750FD4F80818093A0
:103AF000BB0090911C0380911B03981720F481E078
:103B00000E94680F15CF80E00E94680F11CF81E0FE
:103B10000E94680F109241030BCF109240030E9445
:103B2000FA1A06CFA1E21A2EAA1BBB1BFD010DC07B
:103B3000AA1FBB1FEE1FFF1FA217B307E407F5075D
:103B400020F0A21BB30BE40BF50B661F771F881F39
:103B5000991F1A9469F760957095809590959B01CF
:103B6000AC01BD01CF010895EE0FFF1F0590F49148
:103B7000E02D09940E94C51DA59F900DB49F900D46
:103B8000A49F800D911D11240895A29FB001B39FA1
:103B9000C001A39F700D811D1124911DB29F700D56
:103BA000811D1124911D0895DC0101C06D934150C8
:0A3BB0005040E0F70895F894FFCFAD
:103BBA00000000001618EA175918581800000000EB
:103BCA001618EA1759185818270725084508000033
:103BDA000000451215125918EA110E12FA11EB11CA
:103BEA001815A015C019FF1815A115C819FF181521
:103BFA00AE19FF1815AF19FF0001140A64643232B6
:103C0A0000093D00030428961008020280004000C3
:103C1A001815AE15D5168015A8163F15D31600151A
:103C2A0040158D16141520160015A115C815DA169B
:103C3A0012158116CF15D916F115DB1640152E155A
:103C4A00A415A619FF46313A0046323A0046333ADD
:103C5A000046343A00434C523A0046353A0046365A
:103C6A003A0046373A0046383A004E49523A00413D
:103C7A00533734333120496E6974696E67202E2EAA
:103C8A002E00526561647920666F72206D656173DA
:083C9A00757265696E67200078
:00000001FF
