:100000000C9448020C9470020C9470020C947002D0
:100010000C9470020C9470020C9470020C94700298
:100020000C9470020C9470020C9470020C94700288
:100030000C9470020C9470020C9470020C94700278
:100040000C94ED1C0C9470020C9470020C947002D1
:100050000C9470020C9470020C9470020C94700258
:100060000C94551D0C9470025F00030203040305F9
:1000700004050C00FE07FE08FF0142028603AE20C5
:1000800005006A0721073943C7A00422079B56478A
:100090006209230D35424F65504A49322815002424
:1000A0000E4D3E57B654946C4B94CA1601250A3D2A
:1000B000428734659D2601260D3D424F96444956A0
:1000C00049A4480927061957C700280BCB3E5712E9
:1000D00025512DCA02290CCB3E47166551254A22CF
:1000E000002A0B3D4257A5B2654B53042B0A2D46FF
:1000F00057180D5218012C081B3E8F3224002D0674
:100100000D4EC7202E069242C7102F0A3D42671699
:1001100066C52C04300ABC428F12794A140031089B
:10012000BB424F227519320A3D42CF928559DB20DE
:10013000330C3D42C7206699AA250B00340C3D4282
:100140005F2625A564D0C204350B3D42C7714843E4
:100150002D5900360C3D42979485439269C9023768
:100160000B3D42C7206661169600380C3D42CF9287
:1001700069C99269C902390C3D42CF9269C91066BA
:1001800091043A08AA42C7100D013B09333E8F5132
:100190001912003C07AB4657522B3D081D4AC7A019
:1001A0000E023E08AB46475629013F0A3D42CF9218
:1001B00035E65004400D3D42CF922943922843BA80
:1001C00000410B3D42CF9269C390D902420D3D429E
:1001D000C71055A264AA448302430A3D42CF9289C4
:1001E0006DC902440F3D42C71055A2244AA2241AE9
:1001F0001400450B3D42C7311C92301C04460A3D99
:1002000042C7311C92B008470B3D42CF9289A52DC1
:100210005900480A3D4247661B86CC164908BB4236
:10022000C71275194A0A3D42D716B64491044B0DC0
:100230003D42472625252D892A59004C083D424735
:10024000D8E3204D0A3D4247B62C89E6164E0C3DB8
:100250004247A64D4A226D5A004F0A3D42CF92793D
:100260004B1600500C3D42C79064DAA08445005103
:100270000B3D42CF92B92452A404520D3D42C79087
:1002800064DAA0942A5900530B3D42CF92A9AB9651
:100290002C0054093D42C720853D0155093D424788
:1002A000E65BB200560B3D4247E69694922C02570D
:1002B0000A3D4247E62551BA00580B3D4247A62564
:1002C000B54A4D0B590A3D4247A625B5B0095A0A11
:1002D0003D42C720661D07015B08CB3EC710F5698C
:1002E0005C093D42471AA6C5345D08CB3EC7D4A77A
:1002F000215E081D565796D4025F060D3AC720604E
:10030000069B564756610A2D42CF9A0C5A32046218
:100310000C3D4247180E49661B1400630A2D42CF5C
:10032000928959B200640A3D426765D06CC9106574
:100330000A2D42CF920D4ABA00660A3D429754C92F
:10034000B6B006670C3D3ACF92D992214C160068A0
:100350000A3D4247180E49E6166908BB424F28B5C8
:100360000C6A0ACC3A5FACB54989026B0B3D424737
:10037000589392A992056C08BB4287D4CB006D0BB1
:100380002D4287D2A2244AA2146E092D424762D27E
:100390006C016F092D42CF92D99205700C3D3AC77E
:1003A0009064B641094300710A3D3ACFA0D9922129
:1003B0002C72092D424762128B0073092D42CFA087
:1003C0001E1400740A3D4257180D52581575092D18
:1003D0004247E6A42801760A2D4247664B6A11007F
:1003E000770A2D42476649942E00780A2D42479697
:1003F000D42AB500790A3D3A47664B6A8D007A09DE
:100400002D42C7A0B50D027B0ACB3E571255B2A8AC
:10041000167C06493FC7037D0BCB3E4716D592A8F5
:1004200012017E091D4A4FA424520200000004FF5D
:10043000FF000000000000240027002A0000000048
:1004400000250028002B00000000002300260029C2
:10045000000404040404040404020202020202036D
:100460000303030303010204081020408001020477
:1004700008102001020408102000000008000201FA
:100480000000030407000000000000000000E01C62
:1004900011241FBECFEFD8E0DEBFCDBF11E0A0E03A
:1004A000B1E0ECE0FFE302C005900D92A83EB10779
:1004B000D9F724E0A8EEB1E001C01D92A431B20743
:1004C000E1F712E0C8E4D2E004C02197FE010E94E7
:1004D0005D1FC734D107C9F70E94481D0C94841FC3
:1004E0000C9400008330B1F060F08730E9F0883080
:1004F00009F1843021F5E0E8F0E080818F7D808390
:100500000895813069F0823021F484B58F7D84BDF7
:1005100008950895E0E8F0E080818F778083089562
:1005200084B58F7784BD0895E0EBF0E080818F770C
:1005300080830895E0EBF0E080818F7D80830895D3
:10054000CF93DF93282F30E0F901E758FB4F8491D8
:10055000F901EB59FB4FD491F901EF5AFB4FC491CC
:10056000CC23B1F081110EC0EC2FF0E0EE0FFF1F95
:10057000E95BFB4FA591B491EC91ED2331F490E050
:1005800080E008C00E947202EFCF81E090E002C0DC
:1005900090E080E0DF91CF9108951F93CF93DF9398
:1005A000282F30E0F901E758FB4F8491F901EB590E
:1005B000FB4F1491F901EF5AFB4FC491CC23A9F0E2
:1005C000D62F811116C0EC2FF0E0EE0FFF1FE35C79
:1005D000FB4FA591B4918FB7F894D1110DC09C91A8
:1005E000E12FE095E923EC938FBFDF91CF911F912D
:1005F00008950E947202E7CFEC91E12BEC93F4CFC7
:10060000CF93DF9390E0FC01EB59FB4F24918F5A7D
:100610009B4FFC018491882319F190E0880F991F6A
:10062000FC01ED5CFB4FA591B491FC01E35CFB4F39
:10063000C591D491662349F06230A9F08FB7F89440
:10064000EC91E22BEC938FBF0BC09FB7F8948C9189
:10065000E22FE0958E238C938881E823E8839FBF67
:10066000DF91CF9108959FB7F8943C91822F8095A8
:1006700083238C93E881E22BE8839FBFF1CF7894AA
:1006800084B5826084BD84B5816084BD85B5826097
:1006900085BD85B5816085BDEEE6F0E08081816035
:1006A0008083E1E8F0E01082808182608083808135
:1006B00081608083E0E8F0E0808181608083E1EB0D
:1006C000F0E0808184608083E0EBF0E080818160F5
:1006D0008083EAE7F0E080818460808380818260AB
:1006E0008083808181608083808180688083109294
:1006F000C10008958230910538F0880F991F880F46
:10070000991F05970197F1F708953FB7F8948091E5
:10071000100490911104A0911204B091130426B515
:10072000A89B05C02F3F19F00196A11DB11D3FBF29
:10073000BA2FA92F982F8827BC01CD01620F711DF8
:10074000811D911D660F771F881F991F660F771FE8
:10075000881F991F08952FB7F89460910C04709129
:100760000D0480910E0490910F042FBF08950895F9
:1007700008958F929F92AF92BF92CF92DF92EF92A5
:10078000FF926B017C010E9485034B015C011BC041
:1007900021E0C21AD108E108F10888EE880E83E052
:1007A000981EA11CB11CC114D104E104F10459F03C
:1007B0000E948503681979098A099B09683E73407C
:1007C0008105910528F7C114D104E104F10459F71A
:1007D000FF90EF90DF90CF90BF90AF909F908F9061
:1007E0000895FC01108208958F929F92AF92BF925C
:1007F000CF92DF92EF92FF920F931F93CF93DF93ED
:10080000EC0188810E94A0028C010E94AB03288920
:10081000398921153105D9F4288539852017310703
:1008200069F0DF91CF911F910F91FF90EF90DF90D2
:10083000CF90BF90AF909F908F90089521E030E0CF
:10084000398B288B6A8B7B8B8C8B9D8BEACF2130ED
:10085000310591F022303105E1F12330310509F401
:100860005EC026303105E9F68E819F8180179107A1
:10087000C1F6198A188AD5CF2E813F8120173107FA
:1008800019F1288539852017310759F6CA88DB8880
:10089000EC88FD880C811D81012E000C220B330B8E
:1008A0000C0D1D1D2E1D3F1D0617170728073907A4
:1008B00008F0B7CFEE85FF85309709F0099586E0FF
:1008C00090E0998B888BADCF82E090E0998B888BFC
:1008D000A8CF8A889B88AC88BD88CA80DB800D2C15
:1008E000000CEE08FF08C80CD91CEA1CFB1CC6163D
:1008F000D706E806F90640F4EA85FB85309709F04B
:100900000995198A188A8DCF88859985801791074E
:1009100009F087CF83E090E0998B888B82CF8E811E
:100920009F818017910709F07CCFEC85FD8530977A
:1009300009F00995198A188A74CFFC0175876487B4
:100940000895EF92FF920F931F93CF93DF93EC01E3
:10095000162F072F7A0160E0812F0E940003188371
:10096000098388E592E09B838A8388EE93E09D83E8
:100970008C83198A188AEF2869F41F821E8281E00D
:1009800090E099878887DF91CF911F910F91FF9019
:10099000EF90089581E090E09F838E8319861886FA
:1009A00061E0812F0E94CD02EECF21E0FC01208387
:1009B0008BE893E00895DC0111961C921E928FE063
:1009C00095E015969C938E93149717969C938E930F
:1009D000169719969C938E9318971B969C938E93BB
:1009E0001A9755961C92559758961C9258971C9694
:1009F0001D921D921D921C921F978FEF56968C93FD
:100A000056975A968C935A9790E006C0FD01E90FCD
:100A1000F11D2FEF268F9F5F9631C0F3089580E080
:100A20000895DC011A96ED91FC9130E020E00995E3
:100A30000895DC011496ED91FC9130E020E040E057
:100A400060E109950895462FDC011496ED91FC9123
:100A500030E020E06BE009950895DC011496ED91FB
:100A6000FC9130E020E040E06AE009950895DC0167
:100A70001496ED91FC9130E020E040E069E00995AA
:100A80000895AF92BF92CF92DF92EF92FF920F93B1
:100A90001F93CF93DF93EC015B016A0179010E9400
:100AA000DB04BD82AC82DF82CE82F986E8861B87BA
:100AB0000A87CE010E943705DF91CF911F910F91D8
:100AC000FF90EF90DF90CF90BF90AF9008950F937D
:100AD0001F93CF93DF9300D000D01F92CDB7DEB726
:100AE0006C834D832B831A830983DC011496ED916B
:100AF000FC919E012F5F3F4F41E06FE009950F9001
:100B00000F900F900F900F90DF91CF911F910F9149
:100B10000895CF93DF93EC01EA85FB8530E020E078
:100B200040E068E20995EE81FF8130E020E040E09E
:100B300064E1CE01099541E06BE4CE010E9411050C
:100B4000E881F981448169E2CE010E94110540E00B
:100B50006BE4CE010E941105E881F981448169E2CC
:100B6000CE010E94110541E06BE4CE010E94110507
:100B7000E881F981458169E2CE010E941105DF918A
:100B8000CF910895FC0171836083FB012289FC01F0
:100B9000248B0895DC011696ED91FC9130E020E065
:100BA00040E069E109950895DC011696ED91FC910C
:100BB00030E020E040E068E1099508959A01DC0109
:100BC0001696ED91FC91462F67E109950895CF9215
:100BD000DF92EF92FF920F931F93CF93DF931F92B9
:100BE000CDB7DEB76C017B01D7016D918D01673107
:100BF00009F178F06A3160F16E3FA9F5FD0140819D
:100C0000498369E2C6010E941105F2E0EF0EF11C72
:100C1000EBCF653140F1FD0140814983D601169645
:100C2000ED91FC9130E020E0C6010995B2E0EB0EB9
:100C3000F11CDACFF70181818983AE014F5F5F4FED
:100C400061E0C6010E94DE05F2E0EF0EF11CCCCFA0
:100C5000D6011696ED91FC9130E020E040E0C6010F
:100C600009957801C1CF0F90DF91CF911F910F911E
:100C7000FF90EF90DF90CF900895462FDC011696FD
:100C8000ED91FC9130E020E066E109950895462F52
:100C9000DC011696ED91FC9130E020E065E10995CC
:100CA0000895EF92FF920F931F93CF93DF938C01E0
:100CB000C42F79016D3009F44DC0D8F16E3009F4BC
:100CC00065C06F3009F077C00E94D405F701D38169
:100CD0006D2F660F660F660FD8015496DC91D60F04
:100CE00060E4C8010E9447066D2F62956F706061D5
:100CF000C8010E9447066D2F6F70C8010E943D0613
:100D0000F7016481606BC8010E943D06D70112960D
:100D10006C9112974D915C91660F660F660FC8013A
:100D20000E94DE05C15091F7C8010E94CA0581E00A
:100D30003BC06B3009F03FC0411106C063E471E075
:100D40000E94E70581E030C06EE371E00E94E70594
:100D500081E02AC041110DC067E371E00E94E70500
:100D6000D801ED91FC911197828954968C9381E082
:100D70001BC060E371E00E94E705D801ED91FC9192
:100D80001197838954968C9381E00EC00E94D405FC
:100D900061E8C8010E9447066C2FC8010E943D0609
:100DA000C8010E94CA0581E0DF91CF911F910F9188
:100DB000FF90EF90089580E0F7CF0F931F93CF93AC
:100DC0008C01C62F0E945106811115C0C93061F0F7
:100DD000CA3091F4C8010E94890560E671E0C8013B
:100DE0000E94E70581E008C068E471E0C8010E9444
:100DF000C20581E001C081E0CF911F910F9108955C
:100E0000DC011896ED91FC9130E020E040E069E1D2
:100E100009950895DC011896ED91FC9130E020E0F1
:100E200040E068E1099508959A01DC011896ED917A
:100E3000FC91462F67E109950895CF93DF931F92A8
:100E4000CDB7DEB76983AE014F5F5F4F61E00E94AF
:100E500014070F90DF91CF910895EF92FF921F93A7
:100E6000CF93DF93EC01162F7A010E940A0760E40A
:100E7000CE010E941D07E885F9859701412F67E1A2
:100E8000CE010995CE010E940007DF91CF911F91FD
:100E9000FF90EF900895EF92FF920F931F93CF93DF
:100EA0007C01C42F8901663191F178F0683109F431
:100EB00061C090F1693109F065C080918A038111A8
:100EC0005DC010928A0381E018C0643109F43FC00C
:100ED000653109F057C080918A03811114C0C701A0
:100EE0000E940A0760E0C7010E941D076C2FC7011E
:100EF0000E941D0781E080938A03CF911F910F917B
:100F0000FF90EF900895C7010E940007E8CF642F7B
:100F10000E941D0781E0F1CF80918A03882361F050
:100F2000C7010E94000708C0A80168E1C7010E942C
:100F30002D07C851085E1F4FC931B0F7A8016C2FAB
:100F4000C7010E942D0710928A0381E0D6CFDC01F1
:100F500056968C9156978F3F49F0D7011896ED9190
:100F6000FC9198014C2FC7010995C7CF88E7569689
:100F70008C93F3CF10928A0381E0BFCFC7010E9408
:100F800000079FCF80E0B9CF662329F06A3031F0A7
:100F9000862F90E008958FEF9FEF08958FEF9FEFDA
:100FA0000895FC01108E0895CF93DF93FC01A0817A
:100FB000B18182AD982F990F990F990F95AF5096E7
:100FC0009C915097903208F09FE1990F990F990FDB
:100FD00094AF23AD922F990F990F990F96AF622F6F
:100FE000680F7727771F51963C9151973617170650
:100FF00014F4832F821B880F880F880F97AFEF019F
:10100000C05CDF4F890F888380EF219688835496D8
:101010008D919C915597813F910508F48883569650
:101020008C91EE5BFF4F8083DF91CF9108950E94FA
:10103000D4070895FC01E95BFF4F108232961082BD
:1010400031972FEF208332962083DC01D696ED91E5
:10105000FC910280F381E02D099508950F931F9371
:10106000CF93DF93DC01342F377081E090E0032EC3
:1010700002C0880F991F0A94E2F7182FFD01E75864
:10108000FF4F5081523018F170E0513011F150E0B3
:10109000487FED91FC9111978089849FF001859F95
:1010A000F00D1124D8968D919C91D997E60FF11DE2
:1010B000E80FF91F011115C08081872B81278193CB
:1010C0002150D1F7DF91CF911F910F910895782F83
:1010D000DCCF10E0DCCF71E019C0770F110F2223B5
:1010E00089F39081972B912790833F5F3770215030
:1010F0003111F3CFDC968C91DC97E80FF11DCD0117
:1011000087589F4FEC018881823028F3813039F372
:1011100011E0E5CF461730F4821760F0241760F431
:1011200081E00895821750F4241710F080E00895AC
:1011300081E0089581E0089580E0089580E00895B9
:10114000FF920F931F93CF93DF93EC01162FF22E94
:10115000202FDC01AA5BBF4FFC01EB5BFF4F6C91C2
:1011600080810E948A08882359F0FE01EC5BFF4FC2
:10117000CD5BDF4F2F2D412F608188810E948A082F
:10118000DF91CF911F910F91FF9008950F93CF930F
:10119000DF93EC019C01265B3F4F885B9F4FDE0194
:1011A000A75BBF4FBE01695B7F4FF9010081FC0166
:1011B00020814C91FB016081CE010E94A008882310
:1011C00069F181E0FE01ED58FF4F8083F097908137
:1011D00034968081981710F434978083FE01EC5B7D
:1011E000FF4F908134968081891710F43497808363
:1011F000FE01EB5BFF4F908134968081981710F4CD
:1012000034978083FE01EA5BFF4F908134968081A2
:10121000891738F4CA5BDF4F888303C0CD58DF4F8E
:101220001882DF91CF910F910895FC01ED5BFF4F84
:1012300010823297208133962083FC0127ADEB5B2F
:10124000FF4F208335972081369620830E94C60861
:1012500008950F93DC01DE963C91DE97431BD496F4
:10126000ED91FC9109950F9108950F930E94290922
:101270000F910895FC013081DB019C91930F93172E
:1012800020F4321790F49FEF920F321780F4491731
:1012900080F4341708F0432F291708F0292F4083D2
:1012A000241BFB01208381E00895342FEECF80E0E2
:1012B000089580E00895EF92FF920F931F93CF93CC
:1012C000DF9300D01F92CDB7DEB769834A832B83AB
:1012D000FC01ED58FF4F20812223C9F02B812223EE
:1012E000B1F0223020F00230E1F0033001F17C0156
:1012F000102F117000FD3CC0FC01EB5BFF4F908193
:101300008A81891720F0319690818917B0F00F906B
:101310000F900F90DF91CF911F910F91FF90EF9061
:101320000895362F321B232F2F5F2983E0CF3A8178
:10133000321B232F2F5F2A83DACF329720813197F8
:101340004081BE016D5F7F4FCE0101960E943A0938
:101350008823E9F2D701D696ED91FC910480F581BE
:10136000E02D012F2B814A816981C7010995CFCFDB
:10137000FC01ED5BFF4F90818981891740F2319626
:101380009081891720F63296208131974081BE01E5
:101390006D5F7F4FCE0102960E943A098111DACF2C
:1013A000B6CF0F93FC01EB5BFF4F2081421760F03B
:1013B00031962081421740F433972081621720F044
:1013C00031962081621710F00F91089500E021E01E
:1013D0000E945B09F9CFAF92BF92CF92DF92EF925A
:1013E000FF920F931F93CF93DF936C01142FD22F93
:1013F000261720F5F62EF21A011718F5B12EB01A9D
:10140000FB1410F18B2DBF2CF82E802F0D2FD82F11
:10141000812F162F682FE12C011730F08D2FD62F3A
:10142000682F802F012F182FCB2DC695D61778F453
:10143000AA24A3941F3FB1F4115014C0F22EF61A3F
:10144000DBCFB02EB11ADCCFEE24E394E5CFAA2493
:10145000AA94F0CF402F6D2FC6010E94D109CF1959
:101460005AF00F5F101758F0E110F4CF4D2F602F96
:10147000C6010E94D109F3CFDA0DCB0DF2CFDF9177
:10148000CF911F910F91FF90EF90DF90CF90BF9081
:10149000AF9008950F9301E00E945B090F910895AA
:1014A0000F9300E00E945B090F910895855A9F4FAA
:1014B000FC0160830895835B9F4F21E93AE0FC01C2
:1014C0003183208308950F931F93CF93DF93EC0113
:1014D000FC01E55BFF4F118210823DAB2CAB79AF75
:1014E00068AF4AAF1BAE3D961082B096108231961F
:1014F00081E08083319680831FAB0EABD801ED91E4
:10150000FC91CE010995CE010E941A08CE010E94DD
:101510005B0AC55ADF4F1882DF91CF911F910F915F
:10152000089580E00895FC01E55BFF4F2081318143
:10153000232B69F17E9620813C9620833B97408146
:101540003C96408332973081332309F1313001F1E9
:10155000022E000C330BFC01EA59FF4FE081DC0145
:10156000A859BF4F5C91652F052E000C770B6E0FAD
:10157000711DE7FD7A95261737071CF4E50F1D96B8
:10158000EC93541724F48A589F4FFC01508308951C
:1015900039973081231714F43A963083FC01E459CB
:1015A000FF4F208124179CF78A589F4FFC0120830E
:1015B0000895213039F020F0223031F0840F089561
:1015C000860F0895841B0895861B0895213039F0F5
:1015D00020F0223031F0861B0895840F0895860F85
:1015E0000895841B08958F929F92AF92BF92CF92DD
:1015F000DF92EF92FF920F931F93CF93DF937C01C3
:10160000D62E942EFC01E15BFF4FC480158113C0E0
:101610008D2C19C0F701E15BFF4F9285BA9690833C
:10162000282D482F6B2DC7010E945B09DC1680F125
:10163000DC1A1F5FC12CF701E15BFF4FC681CC199B
:10164000DC1630F38C2EF701E15BFF4FD38104856C
:10165000A12E202F412F6C2D82810E94D90AB82EF5
:10166000202F412F6C2D8D2F0E94E60A9110D2CF92
:10167000F701E15BFF4F91859111D8CF9385BA9621
:101680009083282D482F6B2DC7010E945B09CECF78
:101690006D2D6C0DF701E15BFF4F6483A582DF9137
:1016A000CF911F910F91FF90EF90DF90CF90BF905F
:1016B000AF909F908F900895DC0118964C911897E9
:1016C000ED91FC911197249130E0042E02C03595E4
:1016D00027950A94E2F7822F942F960F983080F086
:1016E00088E0841B31961196FC93EE93E491F0E030
:1016F00002C0EE0FFF1F8A95E2F78E2F822B9850C3
:101700002FEF3FEF02C0220F331F6A95E2F72095BB
:1017100018969C93822308950F931F93CF93DF9382
:10172000EC018C01015B1F4FF8017183608310860F
:1017300071966081C8010E945C0BF80186837296E5
:101740006081C8010E945C0BF8018783BA96808192
:10175000F801828791E0811190E0C15BDF4F9B87A8
:10176000DF91CF911F910F910895CF93C62F0E94C3
:101770005C0BC15021E030E002C0220F331FCA953C
:10178000E2F7821BCF9108957F928F929F92AF9242
:10179000BF92CF92DF92EF92FF920F931F93CF935E
:1017A000DF93EC017C018FE4E80EF11CCE010E9476
:1017B0008C0BFE01EA5AFF4FC0803C966081C70146
:1017C0000E94B50B782EFE01ED59FF4F6081C701D5
:1017D0000E94B50B182FFE01EC59FF4F6081C70125
:1017E0000E94B50BD82EF701968019140CF05BC03F
:1017F00004851C0D1195202F412F672D82810E9499
:10180000D90A882EF7018283202F412F672D8381EB
:101810000E94E60AF7018383013009F453C048F0BF
:10182000023009F459C0033009F464C0082F282D90
:1018300004C0282D290D0C2D080F482F682DCE012E
:101840000E94A008882379F1FE01E15BFF4F14821A
:101850001582FE01E25AFF4F6081C7010E945C0BB6
:10186000082FFE01E15AFF4F6081C7010E945C0B07
:10187000182F40E0602FCE010E94F30A41E0612F53
:10188000CE010E94F30A61E0C7010E945C0B811146
:10189000F0CFFE01E15BFF4F85818C15D4F282858C
:1018A000C758DF4F88838D2DDF91CF911F910F9106
:1018B000FF90EF90DF90CF90BF90AF909F908F9070
:1018C0007F900895982D9C1921E0280D082F090D6F
:1018D00088248394890EB1CF982D991921E0280D81
:1018E000382F3C1901E0080F81E0830F882483948E
:1018F000890EA3CF2C2D280D982F991901E0080FE0
:1019000081E0890F9ACFFC01E60FF11D849190E0F0
:101910003196982F8827E4918E0F911D0895EF92AC
:10192000FF920F931F93CF93DF93FC01E55BFF4F73
:10193000C081D18167966F3F710509F040F561362E
:101940007105C0F081599F4FFC0180819181C80FC2
:10195000D91FCE010196FC012491222309F446C02F
:10196000FE0124912617170681F0FC018491C80F0F
:10197000D11DEFCF6134710560F383599F4FFC0196
:1019800080819181C80FD91FE4CF019631C08B01AE
:10199000FC01EF58FF4F80819181C80FD91F7E0154
:1019A00060E0C7010E94830CC80FD91F62E0C70125
:1019B0000E94830CF4E0EF0EF11C8017910780F376
:1019C000FE01849190E0982F88273196E4918E2B28
:1019D0000097A9F00817190731F0FE013296E4913B
:1019E000CE0FD11DEDCFCE01039602C090E080E076
:1019F000DF91CF911F910F91FF90EF90089590E0AC
:101A000080E0F6CFCF93DF93EC01FC01EF5AFF4F5C
:101A1000608331964083B9010E948F0C009739F0A2
:101A2000BC01CE010E94C40BDF91CF91089580E0EC
:101A3000FBCFEF92FF920F931F93CF93DF93EC01B5
:101A4000162F042F7901FC01E55AFF4F8081813068
:101A5000E1F088F0823019F1833059F19701402F7D
:101A6000612FCE010E94020DDF91CF911F910F9146
:101A7000FF90EF900895FE01E35BFF4F0190F0812E
:101A8000E02DCE010995080FE9CFFE01E35BFF4F82
:101A90000190F081E02DCE010995181BDFCFFE01EA
:101AA000E35BFF4F0190F081E02DCE010995081B0B
:101AB000D5CFFE01E35BFF4F0190F081E02DCE0119
:101AC0000995180FCBCF860F911DFC0184910895C5
:101AD0000F931F93CF93DF93EC018B0160E0C8015C
:101AE0000E94630D888361E0C8010E94630D8983B1
:101AF00062E0C8010E94630D8A8363E0C8010E940E
:101B0000630D8B8364E0C8010E94630D8C8365E0E4
:101B1000C8010E94630D8D8366E0C8010E94630DB9
:101B20008E8367E0C8010E94630D8F8368E0C8015F
:101B30000E94630D888769E0C8010E94630D898750
:101B40006AE0C8010E94630D8A876BE0C8010E94A9
:101B5000630D8B876CE0C8010E94630D8C876DE07C
:101B6000C8010E94630D8D876EE0C8010E94630D5D
:101B70008E876FE0C8010E94630D8F8760E1C80106
:101B80000E94630D888B61E1C8010E94830C9A8BCF
:101B9000898B63E1C8010E94830C9C8B8B8B65E170
:101BA000C8010E94830C9E8B8D8BDF91CF911F917A
:101BB0000F910895CF93DF93FC01E55BFF4F2081E8
:101BC00031812617370751F0EC0171836083845A05
:101BD0009F4F0E94680DCE010E94930ADF91CF9122
:101BE0000895CF92DF92EF92FF920F931F93CF93BE
:101BF000DF931F92CDB7DEB77C016B0189019A019B
:101C00004BE457E06DED76E00E944105CE01019670
:101C10000E94D50486012EE238E04981BC01C7014B
:101C20000E94630A0F90DF91CF911F910F91FF9057
:101C3000EF90DF90CF900895CF92DF92EF920F93C5
:101C40001F93CF93DF936C01162FD42FC22FE0FC8C
:101C50000EC0E1FC1AC0E3FC27C0E2FC34C0DF91F7
:101C6000CF911F910F91EF90DF90CF900895402F6B
:101C70004D1B622F610F0E94D109402F411B6D2F18
:101C80006C0FC6010E94D109E4CF402F4D1B6C2F71
:101C9000611BC6010E94D109402F411B6C2F6D1B97
:101CA000C6010E94D109D7CF402F4D0F6C2F610F75
:101CB000C6010E94D109402F410F6D2F6C0FC60144
:101CC0000E94D109CACF402F4D0F6C2F611BC60156
:101CD0000E94D109402F410F6C2F6D1BC6010E943D
:101CE000D109BDCF8F929F92AF92BF92CF92DF92D8
:101CF000EF92FF920F931F93CF93DF935C01C62E59
:101D0000942E122F802EC1E0C21B822F8195D82ED7
:101D1000DD0CE02E042F262F412F60E0C5010E942C
:101D20001C0ED0E0FF24F3940CC0DF5FF394F39417
:101D3000CF0DE82C092D2C2D412F6D2FC5010E94B0
:101D40001C0ED11738F4CC2384F31150D394D394C0
:101D5000CD0DEBCFDF91CF911F910F91FF90EF90C1
:101D6000DF90CF90BF90AF909F908F900895DF92BB
:101D7000EF92FF920F931F93CF93DF937C01D62FA7
:101D8000142FC22FD02E042F020F260F0F5F2F5FAC
:101D90004C1B6C1B0E94A008811108C0DF91CF91E1
:101DA0001F910F91FF90EF90DF9008950D2D2C2F34
:101DB000412F6D2FC7010E94720EF0CFCF93DF939A
:101DC000EC016BAFEEA9FFA90190F081E02D099520
:101DD000EEA9FFA90280F381E02DCE010995DF91E4
:101DE000CF9108950F931F93DC01ED91FC91119712
:101DF0002089D896ED91FC91629F80011124000FFB
:101E0000111F000F111F000F111F0E0F1F1F60E089
:101E10000E9467051F910F910895EF92FF920F9313
:101E20001F93CF93DF938C01DC01DA96FC90DA9755
:101E3000DB96DC91DB97ED91FC91E188C0E04D2FC2
:101E40006C2FC8010E94F20ECF5FDF5FCF1510F438
:101E5000DE15A8F3DF91CF911F910F91FF90EF90C6
:101E600008958F929F92AF92BF92CF92DF92EF929E
:101E7000FF920F931F93CF93DF936C01162FF42ED5
:101E8000B22EA02ED42FD00FC62FC20F0D2F2C2F65
:101E90000E94A00881110DC0DF91CF911F910F9179
:101EA000FF90EF90DF90CF90BF90AF909F908F907A
:101EB0000895812E8E0C9F2C9E0CCE19C150DE19D8
:101EC000D15002E02E2D492D682DC6010E94B70E7B
:101ED00001E02E2D492D6C2FC6010E94B70E04E0A3
:101EE0002E2D4D2F682DC6010E94B70E08E02E2D15
:101EF0004D2F6C2FC6010E94B70E2B2D2E192E19B7
:101F0000CA2DCE19CE1983949394233090F4C33004
:101F100018F2C250BA942C2F492D612FC6010E948D
:101F20004A0A612F6B0D2C2F492DC6010E944A0AC7
:101F3000B3CFDEEFD20FAA942D2F4F2D682DC601FF
:101F40000E94500A4F2D4A0D2D2F682DC6010E9468
:101F5000500ADDCFFC0161A742A723A708950F9384
:101F60001F93CF93DF938C01E8EDE60FE63208F084
:101F70006DC0F0E0E254F04F0C945D1FE40FF90FD8
:101F80004010401026100110261026102610261092
:101F90002610261026102610261026102610261091
:101FA0002610261026102610261026102610261081
:101FB0002610261026102610261026102610261071
:101FC000261026100C100C10C0E004C062E00E9425
:101FD0000003CF5FC63108F059C0F801EC0FF11DC6
:101FE000868D8F3FB1F3C03188F761E00E94000316
:101FF000F0CF642F70E090E080E00E94B90381E0B0
:1020000040C0433030F082E090E00E947A0381E0EB
:1020100038C085E090E0F9CF41110EC06F73EC013C
:10202000C60FD11D61E08E8D0E94000360E08E8D91
:102030000E94CD0281E025C06F73060F111D62E082
:10204000F801868D0E94000381E01BC0603400F11E
:102050006F73F801E60FF11D868D8F3FD9F0603167
:1020600050F00E94A00221E0892B09F420E0F80141
:10207000218F81E006C0642F0E94CD0281E001C063
:1020800081E0DF91CF911F910F91089581E0F9CF09
:1020900080E0F7CF81E0F5CFFC017183608329E315
:1020A0002283089585EC8093BC0010925803089514
:1020B000811104C085E88093BC00089585EC80936D
:1020C000BC0008959093310380933003089590935A
:1020D0003503809334030895AC0120913203260F19
:1020E0003327331F21323105F4F4809158038430B3
:1020F000E1F490E00FC0E0913203292F30E0E20FCD
:10210000F32FF11D240F351FD9012C91E05FFC4FF7
:1021100020839F5F961778F380913203680F609356
:10212000320380E0089581E0089582E008959B01E4
:10213000AC0160E074E284EF90E00E943B1F20510C
:1021400031094109510956954795379527952093AF
:10215000B8000895ECEBF0E080818A7B808360E03A
:1021600082E10E94CD0260E083E10E94CD020895E9
:102170001092580381E080935A031092590361E052
:1021800082E10E94CD0261E083E10E94CD02E9EB91
:10219000F0E080818E7F808380818D7F808388E4E2
:1021A0008093B80085E48093BC000895EF92FF927D
:1021B0000F931F93CF93DF9391E090930F038111BF
:1021C00007C0DF91CF911F910F91FF90EF9008957D
:1021D000C8EBD0E0F8800AEB10E0F801E0800E9444
:1021E000AA100E94B810F801E082F882EACF4F925C
:1021F0005F926F927F928F929F92AF92BF92EF9277
:10220000FF920F931F93CF93DF93413280F081E0D1
:10221000DF91CF911F910F91FF90EF90BF90AF9002
:102220009F908F907F906F905F904F900895D22FE6
:10223000C42F7B01182F0E9485034B015C019091F4
:102240005803992329F180910B0390910C03A091DD
:102250000D03B0910E03892B8A2B8B2B81F30E94E7
:102260008503681979098A099B0940900B035090EE
:102270000C0360900D0370900E0346165706680617
:102280007906E8F680910A030E94D61085E0C0CF57
:1022900082E08093580300935A038FEF8093570393
:1022A00010927C03C0937B030AC0E92FF0E0D701B2
:1022B000AE0FBF1F8C91E55AFC4F80839F5F9C1728
:1022C000A0F310927D03812F90E0880F991F109149
:1022D0007D03812B80937D03809159038130A1F18F
:1022E00085EE8093BC000E9485034B015C01DD23D9
:1022F00009F462C080915803823009F05DC080917A
:102300000B0390910C03A0910D03B0910E03892B48
:102310008A2B8B2B61F30E948503681979098A093E
:102320009B0900910B0310910C0320910D03309138
:102330000E030617170728073907C8F680910A0306
:102340000E94D61085E064CF109259030E94850345
:102350004B015C0104C08091BC0083FF29C08091C7
:102360007D038093BB0080910B0390910C03A0919F
:102370000D03B0910E03892B8A2B8B2B61F30E94E6
:102380008503681979098A099B0900910B0310914B
:102390000C0320910D0330910E0306171707280731
:1023A0003907C8F680910A030E94D61085E030CF25
:1023B00085EC8093BC0097CF809157038F3F61F0ED
:1023C00080915703803251F080915703803311F090
:1023D00084E01ECF83E01CCF80E01ACF82E018CFCC
:1023E0008F929F92AF92BF92DF92EF92FF920F93E4
:1023F0001F93CF93DF93413268F080E0DF91CF915C
:102400001F910F91FF90EF90DF90BF90AF909F9042
:102410008F900895D22EF42EEB01E82E0E948503B2
:102420004B015C0190915803992329F100910B0312
:1024300010910C0320910D0330910E03012B022B00
:10244000032B81F30E948503681979098A099B0986
:1024500000910B0310910C0320910D0330910E039A
:102460000617170728073907E8F680910A030E9424
:10247000D61080E0C3CF81E080935803D0925A03F6
:102480009FEF9093570310927C039F0D90937B03D3
:1024900080937D038E2D90E0880F991F90917D038E
:1024A000892B80937D0380915903813089F185EEDA
:1024B0008093BC000E9485034B015C0190915803FE
:1024C000913009F05DC000910B0310910C03209135
:1024D0000D0330910E03012B022B032B79F30E9485
:1024E0008503681979098A099B0900910B031091EA
:1024F0000C0320910D0330910E03061717072807D0
:102500003907E0F680910A030E94D61080E076CF6A
:10251000109259030E9485034B015C0104C0809115
:10252000BC0083FF29C080917D038093BB00809114
:102530000B0390910C03A0910D03B0910E03892B16
:102540008A2B8B2B61F30E948503681979098A090C
:102550009B0900910B0310910C0320910D03309106
:102560000E030617170728073907C8F680910A03D4
:102570000E94D61080E042CF85EC8093BC009ACFB9
:1025800080917C038F1520F480917C0390E00DC036
:102590008F2DFCCF292F30E0FE01E20FF31F255ACB
:1025A0003C4FD9012C9120839F5F981798F326CF39
:1025B000089508950895E091070380910603E817B0
:1025C00030F4F0E0EA51FD4F808190E008958FEF04
:1025D0009FEF08959091070380910603981758F490
:1025E000E92FF0E0EA51FD4F208130E09F5F9093AA
:1025F0000703C90108952FEF3FEFFBCF809106033A
:1026000090910703891B990B0895CF92DF92EF9267
:10261000FF920F931F93CF93DF938C016B017A018D
:102620008091E502882399F0D0E0C0E0CE15DF0567
:1026300090F4D801ED91FC910190F081E02DD6014C
:10264000AC0FBD1F6C91C80109952196EFCF642F87
:10265000C6010E946C10C701DF91CF911F910F91AD
:10266000FF90EF90DF90CF900895CF93DF931F926C
:10267000CDB7DEB7FC0169839091E5029923F1F0B3
:1026800090910803903250F081E090E09383828330
:1026900090E080E00F90DF91CF9108958091090341
:1026A000E82FF0E0EB53FD4F998190838F5F80938B
:1026B00009038093080381E090E0ECCF61E0CE0154
:1026C00001960E946C1081E090E0E4CF0F9340915E
:1026D0000803062F21E065EC72E08091C4020E949D
:1026E000F71010920903109208031092E5020F915F
:1026F000089561E00E946613089581E08093E502E9
:102700006093C40210920903109208030895CF92B7
:10271000DF92EF92FF920F931F93CF93DF938C0181
:10272000C62F6A017901DC0112966C9112978D9186
:102730009C910E947D13F80180819181DC01ED91D3
:10274000FC910190F081E02D6C2F0995D0E0C0E064
:10275000CE15DF0580F4F80180819181DC01ED91D7
:10276000FC910190F081E02DD601AC0FBD1F6C9162
:1027700009952196EDCFF801808191810E9479130E
:10278000DF91CF911F910F91FF90EF90DF90CF904D
:102790000895CF93DF931F92CDB7DEB7498321E031
:1027A00030E0AE014F5F5F4F0E9487130F90DF91C3
:1027B000CF910895CF93DF93EC0140E060E00E9459
:1027C000C91340E061E0CE010E94C91340E062E01D
:1027D000CE010E94C91340E463E0CE010E94C913F8
:1027E00042E064E0CE010E94C91340E065E0CE0102
:1027F0000E94C91340E166E0CE010E94C91343E084
:1028000067E0CE010E94C91340E568E0CE010E9456
:10281000C91340E169E0CE010E94C91343E06AE0B8
:10282000CE010E94C91340E06BE0CE010E94C913A3
:1028300040E06CE0CE010E94C91340E06DE0CE01A3
:102840000E94C91344E26EE0CE010E94C91340E029
:102850006FE0CE010E94C91340E060E1CE010E940A
:10286000C91340E561E1CE010E94C91340E062E175
:10287000CE010E94C91346E063E1CE010E94C91354
:10288000DF91CF910895CF93DF93EC0140E360E0B7
:102890000E94C91341E061E0CE010E94C91340E0EB
:1028A00062E0CE010E94C91340E063E0CE010E94C5
:1028B000C91340E064E0CE010E94C91342E465E020
:1028C000CE010E94C91340E066E0CE010E94C91308
:1028D00040E067E0CE010E94C91340E568E0CE0108
:1028E0000E94C91340E069E0CE010E94C91340E094
:1028F0006AE0CE010E94C91340E06BE0CE010E9465
:10290000C91340E26CE0CE010E94C91344E06DE0BF
:10291000CE010E94C91340E06EE0CE010E94C913AF
:1029200040E36FE0CE010E94C91341E060E1CE01B7
:102930000E94C91340E561E1CE010E94C91340E045
:1029400062E1CE010E94C91346E063E1CE010E941C
:10295000C913DF91CF9108950E947D1308958F923E
:102960009F92AF92BF92CF92DF92EF92FF920F931E
:102970001F93CF93DF93EC01D62EF42E480159011B
:10298000E1101EC030E23F1518F46894FF24F5F8FA
:102990002C2D4F2D66EE72E08D2D0E94F0111092BD
:1029A000070380930603DF91CF911F910F91FF9052
:1029B000EF90DF90CF90BF90AF909F908F90089551
:1029C0000E947D1323E02E1520F40F2EF3E0EF2E4E
:1029D000F02D1FEF1E0DEE20D9F0E881F981019056
:1029E000F081E02D812F90E0880F991F880F991FAB
:1029F000880F991FA501940104C0569547953795F6
:102A000027958A95D2F7B901CE010995E12EE1CF3C
:102A100060E0CE010E946613B5CFCF92EF920F9384
:102A20001F93C22EE12C00E010E098010E94AF1429
:102A30001F910F91EF90CF90089521E00E940D1506
:102A40000895BF92CF92DF92EF92FF920F931F9360
:102A5000CF93DF938C01C62F6A017901DC011296B6
:102A60006C9112978D919C910E947D13F801808149
:102A70009181DC01ED91FC910190F081E02D6C2FB2
:102A80000995F801808191810E947913882361F072
:102A9000B12C8B2DDF91CF911F910F91FF90EF9073
:102AA000DF90CF90BF9008956AE070E080E090E002
:102AB0000E94B903BE2C4E2DD80112966C9112972C
:102AC0008D919C910E941D15D0E0C0E0CE15DF05D0
:102AD00000F7F80180819181DC01ED91FC91028485
:102AE000F385E02D0995F601EC0FFD1F80832196FB
:102AF000EDCFFF920F931F93CF93DF931F92CDB72C
:102B0000DEB78C01F62E198221E030E0AE014F5F76
:102B10005F4F69EA0E94211581E0F816A9F0F110D3
:102B200003C089818F7E898321E030E0AE014F5F51
:102B30005F4F69EAC8010E9487130F90DF91CF9120
:102B40001F910F91FF900895898180618983E7CF5C
:102B5000EF92FF921F93CF93DF931F92CDB7DEB713
:102B60007C011982611101C061E01FEF160F143161
:102B700008F013E161E0C7010E947915106819831C
:102B800021E030E0AE014F5F5F4F64E7C7010E9474
:102B9000871364E670E080E090E00E94B90360E093
:102BA000C7010E9479150F90DF91CF911F91FF907F
:102BB000EF900895FF920F931F93CF93DF9300D070
:102BC000CDB7DEB78C01F62E19821A8261E00E9421
:102BD000791521E030E0AE014F5F5F4F60E7C8013B
:102BE0000E94211521E030E0AE014E5F5F4F64E7A7
:102BF000C8010E942115F11024C08981877F898333
:102C00008A818F778A8321E030E0AE014F5F5F4F8A
:102C100060E7C8010E94871321E030E0AE014E5FFB
:102C20005F4F64E7C8010E94871360E0C8010E94FB
:102C300079150F900F90DF91CF911F910F91FF9019
:102C400008958981886089838A8180688A83DBCF3F
:102C5000FF920F931F93CF93DF931F92CDB7DEB7F1
:102C60008C01F62E21E030E0AE014F5F5F4F6EEB3E
:102C70000E942115F11003C089818460898381E05D
:102C8000F81681F021E030E0AE014F5F5F4F6EEB50
:102C9000C8010E9487130F90DF91CF911F910F9170
:102CA000FF90089589818B7F8983ECCFEF92FF920B
:102CB0000F931F93CF93DF9300D0CDB7DEB77C0186
:102CC000162F660F6B5621E030E0AE014F5F5F4F6D
:102CD0000E9421156BE4610F660F21E030E0AE0128
:102CE0004E5F5F4FC7010E9421150A818981102F15
:102CF000082F62E370E080E090E00E94B903C80111
:102D00000F900F90DF91CF911F910F91FF90EF9057
:102D100008950F931F93CF93DF93EC018B0160E035
:102D2000C8010E9456169983888361E0C8010E94F9
:102D300056169B838A8362E0C8010E9456169D83C3
:102D40008C8363E0C8010E9456169F838E8364E0E3
:102D5000C8010E9456169987888765E0C8010E94BD
:102D600056169B878A87CE01DF91CF911F910F91D5
:102D700008950F931F93CF93DF93EC018B0160E0D5
:102D8000C8010E9456169983888361E0C8010E9499
:102D900056169B838A8362E0C8010E9456169D8363
:102DA0008C8363E0C8010E9456169F838E8364E083
:102DB000C8010E9456169987888765E0C8010E945D
:102DC00056169B878A87CE01DF91CF911F910F9175
:102DD0000895CF93DF931F92CDB7DEB721E030E0A7
:102DE000AE014F5F5F4F63EA0E942115898186FD26
:102DF00005C080E00F90DF91CF91089581E0FACF78
:102E0000EF92FF920F931F93CF93DF931F92CDB753
:102E1000DEB78C017B0161E00E94791521E030E092
:102E2000AE014F5F5F4F60E7C8010E94211581E04E
:102E3000E816F104F1F0C8F083E0E816F104F1F0CF
:102E400021E030E0AE014F5F5F4F60E7C8010E94B4
:102E5000871360E0C8010E9479150F90DF91CF9130
:102E60001F910F91FF90EF90089589818C7F898346
:102E7000E7CF89818C7F81608983E2CF89818360FC
:102E80008983DECFFF920F931F93CF93DF931F921F
:102E9000CDB7DEB78C01F62E21E030E0AE014F5FFA
:102EA0005F4F60E80E942115F11013C089818F7E69
:102EB000898321E030E0AE014F5F5F4F60E8C801D9
:102EC0000E9487130F90DF91CF911F910F91FF9078
:102ED0000895898180618983ECCFFF920F931F93BE
:102EE000CF93DF931F92CDB7DEB78C01F62E21E092
:102EF00030E0AE014F5F5F4F60E80E942115F11096
:102F000013C089818D7F898321E030E0AE014F5F5E
:102F10005F4F60E8C8010E9487130F90DF91CF9147
:102F20001F910F91FF900895898182608983ECCF72
:102F3000EF92FF920F931F93CF93DF931F92CDB722
:102F4000DEB78C017B01198221E030E0AE014F5FDA
:102F50005F4F69EA0E94211589818F7E898321E074
:102F600030E0AE014F5F5F4F69EAC8010E948713EE
:102F700060E0C8010E946D1740E16FEAC8010E943D
:102F8000C913E114F10421F1EA94EF2829F161E079
:102F9000C8010E944217F801848195818130910512
:102FA000F9F0892B39F161E0C8010E946D17F80131
:102FB00084819581892B21F5C8010E94E916811130
:102FC0001FC061E070E080E090E00E94B903F4CFA0
:102FD000C8010E944314DBCFC8010E94DA13D7CF87
:102FE00060E0C8010E94281661E070E0C8010E94FC
:102FF0000017D9CF70E060E0C8010E940017D3CF5E
:103000000F90DF91CF911F910F91FF90EF90089556
:10301000FF920F931F93CF93DF931F92CDB7DEB72D
:103020008C01F62E21E030E0AE014F5F5F4F60E88B
:103030000E942115F11013C089818E7F898321E0C0
:1030400030E0AE014F5F5F4F60E8C8010E94871318
:103050000F90DF91CF911F910F91FF90089589817B
:1030600081608983ECCFCB01BA010E94971008954B
:10307000109207031092060310920903109208039E
:103080000E94B81088ED92E10E94621089ED92E1F1
:103090000E9467100895CF93DF93EC01683199F196
:1030A00060F46431A1F0673171F450E0B9018EE74A
:1030B00093E00E94051381E007C06931B1F16032ED
:1030C00011F481E001C080E0DF91CF9108958C85FB
:1030D0009D85AE85BF85892B8A2B8B2B71F4E8816A
:1030E000F981A585B0E020EA36E841E050E00E9491
:1030F000631F6C877D878E879F878EE793E00E9492
:10310000381881E0E1CF4C855D856E857F858EE73F
:1031100093E00E9433186E8970E0759567958EE78D
:1031200093E00E94AC1481E0CFCF8EE793E00E9441
:10313000791381E0C9CF0F931F93CF93DF93EC01F5
:103140008B01888199810E9438186A8188819981D0
:103150000E947D13888199810E94791381110DC08D
:1031600061E0CE010E9408181D830C8390E080E08E
:10317000DF91CF911F910F9108958FEF9FEFF8CFBF
:10318000FC011382128288EE93E0A0E0B0E0848319
:103190009583A683B78382E291E09183808308952B
:1031A000019709F008956F3F7F4FE1F78EE793E0B5
:1031B0000E94C018F7CFCF93DF93019719F0DF91EA
:1031C000CF9108956F3F7F4FD1F783EC92E00E943B
:1031D000F1036EE773E08DEB92E00E944C10CAE3BE
:1031E000D2E01B821A8280E191E09983888384EC8B
:1031F00097E09093BA028093B9021092BB021092AA
:10320000BC028EE392E00E94D10784E091E09983B2
:1032100088832FEA3FE04BE458E168E171E08EE3F8
:1032200092E00E94F10D2FEF4FEF6FEF8EE392E0EF
:103230000E94AA0F41E050E06FE070E084E292E06B
:103240000E94A104BCCFCF93DF93CDB7DEB72C97FC
:103250000FB6F894DEBF0FBECDBF61E08DE00E94D7
:10326000000364E68DEB92E00E94A81561E08DEB0F
:1032700092E00E94DA156CE271E080E090E00E943A
:10328000B90370E060E08DEB92E00E9498176DEB5F
:1032900072E0CE0101960E94B9168CE0FE013196D3
:1032A000A8E1B2E001900D928A95E1F761E070E04B
:1032B0008DEB92E00E9498176DEB72E0CE010196C3
:1032C0000E9489168CE0FE013196ACE0B2E00190DC
:1032D0000D928A95E1F76CE271E080E090E00E9447
:1032E000B90360E08DEB92E00E94DA152C960FB6E0
:1032F000F894DEBF0FBECDBFDF91CF910895CF927E
:10330000DF92EF92FF920F931F93CF93DF937C0195
:10331000DB01EA0110E000E0209799F0F7018081DD
:103320009181FC01208131816D01FFEFCF1ADF0A0D
:103330006C91C701F9010995080F191F2197D60152
:10334000EBCFC801DF91CF911F910F91FF90EF90CC
:10335000DF90CF900895CF93DF93EC01FC01E1580B
:10336000FF4F0190F081E02D049609958E3F2FEFDD
:10337000920728F081E090E0DF91CF910895FE015F
:10338000EE57FF4F4081319760819C01CE0104963A
:103390000E94190DFE01E15AFF4F9081913089F092
:1033A00050F09230A1F0933029F7CE57DF4F98813B
:1033B000981B9883DFCFCF57DF4F9881890F888381
:1033C000D9CFCE57DF4F9881890F8883D3CFCF577E
:1033D000DF4F9881981B9883CDCF089590E080E0CF
:1033E0000895DF92EF92FF920F931F93CF93DF9395
:1033F000CDB7DEB7A1970FB6F894DEBF0FBECDBF35
:103400007C01CB01BA01D22E19A221E02D1520F4A6
:103410008E010F5D1F4F0EC00F2EFAE0DF2EF02D34
:10342000F7CFE95CD801EE938D0161157105810537
:10343000910579F02D2D30E050E040E00E943B1FD7
:10344000E62F622F732F842F952FEA3054F7E05D1B
:10345000E9CF1097F9F0FD0101900020E9F73197CD
:10346000AF014A1B5B0BD701ED91FC910280F38108
:10347000E02DB801C7010995A1960FB6F894DEBFFB
:103480000FBECDBFDF91CF911F910F91FF90EF90B5
:10349000DF90089590E080E0EFCF2115310549F4E9
:1034A000DC01ED91FC910190F081E02D642F0995F4
:1034B00008950E94F11908959A01AB0170E060E04F
:1034C0000E944D1A08956115710581F0FB0101906C
:1034D0000020E9F73197AF01461B570BDC01ED9156
:1034E000FC910280F381E02D0995089590E080E041
:1034F0000895FC01A081B18150964C9182AD489F06
:10350000A0011124440F551F440F551F440F551F90
:1035100070E060E080AD91AD0E947D1F08951F9323
:10352000CF93DF93EC010E940D0F8BAD1AAD180FF6
:10353000E881F9818189181778F4FE01E658FF4F78
:10354000808181110EC0612FCE010E94DE0E81E0CC
:10355000DF91CF911F910895CE010E94190580E05F
:10356000F7CFCE010E94791AEECFCF93DF93EC0113
:10357000FC01E658FF4F8081811107C060E0CE0159
:103580000E94DE0EDF91CF910895CE010E94791A3C
:10359000F5CFCF93DF93EC010E94B51ACE010E94C4
:1035A0008F1A8111FBCF60E0CE010E94DE0EDF9109
:1035B000CF9108957F928F929F92AF92BF92CF92B8
:1035C000DF92EF92FF920F931F93CF93DF9368E602
:1035D00070E08EE392E00E94DA0D60E08EE392E00C
:1035E0000E94560A8EE392E00E94B51AE12C00E494
:1035F00020E840E060E08EE392E00E94310F20E49A
:1036000040E060E48EE392E00E94EB090BEB12E0F5
:103610006894FF24F1F8F801F082CCEBD2E00F2E91
:10362000FCE07F2EF02D788265E971E08AE392E07C
:103630000E94631A0F2EF6E1EF2EF02DF801E082C2
:1036400078820F2EF8E1CF2EF2E0DF2EF02DF6017A
:10365000608171814AE050E08AE392E00E945C1A46
:10366000F801F0820F2EF8E18F2EF02D888269E9A3
:1036700071E08AE392E00E94631AF801E082888296
:10368000F601628173814AE050E08AE392E00E9491
:103690005C1AF801F0820F2EF4E29F2EF02D988232
:1036A0006DE971E08AE392E00E94631AF801E0821A
:1036B0009882F601648175814AE050E08AE392E0E5
:1036C0000E945C1AF801F0820F2EF0E3BF2EF02D5D
:1036D000B88261EA71E08AE392E00E94631AF8011D
:1036E000E082B882F601668177814AE050E08AE3A1
:1036F00092E00E945C1AF801F0820F2EFCE3CF2EBC
:10370000F02DC88265EA71E08AE392E00E94631AB4
:103710008AE1F8018083C8820F2EFCE0EF2EF2E0F0
:10372000FF2EF02DF701608571854AE050E08AE3B5
:1037300092E00E945C1A0F2EF2E4DF2EF02DF801C9
:10374000D08278826AEA71E08AE392E00E94631A8A
:103750000F2EF6E5AF2EF02DF801A0827882F7014A
:10376000608171814AE050E08AE392E00E945C1A35
:10377000F801D08288826EEA71E08AE392E00E94CA
:10378000631AF801A0828882F701628173814AE09E
:1037900050E08AE392E00E945C1AF801D08298829D
:1037A00062EB71E08AE392E00E94631AF801A08262
:1037B0009882F701648175814AE050E08AE392E0E3
:1037C0000E945C1AF801D082B88266EB71E08AE34D
:1037D00092E00E94631AF801A082B882F701668124
:1037E00077814AE050E08AE392E00E945C1AF80197
:1037F000D082C8826AEB71E08AE392E00E94631A89
:103800008AE5F8018083C882F701628573854AE002
:1038100050E08AE392E00E945C1A8EE392E00E94FC
:103820008F1A8111E3CE68EE73E080E090E00E9491
:10383000B903DF91CF911F910F91FF90EF90DF902F
:10384000CF90BF90AF909F908F907F90089584E22B
:1038500092E00E94F4030E94DA1A6AE070E080E0CD
:1038600090E00E94B90308958EE392E00E942D0536
:103870008EE392E00E94C91A60E08EE392E00E941B
:10388000230570E060E08DEB92E00E949B1870E0F1
:1038900060E08DEB92E00E949B18892B39F168E67D
:1038A00070E08EE392E00E94DA0D60E08EE392E039
:1038B0000E94560A8EE392E00E94B51A1092BB0253
:1038C0008CE08093BC026FEB71E08AE392E00E948F
:1038D000631A8EE392E00E948F1A8111EFCF68EE97
:1038E00073E080E090E00E94B903D1CF68E670E019
:1038F0008EE392E00E94DA0D60E08EE392E00E9497
:10390000560A8EE392E00E94B51A1092BB028CE038
:103910008093BC0262ED71E08AE392E00E94631A38
:103920008EE392E00E948F1A8111EFCF60ED77E075
:1039300080E090E00E94B90363E279E184E292E0E2
:103940000E949D04089585ED8093BC0040910B0377
:1039500050910C0360910D0370910E03495F5F4F0E
:103960006F4F7F4F689412F87695679557954795F6
:103970001694D1F78091BC0084FF1FC080910B0387
:1039800090910C03A0910D03B0910E03892B8A2B0B
:103990008B2B81F3411551056105710549F085E3D4
:1039A0008A95F1F700004150510961097109E2CF90
:1039B00080910A030E94D61008951092580308952A
:1039C0006FEF7FEF81E090E00E94D0186FEF7FEF04
:1039D00081E090E00E94DB1808951F920F920FB6CD
:1039E0000F9211240F931F932F933F934F935F9345
:1039F0006F937F938F939F93AF93BF9300910C042A
:103A000010910D0420910E0430910F0490910B043D
:103A1000B901A8014F5F5F4F6F4F7F4F83E0890F60
:103A20008D3740F086E8890FB901A8014E5F5F4FDE
:103A30006F4F7F4F80930B0440930C0450930D0401
:103A400060930E0470930F04809110049091110400
:103A5000A0911204B09113040196A11DB11D809391
:103A6000100490931104A0931204B0931304BF9117
:103A7000AF919F918F917F916F915F914F913F9106
:103A80002F911F910F910F900FBE0F901F901895BF
:103A90000E943F030E94341C0E94271C80E090E09B
:103AA000892BD1F30E940000F7CF1F920F920FB61F
:103AB0000F9211242F933F934F935F936F937F93B4
:103AC0008F939F93AF93BF93EF93FF93E091B900D0
:103AD000E87FE93C08F0D5C0F0E0EF58F24E0C94D6
:103AE0005D1F361F411E411E411E411E411E411ECB
:103AF000411E3A1E411E411E411E411E411E411ED5
:103B0000411E3A1E411E411E411E411E411E411EC4
:103B1000411E521E411E411E411E411E411E411E9C
:103B2000411E781E411E411E411E411E411E411E66
:103B3000411E521E411E411E411E411E411E411E7C
:103B4000411E7E1E411E411E411E411E411E411E40
:103B5000411E841E411E411E411E411E411E411E2A
:103B6000411E961E411E411E411E411E411E411E08
:103B7000411EC01E411E411E411E411E411E411ECE
:103B8000411E8A1E411E411E411E411E411E411EF4
:103B9000411EA41E411E411E411E411E411E411ECA
:103BA000411EC31E411E411E411E411E411E411E9B
:103BB000411EC31E411E411E411E411E411E411E8B
:103BC000411EC31E411E411E411E411E411E411E7B
:103BD000411EC31E411E411E411E411E411E411E6B
:103BE000411ECC1E411E411E411E411E411E411E52
:103BF000411EFD1E411E411E411E411E411E411E11
:103C0000411ECC1E411E411E411E411E411E411E31
:103C1000411EFD1E411E411E411E411E411E411EF0
:103C2000411EE41E411E411E411E411E411E411EF9
:103C3000411E011F411E411E411E411E411E411ECB
:103C4000411E011F411E411E411E411E411E411EBB
:103C5000411E161F411E411E411E411E411E411E96
:103C6000411E301F411E411E411E411E411E411E6C
:103C7000411E301F80917D038093BB0081E00E9434
:103C80005810FF91EF91BF91AF919F918F917F91CC
:103C90006F915F914F913F912F910F900FBE0F90B9
:103CA0001F90189590917C0380917B03981768F082
:103CB00080915A03811119C081E08093590384EAED
:103CC0008093BC0010925803DCCFE0917C0381E02C
:103CD0008E0F80937C03F0E0E55AFC4F8081809347
:103CE000BB0081E00E945810CCCF0E94A31CC9CF1A
:103CF00080E2809357030E94A31CC3CF80E380938C
:103D000057030E94A31CBDCF88E3809357030E94F2
:103D10005210B7CFE0917C0381E08E0F80937C033B
:103D2000F0E08091BB00E55AFC4F808390917C03CA
:103D300080917B03981720F481E00E945810A1CF56
:103D400080E00E9458109DCFE0917C0381E08E0FAF
:103D500080937C03F0E08091BB00E55AFC4F8083A8
:103D600080915A03811109C081E08093590384EA4C
:103D70008093BC001092580384CF0E94A31C81CF73
:103D80000E94A31C7ECF83E08093580310925603B9
:103D900081E00E94581075CF80915603803280F4E4
:103DA000E091560381E08E0F80935603F0E08091FE
:103DB000BB00EA5CFC4F808381E00E94581061CF19
:103DC00080E00E9458105DCF0E94521080915603EF
:103DD000803230F4E0915603F0E0EA5CFC4F108250
:103DE0006091560370E0E0913403F091350386E36F
:103DF00093E009951092560344CF80E00E9458103A
:103E000040CF84E080935803109233031092320322
:103E1000E0913003F09131030995809132038111D3
:103E200005C081E08093320310921003E0913303C8
:103E300081E08E0F80933303F0E0E05FFC4F8081E0
:103E40008093BB009091330380913203981720F444
:103E500081E00E94581015CF80E00E94581011CFC9
:103E600081E00E945810109258030BCF1092570314
:103E70000E94A31C06CFA1E21A2EAA1BBB1BFD01A8
:103E80000DC0AA1FBB1FEE1FFF1FA217B307E40739
:103E9000F50720F0A21BB30BE40BF50B661F771F91
:103EA000881F991F1A9469F7609570958095909571
:103EB0009B01AC01BD01CF010895EE0FFF1F0590DE
:103EC000F491E02D09940E946E1FA59F900DB49F60
:103ED000900DA49F800D911D11240895A29FB00103
:103EE000B39FC001A39F700D811D1124911DB29F2E
:103EF000700D811D1124911D0895DC0101C06D9389
:0C3F000041505040E0F70895F894FFCFC6
:103F0C0000000000AB197F19EE19ED19000000003C
:103F1C00AB197F19EE19ED191708150935090000B1
:103F2C00000035130513EE19DA12FE12EA12DB1239
:103F3C001815A015C019FF1815A115C819FF1815CB
:103F4C00AE19FF1815AF19FF0001140A6464323260
:103F5C0000093D000304289610080202800040006E
:103F6C001815AE15D5168015A8163F15D3160015C5
:103F7C0040158D16141520160015A115C815DA1646
:103F8C0012158116CF15D916F115DB1640152E1505
:103F9C00A415A619FF46313A0046323A0046333A88
:103FAC000046343A00434C523A0046353A00463605
:103FBC003A0046373A0046383A004E49523A0041E8
:103FCC00533734333120496E6974696E67202E2E55
:103FDC002E00526561647920666F72206D65617385
:083FEC00757265696E67200023
:00000001FF
