:100000000C9448020C940A1F0C94E31E0C9470028A
:100010000C9470020C9470020C94311F0C947002BA
:100020000C9470020C9470020C9470020C94700288
:100030000C9470020C9470020C9470020C94700278
:100040000C947B1E0C9470020C9470020C94700241
:100050000C9470020C9470020C9470020C94700258
:100060000C94481F0C9470025F0003020304030504
:1000700004050C00FE07FE08FF0142028603AE20C5
:1000800005006A0721073943C7A00422079B56478A
:100090006209230D35424F65504A49322815002424
:1000A0000E4D3E57B654946C4B94CA1601250A3D2A
:1000B000428734659D2601260D3D424F96444956A0
:1000C00049A4480927061957C700280BCB3E5712E9
:1000D00025512DCA02290CCB3E47166551254A22CF
:1000E000002A0B3D4257A5B2654B53042B0A2D46FF
:1000F00057180D5218012C081B3E8F3224002D0674
:100100000D4EC7202E069242C7102F0A3D42671699
:1001100066C52C04300ABC428F12794A140031089B
:10012000BB424F227519320A3D42CF928559DB20DE
:10013000330C3D42C7206699AA250B00340C3D4282
:100140005F2625A564D0C204350B3D42C7714843E4
:100150002D5900360C3D42979485439269C9023768
:100160000B3D42C7206661169600380C3D42CF9287
:1001700069C99269C902390C3D42CF9269C91066BA
:1001800091043A08AA42C7100D013B09333E8F5132
:100190001912003C07AB4657522B3D081D4AC7A019
:1001A0000E023E08AB46475629013F0A3D42CF9218
:1001B00035E65004400D3D42CF922943922843BA80
:1001C00000410B3D42CF9269C390D902420D3D429E
:1001D000C71055A264AA448302430A3D42CF9289C4
:1001E0006DC902440F3D42C71055A2244AA2241AE9
:1001F0001400450B3D42C7311C92301C04460A3D99
:1002000042C7311C92B008470B3D42CF9289A52DC1
:100210005900480A3D4247661B86CC164908BB4236
:10022000C71275194A0A3D42D716B64491044B0DC0
:100230003D42472625252D892A59004C083D424735
:10024000D8E3204D0A3D4247B62C89E6164E0C3DB8
:100250004247A64D4A226D5A004F0A3D42CF92793D
:100260004B1600500C3D42C79064DAA08445005103
:100270000B3D42CF92B92452A404520D3D42C79087
:1002800064DAA0942A5900530B3D42CF92A9AB9651
:100290002C0054093D42C720853D0155093D424788
:1002A000E65BB200560B3D4247E69694922C02570D
:1002B0000A3D4247E62551BA00580B3D4247A62564
:1002C000B54A4D0B590A3D4247A625B5B0095A0A11
:1002D0003D42C720661D07015B08CB3EC710F5698C
:1002E0005C093D42471AA6C5345D08CB3EC7D4A77A
:1002F000215E081D565796D4025F060D3AC720604E
:10030000069B564756610A2D42CF9A0C5A32046218
:100310000C3D4247180E49661B1400630A2D42CF5C
:10032000928959B200640A3D426765D06CC9106574
:100330000A2D42CF920D4ABA00660A3D429754C92F
:10034000B6B006670C3D3ACF92D992214C160068A0
:100350000A3D4247180E49E6166908BB424F28B5C8
:100360000C6A0ACC3A5FACB54989026B0B3D424737
:10037000589392A992056C08BB4287D4CB006D0BB1
:100380002D4287D2A2244AA2146E092D424762D27E
:100390006C016F092D42CF92D99205700C3D3AC77E
:1003A0009064B641094300710A3D3ACFA0D9922129
:1003B0002C72092D424762128B0073092D42CFA087
:1003C0001E1400740A3D4257180D52581575092D18
:1003D0004247E6A42801760A2D4247664B6A11007F
:1003E000770A2D42476649942E00780A2D42479697
:1003F000D42AB500790A3D3A47664B6A8D007A09DE
:100400002D42C7A0B50D027B0ACB3E571255B2A8AC
:10041000167C06493FC7037D0BCB3E4716D592A8F5
:1004200012017E091D4A4FA424520200000004FF5D
:10043000FF000000000000240027002A0000000048
:1004400000250028002B00000000002300260029C2
:10045000000404040404040404020202020202036D
:100460000303030303010204081020408001020477
:1004700008102001020408102000000008000201FA
:1004800000000304070000000000000000006E1ED2
:1004900011241FBECFEFD8E0DEBFCDBF11E0A0E03A
:1004A000B1E0E2EFF2E402C005900D92AC3EB1077C
:1004B000D9F724E0ACEEB1E001C01D92AE33B20733
:1004C000E1F712E0C8E4D2E004C02197FE010E94E7
:1004D0005021C734D107C9F70E94D61E0C9477214A
:1004E0000C9400008330B1F060F08730E9F0883080
:1004F00009F1843021F5E0E8F0E080818F7D808390
:100500000895813069F0823021F484B58F7D84BDF7
:1005100008950895E0E8F0E080818F778083089562
:1005200084B58F7784BD0895E0EBF0E080818F770C
:1005300080830895E0EBF0E080818F7D80830895D3
:10054000CF93DF93282F30E0F901E758FB4F8491D8
:10055000F901EB59FB4FD491F901EF5AFB4FC491CC
:10056000CC23B1F081110EC0EC2FF0E0EE0FFF1F95
:10057000E95BFB4FA591B491EC91ED2331F490E050
:1005800080E008C00E947202EFCF81E090E002C0DC
:1005900090E080E0DF91CF9108951F93CF93DF9398
:1005A000282F30E0F901E758FB4F8491F901EB590E
:1005B000FB4F1491F901EF5AFB4FC491CC23A9F0E2
:1005C000D62F811116C0EC2FF0E0EE0FFF1FE35C79
:1005D000FB4FA591B4918FB7F894D1110DC09C91A8
:1005E000E12FE095E923EC938FBFDF91CF911F912D
:1005F00008950E947202E7CFEC91E12BEC93F4CFC7
:10060000CF93DF9390E0FC01EB59FB4F24918F5A7D
:100610009B4FFC018491882319F190E0880F991F6A
:10062000FC01ED5CFB4FA591B491FC01E35CFB4F39
:10063000C591D491662349F06230A9F08FB7F89440
:10064000EC91E22BEC938FBF0BC09FB7F8948C9189
:10065000E22FE0958E238C938881E823E8839FBF67
:10066000DF91CF9108959FB7F8943C91822F8095A8
:1006700083238C93E881E22BE8839FBFF1CF7894AA
:1006800084B5826084BD84B5816084BD85B5826097
:1006900085BD85B5816085BDEEE6F0E08081816035
:1006A0008083E1E8F0E01082808182608083808135
:1006B00081608083E0E8F0E0808181608083E1EB0D
:1006C000F0E0808184608083E0EBF0E080818160F5
:1006D0008083EAE7F0E080818460808380818260AB
:1006E0008083808181608083808180688083109294
:1006F000C10008958230910538F0880F991F880F46
:10070000991F05970197F1F708953FB7F8948091E5
:100710003A0490913B04A0913C04B0913D0426B56D
:10072000A89B05C02F3F19F00196A11DB11D3FBF29
:10073000BA2FA92F982F8827BC01CD01620F711DF8
:10074000811D911D660F771F881F991F660F771FE8
:10075000881F991F08952FB7F894609136047091FF
:10076000370480913804909139042FBF089508957B
:1007700008958F929F92AF92BF92CF92DF92EF92A5
:10078000FF926B017C010E9485034B015C011BC041
:1007900021E0C21AD108E108F10888EE880E83E052
:1007A000981EA11CB11CC114D104E104F10459F03C
:1007B0000E948503681979098A099B09683E73407C
:1007C0008105910528F7C114D104E104F10459F71A
:1007D000FF90EF90DF90CF90BF90AF909F908F9061
:1007E0000895823008F00895E82FF0E0882359F04A
:1007F000813069F0EE0FFF1FE050FF4F8BE094E077
:1008000091838083F0CF8DB38E7F8DBBF3CF8DB37B
:100810008D7F8DBBEFCF0895823008F00895E82FCB
:10082000F0E0EE0FFF1FE050FF4F718360838823DD
:1008300019F0813059F00895E9E6F0E080818C7F6D
:10084000482B40838DB381608DBB0895E9E6F0E0CD
:100850008081837F440F551F440F551F482B4083D1
:100860008DB382608DBBDACF4115510529F4EAE7DB
:10087000F0E080818F7780836A307105B9F0CB0119
:10088000880F991F880F991F807267706860682BA6
:1008900088E10FB6F894A895809360000FBE60932E
:1008A0006000E0E6F0E0808180648083232BD9F44F
:1008B00083B7817F846083BFF89483B7816083BFEF
:1008C00085B7806685BF8F7D85BF7894889583B70F
:1008D0008E7F83BF7894452B29F4EAE7F0E080818E
:1008E00080688083089583B7817F846083BFF89494
:1008F00083B7816083BF7894889583B78E7F83BFE9
:100900007894E9CFFC0186A597A591AB80AB77A73A
:1009100066A70895FC0117A616A611AA10AA17AA81
:1009200016AA12AA13AA14AA15AA0895CF92DF92A2
:10093000EF92FF921F93CF93DF93EC01162F0E944B
:10094000AB036B017C018AA99BA9ACA9BDA9B70126
:10095000A601481B590B6A0B7B0B8EA59FA5823005
:10096000910509F463C0C4F08630910509F4D2C042
:100970008730910509F4E8C0039709F47DC070E061
:1009800060E0CE010E948204DF91CF911F91FF9021
:10099000EF90DF90CF900895009751F1019779F78C
:1009A000111109C08A819B81B0E0A0E04817590766
:1009B0006A077B0758F1112379F18E819F81B0E09E
:1009C000A0E084179507A607B707F0F6EC8DFD8D1C
:1009D000309709F00995EE8DFF8D309719F088A1B9
:1009E00099A1099566E070E0CE010E948204CCCF07
:1009F000112351F261E070E0CE010E948204CAAA84
:100A0000DBAAECAAFDAA1FAA1EAABECF68A979A9D3
:100A1000CE010E948204B8CF62E070E0CE010E9455
:100A20008204CAAADBAAECAAFDAAAECF112349F020
:100A30008A819B81B0E0A0E0481759076A077B07CD
:100A4000A8F08A819B81B0E0A0E0481759076A07A7
:100A50007B0708F499CF8EA99FA901969FAB8EAB17
:100A600063E070E0CE010E9482048ECF68A979A96C
:100A7000CE010E94820488CF111128C08C819D81F3
:100A8000B0E0A0E084179507A607B70740F02EA9AD
:100A90003FA988AD99AD2817390709F075CF8EA900
:100AA0009FA981309105E1F0029739F1EE89FF8924
:100AB000309709F00995E88DF98D309719F08A8DF6
:100AC0009B8D0995CE010E948A045ECF61E070E0A3
:100AD000CE010E948204CAAADBAAECAAFDAA54CFC6
:100AE000EA85FB85309709F00995EC85FD853097FF
:100AF00049F38E859F850995E5CFE889F989309777
:100B000009F00995EA89FB893097E1F28C899D8982
:100B10000995D8CF112371F0E8A5F9A5309709F010
:100B20000995EAA5FBA5309709F42ECF8CA59DA5C4
:100B300009952ACF67E070E0CE010E948204CAAA1C
:100B4000DBAAECAAFDAA20CF112349F08A819B8160
:100B5000B0E0A0E0481759076A077B07D0F08A8108
:100B60009B81B0E0A0E0481759076A077B0708F4AB
:100B70000BCFEAA1FBA1309709F00995ECA1FDA1EB
:100B8000309719F08EA19FA10995CE010E948A0489
:100B9000FBCE68A979A9CE010E948204F5CECF933D
:100BA000DF93FC0120813181332374F0EC01822F2B
:100BB0000E94A0022885398561E08217930709F019
:100BC00060E0CE010E949604DF91CF910895FC0170
:100BD000718B608B80AD91AD823091051CF091AF2F
:100BE00080AF089582E090E0FACFFC01862FA2E367
:100BF000B0E0B383A283A0E9B1E0B583A483A0E20F
:100C0000B3E0B783A68313861286158614861786EB
:100C10001686118A108A138A128A158A148A178AEC
:100C2000168A118E108E138E128E158E148E178EBC
:100C3000168E11A210A213A212A215A214A211A61E
:100C400010A613A612A615A614A617A616A611AAD4
:100C500010AAA1E0B0E0B1AFA0AF608371834423DC
:100C600041F011861086211109C060E00E94000346
:100C7000089541E050E051874087F5CF62E00E943F
:100C80000003089521E0FC01208385EB93E00895A3
:100C9000DC0111961C921E928CE796E015969C93AF
:100CA0008E93149717969C938E93169719969C93F0
:100CB0008E9318971B969C938E931A9755961C9219
:100CC000559758961C9258971C961D921D921D92EE
:100CD0001C921F978FEF56968C9356975A968C932B
:100CE0005A9790E006C0FD01E90FF11D2FEF268F06
:100CF0009F5F9631C0F3089580E00895DC011A9655
:100D0000ED91FC9130E020E009950895DC01149606
:100D1000ED91FC9130E020E040E060E1099508951C
:100D2000462FDC011496ED91FC9130E020E06BE061
:100D300009950895DC011496ED91FC9130E020E0D6
:100D400040E06AE009950895DC011496ED91FC916C
:100D500030E020E040E069E009950895AF92BF924D
:100D6000CF92DF92EF92FF920F931F93CF93DF9377
:100D7000EC015B016A0179010E944806BD82AC82E8
:100D8000DF82CE82F986E8861B870A87CE010E9421
:100D9000A406DF91CF911F910F91FF90EF90DF900C
:100DA000CF90BF90AF9008950F931F93CF93DF9391
:100DB00000D000D01F92CDB7DEB76C834D832B835C
:100DC0001A830983DC011496ED91FC919E012F5F3B
:100DD0003F4F41E06FE009950F900F900F900F90FB
:100DE0000F90DF91CF911F910F910895CF93DF93D3
:100DF000EC01EA85FB8530E020E040E068E20995FF
:100E0000EE81FF8130E020E040E064E1CE01099511
:100E100041E06BE4CE010E947E06E881F9814481C5
:100E200069E2CE010E947E0640E06BE4CE010E94A2
:100E30007E06E881F981448169E2CE010E947E0646
:100E400041E06BE4CE010E947E06E881F981458194
:100E500069E2CE010E947E06DF91CF910895FC01E8
:100E600071836083FB012289FC01248B0895DC01DE
:100E70001696ED91FC9130E020E040E069E10995A3
:100E80000895DC011696ED91FC9130E020E040E001
:100E900068E1099508959A01DC011696ED91FC919F
:100EA000462F67E109950895CF92DF92EF92FF9266
:100EB0000F931F93CF93DF931F92CDB7DEB76C01D3
:100EC0007B01D7016D918D01673109F178F06A31AD
:100ED00060F16E3FA9F5FD014081498369E2C601D9
:100EE0000E947E06F2E0EF0EF11CEBCF653140F17F
:100EF000FD0140814983D6011696ED91FC9130E0C9
:100F000020E0C6010995B2E0EB0EF11CDACFF70143
:100F100081818983AE014F5F5F4F61E0C6010E940E
:100F20004B07F2E0EF0EF11CCCCFD6011696ED91F7
:100F3000FC9130E020E040E0C60109957801C1CF86
:100F40000F90DF91CF911F910F91FF90EF90DF9065
:100F5000CF900895462FDC011696ED91FC9130E07C
:100F600020E066E109950895462FDC011696ED9183
:100F7000FC9130E020E065E109950895EF92FF9241
:100F80000F931F93CF93DF938C01C42F79016D30A2
:100F900009F44DC0D8F16E3009F465C06F3009F026
:100FA00077C00E944107F701D3816D2F660F660F4E
:100FB000660FD8015496DC91D60F60E4C8010E94F8
:100FC000B4076D2F62956F706061C8010E94B4070D
:100FD0006D2F6F70C8010E94AA07F7016481606BD2
:100FE000C8010E94AA07D70112966C9112974D91E1
:100FF0005C91660F660F660FC8010E944B07C150D7
:1010000091F7C8010E94370781E03BC06B3009F0BF
:101010003FC0411106C067E471E00E94540781E0BF
:1010200030C062E471E00E94540781E02AC041119F
:101030000DC06BE371E00E945407D801ED91FC9163
:101040001197828954968C9381E01BC064E371E010
:101050000E945407D801ED91FC9111978389549611
:101060008C9381E00EC00E94410761E8C8010E9494
:10107000B4076C2FC8010E94AA07C8010E94370755
:1010800081E0DF91CF911F910F91FF90EF90089534
:1010900080E0F7CF0F931F93CF938C01C62F0E9450
:1010A000BE07811115C0C93061F0CA3091F4C80182
:1010B0000E94F60664E671E0C8010E94540781E0D0
:1010C00008C06CE471E0C8010E942F0781E001C0F4
:1010D00081E0CF911F910F910895DC011896ED9159
:1010E000FC9130E020E040E069E109950895DC01E1
:1010F0001896ED91FC9130E020E040E068E1099520
:1011000008959A01DC011896ED91FC91462F67E154
:1011100009950895CF93DF931F92CDB7DEB769830A
:10112000AE014F5F5F4F61E00E9481080F90DF9139
:10113000CF910895EF92FF921F93CF93DF93EC012D
:10114000162F7A010E94770860E4CE010E948A0877
:10115000E885F9859701412F67E1CE010995CE0118
:101160000E946D08DF91CF911F91FF90EF9008953D
:10117000EF92FF920F931F93CF937C01C42F8901AD
:10118000663191F178F0683109F461C090F169310C
:1011900009F065C08091B40381115DC01092B40361
:1011A00081E018C0643109F43FC0653109F057C0CF
:1011B0008091B403811114C0C7010E94770860E0D8
:1011C000C7010E948A086C2FC7010E948A0881E02B
:1011D0008093B403CF911F910F91FF90EF900895EA
:1011E000C7010E946D08E8CF642F0E948A0881E041
:1011F000F1CF8091B403882361F0C7010E946D088C
:1012000008C0A80168E1C7010E949A08C851085E99
:101210001F4FC931B0F7A8016C2FC7010E949A086F
:101220001092B40381E0D6CFDC0156968C9156978C
:101230008F3F49F0D7011896ED91FC9198014C2F02
:10124000C7010995C7CF88E756968C93F3CF1092C4
:10125000B40381E0BFCFC7010E946D089FCF80E03B
:10126000B9CF662329F06A3031F0862F90E00895D7
:101270008FEF9FEF08958FEF9FEF0895FC01108E81
:101280000895CF93DF93FC01A081B18182AD982FA7
:10129000990F990F990F95AF50969C915097903256
:1012A00008F09FE1990F990F990F94AF23AD922FFA
:1012B000990F990F990F96AF622F680F7727771FB5
:1012C00051963C9151973617170614F4832F821BC1
:1012D000880F880F880F97AFEF01C05CDF4F890F31
:1012E000888380EF2196888354968D919C915597A1
:1012F000813F910508F4888356968C91EE5BFF4FF1
:101300008083DF91CF9108950E9441090895FC01E7
:10131000E95BFF4F10823296108231972FEF2083C6
:1013200032962083DC01D696ED91FC910280F38108
:10133000E02D099508950F931F93CF93DF93DC0160
:10134000342F377081E090E0032E02C0880F991F80
:101350000A94E2F7182FFD01E758FF4F50815230F1
:1013600018F170E0513011F150E0487FED91FC919F
:1013700011978089849FF001859FF00D1124D896E4
:101380008D919C91D997E60FF11DE80FF91F01117E
:1013900015C08081872B812781932150D1F7DF9160
:1013A000CF911F910F910895782FDCCF10E0DCCF03
:1013B00071E019C0770F110F222389F39081972BC9
:1013C000912790833F5F377021503111F3CFDC9626
:1013D0008C91DC97E80FF11DCD0187589F4FEC01F0
:1013E0008881823028F3813039F311E0E5CF461748
:1013F00030F4821760F0241760F481E008958217BA
:1014000050F4241710F080E0089581E0089581E001
:10141000089580E0089580E00895FF920F931F9350
:10142000CF93DF93EC01162FF22E202FDC01AA5B65
:10143000BF4FFC01EB5BFF4F6C9180810E94F7096D
:10144000882359F0FE01EC5BFF4FCD5BDF4F2F2D62
:10145000412F608188810E94F709DF91CF911F9110
:101460000F91FF9008950F93CF93DF93EC019C01B0
:10147000265B3F4F885B9F4FDE01A75BBF4FBE01DE
:10148000695B7F4FF9010081FC0120814C91FB01D8
:101490006081CE010E940D0A882369F181E0FE017E
:1014A000ED58FF4F8083F097908134968081981794
:1014B00010F434978083FE01EC5BFF4F90813496EB
:1014C0008081891710F434978083FE01EB5BFF4F16
:1014D000908134968081981710F434978083FE01B0
:1014E000EA5BFF4F908134968081891738F4CA5B9C
:1014F000DF4F888303C0CD58DF4F1882DF91CF9133
:101500000F910895FC01ED5BFF4F1082329720810F
:1015100033962083FC0127ADEB5BFF4F208335978B
:101520002081369620830E94330A08950F93DC01B0
:10153000DE963C91DE97431BD496ED91FC91099584
:101540000F9108950F930E94960A0F910895FC0140
:101550003081DB019C91930F931720F4321790F4A4
:101560009FEF920F321780F4491780F4341708F078
:10157000432F291708F0292F4083241BFB012083C8
:1015800081E00895342FEECF80E0089580E0089543
:10159000EF92FF920F931F93CF93DF9300D01F9290
:1015A000CDB7DEB769834A832B83FC01ED58FF4F2B
:1015B00020812223C9F02B812223B1F0223020F098
:1015C0000230E1F0033001F17C01102F117000FDB9
:1015D0003CC0FC01EB5BFF4F90818A81891720F0B2
:1015E000319690818917B0F00F900F900F90DF9196
:1015F000CF911F910F91FF90EF900895362F321BDE
:10160000232F2F5F2983E0CF3A81321B232F2F5FB7
:101610002A83DACF3297208131974081BE016D5FF6
:101620007F4FCE0101960E94A70A8823E9F2D701D5
:10163000D696ED91FC910480F581E02D012F2B8150
:101640004A816981C7010995CFCFFC01ED5BFF4F4E
:1016500090818981891740F231969081891720F60F
:101660003296208131974081BE016D5F7F4FCE0160
:1016700002960E94A70A8111DACFB6CF0F93FC0120
:10168000EB5BFF4F2081421760F0319620814217BB
:1016900040F433972081621720F031962081621741
:1016A00010F00F91089500E021E00E94C80AF9CFE0
:1016B000AF92BF92CF92DF92EF92FF920F931F9360
:1016C000CF93DF936C01142FD22F261720F5F62E1F
:1016D000F21A011718F5B12EB01AFB1410F18B2D68
:1016E000BF2CF82E802F0D2FD82F812F162F682F6B
:1016F000E12C011730F08D2FD62F682F802F012F6E
:10170000182FCB2DC695D61778F4AA24A3941F3F83
:10171000B1F4115014C0F22EF61ADBCFB02EB11A6C
:10172000DCCFEE24E394E5CFAA24AA94F0CF402F97
:101730006D2FC6010E943E0BCF195AF00F5F101794
:1017400058F0E110F4CF4D2F602FC6010E943E0BE0
:10175000F3CFDA0DCB0DF2CFDF91CF911F910F9127
:10176000FF90EF90DF90CF90BF90AF9008950F93D0
:1017700001E00E94C80A0F9108950F9300E00E94B3
:10178000C80A0F910895855A9F4FFC016083089500
:10179000835B9F4F2EEF3BE0FC0131832083089554
:1017A0000F931F93CF93DF93EC01FC01E55BFF4F99
:1017B000118210823DAB2CAB79AF68AF4AAF1BAE44
:1017C0003D961082B0961082319681E080833196EA
:1017D00080831FAB0EABD801ED91FC91CE01099532
:1017E000CE010E948709CE010E94C80BC55ADF4F67
:1017F0001882DF91CF911F910F91089580E0089595
:10180000FC01E55BFF4F20813181232B69F17E963E
:1018100020813C9620833B9740813C9640833297C1
:101820003081332309F1313001F1022E000C330BEA
:10183000FC01EA59FF4FE081DC01A859BF4F5C91E0
:10184000652F052E000C770B6E0F711DE7FD7A9545
:10185000261737071CF4E50F1D96EC93541724F454
:101860008A589F4FFC015083089539973081231780
:1018700014F43A963083FC01E459FF4F2081241779
:101880009CF78A589F4FFC0120830895213039F03E
:1018900020F0223031F0840F0895860F0895841BC4
:1018A0000895861B0895213039F020F0223031F060
:1018B000861B0895840F0895860F0895841B08954C
:1018C0008F929F92AF92BF92CF92DF92EF92FF9250
:1018D0000F931F93CF93DF937C01D62E942EFC01A0
:1018E000E15BFF4FC480158113C08D2C19C0F70137
:1018F000E15BFF4F9285BA969083282D482F6B2D80
:10190000C7010E94C80ADC1680F1DC1A1F5FC12CD7
:10191000F701E15BFF4FC681CC19DC1630F38C2E4A
:10192000F701E15BFF4FD3810485A12E202F412FCA
:101930006C2D82810E94460CB82E202F412F6C2DD9
:101940008D2F0E94530C9110D2CFF701E15BFF4F16
:1019500091859111D8CF9385BA969083282D482FE1
:101960006B2DC7010E94C80ACECF6D2D6C0DF701FB
:10197000E15BFF4F6483A582DF91CF911F910F91AF
:10198000FF90EF90DF90CF90BF90AF909F908F909F
:101990000895DC0118964C911897ED91FC911197E0
:1019A000249130E0042E02C0359527950A94E2F781
:1019B000822F942F960F983080F088E0841B319608
:1019C0001196FC93EE93E491F0E002C0EE0FFF1F3E
:1019D0008A95E2F78E2F822B98502FEF3FEF02C0AF
:1019E000220F331F6A95E2F7209518969C93822365
:1019F00008950F931F93CF93DF93EC018C01015B4C
:101A00001F4FF80171836083108671966081C80151
:101A10000E94C90CF801868372966081C8010E94F9
:101A2000C90CF8018783BA968081F801828791E01A
:101A3000811190E0C15BDF4F9B87DF91CF911F91B8
:101A40000F910895CF93C62F0E94C90CC15021E079
:101A500030E002C0220F331FCA95E2F7821BCF91FC
:101A600008957F928F929F92AF92BF92CF92DF9212
:101A7000EF92FF920F931F93CF93DF93EC017C01C2
:101A80008FE4E80EF11CCE010E94F90CFE01EA5A27
:101A9000FF4FC0803C966081C7010E94220D782EC6
:101AA000FE01ED59FF4F6081C7010E94220D182FE2
:101AB000FE01EC59FF4F6081C7010E94220DD82E14
:101AC000F701968019140CF05BC004851C0D11956C
:101AD000202F412F672D82810E94460C882EF7010E
:101AE0008283202F412F672D83810E94530CF701A1
:101AF0008383013009F453C048F0023009F459C01F
:101B0000033009F464C0082F282D04C0282D290DA6
:101B10000C2D080F482F682DCE010E940D0A882336
:101B200079F1FE01E15BFF4F14821582FE01E25A5A
:101B3000FF4F6081C7010E94C90C082FFE01E15AC6
:101B4000FF4F6081C7010E94C90C182F40E0602F31
:101B5000CE010E94600C41E0612FCE010E94600C1A
:101B600061E0C7010E94C90C8111F0CFFE01E15B69
:101B7000FF4F85818C15D4F28285C758DF4F88834B
:101B80008D2DDF91CF911F910F91FF90EF90DF90FE
:101B9000CF90BF90AF909F908F907F900895982D99
:101BA0009C1921E0280D082F090D88248394890EA3
:101BB000B1CF982D991921E0280D382F3C1901E05B
:101BC000080F81E0830F88248394890EA3CF2C2DE6
:101BD000280D982F991901E0080F81E0890F9ACFFD
:101BE000FC01E60FF11D849190E03196982F882733
:101BF000E4918E0F911D0895EF92FF920F931F9322
:101C0000CF93DF93FC01E55BFF4FC081D1816796E5
:101C10006F3F710509F040F561367105C0F08159DB
:101C20009F4FFC0180819181C80FD91FCE01019681
:101C3000FC012491222309F446C0FE0124912617B9
:101C4000170681F0FC018491C80FD11DEFCF6134DC
:101C5000710560F383599F4FFC0180819181C80F0A
:101C6000D91FE4CF019631C08B01FC01EF58FF4F23
:101C700080819181C80FD91F7E0160E0C7010E9459
:101C8000F00DC80FD91F62E0C7010E94F00DF4E00B
:101C9000EF0EF11C8017910780F3FE01849190E014
:101CA000982F88273196E4918E2B0097A9F008177A
:101CB000190731F0FE013296E491CE0FD11DEDCF20
:101CC000CE01039602C090E080E0DF91CF911F919A
:101CD0000F91FF90EF90089590E080E0F6CFCF93C2
:101CE000DF93EC01FC01EF5AFF4F60833196408394
:101CF000B9010E94FC0D009739F0BC01CE010E9491
:101D0000310DDF91CF91089580E0FBCFEF92FF92EC
:101D10000F931F93CF93DF93EC01162F042F7901BC
:101D2000FC01E55AFF4F80818130E1F088F082307C
:101D300019F1833059F19701402F612FCE010E9494
:101D40006F0EDF91CF911F910F91FF90EF9008954B
:101D5000FE01E35BFF4F0190F081E02DCE0109957C
:101D6000080FE9CFFE01E35BFF4F0190F081E02D0A
:101D7000CE010995181BDFCFFE01E35BFF4F0190F9
:101D8000F081E02DCE010995081BD5CFFE01E35B64
:101D9000FF4F0190F081E02DCE010995180FCBCFB8
:101DA000860F911DFC01849108950F931F93CF938B
:101DB000DF93EC018B0160E0C8010E94D00E8883A4
:101DC00061E0C8010E94D00E898362E0C8010E94D0
:101DD000D00E8A8363E0C8010E94D00E8B8364E03A
:101DE000C8010E94D00E8C8365E0C8010E94D00E0D
:101DF0008D8366E0C8010E94D00E8E8367E0C80123
:101E00000E94D00E8F8368E0C8010E94D00E8887A0
:101E100069E0C8010E94D00E89876AE0C8010E946B
:101E2000D00E8A876BE0C8010E94D00E8B876CE0D1
:101E3000C8010E94D00E8C876DE0C8010E94D00EB0
:101E40008D876EE0C8010E94D00E8E876FE0C801BA
:101E50000E94D00E8F8760E1C8010E94D00E888B4F
:101E600061E1C8010E94F00D9A8B898B63E1C80182
:101E70000E94F00D9C8B8B8B65E1C8010E94F00DD8
:101E80009E8B8D8BDF91CF911F910F910895CF93F2
:101E9000DF93FC01E55BFF4F208131812617370777
:101EA00051F0EC0171836083845A9F4F0E94D50EDC
:101EB000CE010E94000CDF91CF910895CF92DF9266
:101EC000EF92FF920F931F93CF93DF931F92CDB7A3
:101ED000DEB77C016B0189019A0148EB58E06AE4A6
:101EE00078E00E94AE06CE0101960E94420686016D
:101EF0002BE939E04981BC01C7010E94D00B0F904A
:101F0000DF91CF911F910F91FF90EF90DF90CF90D5
:101F10000895CF92DF92EF920F931F93CF93DF93A9
:101F20006C01162FD42FC22FE0FC0EC0E1FC1AC0AA
:101F3000E3FC27C0E2FC34C0DF91CF911F910F91E9
:101F4000EF90DF90CF900895402F4D1B622F610FCF
:101F50000E943E0B402F411B6D2F6C0FC6010E944B
:101F60003E0BE4CF402F4D1B6C2F611BC6010E941E
:101F70003E0B402F411B6C2F6D1BC6010E943E0B78
:101F8000D7CF402F4D0F6C2F610FC6010E943E0B23
:101F9000402F410F6D2F6C0FC6010E943E0BCACF20
:101FA000402F4D0F6C2F611BC6010E943E0B402F2E
:101FB000410F6C2F6D1BC6010E943E0BBDCF8F924F
:101FC0009F92AF92BF92CF92DF92EF92FF920F93C8
:101FD0001F93CF93DF935C01C62E942E122F802E79
:101FE000C1E0C21B822F8195D82EDD0CE02E042F7C
:101FF000262F412F60E0C5010E94890FD0E0FF2409
:10200000F3940CC0DF5FF394F394CF0DE82C092D0B
:102010002C2D412F6D2FC5010E94890FD11738F447
:10202000CC2384F31150D394D394CD0DEBCFDF9117
:10203000CF911F910F91FF90EF90DF90CF90BF90C5
:10204000AF909F908F900895DF92EF92FF920F9341
:102050001F93CF93DF937C01D62F142FC22FD02E46
:10206000042F020F260F0F5F2F5F4C1B6C1B0E946B
:102070000D0A811108C0DF91CF911F910F91FF9040
:10208000EF90DF9008950D2D2C2F412F6D2FC7015C
:102090000E94DF0FF0CFCF93DF93EC016BAFEEA97F
:1020A000FFA90190F081E02D0995EEA9FFA902801A
:1020B000F381E02DCE010995DF91CF9108950F9323
:1020C0001F93DC01ED91FC9111972089D896ED9139
:1020D000FC91629F80011124000F111F000F111F3E
:1020E000000F111F0E0F1F1F60E00E94D4061F91EA
:1020F0000F910895EF92FF920F931F93CF93DF9369
:102100008C01DC01DA96FC90DA97DB96DC91DB97A8
:10211000ED91FC91E188C0E04D2F6C2FC8010E9429
:102120005F10CF5FDF5FCF1510F4DE15A8F3DF91EE
:10213000CF911F910F91FF90EF9008958F929F92F2
:10214000AF92BF92CF92DF92EF92FF920F931F93C5
:10215000CF93DF936C01162FF42EB22EA02ED42F26
:10216000D00FC62FC20F0D2F2C2F0E940D0A8111E8
:102170000DC0DF91CF911F910F91FF90EF90DF90F5
:10218000CF90BF90AF909F908F900895812E8E0C2E
:102190009F2C9E0CCE19C150DE19D15002E02E2D7D
:1021A000492D682DC6010E94241001E02E2D492DD5
:1021B0006C2FC6010E94241004E02E2D4D2F682D97
:1021C000C6010E94241008E02E2D4D2F6C2FC60151
:1021D0000E9424102B2D2E192E19CA2DCE19CE197E
:1021E00083949394233090F4C33018F2C250BA947D
:1021F0002C2F492D612FC6010E94B70B612F6B0D4B
:102200002C2F492DC6010E94B70BB3CFDEEFD20FA2
:10221000AA942D2F4F2D682DC6010E94BD0B4F2D66
:102220004A0D2D2F682DC6010E94BD0BDDCFFC018C
:1022300061A742A723A708950F931F93CF93DF931E
:102240008C01E8EDE60FE63208F06DC0F0E0E55DE8
:10225000FE4E0C94502151116611AD11AD11931128
:102260006E11931193119311931193119311931173
:10227000931193119311931193119311931193113E
:10228000931193119311931193119311931193112E
:102290009311931193119311931193119311791138
:1022A0007911C0E004C062E00E940003CF5FC63134
:1022B00008F059C0F801EC0FF11D868D8F3FB1F386
:1022C000C03188F761E00E940003F0CF642F70E016
:1022D00090E080E00E94B90381E040C0433030F0DC
:1022E00082E090E00E947A0381E038C085E090E0CF
:1022F000F9CF41110EC06F73EC01C60FD11D61E023
:102300008E8D0E94000360E08E8D0E94CD0281E0E0
:1023100025C06F73060F111D62E0F801868D0E94C3
:10232000000381E01BC0603400F16F73F801E60F19
:10233000F11D868D8F3FD9F0603150F00E94A002D0
:1023400021E0892B09F420E0F801218F81E006C00B
:10235000642F0E94CD0281E001C081E0DF91CF9126
:102360001F910F91089581E0F9CF80E0F7CF81E0D0
:10237000F5CFFC017183608329E32283089585EC06
:102380008093BC00109282030895811104C085E8F7
:102390008093BC00089585EC8093BC0008959093D1
:1023A0005B0380935A03089590935F0380935E03C9
:1023B0000895AC0120915C03260F3327331F21328F
:1023C0003105F4F4809182038430E1F490E00FC091
:1023D000E0915C03292F30E0E20FF32FF11D240F71
:1023E000351FD9012C91E65CFC4F20839F5F961727
:1023F00078F380915C03680F60935C0380E008953C
:1024000081E0089582E008959B01AC0160E074E2F0
:1024100084EF90E00E942E21205131094109510999
:1024200056954795379527952093B8000895ECEB7E
:10243000F0E080818A7B808360E082E10E94CD02AF
:1024400060E083E10E94CD0208951092820381E052
:10245000809384031092830361E082E10E94CD02A5
:1024600061E083E10E94CD02E9EBF0E080818E7FA4
:10247000808380818D7F808388E48093B80085E4A9
:102480008093BC000895EF92FF920F931F93CF9318
:10249000DF9391E090933903811107C0DF91CF91D1
:1024A0001F910F91FF90EF900895C8EBD0E0F88056
:1024B0000AEB10E0F801E0800E9417120E9425123A
:1024C000F801E082F882EACF4F925F926F927F929A
:1024D0008F929F92AF92BF92EF92FF920F931F93B2
:1024E000CF93DF93413280F081E0DF91CF911F9154
:1024F0000F91FF90EF90BF90AF909F908F907F9043
:102500006F905F904F900895D22FC42F7B01182FAA
:102510000E9485034B015C0190918203992329F16C
:102520008091350390913603A0913703B091380321
:10253000892B8A2B8B2B81F30E94850368197909DB
:102540008A099B0940903503509036036090370309
:10255000709038034616570668067906E8F68091AB
:1025600034030E94431285E0C0CF82E0809382034F
:10257000009384038FEF809381031092A603C0938E
:10258000A5030AC0E92FF0E0D701AE0FBF1F8C9161
:10259000EB57FC4F80839F5F9C17A0F31092A7031B
:1025A000812F90E0880F991F1091A703812B8093B2
:1025B000A703809183038130A1F185EE8093BC0055
:1025C0000E9485034B015C01DD2309F462C0809108
:1025D0008203823009F05DC080913503909136030B
:1025E000A0913703B0913803892B8A2B8B2B61F391
:1025F0000E948503681979098A099B0900913503AE
:1026000010913603209137033091380306171707CE
:1026100028073907C8F6809134030E94431285E0E9
:1026200064CF109283030E9485034B015C0104C0B8
:102630008091BC0083FF29C08091A7038093BB00D9
:102640008091350390913603A0913703B091380300
:10265000892B8A2B8B2B61F30E94850368197909DA
:102660008A099B09009135031091360320913703A5
:10267000309138030617170728073907C8F68091E5
:1026800034030E94431285E030CF85EC8093BC0078
:1026900097CF809181038F3F61F0809181038032D9
:1026A00051F080918103803311F084E01ECF83E0EC
:1026B0001CCF80E01ACF82E018CF8F929F92AF920A
:1026C000BF92DF92EF92FF920F931F93CF93DF930E
:1026D000413268F080E0DF91CF911F910F91FF9020
:1026E000EF90DF90BF90AF909F908F900895D22E83
:1026F000F42EEB01E82E0E9485034B015C019091C2
:102700008203992329F1009135031091360320911A
:10271000370330913803012B022B032B81F30E94E6
:102720008503681979098A099B090091350310917D
:10273000360320913703309138030617170728070F
:102740003907E8F6809134030E94431280E0C3CF3A
:1027500081E080938203D09284039FEF9093810362
:102760001092A6039F0D9093A5038093A7038E2D2F
:1027700090E0880F991F9091A703892B8093A7035E
:1027800080918303813089F185EE8093BC000E94A3
:1027900085034B015C0190918203913009F05DC08B
:1027A000009135031091360320913703309138039F
:1027B000012B022B032B79F30E94850368197909F9
:1027C0008A099B0900913503109136032091370344
:1027D000309138030617170728073907E0F680916C
:1027E00034030E94431280E076CF109283030E944C
:1027F00085034B015C0104C08091BC0083FF29C0AC
:102800008091A7038093BB0080913503909136039C
:10281000A0913703B0913803892B8A2B8B2B61F35E
:102820000E948503681979098A099B09009135037B
:10283000109136032091370330913803061717079C
:1028400028073907C8F6809134030E94431280E0BC
:1028500042CF85EC8093BC009ACF8091A6038F1560
:1028600020F48091A60390E00DC08F2DFCCF292F7E
:1028700030E0FE01E20FF31F2B573C4FD9012C91A2
:1028800020839F5F981798F326CF089508950895A1
:10289000E091310380913003E81730F4F0E0E05F1D
:1028A000FC4F808190E008958FEF9FEF0895909105
:1028B000310380913003981758F4E92FF0E0E05F7E
:1028C000FC4F208130E09F5F90933103C901089550
:1028D0002FEF3FEFFBCF8091300390913103891BA5
:1028E000990B0895CF92DF92EF92FF920F931F936F
:1028F000CF93DF938C016B017A0180910F038823C2
:1029000099F0D0E0C0E0CE15DF0590F4D801ED914C
:10291000FC910190F081E02DD601AC0FBD1F6C91B0
:10292000C80109952196EFCF642FC6010E94D911E5
:10293000C701DF91CF911F910F91FF90EF90DF9032
:10294000CF900895CF93DF931F92CDB7DEB7FC01F0
:10295000698390910F039923F1F0909132039032A3
:1029600050F081E090E09383828390E080E00F90CC
:10297000DF91CF91089580913303E82FF0E0E1518A
:10298000FD4F998190838F5F80933303809332034F
:1029900081E090E0ECCF61E0CE0101960E94D91178
:1029A00081E090E0E4CF0F9340913203062F21E0C5
:1029B0006FEE72E08091EE020E9464121092330377
:1029C0001092320310920F030F91089561E00E945C
:1029D000D314089581E080930F036093EE02109268
:1029E0003303109232030895CF92DF92EF92FF9259
:1029F0000F931F93CF93DF938C01C62F6A01790148
:102A0000DC0112966C9112978D919C910E94EA14B0
:102A1000F80180819181DC01ED91FC910190F081C0
:102A2000E02D6C2F0995D0E0C0E0CE15DF0580F4D5
:102A3000F80180819181DC01ED91FC910190F081A0
:102A4000E02DD601AC0FBD1F6C9109952196EDCFFD
:102A5000F801808191810E94E614DF91CF911F914E
:102A60000F91FF90EF90DF90CF900895CF93DF9379
:102A70001F92CDB7DEB7498321E030E0AE014F5F52
:102A80005F4F0E94F4140F90DF91CF910895CF9380
:102A9000DF93EC0140E060E00E94361540E061E029
:102AA000CE010E94361540E062E0CE010E9436154C
:102AB00040E463E0CE010E94361542E064E0CE01BE
:102AC0000E94361540E065E0CE010E94361540E1D7
:102AD00066E0CE010E94361543E067E0CE010E9419
:102AE000361540E568E0CE010E94361540E169E008
:102AF000CE010E94361543E06AE0CE010E943615F1
:102B000040E06BE0CE010E94361540E06CE0CE0163
:102B10000E94361540E06DE0CE010E94361544E279
:102B20006EE0CE010E94361540E06FE0CE010E94BB
:102B3000361540E060E1CE010E94361540E561E1C6
:102B4000CE010E94361540E062E1CE010E943615AA
:102B500046E063E1CE010E943615DF91CF910895E2
:102B6000CF93DF93EC0140E360E00E94361541E033
:102B700061E0CE010E94361540E062E0CE010E9485
:102B8000361540E063E0CE010E94361540E064E077
:102B9000CE010E94361542E465E0CE010E94361552
:102BA00040E066E0CE010E94361540E067E0CE01CD
:102BB0000E94361540E568E0CE010E94361540E0DF
:102BC00069E0CE010E94361540E06AE0CE010E9425
:102BD000361540E06BE0CE010E94361540E26CE015
:102BE000CE010E94361544E06DE0CE010E943615FC
:102BF00040E06EE0CE010E94361540E36FE0CE016A
:102C00000E94361541E060E1CE010E94361540E594
:102C100061E1CE010E94361540E062E1CE010E94E2
:102C2000361546E063E1CE010E943615DF91CF9163
:102C300008950E94EA1408958F929F92AF92BF92D6
:102C4000CF92DF92EF92FF920F931F93CF93DF9378
:102C5000EC01D62EF42E48015901E1101EC030E2DD
:102C60003F1518F46894FF24F5F82C2D4F2D60E1E2
:102C700073E08D2D0E945D13109231038093300319
:102C8000DF91CF911F910F91FF90EF90DF90CF9048
:102C9000BF90AF909F908F9008950E94EA1423E018
:102CA0002E1520F40F2EF3E0EF2EF02D1FEF1E0D4A
:102CB000EE20D9F0E881F9810190F081E02D812F9B
:102CC00090E0880F991F880F991F880F991FA50101
:102CD000940104C056954795379527958A95D2F764
:102CE000B901CE010995E12EE1CF60E0CE010E944D
:102CF000D314B5CFCF92EF920F931F93C22EE12C36
:102D000000E010E098010E941C161F910F91EF90B7
:102D1000CF90089521E00E947A160895BF92CF9235
:102D2000DF92EF92FF920F931F93CF93DF938C016B
:102D3000C62F6A017901DC0112966C9112978D9170
:102D40009C910E94EA14F80180819181DC01ED914F
:102D5000FC910190F081E02D6C2F0995F8018081A4
:102D600091810E94E614882361F0B12C8B2DDF91B4
:102D7000CF911F910F91FF90EF90DF90CF90BF9078
:102D800008956AE070E080E090E00E94B903BE2CF4
:102D90004E2DD80112966C9112978D919C910E94A4
:102DA0008A16D0E0C0E0CE15DF0500F7F80180817B
:102DB0009181DC01ED91FC910284F385E02D099570
:102DC000F601EC0FFD1F80832196EDCFFF920F934C
:102DD0001F93CF93DF931F92CDB7DEB78C01F62EF2
:102DE000198221E030E0AE014F5F5F4F69EA0E9437
:102DF0008E1681E0F816A9F0F11003C089818F7E4C
:102E0000898321E030E0AE014F5F5F4F69EAC8017E
:102E10000E94F4140F90DF91CF911F910F91FF90BA
:102E20000895898180618983E7CFEF92FF921F9394
:102E3000CF93DF931F92CDB7DEB77C01198261116A
:102E400001C061E01FEF160F143108F013E161E0DB
:102E5000C7010E94E6161068198321E030E0AE0138
:102E60004F5F5F4F64E7C7010E94F41464E670E0AF
:102E700080E090E00E94B90360E0C7010E94E6167E
:102E80000F90DF91CF911F91FF90EF900895FF92E7
:102E90000F931F93CF93DF9300D0CDB7DEB78C0194
:102EA000F62E19821A8261E00E94E61621E030E0D7
:102EB000AE014F5F5F4F60E7C8010E948E1621E0B0
:102EC00030E0AE014E5F5F4F64E7C8010E948E168E
:102ED000F11024C08981877F89838A818F778A83D3
:102EE00021E030E0AE014F5F5F4F60E7C8010E9414
:102EF000F41421E030E0AE014E5F5F4F64E7C8019B
:102F00000E94F41460E0C8010E94E6160F900F9032
:102F1000DF91CF911F910F91FF9008958981886073
:102F200089838A8180688A83DBCFFF920F931F9306
:102F3000CF93DF931F92CDB7DEB78C01F62E21E041
:102F400030E0AE014F5F5F4F6EEB0E948E16F110C6
:102F500003C089818460898381E0F81681F021E0D3
:102F600030E0AE014F5F5F4F6EEBC8010E94F4147A
:102F70000F90DF91CF911F910F91FF90089589815C
:102F80008B7F8983ECCFEF92FF920F931F93CF93A8
:102F9000DF9300D0CDB7DEB77C01162F660F6B56DE
:102FA00021E030E0AE014F5F5F4F0E948E166BE470
:102FB000610F660F21E030E0AE014E5F5F4FC70149
:102FC0000E948E160A818981102F082F62E370E01B
:102FD00080E090E00E94B903C8010F900F90DF914C
:102FE000CF911F910F91FF90EF9008950F931F9332
:102FF000CF93DF93EC018B0160E0C8010E94C317FF
:103000009983888361E0C8010E94C3179B838A83E8
:1030100062E0C8010E94C3179D838C8363E0C801EE
:103020000E94C3179F838E8364E0C8010E94C31768
:103030009987888765E0C8010E94C3179B878A87A4
:10304000CE01DF91CF911F910F9108950F931F93A0
:10305000CF93DF93EC018B0160E0C8010E94C3179E
:103060009983888361E0C8010E94C3179B838A8388
:1030700062E0C8010E94C3179D838C8363E0C8018E
:103080000E94C3179F838E8364E0C8010E94C31708
:103090009987888765E0C8010E94C3179B878A8744
:1030A000CE01DF91CF911F910F910895CF93DF93C0
:1030B0001F92CDB7DEB721E030E0AE014F5F5F4F2A
:1030C00063EA0E948E16898186FD05C080E00F901C
:1030D000DF91CF91089581E0FACFEF92FF920F93A5
:1030E0001F93CF93DF931F92CDB7DEB78C017B0187
:1030F00061E00E94E61621E030E0AE014F5F5F4FD5
:1031000060E7C8010E948E1681E0E816F104F1F034
:10311000C8F083E0E816F104F1F021E030E0AE0100
:103120004F5F5F4F60E7C8010E94F41460E0C80180
:103130000E94E6160F90DF91CF911F910F91FF90A3
:10314000EF90089589818C7F8983E7CF89818C7F77
:1031500081608983E2CF898183608983DECFFF929A
:103160000F931F93CF93DF931F92CDB7DEB78C01E0
:10317000F62E21E030E0AE014F5F5F4F60E80E9425
:103180008E16F11013C089818F7E898321E030E093
:10319000AE014F5F5F4F60E8C8010E94F4140F90CA
:1031A000DF91CF911F910F91FF90089589818061E8
:1031B0008983ECCFFF920F931F93CF93DF931F92DE
:1031C000CDB7DEB78C01F62E21E030E0AE014F5FC7
:1031D0005F4F60E80E948E16F11013C089818D7FC9
:1031E000898321E030E0AE014F5F5F4F60E8C801A6
:1031F0000E94F4140F90DF91CF911F910F91FF90D7
:103200000895898182608983ECCFEF92FF920F93BA
:103210001F93CF93DF931F92CDB7DEB78C017B0155
:10322000198221E030E0AE014F5F5F4F69EA0E94F2
:103230008E1689818F7E898321E030E0AE014F5F59
:103240005F4F69EAC8010E94F41460E0C8010E945F
:10325000DA1840E16FEAC8010E943615E114F10462
:1032600021F1EA94EF2829F161E0C8010E94AF182A
:10327000F8018481958181309105F9F0892B39F12C
:1032800061E0C8010E94DA18F80184819581892BD8
:1032900021F5C8010E94561881111FC061E070E03D
:1032A00080E090E00E94B903F4CFC8010E94B015FD
:1032B000DBCFC8010E944715D7CF60E0C8010E944C
:1032C000951761E070E0C8010E946D18D9CF70E0D9
:1032D00060E0C8010E946D18D3CF0F90DF91CF91AD
:1032E0001F910F91FF90EF900895FF920F931F93FE
:1032F000CF93DF931F92CDB7DEB78C01F62E21E07E
:1033000030E0AE014F5F5F4F60E80E948E16F11013
:1033100013C089818E7F898321E030E0AE014F5F49
:103320005F4F60E8C8010E94F4140F90DF91CF91C5
:103330001F910F91FF900895898181608983ECCF5F
:10334000CB01BA010E940412089510923103109229
:10335000300310923303109232030E94251285E449
:1033600094E10E94CF1186E494E10E94D411089563
:10337000CF93DF93EC01683199F160F46431A1F0EF
:10338000673171F450E0B90188EA93E00E94721449
:1033900081E007C06931B1F1603211F481E001C010
:1033A00080E0DF91CF9108958C859D85AE85BF85A6
:1033B000892B8A2B8B2B71F4E881F981A585B0E0EC
:1033C00020EA36E841E050E00E9456216C877D8774
:1033D0008E879F8788EA93E00E94A51981E0E1CF5C
:1033E0004C855D856E857F8588EA93E00E94A019F3
:1033F0006E8970E07595679588EA93E00E941916CA
:1034000081E0CFCF88EA93E00E94E61481E0C9CF43
:103410000F931F93CF93DF93EC018B0188819981E8
:103420000E94A5196A81888199810E94EA14888185
:1034300099810E94E61481110DC061E0CE010E94C5
:1034400075191D830C8390E080E0DF91CF911F916F
:103450000F9108958FEF9FEFF8CFFC011382128236
:1034600088EE93E0A0E0B0E084839583A683B783E1
:1034700086E291E0918380830895019709F0089591
:103480006F3F7F4FE1F788EA93E00E942D1AF7CF54
:10349000CF93DF93019719F0DF91CF9108956F3F9C
:1034A0007F4FD1F7CBE6D2E01B821A8284E191E014
:1034B0009983888381E399E09093EB028093EA02F9
:1034C0001092EC021092ED028FE692E00E943E090B
:1034D00088E091E0998388832CE131E148EB59E160
:1034E0006CE171E08FE692E00E945E0F2FEF4FEFEC
:1034F0006FEF8FE692E00E94171121E041E062E059
:1035000070E081E392E00E94F50568EA73E08BE2E7
:1035100092E00E94B911C0CFCF93DF93CDB7DEB751
:103520002C970FB6F894DEBF0FBECDBF64E68BE2DA
:1035300092E00E94151761E08BE292E00E9447172B
:103540006CE271E080E090E00E94B90370E060E01E
:103550008BE292E00E9405196BE272E0CE010196C7
:103560000E9426188CE0FE013196ADE1B2E0019098
:103570000D928A95E1F761E070E08BE292E00E94A3
:1035800005196BE272E0CE0101960E94F6178CE0FD
:10359000FE013196A1E1B2E001900D928A95E1F72A
:1035A0006CE271E080E090E00E94B90360E08BE2A1
:1035B00092E00E9447172C960FB6F894DEBF0FBE1C
:1035C000CDBFDF91CF91089541E050E061EE7DE104
:1035D00080E00E940C0430E020E050E040E06AE02F
:1035E00070E080E192E00E94340480E00E94F103E8
:1035F00081E392E00E94CF056AE070E080E090E015
:103600000E94B9030895CF92DF92EF92FF920F9339
:103610001F93CF93DF937C01DB01EA0110E000E010
:10362000209799F0F70180819181FC0120813181FF
:103630006D01FFEFCF1ADF0A6C91C701F9010995FF
:10364000080F191F2197D601EBCFC801DF91CF9149
:103650001F910F91FF90EF90DF90CF900895CF933F
:10366000DF93EC01FC01E158FF4F0190F081E02D68
:10367000049609958E3F2FEF920728F081E090E0A5
:10368000DF91CF910895FE01EE57FF4F40813197B2
:1036900060819C01CE0104960E94860EFE01E15AD3
:1036A000FF4F9081913089F050F09230A1F093302B
:1036B00029F7CE57DF4F9881981B9883DFCFCF57DC
:1036C000DF4F9881890F8883D9CFCE57DF4F9881FC
:1036D000890F8883D3CFCF57DF4F9881981B98836A
:1036E000CDCF089590E080E00895DF92EF92FF92B1
:1036F0000F931F93CF93DF93CDB7DEB7A1970FB68C
:10370000F894DEBF0FBECDBF7C01CB01BA01D22E33
:1037100019A221E02D1520F48E010F5D1F4F0EC060
:103720000F2EFAE0DF2EF02DF7CFE95CD801EE93F3
:103730008D01611571058105910579F02D2D30E020
:1037400050E040E00E942E21E62F622F732F842F3D
:10375000952FEA3054F7E05DE9CF1097F9F0FD01BD
:1037600001900020E9F73197AF014A1B5B0BD701AD
:10377000ED91FC910280F381E02DB801C70109951C
:10378000A1960FB6F894DEBF0FBECDBFDF91CF91EB
:103790001F910F91FF90EF90DF90089590E080E0EF
:1037A000EFCF2115310549F4DC01ED91FC91019039
:1037B000F081E02D642F099508950E94751B0895EE
:1037C0009A01AB0170E060E00E94D11B0895611581
:1037D000710581F0FB0101900020E9F73197AF01FD
:1037E000461B570BDC01ED91FC910280F381E02D2B
:1037F0000995089590E080E00895FC01A081B181D1
:1038000050964C9182AD489FA0011124440F551F42
:10381000440F551F440F551F70E060E080AD91AD1F
:103820000E94702108951F93CF93DF93EC010E94B3
:103830007A108BAD1AAD180FE881F98181891817BC
:1038400078F4FE01E658FF4F808181110EC0612F90
:10385000CE010E944B1081E0DF91CF911F9108951E
:10386000CE010E94860680E0F7CFCE010E94FD1BAC
:10387000EECFCF93DF93EC01FC01E658FF4F808140
:10388000811107C060E0CE010E944B10DF91CF9103
:103890000895CE010E94FD1BF5CFCF93DF93EC017D
:1038A0000E94391CCE010E94131C8111FBCF60E0E5
:1038B000CE010E944B10DF91CF91089568E670E031
:1038C0008FE692E00E94470F60E08FE692E00E9450
:1038D000C30B8FE692E00E94391C1092EC028CE040
:1038E0008093ED0269E971E08BE692E00E94E71BAC
:1038F0008FE692E00E94131C8111EFCF08957F9212
:103900008F929F92AF92BF92CF92DF92EF92FF92EF
:103910000F931F93CF93DF9368E670E08FE692E0FA
:103920000E94470F60E08FE692E00E94C30B8FE693
:1039300092E00E94391CE12C00E420E840E060E0C5
:103940008FE692E00E949E1020E440E060E48FE663
:1039500092E00E94580B0CEE12E06894FF24F1F8FC
:10396000F801F082CDEED2E00F2EFCE07F2EF02D9C
:1039700078826FEA71E08BE692E00E94E71B0F2EDF
:10398000F6E1EF2EF02DF801E08278820F2EFDE1B6
:10399000CF2EF2E0DF2EF02DF601608171814AE03A
:1039A00050E08BE692E00E94E01BF801F0820F2EBF
:1039B000F8E18F2EF02D888263EB71E08BE692E0C8
:1039C0000E94E71BF801E0828882F6016281738120
:1039D0004AE050E08BE692E00E94E01BF801F082A2
:1039E0000F2EF4E29F2EF02D988267EB71E08BE6AC
:1039F00092E00E94E71BF801E0829882F601648160
:103A000075814AE050E08BE692E00E94E01BF801ED
:103A1000F0820F2EF0E3BF2EF02DB8826BEB71E039
:103A20008BE692E00E94E71BF801E082B882F60183
:103A3000668177814AE050E08BE692E00E94E01BCD
:103A4000F801F0820F2EFCE3CF2EF02DC8826FEB31
:103A500071E08BE692E00E94E71B8AE1F801808327
:103A6000C8820F2EF1E1EF2EF2E0FF2EF02DF701CC
:103A7000608571854AE050E08BE692E00E94E01B91
:103A80000F2EF2E4DF2EF02DF801D082788264EC64
:103A900071E08BE692E00E94E71B0F2EF6E5AF2E59
:103AA000F02DF801A0827882F701608171814AE0EF
:103AB00050E08BE692E00E94E01BF801D082888201
:103AC00068EC71E08BE692E00E94E71BF801A082AF
:103AD0008882F701628173814AE050E08BE692E0D0
:103AE0000E94E01BF801D08298826CEC71E08BE6BA
:103AF00092E00E94E71BF801A0829882F70164819E
:103B000075814AE050E08BE692E00E94E01BF801EC
:103B1000D082B88260ED71E08BE692E00E94E71BF4
:103B2000F801A082B882F701668177814AE050E00F
:103B30008BE692E00E94E01BF801D082C88264ED1F
:103B400071E08BE692E00E94E71B8AE5F801808332
:103B5000C882F701628573854AE050E08BE692E007
:103B60000E94E01B8FE692E00E94131C8111E3CEBD
:103B700068EE73E080E090E00E94B903DF91CF919E
:103B80001F910F91FF90EF90DF90CF90BF90AF907B
:103B90009F908F907F90089561E080E020912902AE
:103BA00030912A02232B09F060E060932902809370
:103BB0002A028DE00E94CD020E948C1A0E947F1C76
:103BC00008950E94CC1D089560E082E00E940003E9
:103BD00061E08DE00E9400038FE692E00E949A0669
:103BE0008FE692E00E944D1C60E08FE692E00E941A
:103BF00090066CEC7DE181E392E00E94E70570E0C5
:103C000060E08BE292E00E94081A892B39F168E6A5
:103C100070E08FE692E00E94470F60E08FE692E04E
:103C20000E94C30B8FE692E00E94391C1092EC02B6
:103C30008CE08093ED0269ED71E08BE692E00E94EA
:103C4000E71B8FE692E00E94131C8111EFCF68EE14
:103C500073E080E090E00E94B903D1CF0E945E1C27
:103C6000089585ED8093BC00409135035091360353
:103C70006091370370913803495F5F4F6F4F7F4FFB
:103C8000689412F876956795579547951694D1F7ED
:103C90008091BC0084FF1FC0809135039091360352
:103CA000A0913703B0913803892B8A2B8B2B81F39A
:103CB000411551056105710549F085E38A95F1F7D4
:103CC00000004150510961097109E2CF809134032C
:103CD0000E94431208951092820308956FEF7FEFC0
:103CE00081E090E00E943D1A6FEF7FEF81E090E06D
:103CF0000E94481A08951F920F920FB60F92112436
:103D00000F931F932F933F934F935F936F937F93E3
:103D10008F939F93AF93BF93009136041091370414
:103D2000209138043091390490913504B901A801EB
:103D30004F5F5F4F6F4F7F4F83E0890F8D3740F0AC
:103D400086E8890FB901A8014E5F5F4F6F4F7F4F23
:103D500080933504409336045093370460933804BD
:103D60007093390480913A0490913B04A0913C04F3
:103D7000B0913D040196A11DB11D80933A0490932A
:103D80003B04A0933C04B0933D04BF91AF919F913D
:103D90008F917F916F915F914F913F912F911F91E3
:103DA0000F910F900FBE0F901F9018950E943F0328
:103DB0000E94E41D0E94E41A80E090E0892BD1F378
:103DC0000E940000F7CF1F920F920FB60F9211249E
:103DD0002F933F934F935F936F937F938F939F9313
:103DE000AF93BF93EF93FF93E0910201F091030132
:103DF0000995FF91EF91BF91AF919F918F917F9125
:103E00006F915F914F913F912F910F900FBE0F9047
:103E10001F9018951F920F920FB60F9211242F9397
:103E20003F934F935F936F937F938F939F93AF9342
:103E3000BF93EF93FF93E0910001F0910101099589
:103E4000FF91EF91BF91AF919F918F917F916F9172
:103E50005F914F913F912F910F900FBE0F901F9048
:103E600018951F920F920FB60F9211248F930FB6D1
:103E7000F894A8958091600088618093600010920A
:103E800060000FBE8F910F900FBE0F901F9018957E
:103E90001F920F920FB60F9211242F933F934F93BF
:103EA0005F936F937F938F939F93AF93BF93EF93A2
:103EB000FF93E091B900E87FE93C08F0D5C0F0E05D
:103EC000EC59F04E0C945021292134203420342018
:103ED00034203420342034202D2034203420342049
:103EE00034203420342034202D2034203420342039
:103EF0003420342034203420452034203420342011
:103F000034203420342034206B20342034203420DA
:103F100034203420342034204520342034203420F0
:103F200034203420342034207120342034203420B4
:103F3000342034203420342077203420342034209E
:103F4000342034203420342089203420342034207C
:103F50003420342034203420B32034203420342042
:103F600034203420342034207D2034203420342068
:103F7000342034203420342097203420342034203E
:103F80003420342034203420B6203420342034200F
:103F90003420342034203420B620342034203420FF
:103FA0003420342034203420B620342034203420EF
:103FB0003420342034203420B620342034203420DF
:103FC0003420342034203420BF20342034203420C6
:103FD0003420342034203420F02034203420342085
:103FE0003420342034203420BF20342034203420A6
:103FF0003420342034203420F02034203420342065
:104000003420342034203420D7203420342034206D
:104010003420342034203420F42034203420342040
:104020003420342034203420F42034203420342030
:10403000342034203420342009213420342034200A
:1040400034203420342034202321342034203420E0
:10405000342034203420342023218091A7038093FE
:10406000BB0081E00E94C511FF91EF91BF91AF911C
:104070009F918F917F916F915F914F913F912F9180
:104080000F900FBE0F901F9018959091A6038091EE
:10409000A503981768F080918403811119C081E00D
:1040A0008093830384EA8093BC0010928203DCCF68
:1040B000E091A60381E08E0F8093A603F0E0EB571A
:1040C000FC4F80818093BB0081E00E94C511CCCF62
:1040D0000E94311EC9CF80E2809381030E94311E6D
:1040E000C3CF80E3809381030E94311EBDCF88E35C
:1040F000809381030E94BF11B7CFE091A60381E0B6
:104100008E0F8093A603F0E08091BB00EB57FC4F2D
:1041100080839091A6038091A503981720F481E0F5
:104120000E94C511A1CF80E00E94C5119DCFE091F2
:10413000A60381E08E0F8093A603F0E08091BB0080
:10414000EB57FC4F808380918403811109C081E08B
:104150008093830384EA8093BC001092820384CF0F
:104160000E94311E81CF0E94311E7ECF83E080935A
:1041700082031092800381E00E94C51175CF809167
:104180008003803280F4E091800381E08E0F809381
:104190008003F0E08091BB00E05AFC4F808381E017
:1041A0000E94C51161CF80E00E94C5115DCF0E94C1
:1041B000BF1180918003803230F4E0918003F0E001
:1041C000E05AFC4F10826091800370E0E0915E0342
:1041D000F0915F0380E693E009951092800344CF4D
:1041E00080E00E94C51140CF84E08093820310924A
:1041F0005D0310925C03E0915A03F0915B03099513
:1042000080915C03811105C081E080935C03109272
:104210003A03E0915D0381E08E0F80935D03F0E04F
:10422000E65CFC4F80818093BB0090915D038091A0
:104230005C03981720F481E00E94C51115CF80E03F
:104240000E94C51111CF81E00E94C5111092820316
:104250000BCF109281030E94311E06CFA1E21A2ECD
:10426000AA1BBB1BFD010DC0AA1FBB1FEE1FFF1F1A
:10427000A217B307E407F50720F0A21BB30BE40B6A
:10428000F50B661F771F881F991F1A9469F76095B1
:104290007095809590959B01AC01BD01CF0108956B
:1042A000EE0FFF1F0590F491E02D09940E9461210B
:1042B000A59F900DB49F900DA49F800D911D11247A
:1042C0000895A29FB001B39FC001A39F700D811DEF
:1042D0001124911DB29F700D811D1124911D08950F
:1042E000DC0101C06D9341505040E0F70895F8940F
:0242F000FFCFFE
:1042F2000B040B04000000002F1B031B721B711B1D
:10430200000000002F1B031B721B711B8409820A11
:10431200A20A00000000A2147214721B47146B144C
:10432200571448141815A015C019FF1815A115C85F
:1043320019FF1815AE19FF1815AF19FF0001140A5D
:104342006464323200093D00030428961008020218
:10435200800040001815AE15D5168015A8163F1519
:10436200D316001540158D16141520160015A1152B
:10437200C815DA1612158116CF15D916F115DB16E6
:1043820040152E15A415A619FF52656164792066A1
:104392006F72206D656173757265696E6720004684
:1043A200313A0046323A0046333A0046343A004344
:1043B2004C523A0046353A0046363A0046373A0001
:1043C20046383A004E49523A00415337343331208D
:0C43D200496E6974696E67202E2E2E0063
:00000001FF
