:100000000C9478020C9425230C94A0020C94A0026A
:100010000C94A0020C94A0020C94A0020C94A002D8
:100020000C94A0020C94A0020C94A0020C94A002C8
:100030000C94A0020C94A0020C94A0020C94A002B8
:100040000C94D7200C94A0020C94C2230C94A00210
:100050000C94A0020C94A0020C94A0020C94A00298
:100060000C943F210C94A0025F00030203040305DB
:1000700004050C00FE07FE08FF0142028603AE20C5
:1000800005006A0721073943C7A00422079B56478A
:100090006209230D35424F65504A49322815002424
:1000A0000E4D3E57B654946C4B94CA1601250A3D2A
:1000B000428734659D2601260D3D424F96444956A0
:1000C00049A4480927061957C700280BCB3E5712E9
:1000D00025512DCA02290CCB3E47166551254A22CF
:1000E000002A0B3D4257A5B2654B53042B0A2D46FF
:1000F00057180D5218012C081B3E8F3224002D0674
:100100000D4EC7202E069242C7102F0A3D42671699
:1001100066C52C04300ABC428F12794A140031089B
:10012000BB424F227519320A3D42CF928559DB20DE
:10013000330C3D42C7206699AA250B00340C3D4282
:100140005F2625A564D0C204350B3D42C7714843E4
:100150002D5900360C3D42979485439269C9023768
:100160000B3D42C7206661169600380C3D42CF9287
:1001700069C99269C902390C3D42CF9269C91066BA
:1001800091043A08AA42C7100D013B09333E8F5132
:100190001912003C07AB4657522B3D081D4AC7A019
:1001A0000E023E08AB46475629013F0A3D42CF9218
:1001B00035E65004400D3D42CF922943922843BA80
:1001C00000410B3D42CF9269C390D902420D3D429E
:1001D000C71055A264AA448302430A3D42CF9289C4
:1001E0006DC902440F3D42C71055A2244AA2241AE9
:1001F0001400450B3D42C7311C92301C04460A3D99
:1002000042C7311C92B008470B3D42CF9289A52DC1
:100210005900480A3D4247661B86CC164908BB4236
:10022000C71275194A0A3D42D716B64491044B0DC0
:100230003D42472625252D892A59004C083D424735
:10024000D8E3204D0A3D4247B62C89E6164E0C3DB8
:100250004247A64D4A226D5A004F0A3D42CF92793D
:100260004B1600500C3D42C79064DAA08445005103
:100270000B3D42CF92B92452A404520D3D42C79087
:1002800064DAA0942A5900530B3D42CF92A9AB9651
:100290002C0054093D42C720853D0155093D424788
:1002A000E65BB200560B3D4247E69694922C02570D
:1002B0000A3D4247E62551BA00580B3D4247A62564
:1002C000B54A4D0B590A3D4247A625B5B0095A0A11
:1002D0003D42C720661D07015B08CB3EC710F5698C
:1002E0005C093D42471AA6C5345D08CB3EC7D4A77A
:1002F000215E081D565796D4025F060D3AC720604E
:10030000069B564756610A2D42CF9A0C5A32046218
:100310000C3D4247180E49661B1400630A2D42CF5C
:10032000928959B200640A3D426765D06CC9106574
:100330000A2D42CF920D4ABA00660A3D429754C92F
:10034000B6B006670C3D3ACF92D992214C160068A0
:100350000A3D4247180E49E6166908BB424F28B5C8
:100360000C6A0ACC3A5FACB54989026B0B3D424737
:10037000589392A992056C08BB4287D4CB006D0BB1
:100380002D4287D2A2244AA2146E092D424762D27E
:100390006C016F092D42CF92D99205700C3D3AC77E
:1003A0009064B641094300710A3D3ACFA0D9922129
:1003B0002C72092D424762128B0073092D42CFA087
:1003C0001E1400740A3D4257180D52581575092D18
:1003D0004247E6A42801760A2D4247664B6A11007F
:1003E000770A2D42476649942E00780A2D42479697
:1003F000D42AB500790A3D3A47664B6A8D007A09DE
:100400002D42C7A0B50D027B0ACB3E571255B2A8AC
:10041000167C06493FC7037D0BCB3E4716D592A8F5
:1004200012017E091D4A4FA424520200000004FF5D
:10043000FF00007152636D642C3732363537333626
:10044000353734007173546872656164496E666F44
:10045000007166546872656164496E666F0071432D
:100460000071537570706F7274656400545858321F
:10047000303A58583B32313A585858583B32323A51
:1004800058585858585858583B7468726561643ABF
:10049000313B0000000000240027002A000000007B
:1004A00000250028002B0000000000230026002962
:1004B000000404040404040404020202020202030D
:1004C0000303030303010204081020408001020417
:1004D000081020010204081020000000080002019A
:1004E0000000030407000000000000000000CA2014
:1004F00011241FBECFEFD8E0DEBFCDBF12E0A0E0D9
:10050000B1E0ECEFF8E402C005900D92A031B10724
:10051000D9F725E0A0E1B2E001C01D92AA31B207EF
:10052000E1F712E0C8E7D2E004C02197FE010E9483
:100530004C24C737D107C9F70E9432210C947C2480
:100540000C9400008330B1F060F08730E9F088301F
:1005500009F1843021F5E0E8F0E080818F7D80832F
:100560000895813069F0823021F484B58F7D84BD97
:1005700008950895E0E8F0E080818F778083089502
:1005800084B58F7784BD0895E0EBF0E080818F77AC
:1005900080830895E0EBF0E080818F7D8083089573
:1005A000CF93DF93282F30E0F901E752FB4F84917E
:1005B000F901EB53FB4FD491F901EF54FB4FC49178
:1005C000CC23B1F081110EC0EC2FF0E0EE0FFF1F35
:1005D000E955FB4FA591B491EC91ED2331F490E0F6
:1005E00080E008C00E94A202EFCF81E090E002C04C
:1005F00090E080E0DF91CF9108951F93CF93DF9338
:10060000282F30E0F901E752FB4F8491F901EB53B9
:10061000FB4F1491F901EF54FB4FC491CC23A9F087
:10062000D62F811116C0EC2FF0E0EE0FFF1FE3561E
:10063000FB4FA591B4918FB7F894D1110DC09C9147
:10064000E12FE095E923EC938FBFDF91CF911F91CC
:1006500008950E94A202E7CFEC91E12BEC93F4CF36
:10066000CF93DF9390E0FC01EB53FB4F24918F5429
:100670009B4FFC018491882319F190E0880F991F0A
:10068000FC01ED56FB4FA591B491FC01E356FB4FE5
:10069000C591D491662349F06230A9F08FB7F894E0
:1006A000EC91E22BEC938FBF0BC09FB7F8948C9129
:1006B000E22FE0958E238C938881E823E8839FBF07
:1006C000DF91CF9108959FB7F8943C91822F809548
:1006D00083238C93E881E22BE8839FBFF1CF78944A
:1006E00084B5826084BD84B5816084BD85B5826037
:1006F00085BD85B5816085BDEEE6F0E080818160D5
:100700008083E1E8F0E010828081826080838081D4
:1007100081608083E0E8F0E0808181608083E1EBAC
:10072000F0E0808184608083E0EBF0E08081816094
:100730008083EAE7F0E0808184608083808182604A
:100740008083808181608083808180688083109233
:10075000C10008958230910538F0880F991F880FE5
:10076000991F05970197F1F708953FB7F894809185
:10077000160590911705A0911805B091190526B599
:10078000A89B05C02F3F19F00196A11DB11D3FBFC9
:10079000BA2FA92F982F8827BC01CD01620F711D98
:1007A000811D911D660F771F881F991F660F771F88
:1007B000881F991F08952FB7F894609112057091C2
:1007C000130580911405909115052FBF0895089584
:1007D00008958F929F92AF92BF92CF92DF92EF9245
:1007E000FF926B017C010E94B5034B015C011BC0B1
:1007F00021E0C21AD108E108F10888EE880E83E0F2
:10080000981EA11CB11CC114D104E104F10459F0DB
:100810000E94B503681979098A099B09683E7340EB
:100820008105910528F7C114D104E104F10459F7B9
:10083000FF90EF90DF90CF90BF90AF909F908F9000
:100840000895FC01108208958F929F92AF92BF92FB
:10085000CF92DF92EF92FF920F931F93CF93DF938C
:10086000EC0188810E94D0028C010E94DB03288960
:10087000398921153105D9F42885398520173107A3
:1008800069F0DF91CF911F910F91FF90EF90DF9072
:10089000CF90BF90AF909F908F90089521E030E06F
:1008A000398B288B6A8B7B8B8C8B9D8BEACF21308D
:1008B000310591F022303105E1F12330310509F4A1
:1008C0005EC026303105E9F68E819F818017910741
:1008D000C1F6198A188AD5CF2E813F81201731079A
:1008E00019F1288539852017310759F6CA88DB8820
:1008F000EC88FD880C811D81012E000C220B330B2E
:100900000C0D1D1D2E1D3F1D061717072807390743
:1009100008F0B7CFEE85FF85309709F0099586E09E
:1009200090E0998B888BADCF82E090E0998B888B9B
:10093000A8CF8A889B88AC88BD88CA80DB800D2CB4
:10094000000CEE08FF08C80CD91CEA1CFB1CC616DC
:10095000D706E806F90640F4EA85FB85309709F0EA
:100960000995198A188A8DCF8885998580179107EE
:1009700009F087CF83E090E0998B888B82CF8E81BE
:100980009F818017910709F07CCFEC85FD8530971A
:1009900009F00995198A188A74CFFC017587648754
:1009A0000895EF92FF920F931F93CF93DF93EC0183
:1009B000162F072F7A0160E0812F0E9430031883E1
:1009C000098388E592E09B838A8388EE93E09D8388
:1009D0008C83198A188AEF2869F41F821E8281E0AD
:1009E00090E099878887DF91CF911F910F91FF90B9
:1009F000EF90089581E090E09F838E83198618869A
:100A000061E0812F0E94FD02EECF21E0FC012083F6
:100A100081E994E00895DC0111961C921E928FE307
:100A200095E015969C938E93149717969C938E93AE
:100A3000169719969C938E9318971B969C938E935A
:100A40001A9755961C92559758961C9258971C9633
:100A50001D921D921D921C921F978FEF56968C939C
:100A600056975A968C935A9790E006C0FD01E90F6D
:100A7000F11D2FEF268F9F5F9631C0F3089580E020
:100A80000895DC011A96ED91FC9130E020E0099583
:100A90000895DC011496ED91FC9130E020E040E0F7
:100AA00060E109950895462FDC011496ED91FC91C3
:100AB00030E020E06BE009950895DC011496ED919B
:100AC000FC9130E020E040E06AE009950895DC0107
:100AD0001496ED91FC9130E020E040E069E009954A
:100AE0000895AF92BF92CF92DF92EF92FF920F9351
:100AF0001F93CF93DF93EC015B016A0179010E94A0
:100B00000B05BD82AC82DF82CE82F986E8861B8728
:100B10000A87CE010E946705DF91CF911F910F9147
:100B2000FF90EF90DF90CF90BF90AF9008950F931C
:100B30001F93CF93DF9300D000D01F92CDB7DEB7C5
:100B40006C834D832B831A830983DC011496ED910A
:100B5000FC919E012F5F3F4F41E06FE009950F90A0
:100B60000F900F900F900F90DF91CF911F910F91E9
:100B70000895CF93DF93EC01EA85FB8530E020E018
:100B800040E068E20995EE81FF8130E020E040E03E
:100B900064E1CE01099541E06BE4CE010E9441057C
:100BA000E881F981448169E2CE010E94410540E07B
:100BB0006BE4CE010E944105E881F981448169E23C
:100BC000CE010E94410541E06BE4CE010E94410547
:100BD000E881F981458169E2CE010E944105DF91FA
:100BE000CF910895FC0171836083FB012289FC0190
:100BF000248B0895DC011696ED91FC9130E020E005
:100C000040E069E109950895DC011696ED91FC91AB
:100C100030E020E040E068E1099508959A01DC01A8
:100C20001696ED91FC91462F67E109950895CF92B4
:100C3000DF92EF92FF920F931F93CF93DF931F9258
:100C4000CDB7DEB76C017B01D7016D918D016731A6
:100C500009F178F06A3160F16E3FA9F5FD0140813C
:100C6000498369E2C6010E944105F2E0EF0EF11CE2
:100C7000EBCF653140F1FD0140814983D6011696E5
:100C8000ED91FC9130E020E0C6010995B2E0EB0E59
:100C9000F11CDACFF70181818983AE014F5F5F4F8D
:100CA00061E0C6010E940E06F2E0EF0EF11CCCCF0F
:100CB000D6011696ED91FC9130E020E040E0C601AF
:100CC00009957801C1CF0F90DF91CF911F910F91BE
:100CD000FF90EF90DF90CF900895462FDC0116969D
:100CE000ED91FC9130E020E066E109950895462FF2
:100CF000DC011696ED91FC9130E020E065E109956C
:100D00000895EF92FF920F931F93CF93DF938C017F
:100D1000C42F79016D3009F44DC0D8F16E3009F45B
:100D200065C06F3009F077C00E940406F701D381D7
:100D30006D2F660F660F660FD8015496DC91D60FA3
:100D400060E4C8010E9477066D2F62956F70606144
:100D5000C8010E9477066D2F6F70C8010E946D0652
:100D6000F7016481606BC8010E946D06D70112967D
:100D70006C9112974D915C91660F660F660FC801DA
:100D80000E940E06C15091F7C8010E94FA0581E049
:100D90003BC06B3009F03FC0411106C063E471E015
:100DA0000E94170681E030C06EE371E00E941706D2
:100DB00081E02AC041110DC067E371E00E9417066F
:100DC000D801ED91FC911197828954968C9381E022
:100DD0001BC060E371E00E941706D801ED91FC9101
:100DE0001197838954968C9381E00EC00E9404066B
:100DF00061E8C8010E9477066C2FC8010E946D0649
:100E0000C8010E94FA0581E0DF91CF911F910F91F7
:100E1000FF90EF90089580E0F7CF0F931F93CF934B
:100E20008C01C62F0E948106811115C0C93061F066
:100E3000CA3091F4C8010E94B90560E671E0C801AA
:100E40000E94170681E008C068E471E0C8010E94B2
:100E5000F20581E001C081E0CF911F910F910895CB
:100E6000DC011896ED91FC9130E020E040E069E172
:100E700009950895DC011896ED91FC9130E020E091
:100E800040E068E1099508959A01DC011896ED911A
:100E9000FC91462F67E109950895CF93DF931F9248
:100EA000CDB7DEB76983AE014F5F5F4F61E00E944F
:100EB00044070F90DF91CF910895EF92FF921F9317
:100EC000CF93DF93EC01162F7A010E943A0760E47A
:100ED000CE010E944D07E885F9859701412F67E112
:100EE000CE010995CE010E943007DF91CF911F916D
:100EF000FF90EF900895EF92FF920F931F93CF937F
:100F00007C01C42F8901663191F178F0683109F4D0
:100F100061C090F1693109F065C080919004811140
:100F20005DC01092900481E018C0643109F43FC0A4
:100F3000653109F057C080919004811114C0C70138
:100F40000E943A0760E0C7010E944D076C2FC7015D
:100F50000E944D0781E080939004CF911F910F91E3
:100F6000FF90EF900895C7010E943007E8CF642FEB
:100F70000E944D0781E0F1CF80919004882361F0B9
:100F8000C7010E94300708C0A80168E1C7010E949C
:100F90005D07C851085E1F4FC931B0F7A8016C2F1B
:100FA000C7010E945D071092900481E0D6CFDC015A
:100FB00056968C9156978F3F49F0D7011896ED9130
:100FC000FC9198014C2FC7010995C7CF88E7569629
:100FD0008C93F3CF1092900481E0BFCFC7010E94A1
:100FE00030079FCF80E0B9CF662329F06A3031F017
:100FF000862F90E008958FEF9FEF08958FEF9FEF7A
:101000000895FC01108E0895CF93DF93FC01A08119
:10101000B18182AD982F990F990F990F95AF509686
:101020009C915097903208F09FE1990F990F990F7A
:1010300094AF23AD922F990F990F990F96AF622F0E
:10104000680F7727771F51963C91519736171706EF
:1010500014F4832F821B880F880F880F97AFEF013E
:10106000C05CDF4F890F888380EF21968883549678
:101070008D919C915597813F910508F488835696F0
:101080008C91EE5BFF4F8083DF91CF9108950E949A
:1010900004080895FC01E95BFF4F1082329610822C
:1010A00031972FEF208332962083DC01D696ED9185
:1010B000FC910280F381E02D099508950F931F9311
:1010C000CF93DF93DC01342F377081E090E0032E63
:1010D00002C0880F991F0A94E2F7182FFD01E75804
:1010E000FF4F5081523018F170E0513011F150E053
:1010F000487FED91FC9111978089849FF001859F35
:10110000F00D1124D8968D919C91D997E60FF11D81
:10111000E80FF91F011115C08081872B812781936A
:101120002150D1F7DF91CF911F910F910895782F22
:10113000DCCF10E0DCCF71E019C0770F110F222354
:1011400089F39081972B912790833F5F37702150CF
:101150003111F3CFDC968C91DC97E80FF11DCD01B6
:1011600087589F4FEC018881823028F3813039F312
:1011700011E0E5CF461730F4821760F0241760F4D1
:1011800081E00895821750F4241710F080E008954C
:1011900081E0089581E0089580E0089580E0089559
:1011A000FF920F931F93CF93DF93EC01162FF22E34
:1011B000202FDC01AA5BBF4FFC01EB5BFF4F6C9162
:1011C00080810E94BA08882359F0FE01EC5BFF4F32
:1011D000CD5BDF4F2F2D412F608188810E94BA089F
:1011E000DF91CF911F910F91FF9008950F93CF93AF
:1011F000DF93EC019C01265B3F4F885B9F4FDE0134
:10120000A75BBF4FBE01695B7F4FF9010081FC0105
:1012100020814C91FB016081CE010E94D00888237F
:1012200069F181E0FE01ED58FF4F8083F0979081D6
:1012300034968081981710F434978083FE01EC5B1C
:10124000FF4F908134968081891710F43497808302
:10125000FE01EB5BFF4F908134968081981710F46C
:1012600034978083FE01EA5BFF4F90813496808142
:10127000891738F4CA5BDF4F888303C0CD58DF4F2E
:101280001882DF91CF910F910895FC01ED5BFF4F24
:1012900010823297208133962083FC0127ADEB5BCF
:1012A000FF4F208335972081369620830E94F608D1
:1012B00008950F93DC01DE963C91DE97431BD49694
:1012C000ED91FC9109950F9108950F930E94590992
:1012D0000F910895FC013081DB019C91930F9317CE
:1012E00020F4321790F49FEF920F321780F44917D1
:1012F00080F4341708F0432F291708F0292F408372
:10130000241BFB01208381E00895342FEECF80E081
:10131000089580E00895EF92FF920F931F93CF936B
:10132000DF9300D01F92CDB7DEB769834A832B834A
:10133000FC01ED58FF4F20812223C9F02B8122238D
:10134000B1F0223020F00230E1F0033001F17C01F5
:10135000102F117000FD3CC0FC01EB5BFF4F908132
:101360008A81891720F0319690818917B0F00F900B
:101370000F900F90DF91CF911F910F91FF90EF9001
:101380000895362F321B232F2F5F2983E0CF3A8118
:10139000321B232F2F5F2A83DACF32972081319798
:1013A0004081BE016D5F7F4FCE0101960E946A09A8
:1013B0008823E9F2D701D696ED91FC910480F5815E
:1013C000E02D012F2B814A816981C7010995CFCF7B
:1013D000FC01ED5BFF4F90818981891740F23196C6
:1013E0009081891720F63296208131974081BE0185
:1013F0006D5F7F4FCE0102960E946A098111DACF9C
:10140000B6CF0F93FC01EB5BFF4F2081421760F0DA
:1014100031962081421740F433972081621720F0E3
:1014200031962081621710F00F91089500E021E0BD
:101430000E948B09F9CFAF92BF92CF92DF92EF92C9
:10144000FF920F931F93CF93DF936C01142FD22F32
:10145000261720F5F62EF21A011718F5B12EB01A3C
:10146000FB1410F18B2DBF2CF82E802F0D2FD82FB1
:10147000812F162F682FE12C011730F08D2FD62FDA
:10148000682F802F012F182FCB2DC695D61778F4F3
:10149000AA24A3941F3FB1F4115014C0F22EF61ADF
:1014A000DBCFB02EB11ADCCFEE24E394E5CFAA2433
:1014B000AA94F0CF402F6D2FC6010E94010ACF19C8
:1014C0005AF00F5F101758F0E110F4CF4D2F602F36
:1014D000C6010E94010AF3CFDA0DCB0DF2CFDF91E6
:1014E000CF911F910F91FF90EF90DF90CF90BF9021
:1014F000AF9008950F9301E00E948B090F9108951A
:101500000F9300E00E948B090F910895855A9F4F19
:10151000FC0160830895835B9F4F21EC3AE0FC015E
:101520003183208308950F931F93CF93DF93EC01B2
:10153000FC01E55BFF4F118210823DAB2CAB79AF14
:1015400068AF4AAF1BAE3D961082B09610823196BE
:1015500081E08083319680831FAB0EABD801ED9183
:10156000FC91CE010995CE010E944A08CE010E944D
:101570008B0AC55ADF4F1882DF91CF911F910F91CF
:10158000089580E00895FC01E55BFF4F20813181E3
:10159000232B69F17E9620813C9620833B974081E6
:1015A0003C96408332973081332309F1313001F189
:1015B000022E000C330BFC01EA59FF4FE081DC01E5
:1015C000A859BF4F5C91652F052E000C770B6E0F4D
:1015D000711DE7FD7A95261737071CF4E50F1D9658
:1015E000EC93541724F48A589F4FFC0150830895BC
:1015F00039973081231714F43A963083FC01E4596B
:10160000FF4F208124179CF78A589F4FFC012083AD
:101610000895213039F020F0223031F0840F089500
:10162000860F0895841B0895861B0895213039F094
:1016300020F0223031F0861B0895840F0895860F24
:101640000895841B08958F929F92AF92BF92CF927C
:10165000DF92EF92FF920F931F93CF93DF937C0162
:10166000D62E942EFC01E15BFF4FC480158113C080
:101670008D2C19C0F701E15BFF4F9285BA969083DC
:10168000282D482F6B2DC7010E948B09DC1680F195
:10169000DC1A1F5FC12CF701E15BFF4FC681CC193B
:1016A000DC1630F38C2EF701E15BFF4FD38104850C
:1016B000A12E202F412F6C2D82810E94090BB82E64
:1016C000202F412F6C2D8D2F0E94160B9110D2CF01
:1016D000F701E15BFF4F91859111D8CF9385BA96C1
:1016E0009083282D482F6B2DC7010E948B09CECFE8
:1016F0006D2D6C0DF701E15BFF4F6483A582DF91D7
:10170000CF911F910F91FF90EF90DF90CF90BF90FE
:10171000AF909F908F900895DC0118964C91189788
:10172000ED91FC911197249130E0042E02C0359583
:1017300027950A94E2F7822F942F960F983080F025
:1017400088E0841B31961196FC93EE93E491F0E0CF
:1017500002C0EE0FFF1F8A95E2F78E2F822B985062
:101760002FEF3FEF02C0220F331F6A95E2F720955B
:1017700018969C93822308950F931F93CF93DF9322
:10178000EC018C01015B1F4FF801718360831086AF
:1017900071966081C8010E948C0BF8018683729655
:1017A0006081C8010E948C0BF8018783BA96808102
:1017B000F801828791E0811190E0C15BDF4F9B8748
:1017C000DF91CF911F910F910895CF93C62F0E9463
:1017D0008C0BC15021E030E002C0220F331FCA95AC
:1017E000E2F7821BCF9108957F928F929F92AF92E2
:1017F000BF92CF92DF92EF92FF920F931F93CF93FE
:10180000DF93EC017C018FE4E80EF11CCE010E9415
:10181000BC0BFE01EA5AFF4FC0803C966081C701B5
:101820000E94E50B782EFE01ED59FF4F6081C70144
:101830000E94E50B182FFE01EC59FF4F6081C70194
:101840000E94E50BD82EF701968019140CF05BC0AE
:1018500004851C0D1195202F412F672D82810E9438
:10186000090B882EF7018283202F412F672D83815A
:101870000E94160BF7018383013009F453C048F02E
:10188000023009F459C0033009F464C0082F282D30
:1018900004C0282D290D0C2D080F482F682DCE01CE
:1018A0000E94D008882379F1FE01E15BFF4F14828A
:1018B0001582FE01E25AFF4F6081C7010E948C0B26
:1018C000082FFE01E15AFF4F6081C7010E948C0B77
:1018D000182F40E0602FCE010E94230B41E0612FC2
:1018E000CE010E94230B61E0C7010E948C0B811185
:1018F000F0CFFE01E15BFF4F85818C15D4F282852C
:10190000C758DF4F88838D2DDF91CF911F910F91A5
:10191000FF90EF90DF90CF90BF90AF909F908F900F
:101920007F900895982D9C1921E0280D082F090D0E
:1019300088248394890EB1CF982D991921E0280D20
:10194000382F3C1901E0080F81E0830F882483942D
:10195000890EA3CF2C2D280D982F991901E0080F7F
:1019600081E0890F9ACFFC01E60FF11D849190E090
:101970003196982F8827E4918E0F911D0895EF924C
:10198000FF920F931F93CF93DF93FC01E55BFF4F13
:10199000C081D18167966F3F710509F040F56136CE
:1019A0007105C0F081599F4FFC0180819181C80F62
:1019B000D91FCE010196FC012491222309F446C0CF
:1019C000FE0124912617170681F0FC018491C80FAF
:1019D000D11DEFCF6134710560F383599F4FFC0136
:1019E00080819181C80FD91FE4CF019631C08B014E
:1019F000FC01EF58FF4F80819181C80FD91F7E01F4
:101A000060E0C7010E94B30CC80FD91F62E0C70194
:101A10000E94B30CF4E0EF0EF11C8017910780F3E5
:101A2000FE01849190E0982F88273196E4918E2BC7
:101A30000097A9F00817190731F0FE013296E491DA
:101A4000CE0FD11DEDCFCE01039602C090E080E015
:101A5000DF91CF911F910F91FF90EF90089590E04B
:101A600080E0F6CFCF93DF93EC01FC01EF5AFF4FFC
:101A7000608331964083B9010E94BF0C009739F012
:101A8000BC01CE010E94F40BDF91CF91089580E05C
:101A9000FBCFEF92FF920F931F93CF93DF93EC0155
:101AA000162F042F7901FC01E55AFF4F8081813008
:101AB000E1F088F0823019F1833059F19701402F1D
:101AC000612FCE010E94320DDF91CF911F910F91B6
:101AD000FF90EF900895FE01E35BFF4F0190F081CE
:101AE000E02DCE010995080FE9CFFE01E35BFF4F22
:101AF0000190F081E02DCE010995181BDFCFFE018A
:101B0000E35BFF4F0190F081E02DCE010995081BAA
:101B1000D5CFFE01E35BFF4F0190F081E02DCE01B8
:101B20000995180FCBCF860F911DFC018491089564
:101B30000F931F93CF93DF93EC018B0160E0C801FB
:101B40000E94930D888361E0C8010E94930D8983F0
:101B500062E0C8010E94930D8A8363E0C8010E947D
:101B6000930D8B8364E0C8010E94930D8C8365E024
:101B7000C8010E94930D8D8366E0C8010E94930DF9
:101B80008E8367E0C8010E94930D8F8368E0C801CF
:101B90000E94930D888769E0C8010E94930D898790
:101BA0006AE0C8010E94930D8A876BE0C8010E9419
:101BB000930D8B876CE0C8010E94930D8C876DE0BC
:101BC000C8010E94930D8D876EE0C8010E94930D9D
:101BD0008E876FE0C8010E94930D8F8760E1C80176
:101BE0000E94930D888B61E1C8010E94B30C9A8B0F
:101BF000898B63E1C8010E94B30C9C8B8B8B65E1E0
:101C0000C8010E94B30C9E8B8D8BDF91CF911F91E9
:101C10000F910895CF93DF93FC01E55BFF4F208187
:101C200031812617370751F0EC0171836083845AA4
:101C30009F4F0E94980DCE010E94C30ADF91CF9161
:101C40000895CF92DF92EF92FF920F931F93CF935D
:101C5000DF931F92CDB7DEB77C016B0189019A013A
:101C60004BE757E06DE077E00E947105CE010196E9
:101C70000E94050586012EE538E04981BC01C701B7
:101C80000E94930A0F90DF91CF911F910F91FF90C7
:101C9000EF90DF90CF900895CF92DF92EF920F9365
:101CA0001F93CF93DF936C01162FD42FC22FE0FC2C
:101CB0000EC0E1FC1AC0E3FC27C0E2FC34C0DF9197
:101CC000CF911F910F91EF90DF90CF900895402F0B
:101CD0004D1B622F610F0E94010A402F411B6D2F87
:101CE0006C0FC6010E94010AE4CF402F4D1B6C2FE0
:101CF000611BC6010E94010A402F411B6C2F6D1B06
:101D0000C6010E94010AD7CF402F4D0F6C2F610FE3
:101D1000C6010E94010A402F410F6D2F6C0FC601B2
:101D20000E94010ACACF402F4D0F6C2F611BC601C4
:101D30000E94010A402F410F6C2F6D1BC6010E94AB
:101D4000010ABDCF8F929F92AF92BF92CF92DF9246
:101D5000EF92FF920F931F93CF93DF935C01C62EF8
:101D6000942E122F802EC1E0C21B822F8195D82E77
:101D7000DD0CE02E042F262F412F60E0C5010E94CC
:101D80004C0ED0E0FF24F3940CC0DF5FF394F39487
:101D9000CF0DE82C092D2C2D412F6D2FC5010E9450
:101DA0004C0ED11738F4CC2384F31150D394D39430
:101DB000CD0DEBCFDF91CF911F910F91FF90EF9061
:101DC000DF90CF90BF90AF909F908F900895DF925B
:101DD000EF92FF920F931F93CF93DF937C01D62F47
:101DE000142FC22FD02E042F020F260F0F5F2F5F4C
:101DF0004C1B6C1B0E94D008811108C0DF91CF9151
:101E00001F910F91FF90EF90DF9008950D2D2C2FD3
:101E1000412F6D2FC7010E94A20EF0CFCF93DF9309
:101E2000EC016BAFEEA9FFA90190F081E02D0995BF
:101E3000EEA9FFA90280F381E02DCE010995DF9183
:101E4000CF9108950F931F93DC01ED91FC911197B1
:101E50002089D896ED91FC91629F80011124000F9A
:101E6000111F000F111F000F111F0E0F1F1F60E029
:101E70000E9497051F910F910895EF92FF920F9383
:101E80001F93CF93DF938C01DC01DA96FC90DA97F5
:101E9000DB96DC91DB97ED91FC91E188C0E04D2F62
:101EA0006C2FC8010E94220FCF5FDF5FCF1510F4A7
:101EB000DE15A8F3DF91CF911F910F91FF90EF9066
:101EC00008958F929F92AF92BF92CF92DF92EF923E
:101ED000FF920F931F93CF93DF936C01162FF42E75
:101EE000B22EA02ED42FD00FC62FC20F0D2F2C2F05
:101EF0000E94D00881110DC0DF91CF911F910F91E9
:101F0000FF90EF90DF90CF90BF90AF909F908F9019
:101F10000895812E8E0C9F2C9E0CCE19C150DE1977
:101F2000D15002E02E2D492D682DC6010E94E70EEA
:101F300001E02E2D492D6C2FC6010E94E70E04E012
:101F40002E2D4D2F682DC6010E94E70E08E02E2D84
:101F50004D2F6C2FC6010E94E70E2B2D2E192E1926
:101F6000CA2DCE19CE1983949394233090F4C330A4
:101F700018F2C250BA942C2F492D612FC6010E942D
:101F80007A0A612F6B0D2C2F492DC6010E947A0A07
:101F9000B3CFDEEFD20FAA942D2F4F2D682DC6019F
:101FA0000E94800A4F2D4A0D2D2F682DC6010E94D8
:101FB000800ADDCFFC0161A742A723A708950F93F4
:101FC0001F93CF93DF938C01E8EDE60FE63208F024
:101FD0006DC0F0E0E251F04F0C944C241410291025
:101FE00070107010561031105610561056105610B2
:101FF00056105610561056105610561056105610B1
:1020000056105610561056105610561056105610A0
:102010005610561056105610561056105610561090
:10202000561056103C103C10C0E004C062E00E9404
:102030003003CF5FC63108F059C0F801EC0FF11D35
:10204000868D8F3FB1F3C03188F761E00E94300385
:10205000F0CF642F70E090E080E00E94E90381E01F
:1020600040C0433030F082E090E00E94AA0381E05B
:1020700038C085E090E0F9CF41110EC06F73EC01DC
:10208000C60FD11D61E08E8D0E94300360E08E8D01
:102090000E94FD0281E025C06F73060F111D62E0F2
:1020A000F801868D0E94300381E01BC0603400F18E
:1020B0006F73F801E60FF11D868D8F3FD9F0603107
:1020C00050F00E94D00221E0892B09F420E0F801B1
:1020D000218F81E006C0642F0E94FD0281E001C0D3
:1020E00081E0DF91CF911F910F91089581E0F9CFA9
:1020F00080E0F7CF81E0F5CFFC017183608329E3B5
:102100002283089585EC8093BC0010925E040895AC
:10211000811104C085E88093BC00089585EC80930C
:10212000BC000895909337048093360408959093EB
:102130003B0480933A040895AC0120913804260FA3
:102140003327331F21323105F4F480915E0484304B
:10215000E1F490E00FC0E0913804292F30E0E20F65
:10216000F32FF11D240F351FD9012C91EA5EFB4F8F
:1021700020839F5F961778F380913804680F6093EF
:10218000380480E0089581E0089582E008959B017D
:10219000AC0160E074E284EF90E00E942A242051B8
:1021A000310941095109569547953795279520934F
:1021B000B8000895ECEBF0E080818A7B808360E0DA
:1021C00082E10E94FD0260E083E10E94FD02089529
:1021D00010925E0481E08093600410925F0461E0DD
:1021E00082E10E94FD0261E083E10E94FD02E9EBD1
:1021F000F0E080818E7F808380818D7F808388E482
:102200008093B80085E48093BC000895EF92FF921C
:102210000F931F93CF93DF9391E090931504811157
:1022200007C0DF91CF911F910F91FF90EF9008951C
:10223000C8EBD0E0F8800AEB10E0F801E0800E94E3
:10224000DA100E94E810F801E082F882EACF4F929B
:102250005F926F927F928F929F92AF92BF92EF9216
:10226000FF920F931F93CF93DF93413280F081E071
:10227000DF91CF911F910F91FF90EF90BF90AF90A2
:102280009F908F907F906F905F904F900895D22F86
:10229000C42F7B01182F0E94B5034B015C01909164
:1022A0005E04992329F18091110490911204A09168
:1022B0001304B0911404892B8A2B8B2B81F30E9479
:1022C000B503681979098A099B0940901104509057
:1022D00012046090130470901404461657066806A2
:1022E0007906E8F6809110040E94061185E0C0CFBF
:1022F00082E080935E04009360048FEF80935D041E
:1023000010928204C09381040AC0E92FF0E0D70143
:10231000AE0FBF1F8C91EF59FB4F80839F5F9C17BF
:10232000A0F310928304812F90E0880F991F1091E1
:102330008304812B8093830480915F048130A1F119
:1023400085EE8093BC000E94B5034B015C01DD2348
:1023500009F462C080915E04823009F05DC0809112
:10236000110490911204A0911304B0911404892BCC
:102370008A2B8B2B61F30E94B503681979098A09AE
:102380009B090091110410911204209113043091C3
:1023900014040617170728073907C8F68091100498
:1023A0000E94061185E064CF10925F040E94B5037D
:1023B0004B015C0104C08091BC0083FF29C0809167
:1023C00083048093BB008091110490911204A0912A
:1023D0001304B0911404892B8A2B8B2B61F30E9478
:1023E000B503681979098A099B09009111041091B4
:1023F00012042091130430911404061717072807BC
:102400003907C8F6809110040E94061185E030CF8C
:1024100085EC8093BC0097CF80915D048F3F61F085
:1024200080915D04803251F080915D04803311F021
:1024300084E01ECF83E01CCF80E01ACF82E018CF6B
:102440008F929F92AF92BF92DF92EF92FF920F9383
:102450001F93CF93DF93413268F080E0DF91CF91FB
:102460001F910F91FF90EF90DF90BF90AF909F90E2
:102470008F900895D22EF42EEB01E82E0E94B50322
:102480004B015C0190915E04992329F100911104A4
:10249000109112042091130430911404012B022B8B
:1024A000032B81F30E94B503681979098A099B09F6
:1024B000009111041091120420911304309114041E
:1024C0000617170728073907E8F6809110040E94BD
:1024D000061180E0C3CF81E080935E04D092600457
:1024E0009FEF90935D04109282049F0D909381045E
:1024F000809383048E2D90E0880F991F9091830420
:10250000892B8093830480915F04813089F185EE6B
:102510008093BC000E94B5034B015C0190915E0466
:10252000913009F05DC000911104109112042091C6
:10253000130430911404012B022B032B79F30E9416
:10254000B503681979098A099B0900911104109152
:10255000120420911304309114040617170728075A
:102560003907E0F6809110040E94061180E076CFD2
:1025700010925F040E94B5034B015C0104C080917E
:10258000BC0083FF29C0809183048093BB008091AD
:10259000110490911204A0911304B0911404892B9A
:1025A0008A2B8B2B61F30E94B503681979098A097C
:1025B0009B09009111041091120420911304309191
:1025C00014040617170728073907C8F68091100466
:1025D0000E94061180E042CF85EC8093BC009ACF28
:1025E000809182048F1520F48091820490E00DC0C8
:1025F0008F2DFCCF292F30E0FE01E20FF31F2F5962
:102600003B4FD9012C9120839F5F981798F326CFD9
:10261000089508950895E0910D0480910C04E81741
:1026200030F4F0E0E451FC4F808190E008958FEFAA
:102630009FEF089590910D0480910C04981758F421
:10264000E92FF0E0E451FC4F208130E09F5F909350
:102650000D04C90108952FEF3FEFFBCF80910C04CB
:1026600090910D04891B990B0895CF92DF92EF9200
:10267000FF920F931F93CF93DF938C016B017A012D
:102680008091EB03882399F0D0E0C0E0CE15DF0500
:1026900090F4D801ED91FC910190F081E02DD601EC
:1026A000AC0FBD1F6C91C80109952196EFCF642F27
:1026B000C6010E949C10C701DF91CF911F910F911D
:1026C000FF90EF90DF90CF900895CF93DF931F920C
:1026D000CDB7DEB7FC0169839091EB039923F1F04C
:1026E00090910E04903250F081E090E093838283C9
:1026F00090E080E00F90DF91CF91089580910F04DA
:10270000E82FF0E0E553FC4F998190838F5F809331
:102710000F0480930E0481E090E0ECCF61E0CE01E5
:1027200001960E949C1081E090E0E4CF0F934091CD
:102730000E04062F21E06BEC73E08091CA030E9427
:10274000271110920F0410920E041092EB030F91B8
:10275000089561E00E949613089581E08093EB0351
:102760006093CA0310920F0410920E040895CF9242
:10277000DF92EF92FF920F931F93CF93DF938C0121
:10278000C62F6A017901DC0112966C9112978D9126
:102790009C910E94AD13F80180819181DC01ED9143
:1027A000FC910190F081E02D6C2F0995D0E0C0E004
:1027B000CE15DF0580F4F80180819181DC01ED9177
:1027C000FC910190F081E02DD601AC0FBD1F6C9102
:1027D00009952196EDCFF801808191810E94A9137E
:1027E000DF91CF911F910F91FF90EF90DF90CF90ED
:1027F00008950E94AD1308958F929F92AF92BF9259
:10280000CF92DF92EF92FF920F931F93CF93DF93BC
:10281000EC01D62EF42E48015901E1101EC030E221
:102820003F1518F46894FF24F5F82C2D4F2D6CEE0D
:1028300073E08D2D0E94201210920D0480930C04E1
:10284000DF91CF911F910F91FF90EF90DF90CF908C
:10285000BF90AF909F908F9008950E94AD1323E09A
:102860002E1520F40F2EF3E0EF2EF02D1FEF1E0D8E
:10287000EE20D9F0E881F9810190F081E02D812FDF
:1028800090E0880F991F880F991F880F991FA50145
:10289000940104C056954795379527958A95D2F7A8
:1028A000B901CE010995E12EE1CF60E0CE010E9491
:1028B0009613B5CFCF92EF920F931F93C22EE12CB8
:1028C00000E010E098010E94FC131F910F91EF901F
:1028D000CF90089521E00E945A140895BF92CF929C
:1028E000DF92EF92FF920F931F93CF93DF938C01B0
:1028F000C62F6A017901DC0112966C9112978D91B5
:102900009C910E94AD13F80180819181DC01ED91D1
:10291000FC910190F081E02D6C2F0995F8018081E8
:1029200091810E94A913882361F0B12C8B2DDF9136
:10293000CF911F910F91FF90EF90DF90CF90BF90BC
:1029400008956AE070E080E090E00E94E903BE2C08
:102950004E2DD80112966C9112978D919C910E94E8
:102960006A14D0E0C0E0CE15DF0500F7F8018081E1
:102970009181DC01ED91FC910284F385E02D0995B4
:10298000F601EC0FFD1F80832196EDCFFF920F9390
:102990001F93CF93DF931F92CDB7DEB78C01F62E36
:1029A00021E030E0AE014F5F5F4F60E80E946E149F
:1029B000F11013C089818E7F898321E030E0AE0160
:1029C0004F5F5F4F60E8C8010E94B7130F90DF911F
:1029D000CF911F910F91FF90089589818160898324
:1029E000ECCFCB01BA010E94C710089510920D04DC
:1029F00010920C0410920F0410920E040E94E81022
:102A000088E093E10E94921089E093E10E94971080
:102A10000895CF93DF93EC01683199F160F464314C
:102A2000A1F0673171F450E0B90184E894E00E94AC
:102A3000351381E007C06931B1F1603211F481E0F2
:102A400001C080E0DF91CF9108958C859D85AE8592
:102A5000BF85892B8A2B8B2B71F4E881F981A585A1
:102A6000B0E020EA36E841E050E00E9452246C8752
:102A70007D878E879F8784E894E00E94F61481E02A
:102A8000E1CF4C855D856E857F8584E894E00E946A
:102A9000F1146E8970E07595679584E894E00E9462
:102AA000F91381E0CFCF84E894E00E94A91381E07C
:102AB000C9CF0F931F93CF93DF93EC018B018881D4
:102AC00099810E94F6146A81888199810E94AD13D0
:102AD000888199810E94A91381110DC061E0CE0106
:102AE0000E94C6141D830C8390E080E0DF91CF919B
:102AF0001F910F9108958FEF9FEFF8CFFC01138284
:102B0000128288EE93E0A0E0B0E084839583A683F0
:102B1000B78382E291E0918380830895019709F061
:102B200008956F3F7F4FE1F784E894E00E947E159F
:102B3000F7CFFB01849108959FEB980F963010F426
:102B4000875308959FE9980F963010F4875508959C
:102B500080538A3008F08FEF0895FF920F931F93F0
:102B6000CF93DF938C01EB01188219821A821B82AA
:102B7000F12CF801EF0DF11D80810E949C15282F8A
:102B80008F3F39F48F2DDF91CF911F910F91FF90DF
:102B9000089588819981AA81BB8134E0880F991FAB
:102BA000AA1FBB1F3A95D1F7820F911DA11DB11D20
:102BB00088839983AA83BB83F394DBCFAC0190E035
:102BC00080E012C0E92FF0E0EE0FFF1FEA0FFB1FBD
:102BD00065817681220F331FA20FB31F16967C9357
:102BE0006E9315978F5F9F5FA091C803B091C90343
:102BF00058966C9158979617B8F4282F30E0F90141
:102C0000EE0FFF1FEA0FFB1F0580F681E02DE41792
:102C1000F507C1F69F5F9617A8F2220F331FFD013B
:102C2000E20FF31F16821582891778F458969C914B
:102C30005897915058969C935897E82FF0E0EE0FD4
:102C4000FF1FEA0FFB1F1682158258968C9158972A
:102C5000811102C057961C9208959091C00095FF73
:102C6000FCCF8093C60008950F931F93CF93DF93FB
:102C70008C01D62F84E20E942D16C0E0D150B0F412
:102C800083E20E942D168C2F82958F708A30B8F0C7
:102C9000895A0E942D16CF70CA3098F0C95A8C2FCD
:102CA000DF91CF911F910F910C942D16F801808127
:102CB0000E942D16F80181918F01C80FDFCF805D32
:102CC000E8CFC05DECCFCF93DF93E091C803F091E4
:102CD000C90383819481B0E0A0E0880F991FAA1FE7
:102CE000BB1F43EA53E0BF01EA012991AE01322F35
:102CF00032953F703A3008F4D8C0395AEB01398F19
:102D00002F702A300CF4D3C0295AEB012A8F6E5F42
:102D10007F4FD3E0433C5D0739F72091C303322F47
:102D200032953F703A3008F4C4C0395AEF01C75A9F
:102D3000DF4F38832F702A3008F4BDC0295AEF01C5
:102D4000C65ADF4F288321813281B901C4E07695CC
:102D50006795CA95E1F7462F4F706F7077276A30F5
:102D6000710508F4AAC0495AEF01C55ADF4F4883DC
:102D7000422F4F70B9016F7077276A30710508F4E0
:102D80009EC0495AEF01C45ADF4F4883A901452F1D
:102D9000552742954F704A30510508F492C0495A60
:102DA000EF01C35ADF4F4883232F3327422F4F7041
:102DB0002F7033272A30310508F485C0495AEF01B6
:102DC000C25ADF4F4883AC01BD01C4E076956795D8
:102DD00057954795CA95D1F7242F2F704F705527D7
:102DE000662777274A3051056105710508F46DC0E3
:102DF000295AEF01C15ADF4F2883282F2F70AC01C9
:102E0000BD014F705527662777274A305105610568
:102E1000710508F45CC0295AEF01C05ADF4F2883BE
:102E2000AC01BD013CE076956795579547953A957D
:102E3000D1F7242F2F704F705527662777274A30F8
:102E400051056105710508F444C0295AEF01CF59B5
:102E5000DF4F2883492F5A2F6B2F7727242F2F706E
:102E60004F705527662777274A3051056105710550
:102E700090F1295AEF01CE59DF4F2883219620E3A4
:102E80002883219680E38A0F8883DF01AB59BF4FE7
:102E90002C9311962C9354968EE48C936EE4CF0170
:102EA0004996DF91CF910C943416305D27CF205D89
:102EB0002CCF305D3BCF205D42CF405D55CF405D94
:102EC00061CF405D6DCF405D7ACF205D92CF205DB8
:102ED000A3CF205DBBCF205DCDCF8091C0008823E4
:102EE000E4F78091C600089582E08093C000E1EC91
:102EF000F0E088E1808386E08093C2001092C500F4
:102F000080E18093C4008081806880830895CF939E
:102F1000DF93019719F0DF91CF9108956F3F7F4FB5
:102F2000D1F785ED92E00E94210464E874E08FEC13
:102F300092E00E947C10CCE4D2E01B821A8280E1F5
:102F400091E09983888384EF97E09093CC028093FB
:102F5000CB021092CD021092CE0280E592E00E9448
:102F6000010884E091E0998388832FED3FE049E0F8
:102F700055E168E171E080E592E00E94210E2FEFBB
:102F80004FEF6FEF80E592E00E94DA0F41E050E0F2
:102F90006FE070E086E392E00E94D104BCCF61E074
:102FA00080E02091340230913502232B09F060E05B
:102FB00060933402809335028DE00E94FD020895F3
:102FC000CF92DF92EF92FF920F931F93CF93DF93F5
:102FD0007C01DB01EA0110E000E0209799F0F701A5
:102FE00080819181FC01208131816D01FFEFCF1A39
:102FF000DF0A6C91C701F9010995080F191F219784
:10300000D601EBCFC801DF91CF911F910F91FF90B7
:10301000EF90DF90CF900895CF93DF93EC01FC0108
:10302000E158FF4F0190F081E02D049609958E3F05
:103030002FEF920728F081E090E0DF91CF91089583
:10304000FE01EE57FF4F4081319760819C01CE0118
:1030500004960E94490DFE01E15AFF4F9081913084
:1030600089F050F09230A1F0933029F7CE57DF4F1E
:103070009881981B9883DFCFCF57DF4F9881890FB6
:103080008883D9CFCE57DF4F9881890F8883D3CFDC
:10309000CF57DF4F9881981B9883CDCF089590E04C
:1030A00080E00895DF92EF92FF920F931F93CF93EA
:1030B000DF93CDB7DEB7A1970FB6F894DEBF0FBE92
:1030C000CDBF7C01CB01BA01D22E19A221E02D1572
:1030D00020F48E010F5D1F4F0EC00F2EFAE0DF2E81
:1030E000F02DF7CFE95CD801EE938D0161157105E4
:1030F0008105910579F02D2D30E050E040E00E94EF
:103100002A24E62F622F732F842F952FEA3054F74D
:10311000E05DE9CF1097F9F0FD0101900020E9F79B
:103120003197AF014A1B5B0BD701ED91FC910280F7
:10313000F381E02DB801C7010995A1960FB6F89467
:10314000DEBF0FBECDBFDF91CF911F910F91FF90DA
:10315000EF90DF90089590E080E0EFCF21153105EA
:1031600049F4DC01ED91FC910190F081E02D642F98
:10317000099508950E94521808959A01AB0170E0D4
:1031800060E00E94AE1808956115710581F0FB01A1
:1031900001900020E9F73197AF01461B570BDC0186
:1031A000ED91FC910280F381E02D0995089590E066
:1031B00080E00895FC01A081B18150964C9182ADD0
:1031C000489FA0011124440F551F440F551F440F61
:1031D000551F70E060E080AD91AD0E9475240895A8
:1031E0001F93CF93DF93EC010E943D0F8BAD1AAD7F
:1031F000180FE881F9818189181778F4FE01E658E3
:10320000FF4F808181110EC0612FCE010E940E0FF1
:1032100081E0DF91CF911F910895CE010E94490571
:1032200080E0F7CFCE010E94DA18EECFCF93DF9384
:10323000EC01FC01E658FF4F8081811107C060E07E
:10324000CE010E940E0FDF91CF910895CE010E9412
:10325000DA18F5CFCF93DF93EC010E941619CE0157
:103260000E94F0188111FBCF60E0CE010E940E0F8A
:10327000DF91CF9108959F92AF92BF92CF92DF924C
:10328000EF92FF920F931F93CF93DF9368E670E066
:1032900080E592E00E940A0E60E080E592E00E94E4
:1032A000860A80E592E00E941619E12C00E420E8ED
:1032B00040E060E080E592E00E94610F20E440E0A1
:1032C00060E480E592E00E941B0A0DEC12E0689435
:1032D000FF24F1F8F801F082CEECD2E00F2EFCE0F2
:1032E0009F2EF02D988265E971E08CE492E00E94B7
:1032F000C4180F2EF6E1EF2EF02DF801E08298822F
:103300004AE050E070E060E08CE492E00E94BD187A
:10331000F801F0820F2EF8E1AF2EF02DA88269E9B6
:1033200071E08CE492E00E94C418F801E082A88267
:103330004AE050E070E060E08CE492E00E94BD184A
:10334000F801F0820F2EF4E2BF2EF02DB8826DE965
:1033500071E08CE492E00E94C418F801E082B88227
:103360004AE050E070E060E08CE492E00E94BD181A
:10337000F801F0820F2EF0E3DF2EF02DD88261EA03
:1033800071E08CE492E00E94C418F801E082D882D7
:103390004AE050E070E060E08CE492E00E94BD18EA
:1033A000F801F0820F2EFCE3EF2EF02DE88265EAA3
:1033B00071E08CE492E00E94C4188AE1F8018083F5
:1033C000E8824AE050E070E060E08CE492E00E9425
:1033D000BD180F2EF2E4FF2EF02DF801F082988236
:1033E0006AEA71E08CE492E00E94C4180F2EF6E5C0
:1033F000CF2EF02DF801C08298824AE050E070E0B4
:1034000060E08CE492E00E94BD18F801F082A8828E
:103410006EEA71E08CE492E00E94C418F801C08268
:10342000A8824AE050E070E060E08CE492E00E9404
:10343000BD18F801F082B88262EB71E08CE492E092
:103440000E94C418F801C082B8824AE050E070E0DF
:1034500060E08CE492E00E94BD18F801F082D8820E
:1034600066EB71E08CE492E00E94C418F801C0821F
:10347000D8824AE050E070E060E08CE492E00E9484
:10348000BD18F801F082E8826AEB71E08CE492E00A
:103490000E94C4188AE5F8018083E8824AE050E07F
:1034A00070E060E08CE492E00E94BD1880E592E05C
:1034B0000E94F0188111F9CE68EE73E080E090E090
:1034C0000E94E903DF91CF911F910F91FF90EF9040
:1034D000DF90CF90BF90AF909F90089586E392E0E9
:1034E0000E9424040E943B196AE070E080E090E0B2
:1034F0000E94E9030895CF93DF93E6EDF2E0F093A5
:10350000C903E093C80312821182108E10925003F7
:10351000108210925103ABEDB2E082E1ED011992FD
:103520008A95E9F7178A0E947417DF91CF91089561
:103530000E947B1A80E592E00E945D0580E592E0A2
:103540000E942A1960E080E592E00E94530570E035
:1035500060E08FEC92E00E9459156FEC77E186E312
:1035600092E00E94CD0461E08DE00E94300370E0A3
:1035700060E08FEC92E00E945915892B39F168E6E2
:1035800070E080E592E00E940A0E60E080E592E043
:103590000E94860A80E592E00E9416191092CD02E0
:1035A0008CE08093CE026FEB71E08CE492E00E949D
:1035B000C41880E592E00E94F0188111EFCF68EE08
:1035C00073E080E090E00E94E903D1CF68E670E00C
:1035D00080E592E00E940A0E60E080E592E00E94A1
:1035E000860A80E592E00E9416191092CD028CE0C6
:1035F0008093CE0262ED71E08CE492E00E94C418E8
:1036000080E592E00E94F0188111EFCF60ED77E045
:1036100080E090E00E94E903089585ED8093BC006E
:10362000409111045091120460911304709114049C
:10363000495F5F4F6F4F7F4F689412F8769567959B
:10364000579547951694D1F78091BC0084FF1FC011
:103650008091110490911204A0911304B09114046C
:10366000892B8A2B8B2B81F341155105610571053F
:1036700049F085E38A95F1F700004150510961094D
:103680007109E2CF809110040E94061108951092F2
:103690005E040895CF92DF92EF92FF92CF93C82FEE
:1036A0008091C8039091C903FC01C380D480F12CA0
:1036B000E12CCC0CDD1CEE1CFF1C46E250E06CE65D
:1036C00074E049960E941424E091C803F091C90364
:1036D000DF01A658BF4F86E28C938C2F82958F70A6
:1036E0008A3008F4ABC0895A828F8C2F8F708A3051
:1036F00008F4A6C0895A838F8091C303982F9295AE
:103700009F709A3008F49EC0995A978F8F708A30B4
:1037100008F49AC0895A80A381819281AC0164E047
:10372000569547956A95E1F7242F2F704F705527CE
:103730004A30510508F48AC0295A25A3282F2F7032
:10374000AC014F7055274A30510508F481C0295A01
:1037500026A39C01232F332722952F702A30310571
:1037600008F478C0295A27A3892F9927282F2F706A
:103770008F7099270A9708F46FC0295A20A7B701BC
:10378000A60124E076956795579547952A95D1F738
:10379000842F8F704F705527662777274A30510541
:1037A0006105710508F45AC0895A85A78C2D8F7060
:1037B000B701A6014F705527662777274A30510574
:1037C0006105710508F44CC0895A86A7B701A601A6
:1037D0009CE076956795579547959A95D1F7842FF4
:1037E0008F704F705527662777274A30510561053E
:1037F0007105C0F1895A87A777276F2D5E2D4D2D52
:10380000842F8F704F705527662777274A305105D0
:103810006105710548F1895A80AB80E381AB90E383
:103820009E0D92AB83AB84AB66E2CF014996CF91FC
:10383000FF90EF90DF90CF900C943416805D54CFC2
:10384000805D59CF905D61CF805D65CF205D75CF84
:10385000205D7ECF205D87CF205D90CF805DA5CF9E
:10386000805DB3CF805DC7CF805DD6CF0F931F93B0
:10387000CF93DF93FC0101900020E9F73197E81B1B
:10388000F90BC091C803D091C9038E0106581F4F90
:10389000ED3598F4D801EC936996D8014C9150E03D
:1038A000BC01CE010E946C24F8016081CE01DF9141
:1038B000CF911F910F910C9434162CE5F8012083C1
:1038C000EBCFAF92BF92CF92DF92EF92FF920F9326
:1038D0001F93CF93DF93CDB7DEB728970FB6F89439
:1038E000DEBF0FBECDBF6C01BE016F5F7F4F0E9478
:1038F000AD15C80ED11CBE016B5F7F4FC60101968E
:103900000E94AD1509811A812B813C81B901A80162
:103910004427552777274115510560487105C1F5A2
:10392000780189010027E982FA820B831C83082F22
:1039300010E00E5F1F4F0C0D1D1DD12C8D2D90E042
:10394000B0E0A0E04D815E816F8178858417950796
:10395000A607B70728F08CEE91E00E94361C1CC029
:10396000F80180810E949C155701AD0CB11CC82E36
:10397000C29480EFC822F501C082F80181810E94C3
:103980009C158C29F5018083D3940E5F1F4FD6CFF1
:1039900088EE91E00E94361C28960FB6F894DEBFA0
:1039A0000FBECDBFDF91CF911F910F91FF90EF9090
:1039B000DF90CF90BF90AF900895CF92DF92EF92BB
:1039C000FF920F931F93CF93DF93CDB7DEB7289766
:1039D0000FB6F894DEBF0FBECDBF8C01BE016F5F86
:1039E0007F4F0E94AD1590E00196BE016B5F7F4F47
:1039F000800F911F0E94AD1589819A81AB81BC8196
:103A0000AC01BD014427552777274115510520E812
:103A10006207710509F042C0AA2789839A83AB83A4
:103A2000BC839C01CD80DE80EF80F8846091C80368
:103A30007091C90340E0842F90E0B0E0A0E08C15C5
:103A40009D05AE05BF0570F08091C8039091C90334
:103A50006D81660FFC01E658FF4F608349960E9416
:103A6000341660C0E42FF0E0D901AE0FBF1F8C9177
:103A7000982F92959F709A3068F0995AEE0FFF1F19
:103A8000E60FF71F918F8F708A3030F0895A828F3E
:103A90004F5FD1CF905DF2CF805DF9CF452B462BA4
:103AA000472BE1F5AA2789839A83AB83BC8310E077
:103AB000812F90E0B0E0A0E0CD80DE80EF80F88440
:103AC0008C159D05AE05BF0508F0BECFC980DA8014
:103AD000EB80FC80BC01CD016C0D7D1D8E1D9F1DFA
:103AE0000E949915982F92959F709A3098F0995A44
:103AF000E091C803F091C903212F30E0220F331F5A
:103B0000E20FF31F918F8F708A3030F0895A828FC5
:103B10001F5FCECF905DECCF805DF9CF88EE91E056
:103B20000E94361C28960FB6F894DEBF0FBECDBF9C
:103B3000DF91CF911F910F91FF90EF90DF90CF9089
:103B400008954F925F926F927F928F929F92AF9261
:103B5000BF92DF92EF92FF920F931F93CF93DF9369
:103B6000EC018C015C0120E4A20EB11CF801808103
:103B70000E949C15F82EF80181810E949C15F294F8
:103B8000A0EFFA22F82AF092A3030E5F1F4FA016AF
:103B9000B10661F7F50180810E949C15182F1295DE
:103BA000107FFE01EF5BFF4F80810E949C15812BEF
:103BB0008093C303FE01EE5BFF4F80810E949C1542
:103BC0000091C8031091C903F0E18F9F50011124A7
:103BD000F801B282A182FE01ED5BFF4F80810E945D
:103BE0009C15A82AF801B282A182FE01EC5BFF4F6E
:103BF00080810E949C15E82EF12CFE2CEE24F2947C
:103C000080EFF822EA28FB28F801F282E182FE0127
:103C1000EB5BFF4F80810E949C1590E0982F8827D6
:103C2000E82AF92AF801F282E182FE01EA5BFF4FFD
:103C300080810E949C15D82EFE01E95BFF4F808198
:103C40000E949C15782EFE01E85BFF4F80810E9448
:103C50009C15E82EFE01E75BFF4F80810E949C15BA
:103C6000F82EFE01E65BFF4F80810E949C15882E96
:103C7000FE01E55BFF4F80810E949C15912CB12CC9
:103C8000A12C34E1880C991CAA1CBB1C3A95D1F7D5
:103C900090E0B0E0A0E0DC019927882788299929E5
:103CA000AA29BB299C01AD01272929013A01FE015E
:103CB000E45BFF4F80810E949C1590E0B0E0A0E0A3
:103CC0005CE1880F991FAA1FBB1F5A95D1F7482A9C
:103CD000592A6A2A7B2AC35BDF4F88810E949C1580
:103CE00090E0B0E0A0E0B82FAA2799278827842980
:103CF0009529A629B72930E1D39EA0011124052ECC
:103D0000000C660B770B842B952BA62BB72B4E2D17
:103D100050E0542F44275295507F052E000C660B1F
:103D2000770B842B952BA62BB72B2F2D30E0322F22
:103D30002227A901330F660B770B842B952BA62B1B
:103D4000B72BB695A79597958795F80194838383AC
:103D50008CEE91E0DF91CF911F910F91FF90EF904A
:103D6000DF90BF90AF909F908F907F906F905F900B
:103D70004F900C94361CEF92FF920F931F93CF93AA
:103D8000DF93CDB7DEB728970FB6F894DEBF0FBE2E
:103D9000CDBF8C01BE016F5F7F4F03960E94AD15B2
:103DA00090E00496BE016B5F7F4F800F911F0E94D1
:103DB000AD15F8018181803309F04BC089819A816A
:103DC000AB81BC81B695A795979587957C0120819D
:103DD0002A35E1F52091C8033091C903F901508DCE
:103DE000B9016B5F7F4F452F411113C05830D0F0A0
:103DF0008FEE91E00E94361C28960FB6F894DEBF35
:103E00000FBECDBFDF91CF911F910F91FF90EF902B
:103E10000895FB0101911191BF010E151F0589F055
:103E20004150E2CF41E0450FF901408FE52FF0E02E
:103E3000EE0FFF1FE20FF31F9683858381E0F901E8
:103E4000878B8CEE91E00E94361CD6CF0E94DE1547
:103E5000F8CF87EE91E00E94361CCECF3F924F9272
:103E60005F926F927F928F929F92AF92BF92CF920A
:103E7000DF92EF92FF920F931F93CF93DF93CDB713
:103E8000DEB72A970FB6F894DEBF0FBECDBFE09124
:103E9000C803F091C903108281E694E04C01B12C73
:103EA000A12C8EE594E06C01F12CE12C81E594E0ED
:103EB0002C01712C612C84E494E09C0150E040E0E2
:103EC00029833A834B835C8383E394E09C0150E035
:103ED00040E02D833E834F8358870E946D174091A9
:103EE000C8035091C9035A8749878432C9F040F406
:103EF000833009F445C187EE91E00E94361CEDCF76
:103F00008B3209F434C18D32B1F7E985FA85E65870
:103F1000FF4F608189859A8549960E943416DDCFCE
:103F200009851A8506581F4FD8011C920E946D17EB
:103F3000312CF8019081E985FA85E90FF11D833272
:103F400099F4118E0E946D170E949C15182F1295DE
:103F5000107F0E946D170E949C15812B381661F00E
:103F60008DE20E942D16B9CF9F5FD8019C93818F5F
:103F7000380E0E946D17DDCF8BE20E942D16098549
:103F80001A85075E1F4FA985BA8559968C918A3587
:103F900009F49EC008F055C0873409F482C008F0C7
:103FA00043C08F3309F475C0843409F0A4CF8CEE7C
:103FB00091E00E94361C81E0E985FA85E558FF4FC3
:103FC0008083A985BA858C91811105C057968C9103
:103FD000882309F4C8C0809169008C7F80936900B0
:103FE0008AB184608AB98CB381608CBB8DB38160E7
:103FF0008DBB8BB18B7F8BB92A960FB6F894DEBF41
:104000000FBECDBFDF91CF911F910F91FF90EF9029
:10401000DF90CF90BF90AF909F908F907F906F90E8
:104020005F904F903F9008958D3409F446C08435D9
:1040300019F0883409F05FCF8CEE91E00E94361CB5
:104040004CCF8D36A1F178F4873641F18B3609F4E7
:10405000AECF833609F04FCF81E0E985FA85E55888
:10406000FF4F8083AECF833771F18A3789F1813773
:1040700009F041CF2AE030E0B501A401C8010E9457
:104080001D24892B49F56DE087EF91E00E943416DD
:1040900024CF83EF91E00E94361C1FCF0E9463164D
:1040A0001CCF89859A854A960E94A11D16CF8985C5
:1040B0009A854A960E94DD1C10CF89859A854A967A
:1040C0000E94611C0ACF81E0E985FA85808379CF5F
:1040D000C8010E94BB1E01CF22E030E0B701A6015B
:1040E000C8010E941D24892B29F485E092E00E94DA
:1040F000361CF3CE2CE030E0B301A201C8010E94CF
:104100001D24892B29F48AE092E00E94361CE5CE1A
:104110002CE030E049815A816B817C81C8010E948A
:104120001D24892B29F48DE092E00E94361CD5CE07
:1041300020E130E04D815E816F817885C8010E9469
:104140001D24892B09F0D7CE8CEE91E00E94361CFD
:1041500088E198E00FB6F894A895809360000FBEB0
:1041600090936000FFCF8DB38E7F8DBB45CFE985E7
:10417000FA85E558FF4F8081882309F4AECE3CCF05
:1041800029853A8525583F4FD9011C9282E00E942B
:104190004A1BA3CE6FEF7FEF81E090E00E948E1567
:1041A0006FEF7FEF81E090E00E94871708951F92E4
:1041B0000F920FB60F9211240F931F932F933F93DB
:1041C0004F935F936F937F938F939F93AF93BF931F
:1041D00000911205109113052091140530911505D9
:1041E00090911105B901A8014F5F5F4F6F4F7F4F4D
:1041F00083E0890F8D3740F086E8890FB901A80167
:104200004E5F5F4F6F4F7F4F8093110540931205B4
:10421000509313056093140570931505809116054E
:1042200090911705A0911805B09119050196A11D4F
:10423000B11D8093160590931705A0931805B093B0
:104240001905BF91AF919F918F917F916F915F9170
:104250004F913F912F911F910F910F900FBE0F9093
:104260001F9018950E946F030E94981A0E946E1A60
:1042700080E090E0892BD1F30E940000F7CF1F92DD
:104280000F920FB60F9211242F933F934F935F938A
:104290006F937F938F939F93AF93BF93EF93FF930E
:1042A000E091B900E87FE93C08F0D5C0F0E0E55ABC
:1042B000FE4D0C944C2420232B222B222B222B222C
:1042C0002B222B222B2224222B222B222B222B228D
:1042D0002B222B222B2224222B222B222B222B227D
:1042E0002B222B222B223C222B222B222B222B2255
:1042F0002B222B222B2262222B222B222B222B221F
:104300002B222B222B223C222B222B222B222B2234
:104310002B222B222B2268222B222B222B222B22F8
:104320002B222B222B226E222B222B222B222B22E2
:104330002B222B222B2280222B222B222B222B22C0
:104340002B222B222B22AA222B222B222B222B2286
:104350002B222B222B2274222B222B222B222B22AC
:104360002B222B222B228E222B222B222B222B2282
:104370002B222B222B22AD222B222B222B222B2253
:104380002B222B222B22AD222B222B222B222B2243
:104390002B222B222B22AD222B222B222B222B2233
:1043A0002B222B222B22AD222B222B222B222B2223
:1043B0002B222B222B22B6222B222B222B222B220A
:1043C0002B222B222B22E7222B222B222B222B22C9
:1043D0002B222B222B22B6222B222B222B222B22EA
:1043E0002B222B222B22E7222B222B222B222B22A9
:1043F0002B222B222B22CE222B222B222B222B22B2
:104400002B222B222B22EB222B222B222B222B2284
:104410002B222B222B22EB222B222B222B222B2274
:104420002B222B222B2200232B222B222B222B224E
:104430002B222B222B221A232B222B222B222B2224
:104440002B222B222B221A23809183048093BB00E2
:1044500081E00E948810FF91EF91BF91AF919F91F1
:104460008F917F916F915F914F913F912F910F901D
:104470000FBE0F901F901895909182048091810437
:10448000981768F080916004811119C081E08093D1
:104490005F0484EA8093BC0010925E04DCCFE0915C
:1044A000820481E08E0F80938204F0E0EF59FB4F8D
:1044B00080818093BB0081E00E948810CCCF0E9455
:1044C0000D1BC9CF80E280935D040E940D1BC3CFFA
:1044D00080E380935D040E940D1BBDCF88E3809331
:1044E0005D040E948210B7CFE091820481E08E0FBC
:1044F00080938204F0E08091BB00EF59FB4F8083F2
:104500009091820480918104981720F481E00E94A8
:104510008810A1CF80E00E9488109DCFE091820496
:1045200081E08E0F80938204F0E08091BB00EF5910
:10453000FB4F808380916004811109C081E08093EA
:104540005F0484EA8093BC0010925E0484CF0E94D2
:104550000D1B81CF0E940D1B7ECF83E080935E04F4
:1045600010925C0481E00E94881075CF80915C04F9
:10457000803280F4E0915C0481E08E0F80935C04D3
:10458000F0E08091BB00E45CFB4F808381E00E94FF
:10459000881061CF80E00E9488105DCF0E94821059
:1045A00080915C04803230F4E0915C04F0E0E45CE3
:1045B000FB4F108260915C0470E0E0913A04F0914E
:1045C0003B048CE394E0099510925C0444CF80E0B6
:1045D0000E94881040CF84E080935E0410923904DA
:1045E00010923804E0913604F091370409958091D7
:1045F0003804811105C081E08093380410921604BC
:10460000E091390481E08E0F80933904F0E0EA5E96
:10461000FB4F80818093BB009091390480913804D6
:10462000981720F481E00E94881015CF80E00E9446
:10463000881011CF81E00E94881010925E040BCF89
:1046400010925D040E940D1B06CF0F920FB6F894D6
:104650000092C3030F90F093C203E093C103F3E011
:10466000E3EAD58FC48FD0E0C0E0B38FB991B193A6
:10467000CB31E1F7BF91AF91A087B187ADB7BEB79E
:10468000A683B783112482EA93E09EBF8DBFE3EA3D
:10469000F3E084A18F7384A3A091C803B091C903F0
:1046A00083A194A114969C938E93139781A192A1B8
:1046B00012969C938E9311978C9181113EC05796C0
:1046C0008C915797882309F444C08091C0008823B7
:1046D000A4F40E946D1780935203833071F4E0912B
:1046E000C803F091C903E558FF4F108282E00E9491
:1046F0004A1B8DB38E7F8DBB2CC01092520311C00C
:10470000E82FF0E0EE0FFF1FEA0FFB1F45815681F7
:1047100013962D913C914217530779F08F5F809348
:104720005203A091C803B091C90358969C91589721
:1047300080915203891720F30CC0E091C803F091D7
:10474000C903E558FF4F108285E00E944A1B0E9472
:104750002E1FF3E0E3EAD0E0C0E0B191B993CC3191
:10476000E1F7D581DDBFD681DEBFD781DF93D0856C
:10477000DF93C081D181E281F091C303FFBFF0914B
:10478000C20318950F920FB6F8940092C3030F90CE
:10479000F093C203E093C103F3E0E3EAD58FC48F43
:1047A000D0E0C0E0B38FB991B193CB31E1F7BF91C5
:1047B000AF91A087B187ADB7BEB7A683B7831124E9
:1047C00082EA93E09EBF8DBFE3EAF3E084A18F739A
:1047D00084A3A091C803B091C90383A194A11496A6
:1047E0009C938E93139781A192A112969C938E9382
:1047F00011970E942E1FF3E0E3EAD0E0C0E0B191F0
:10480000B993CC31E1F7D581DDBFD681DEBFD78149
:10481000DF93D085DF93C081D181E281F091C30322
:10482000FFBFF091C2031895FB01DC0102C00590A7
:104830000D9241505040D8F70895FA01DC0104C0B0
:104840008D910590801921F421503040C8F7881BC4
:10485000990B0895A1E21A2EAA1BBB1BFD010DC0E6
:10486000AA1FBB1FEE1FFF1FA217B307E407F50720
:1048700020F0A21BB30BE40BF50B661F771F881FFC
:10488000991F1A9469F760957095809590959B0192
:10489000AC01BD01CF010895EE0FFF1F0590F4910B
:1048A000E02D09940E945D24A59F900DB49F900D6A
:1048B000A49F800D911D11240895A29FB001B39F64
:1048C000C001A39F700D811D1124911DB29F700D19
:1048D000811D1124911D0895FB01DC0102C001908E
:1048E0000D9241505040D8F70895DC0101C06D93FE
:0C48F00041505040E0F70895F894FFCFCD
:1048FC00000000000C18E0174F184E1800000000C4
:10490C000C18E0174F184E184708450965090000A8
:10491C000000651335134F180A132E131A130B13BB
:10492C001815A015C019FF1815A115C819FF1815D1
:10493C00AE19FF1815AF19FF0001140A6464323266
:10494C0000093D0003042896100802028000400074
:10495C001815AE15D5168015A8163F15D3160015CB
:10496C0040158D16141520160015A115C815DA164C
:10497C0012158116CF15D916F115DB1640152E150B
:10498C00A415A619FF46313A0046323A0046333A8E
:10499C000046343A00434C523A0046353A0046360B
:1049AC003A0046373A0046383A004E49523A0041EE
:1049BC00533734333120496E6974696E67202E2E5B
:1049CC002E00526561647920666F72206D6561738B
:1049DC00757265696E672000453035004F4B004598
:1049EC00353000533035005061636B657453697A10
:1049FC00653D36300051433031006D31006C0000A4
:00000001FF
