:100000000C947A050C94A2050C94A2050C94A205FC
:100010000C94A2050C94A2050C94A2050C94A205C4
:100020000C94A2050C94A2050C94A2050C94A205B4
:100030000C94A2050C94A2050C94A2050C94A205A4
:100040000C94C8170C94A2050C94A2050C94A2055C
:100050000C94A2050C94A2050C94A2050C94A20584
:100060000C94A9160C94A2050000000023002600A1
:10007000290000000000240027002A0000000000E2
:10008000250028002B0004040404040404040202D4
:100090000202020203030303030302020301020438
:1000A00008102040800102040810200102040810FA
:1000B0002040804000000009000302000004050801
:1000C00000000000000000000000005F00030203C9
:1000D00004030504050A00FE07FE0700014202882A
:1000E00003B6200500620721073943C7A004220791
:1000F0009B52476209230E3D424F294906A53228EB
:10010000A52401240C3D4257B6D4B624D92200259B
:100110000C3D424FA474ABB4480900260D3D424F3C
:100120009644495649A4480927061953C700280888
:10013000BB425752AA152909BB424756AA94002A26
:100140000A2D4647965406A52D2B0A2D4657180D05
:100150005218012C079B3E8F52022D060D4EC720D0
:100160002E089B3E4FB224002F083D4267AD630826
:10017000300B3D425796D46C492D02310A3D42570F
:10018000262561D320320C3D42CF92859194858300
:1001900000330C3D42C7206699AA250B00340C3D64
:1001A000425F2625A564D0C204350B3D42C73131DC
:1001B000855AB200360C3D4297948589494B16000A
:1001C000370B3D42C720666156CC00380C3D42CF0C
:1001D0009269C99269C902390C3D42CF92498A128B
:1001E0006691043A0ABB3E4FB2A4C992003B09BBD8
:1001F0003E4FB2A44A093C08BC425FD4D8003D0837
:100200001D4AC7A00E023E08BC4247D8D4063F0A8A
:100210003D42CF9235E65004400C3D42CF92494BCF
:1002200062491700410C3D425796D4B461C8B400EE
:10023000420D3D42C71055A264AA448302430A3DC1
:1002400042CF92896DC902440F3D42C71055A22486
:100250004AA2241A1400450B3D42C7311C92301C9F
:1002600004460A3D42C7311C92B008470B3D42CFBD
:100270009289A52D5900480A3D4247661B86CC1637
:100280004908BB42C71275194A0A3D42D716B644FF
:1002900091044B0D3D42472625252D892A59004CB6
:1002A000083D4247D8E3204D0B3D4247A62D4BA2C7
:1002B000D9024E0C3D4247A64D4A226D5A004F0AC4
:1002C0003D42CF92794B1600500C3D42C79064DA04
:1002D000A0844500510A453ECF9279A9AC01520D48
:1002E0003D42C79064DAA0942A5900530B3D42CF97
:1002F00092A9AB962C0054093D42C720853D01557B
:10030000093D4247E65BB200560D3D4247664B4A07
:100310004994641100570A3D4247E69228C92D5876
:100320000B3D4247A625B54A4D0B590A3D4247A60B
:1003300025B5B0095A0A3D42C720661D07015B0872
:10034000BB42C710751A5C083D424798760C5D08A1
:10035000BB42C7D469085E081D525796D4025F0697
:100360000D3EC7206006125B4714610A2D42CF9AEA
:100370000C5A3204620B3D424758316993A2006324
:100380000A2D42CF928959B200640A3D4267C5B432
:10039000498A12650A2D42CF920D43BA00660B3D81
:1003A000429754C98628AC01670C3D3ACFA069C971
:1003B000106AC902680A3D4247583169B6006908A7
:1003C000BB424F28B50C6A0BCC3A5FACD5242951FF
:1003D000006B0B3D4247589392A992056C08BB42B3
:1003E00087D4CB006D0B2D4287D2A2244AA2056E82
:1003F000092D424762D26C016F092D42CF92D992EA
:1004000005700C3D3A4762D22645094300710A3D0A
:100410003A8F699314252C72092D424762128B0082
:1004200073092D42CF921E1400740C3D424F980D5B
:1004300051588A140075092D4247E6A42801760B0D
:100440002D4247A625A5248B00770A2D42476649F1
:10045000942E00780A2D424796D42AB500790C3D97
:100460003A47665294504B16007A092D42C7A0B500
:100470000D027B0ABC4297122662140A7C0639439D
:10048000C7217D0BBC428718854A9848007E091D0C
:10049000524FA424520200000004FFFF00005F003E
:1004A00003030404030505100FFEFD0BFD0BFE0105
:1004B000C2046706362005008C142109B285140792
:1004C0004ACC00220843BD15112D012316A78478BC
:1004D00091602418099922C148C8140946829118CC
:1004E000002417D77C78C18A24328A5062C4222D16
:1004F00042094D2292620C00251FBC845DC2A0847B
:10050000284A1445A292505814138724C1902818E1
:1005100012C56292605004261BBC847D7480482CF6
:10052000128BE2903984340A8D42329A70442B95B2
:100530004400270641BD1304280DD47475A19028EA
:10054000A4B7982C18290ED47415C1982C26D2293A
:10055000244A032A0B55B4562929934C21002B0B0E
:10056000778C78E1B45B380D002C085275141609AD
:10057000002D07249C1587002E06328514062F0DAA
:10058000B48475996249B1A4580C00300DB78458F1
:1005900033891ABF49D446003109B58558129AFEED
:1005A00044320DB7843824514DAAA8DBE110331032
:1005B000B7843824514D2A9491A534D2840434113F
:1005C000B78498C2B5882C220A894292A354483530
:1005D00011B784389652386524994A69A4090900EC
:1005E0003610B7845824118D2A59A9B195242400B6
:1005F000370FB784180FC1484C2A942A4AD50038BF
:1006000011B78438A4118D6689912236A611050090
:100610003910B7845814518DADB222A591442400ED
:100620003A0772851426033B09927514268B040041
:100630003C0A778CD8C1D1F272003D08379C1877FC
:10064000C0013E0A778C18E14D8B61003F0EB684E5
:100650003714114928538C033501401DBD849ED6A3
:10066000E14836922849482A1491882292689928AC
:1006700049867248EC20024117BA849B72881C108C
:100680001147C4A1684C1813DAA2A2A86446421507
:10069000B9841A3725994826523B092542895022A8
:1006A0003B8C004317BA847B95C850229E03E6100A
:1006B00039440E9183C491A1AC044419BB841C87B6
:1006C000A070241589256289582296882552917038
:1006D0007288014517B9841A078950228D885244BF
:1006E000C1A228284A91468407024617B9841A07EE
:1006F0008950228D885244C1A228280ACA01622A40
:10070000004719BB847C95D050248EC8011139480C
:100710000E129E4552D16C488A004818BB841C3486
:100720008A542415494552D14124154945529154C2
:1007300042234909B485171491FE424A0EB78479C1
:1007400044A95E44129124B4064B18BB841C249225
:1007500030288B8AC29238A02C998A86B29970422E
:100760002A4C17B9841A6439400E9003E4003940CA
:100770000E9046A411E181004D24BD841E54CA741C
:10078000341D45641151441611456411514812122B
:1007900085242151481212C5544622024E1CBB84A6
:1007A0001CD3C934440C4566A1902C1413A54D42AA
:1007B00041527414968C23004F18BB847CC5D948D1
:1007C0002A9103E8003A800EA0032452D16C58030A
:1007D0005017B9841A87906C22940825B2894D0E5F
:1007E0009003E400311500511FEB6C7CC5D9482AF9
:1007F0009103E8003A800EA0CC2422896844AC839F
:1008000044E1491C30015217BB841C87A06C26941C
:1008100009658A5699502654134A6A13005312B92F
:10082000845A94C84C228D482364E7319152025473
:1008300017BA841B879268A62D2887C82172881C46
:100840002287C80134005518BB841CC48938240E83
:100850008943E29038240E8943E298305A035619AE
:10086000BA841BB48934248DC982B2A02C2A094BC6
:10087000C29238400E11025724BD841E14CA442669
:100880000BC96421992C268948829288242889489A
:10089000829288242A13CBC4321900581BBB841CB3
:1008A00025CA50268C8AE200491C300744E4809017
:1008B0003428134E48055919BA841BB48934260BC1
:1008C000CAA292B0240E9043E41039440EA0015AFB
:1008D0000FB8841987E19036D53A230E0F035B09D0
:1008E000D4741526FD27025C0FB68417D170341C12
:1008F0000D47C3D170005D09D4741524FD27035E34
:100900000F77A478E1E830129388621199005F06AE
:1009100017741707600834C516326100610E7884B9
:1009200059349158569149442B036218B9841A736B
:10093000801C2007C80192D94851229408253251C1
:100940008404630E77845824118D2A8C8844140003
:100950006417B984BA73801C2007C82622D14428A2
:10096000114A8422D16C32650F78845934914478CD
:10097000A80364A20A00660DB6845623896E25A1D9
:100980006E24006710B76CB8928A8C26A9844D57E4
:10099000A1A4026817B9841A73801C2007C80192A9
:1009A000D9484D2413C944320903690AA484352265
:1009B000E9482F046A0DD56A75EA8099BE5124135F
:1009C000006B11B88419639D262215195122134911
:1009D00046036C09B4841523FD0B016D127E841F40
:1009E00093D16C3452539229C994642A1C6E1079A5
:1009F000841A93D9484D2413C9443209036F0E78E1
:100A00008459349144C82811C948007014A96C1A3B
:100A100093D94851229408252395991C20A6027148
:100A200016A96C59949068229408254291683691D1
:100A300003E4003101720B7784179315558D340050
:100A4000730A7684373722DB0500740FA68456D1EB
:100A5000A0AC24D41411852600751179841AA391B1
:100A60004C2413C944329168361976107883179450
:100A7000892C248B498292A8580677187D831C14F0
:100A8000CA44260BC96431494412944424519958EC
:100A90002603780F788419A389484695D26292D1AB
:100AA000007914A86B1794892C248B498292A8583A
:100AB0001C9404A7007A0876841737BD1D7B0DD5DA
:100AC0007476A298B6D4A04C312A7C07B187180757
:100AD000027D0FD57416D2A04C311A8B690BC90058
:100AE0007E0927A43813CA040000000004FFFF0099
:100AF0000000121811241FBECFEFD8E0DEBFCDBF1B
:100B000011E0A0E0B1E0E8EDF5E302C005900D9240
:100B1000AE3AB107D9F723E0AEEAB1E001C01D92C9
:100B2000AF3BB207E1F715E0CAE7D5E004C0219773
:100B3000FE010E94CE1AC937D107C9F70E94D0180A
:100B40000C94EA1A0C940000662329F06A3019F01C
:100B5000862F90E008958FEF9FEF0895CF92DF9258
:100B6000EF92FF920F931F93CF93DF93EC01842FAB
:100B70008770E1E0F0E0082E01C0EE0F0A94EAF77A
:100B80003E2F7E0199E7E90EF11CD7019C9110E000
:100B9000923018F41E2F913029F150E0487FE8ADD3
:100BA000F9ADC880D980D60150969C91949F600180
:100BB000959FD00C11246C0D7D2D711DDF01A60FAA
:100BC000B71F011115C08C91812B83278D93215064
:100BD000D1F7DF91CF911F910F91FF90EF90DF90B0
:100BE000CF90089530E0D9CF110F330F222389F32E
:100BF0009C91912B93279C938F5F8770215081113B
:100C0000F3CF9CADA90FB11DF7019081923028F46C
:100C1000913009F031E011E0E9CF31E0E7CF80E039
:100C2000089580E00895982F2091900281E021326C
:100C300008F043C080916C028111FCCF80918F023B
:100C400032E030936C0290936B029FEF90936A02B4
:100C50001092690220936802AFE6B2E0E8E4F2E0A5
:100C600090E0291331C01092470290914702880FFB
:100C7000892B8093470280914602813049F510927A
:100C80004602809147028093BB008091BC0083FDA7
:100C9000F8CF85EC8093BC0080916C028230E1F348
:100CA00080916A028F3FB1F080916A028032A1F098
:100CB00080916A02803391F084E010926E0210926B
:100CC000900210926D0208953D9131939F5FC9CFBC
:100CD00085EEE0CF80E0F1CF82E0EFCF83E0EDCF93
:100CE00080916C0390916D03892BA1F180918A030F
:100CF0008093960340918B034093970390919503C3
:100D0000992341F1913069F490918C03891714F47F
:100D10009093960380918D038417E4F48093970356
:100D200008953091870320918903082E000C990BB8
:100D3000622F022E000C770B630F711D37FD7A9521
:100D4000861797071CF4320F30939603241714F478
:100D50002093970308959B01DC011896ED91FC9177
:100D600041E067E109941F93CF93DF93EA01122FCB
:100D7000DC0111968D919C91DC01ED91FC9102803A
:100D8000F381E02D0995C817D90729F4812F0E9416
:100D9000130691E0811190E0892FDF91CF911F918F
:100DA000089585ED8093BC008091BC0084FDFCCF4C
:100DB00010926C0208952091FF01260F3327331FF4
:100DC00021323105ECF420916C02FC0190E080E0CE
:100DD000243069F082E00895A091FF012191AC01D7
:100DE00043525E4FA40FB52FB11D2C930196861769
:100DF00098F38091FF01680F6093FF0180E00895F0
:100E000081E00895089508950895E0912502809164
:100E10002402E81730F4F0E0EA5DFD4F808190E0B5
:100E200008958FEF9FEF08959091250280912402FD
:100E30002FEF3FEF981748F4E92FF0E0EA5DFD4F00
:100E4000208130E09F5F90932502C9010895809131
:100E5000240290912502891B990B0895CF92DF926D
:100E6000EF92FF920F931F93CF93DF937C01CB01FF
:100E70008A0120916D02222389F0EB016B01C40EDF
:100E8000D51ECC15DD0569F06991D701ED91FC9176
:100E90000190F081E02DC7010995F3CF642F0E94E6
:100EA000DB06C801DF91CF911F910F91FF90EF906A
:100EB000DF90CF900895CF93DF931F92CDB7DEB729
:100EC000698320916D022223F9F020919002203253
:100ED00058F021E030E0FC013383228390E080E091
:100EE0000F90DF91CF91089580916E02E82FF0E08E
:100EF000E159FD4F998190838F5F80936E028093BB
:100F0000900281E090E0ECCF61E0CE0101960E947A
:100F1000DB06F7CF843081F028F48230E9F08330AB
:100F2000F9F00895883071F0893091F08530B9F486
:100F3000809180008F7D03C0809180008F778093A7
:100F4000800008958091B0008F778093B00008955D
:100F50008091B0008F7DF9CF84B58F7784BD0895DF
:100F600084B58F7DFBCF1F93CF93DF93282F30E085
:100F7000F901EC54FF4F8491F901E356FF4FD491EE
:100F8000F901EA57FF4FC491CC23A9F0162F811124
:100F90000E948A07EC2FF0E0EE0FFF1FE458FF4F8E
:100FA000A591B4918FB7F894EC91111108C0D09528
:100FB000DE23DC938FBFDF91CF911F910895DE2B4D
:100FC000F8CFFC0183858F3F11F00C94B30708958F
:100FD000CF93DF9390E0FC01E356FF4F24918A57B3
:100FE0009F4FFC0184918823D1F090E0880F991FD6
:100FF000FC01EE58FF4FA591B491FC01E458FF4F5E
:10100000C591D491623071F49FB7F8943C91822FCE
:10101000809583238C93E8812E2B28839FBFDF91BB
:10102000CF9108958FB7F894EC912E2B2C938FBF0E
:10103000F6CF8230910538F0880F991F880F991FDD
:1010400005970197F1F70895AF92BF92CF92DF9283
:10105000EF92FF920F931F93CF93DF93EC01888160
:101060009981892B89F06EBD0DB407FEFDCFBEB40A
:101070008B2DDF91CF911F910F91FF90EF90DF901B
:10108000CF90BF90AF9008958885998511E0892B06
:1010900009F010E8AA24A394862F812309F0A12C3B
:1010A000062F2C813D814E815F8160E271EA87E0ED
:1010B00090E00E94A11AF22EB02EE12CC22ED12C6B
:1010C000FF2019F0C6010E9419088A85877F09F060
:1010D00042C08D858F3F89F0902F912381E009F4E4
:1010E00080E08A1551F0EF85F8898F89992369F19D
:1010F0009081892B8083AA24A394E989FA8980812D
:10110000998D892B8083FF2019F0C6010E94190850
:101110008E858F3F39F0EB89FC898081988D8923FA
:1011200009F0E12AE989FA899081898D80958923DE
:1011300080838E858F3F09F0BE2C88859985892B09
:10114000B9F5110F1111BCCF93CF908180958923F0
:101150008083A12CD2CFE989FA898081998D892B4E
:101160008083FF2019F0C6010E9419088D858F3FEA
:1011700049F0EF85F8898F89902F9123A9F090810C
:10118000892B8083E989FA899081898D80958923CB
:1011900080838E858F3F69F2EB89FC898081988DF1
:1011A000892339F2E12AC5CF908180958923E9CF3F
:1011B0001695C8CF3FB7F8948091D9019091DA0184
:1011C000A091DB01B091DC0126B5A89B05C02F3FA3
:1011D00019F00196A11DB11D3FBFBA2FA92F982F5D
:1011E0008827BC01CD01620F711D811D911D42E058
:1011F000660F771F881F991F4A95D1F708958F9220
:101200009F92AF92BF92CF92DF92EF92FF926B01CB
:101210007C010E94DA084B015C01C114D104E10495
:10122000F104B9F00E94DA08681979098A099B0962
:10123000683E73408105910580F321E0C21AD10810
:10124000E108F10888EE880E83E0981EA11CB11C0D
:10125000E4CFFF90EF90DF90CF90BF90AF909F9042
:101260008F900895DC011A96ED91FC9130E020E01A
:101270000994DC011696ED91FC9130E020E040E00D
:1012800069E10994DC011696ED91FC9130E020E0D3
:1012900040E068E109949A01DC011696ED91FC9119
:1012A000462F67E10994EF92FF920F931F93CF931C
:1012B000DF931F92CDB7DEB77C018B01D8016C9113
:1012C000673129F150F46531A0F40F90DF91CF918F
:1012D0001F910F91FF90EF9008956A3118F16E3FC2
:1012E000A1F7F8014181498369E2C7010E943209EF
:1012F0000BC0F80141814983D7011696ED91FC910D
:1013000030E020E0C70109950E5F1F4FD7CFF801ED
:1013100081818983AE014F5F5F4F61E0C7010E9409
:101320004B09F2CF0F5F1F4FD7011696ED91FC913D
:1013300030E020E040E0C7010995C0CF462FDC0136
:101340001696ED91FC9130E020E066E10994462F7D
:10135000DC011696ED91FC9130E020E065E1099406
:10136000EF92FF920F931F93CF93DF93EC01042F23
:1013700079016D3009F446C050F46B30C9F1693021
:1013800009F49FC06A3009F465C080E046C06E3041
:1013900009F452C06F3099F70E944209F701138196
:1013A000110F110F110F6C89160F60E4CE010E940E
:1013B000A709612F62956F706061CE010E94A70935
:1013C000612F6F70CE010E949E09F7016481606BEE
:1013D000CE010E949E09F701408151816281660F12
:1013E000660F660FCE010E944B090150A1F72EC077
:1013F00063E171E0442311F06EE071E0CE010E94E0
:1014000053090AC0411110C067E071E00E945309FE
:10141000E881F98182898C8B81E0DF91CF911F91E6
:101420000F91FF90EF90089560E071E00E945309E2
:10143000E881F9818389EFCF0E94420961E8CE01FA
:101440000E94A709602FCE010E949E09CE010E9432
:101450003909E2CFEA85FB8530E020E040E068E230
:10146000CE010995EE81FF8130E020E040E064E1AB
:10147000CE01099541E06BE4CE010E943209E8817A
:10148000F981448169E2CE010E94320940E06BE4B7
:10149000CE010E943209E881F981448169E2CE01DE
:1014A0000E94320941E06BE4CE010E943209E881DA
:1014B000F981458169E2CE010E94320968E171E05B
:1014C0009DCF8DE491E0998388831C8AA5CFDC01B0
:1014D0001896ED91FC9130E020E040E069E109943C
:1014E000DC011896ED91FC9130E020E040E068E1ED
:1014F0000994CF93DF931F92CDB7DEB76983BE0106
:101500006F5F7F4F0E94AB060F90DF91CF910895E0
:10151000EF92FF921F93CF93DF93EC01162F7A0186
:101520000E94700A60E4CE010E94790AE885F9857C
:101530009701412F67E1CE010995CE01DF91CF914F
:101540001F91FF90EF900C94670AEF92FF921F9308
:10155000CF93DF93EC01142F7901663181F138F4D8
:10156000643109F44BC0653179F080E022C0683104
:10157000C9F150F16931C9F78091D301882391F104
:10158000CE010E94670A2EC08091D301882319F0F2
:10159000CE010E94670ACE010E94700A60E0CE016F
:1015A0000E94790A612FCE010E94790A81E080931E
:1015B000D301DF91CF911F91FF90EF900895642F99
:1015C0000E94790A81E0F5CF8091D301882319F038
:1015D000CE010E94670AA701193138F4612FCE01AC
:1015E0000E94880A1092D301EDCF68E1CE010E94DB
:1015F000880A185188E1E80EF11CEDCF8E898F3FE3
:1016000011F488E78E8BE885F9859701412F64E115
:10161000CE01DF91CF911F91FF90EF9009940F932E
:10162000DC01DE963C91DE97431BD496ED91FC9154
:1016300009950F910895CF93DF93FC01A081B181AB
:1016400082AD982F990F990F990F95AF50969C9155
:101650005097903208F09FE1990F990F990F94AF2E
:1016600023AD922F990F990F990F96AF51963C91F8
:101670005197682F620F7727771F3617170614F4D4
:10168000832F821B97AFEF01C05CDF4F880F880F5D
:10169000880F890F8883219680EF888354968D91D7
:1016A0009C915597813F910508F48883EE5BFF4F2D
:1016B00056968C918083DF91CF9108950F93FC0112
:1016C000EB5BFF4F308131965081451730F4301776
:1016D00038F0041728F080E013C03017D0F3FBCFA8
:1016E000FC01ED5BFF4F30818C5B9F4FFC018081E3
:1016F000681740F481E0321718F081E0261758F798
:101700000F9108953217C8F3E6CF2F923F924F9270
:101710005F926F927F928F929F92AF92BF92CF9281
:10172000DF92EF92FF920F931F93CF93DF93EC0121
:101730004C0183E4880E911CF401108232972080C2
:101740005E01F4E4AF0EB11CF50120823FAC6E01E6
:10175000F5E4CF0ED11CF6013082359740807E0132
:10176000F6E4EF0EF11CF7014082349610813297B7
:1017700060803196708032975080012F262D472D42
:10178000652DCE010E945E0BCD58DF4F811114C034
:101790001882DF91CF911F910F91FF90EF90DF9012
:1017A000CF90BF90AF909F908F907F906F905F9001
:1017B0004F903F902F90089581E08883552011F03D
:1017C000F4015082621410F4F5016082371410F4B1
:1017D000F60170821415E8F6F7011083DACF0F9343
:1017E000DC01802FFD01ED58FF4F90819923E9F135
:1017F0002223D9F1223020F0023079F56F5F621B8D
:10180000082F0170FD0180FD32C0EB5BFF4F80812E
:10181000481758F131968081481738F532979081F2
:1018200031978081260F2617F0F46917D8F42FEF2F
:10183000290F8217D0F4681708F4682F291708F4C5
:10184000922F961BD696ED91FC91D7970480F58147
:10185000E02D292FCD01099508C0033089F64F5F8F
:10186000421BCECF682F691720F30F910895ED5BCF
:10187000FF4F80816817C8F3319680816817A8F7F9
:101880003296908131978081240F241778F449177C
:1018900060F42FEF290F821740F7481708F4482FFC
:1018A000291708F4922F941BCDCF482F4917E8F63B
:1018B000F2CF213039F020F0223031F0840F08953A
:1018C000860F0895841B0895861B0895213039F0F2
:1018D00020F0223031F0861B0895840F0895860F82
:1018E0000895841B08955F926F927F928F929F92CA
:1018F000AF92BF92CF92DF92EF92FF920F931F931E
:10190000CF93DF935C01162F642EEC01C15BDF4F98
:10191000DC80ED804C0189E7880E911CFE80FD186B
:10192000C12EF11608F4CF2C5B800C85202F4E2D94
:101930006D2D8A810E94590C782E202F4E2D6D2DF1
:10194000852D0E94660C482F662071F08A85F4016F
:1019500080832C2D672DC5010E94EF0B1F1548F0C9
:101960001F19E394D12CDACF89858111F7CF8B85AC
:10197000EECF1D0D1C83ED82DF91CF911F910F9152
:10198000FF90EF90DF90CF90BF90AF909F908F909F
:101990007F906F905F900895DC0118964C91189796
:1019A000ED91FC911197249130E0042E02C0359501
:1019B00027950A94E2F7842F860F883068F03196D5
:1019C0001196FC93EE93E49198E0941B01C0EE0F06
:1019D0009A95EAF72E2B885018968C938FEF9FEFED
:1019E00001C0880F6A95EAF7809582230895FC016B
:1019F000E60FF11D849190E0982F88273196E491AD
:101A00008E0F911D0895CF93DF93EC01FC0184911B
:101A100080937D033196E491E0937E03FE0132963C
:101A2000E491E0937F03FE013396E491E093800319
:101A3000FE013496E491E0938103FE013596E49132
:101A4000E0938203FE013696E491E0938303FE0166
:101A50003796E491E0938403FE013896E491E09395
:101A60008503FE013996E491E0938603FE013A96E0
:101A7000E491E0938703FE013B96E491E0938803B1
:101A8000FE013C96E491E0938903FE013D96E491CA
:101A9000E0938A03FE013E96E491E0938B03FE01FE
:101AA0003F96E491E0938C03FE017096E491E093FD
:101AB0008D0361E1CE010E94F70C90938F03809318
:101AC0008E0363E1CE010E94F70C90939103809303
:101AD000900365E1CE010E94F70C909393038093ED
:101AE0009203DF91CF9108956F927F928F929F9290
:101AF000AF92BF92CF92DF92EF92FF920F931F931C
:101B0000CF93DF93EC01062F142F7901FC01E55AE6
:101B1000FF4F8081813009F445C0D0F1823009F453
:101B20004BC0833009F452C0FE01EF5AFF4F0083CF
:101B30003196108337978081918147962FEFE21677
:101B4000F10411F008F0E6C0E1E6EE16F10408F445
:101B500047C0FE01E159FF4F20813181820F931F61
:101B60009C012F5F3F4FF9014491411142C0712CFC
:101B7000872DDF91CF911F910F91FF90EF90DF9014
:101B8000CF90BF90AF909F908F907F906F9008956F
:101B9000FE01E35BFF4F0190F081E02DCE0109953E
:101BA000180FC2CFFE01E35BFF4F0190F081E02DE3
:101BB000CE010995081BB8CFFE01E35BFF4F0190F2
:101BC000F081E02DCE010995181BAECFFE01E35B3D
:101BD000FF4F0190F081E02DCE010995080FA4CFB1
:101BE000F1E4EF16F10408F4BBCFFE01E359FF4F17
:101BF000B3CFFC0144914E151F0409F086C0029634
:101C0000009709F4B4CF7E01FFE4EF0EF11CF70159
:101C100091838083108671966081C7010E94CC0CED
:101C2000F701868372966081C7010E94CC0CA82EB2
:101C3000F70187836E01F9E7CF0ED11CF601908181
:101C4000F701928781E0911180E0F7018387FE011F
:101C5000EE59FF4FB0806B2DC7010E94CC0C882E2F
:101C6000FE01ED59FF4F1081612FC7010E94CC0C7E
:101C7000982EFE01EC59FF4F0081602FC7010E9492
:101C8000CC0C015041E050E09A0101C0220F0A95AE
:101C9000EAF7782E721AF701068110160CF068CF59
:101CA000BA94CA0101C0880FBA94EAF7881AB484BA
:101CB0009A0C115001C0440F1A95EAF7F42FF91944
:101CC0009F2E2B2D4F2F682DF70182810E94590CDA
:101CD000182FF70182832B2D492D682D83810E94B7
:101CE000660CF7018383F1E0BF1609F47CC0BF16D0
:101CF00008F43FC022E0B21609F47BC093E0B916A5
:101D000009F482C0082F212F38C0F9012491820FD5
:101D1000911D26CFFE01EF58FF4F00811181080F62
:101D2000191F680160E0C6010E94F70C080F191F17
:101D300062E0C6010E94F70CF4E0CF0ED11C8E15B4
:101D40009F0580F3F801849190E0982F88273196C1
:101D5000E4918E2B009709F40ACFE816F90619F4DE
:101D6000C80103964DCFF8013296E4910E0F111D74
:101D7000E9CF202F210F082F0A0D482F612FCE0108
:101D80000E945E0B882309F4F3CEF70114821582BA
:101D90008E01025A1F4F4E01FFE58F0E911CF80174
:101DA0006081C7010E94CC0C682EF4016081C701DC
:101DB0000E94CC0CB82E40E0662DCE010E94730C20
:101DC00041E06B2DCE010E94730C61E0C7010E94BF
:101DD000CC0C8111F0CFF70185818A1504F382853F
:101DE000F6018083C5CEBA1821E0210F080F1B0D24
:101DF000C4CF91E0392F301B21E0210F9A1901E067
:101E0000080F890F130FB9CF212F2A0D982F901B80
:101E100001E0080F81E0890FB0CFEF92FF921F938E
:101E2000CF93DF93109239037C0110E0D8E1C0E03A
:101E3000F70161917F01E0912303F091240381E296
:101E400093E009958F3F9807F1F08E3F2FEF9207AF
:101E500079F39C014D2F6C2F81E293E00E94740D69
:101E600090917C03913049F030F0923041F0933002
:101E700041F0180FDDCFC80FFCCFD80FFACFC81B29
:101E8000F8CFD81BF6CF812FDF91CF911F91FF9014
:101E9000EF900895CF93DF93EC016BAFEEA9FFA90C
:101EA0000190F081E02D0995EEA9FFA90280F38150
:101EB000E02DCE01DF91CF910994AF92BF92CF92E6
:101EC000DF92EF92FF920F931F93CF93DF9300D097
:101ED00000D01F92CDB7DEB78C01DC01DA96AC9052
:101EE000DA97DB96EC90DB97ED91FC91B188FE2CB4
:101EF000D12CC12CD801ED91FC9111978089D896F5
:101F00002D913C911C82FD828B83B8E08B9FC00198
:101F100011248C9DA0018D9D500D9C9D500D112470
:101F2000240F351F3A832983D8011496ED91FC9133
:101F30009E012F5F3F4F41E06FE0C8010995F39488
:101F40008F2D8E198A1528F4BFEFCB1ADB0AFB14EC
:101F500088F20F900F900F900F900F90DF91CF911C
:101F60001F910F91FF90EF90DF90CF90BF90AF90B7
:101F700008958FB7F8948091D2018FBF0895CF93C1
:101F8000DF93EC01962F683109F462C0B9019931F1
:101F900030F4943199F0973159F080E006C09931CE
:101FA00009F478C09032C9F781E0DF91CF910895AC
:101FB00050E081E992E00E942E07F6CF8C859D8546
:101FC000AE85BF85892B8A2B8B2B71F4E881F98133
:101FD000A585B0E020EA36E841E050E00E94C31A4F
:101FE0006C877D878E879F8710922502109224022E
:101FF00010926E021092900210926C0281E0809317
:102000006B021092460261E082E10E94B30761E038
:1020100083E10E94B3078091B9008E7F8093B9005D
:102020008091B9008D7F8093B90088E48093B800D7
:1020300085E48093BC0082E097E09093FE0180935A
:10204000FD0183E097E09093020280930102ACCF00
:102050002C853D854E855F8560E074E284EF90E0DD
:102060000E94A11A205131094109510956954795FD
:10207000379527952093B8008E8990E095958795A0
:1020800091E090936D0280938F0210926E021092F5
:1020900090028ACF81E00E94130686CF0F931F9390
:1020A000CF93DF93EC01862F642F8C3208F03AC077
:1020B0008A3208F060C0883209F44BC0893209F4D2
:1020C00060C0803408F470C0982F9F73FE01E90F40
:1020D000F11D868D8F3F09F44EC0903108F436C053
:1020E000282F30E0F901EC54FF4F8491F901E356B9
:1020F000FF4F0491F901EA57FF4F1491112379F032
:1021000081110E948A07E12FF0E0EE0FFF1FE859CE
:10211000FF4FA591B491EC910E2381E009F480E08A
:10212000898F29C08D3299F108F4CBCF94EB980FA9
:10213000923008F0C6CF8F73C80FD11D8E8D41111C
:102140002FC061E00E94E80760E08E8D0E94B30717
:1021500012C08E01025E1F4FD0E0F80181918F0105
:102160008F3F31F061E0D03108F062E00E94E80773
:10217000DF5FD63191F781E0DF91CF911F910F9111
:10218000089570E090E080E00E94FF08F4CF85E0C1
:1021900090E0433010F082E090E00E941908EBCF0D
:1021A00062E00E94E807E7CF80E0E6CF8CBD9DBDEE
:1021B00008958F929F92AF92BF92CF92DF92EF924B
:1021C000FF920F931F93CF93DF93EC014B016A01B2
:1021D000B22EA32E88819981892B31F0EA81FB816F
:1021E000808191810E94D61070E060E0CE010E9453
:1021F000E1077401C80CD91CEC14FD0479F4EB2C34
:10220000FA2C0E0D1F1DE016F10679F06FEFCE01CE
:102210000E942408F70181937F01F5CFF7016191B6
:102220007F01CE010E942408E7CF61E070E0CE017B
:102230000E94E10781E0DF91CF911F910F91FF9004
:10224000EF90DF90CF90BF90AF909F908F900895C8
:102250008F929F92AF92BF92CF92DF92EF92FF92B6
:102260000F931F93CF93DF93EC01B62EA72E6A0135
:10227000490188819981892B31F0EA81FB81808134
:1022800091810E94D61070E060E0CE010E94E107CB
:102290007401080D191DE016F10671F40B2D1A2DAD
:1022A000C00ED11E0C151D0571F0F80161918F0152
:1022B000CE010E942408F6CFF70161917F01CE0183
:1022C0000E942408E8CF61E070E0CE010E94E1079F
:1022D00081E0DF91CF911F910F91FF90EF90DF9000
:1022E000CF90BF90AF909F908F900895AF92BF9284
:1022F000CF92DF92EF92FF920F931F93CF93DF93D2
:1023000000D0CDB7DEB7DC01211103C018962C91A7
:102310001897253008F043C01F964D935D936D9339
:102320007C93529790E080E0E22EF12C8E159F0571
:10233000B4F41A962C911A9721110AC0FD01E80FE6
:10234000F91F4387452F562F672F77270196EECF2A
:10235000F701E81BF90BEA0FFB1F4287F3CF6D0172
:102360008BE0C80ED11C16969C91169717968C91EF
:10237000179799838A83AD90BC901197A114B104EB
:1023800009F441C019960C9110E098012E0D3F1DE3
:10239000D50114968D919C918217930710F480E0DB
:1023A00016C0F50181819281208131E030936D0268
:1023B00020938F0210926E02109290020115110567
:1023C00099F421E0A701B601C5010E94B3060F9060
:1023D0000F90DF91CF911F910F91FF90EF90DF90C1
:1023E000CF90BF90AF900895DC01ED91FC910280F9
:1023F000F381E02DA801BE016F5F7F4F099508179B
:10240000190769F6DECF1296ED91FC91139730977C
:1024100031F214962D913C91159719960C9110E07C
:102420002330310571F48E7F89839A830F5F1F4FAC
:102430009E012F5F3F4FA701B601CF010E942811D7
:10244000C6CF2115310519F49F779983F1CF22303A
:10245000310511F49068F9CF2130310549F79F77A4
:102460009064F3CFCF93DF93CDB7DEB763970FB60A
:10247000F894DEBF0FBECDBF2091A3033091A4031B
:10248000188A198A1A8A1B8A3A8329831C821B821A
:1024900021E02A8790E098878F831B862987462F23
:1024A00050E070E060E020E0CE0101960E947611DD
:1024B00063960FB6F894DEBF0FBECDBFDF91CF910C
:1024C0000895CF92DF92EF92FF920F931F93CF93D5
:1024D000DF936C01EB017B01E40EF51E10E000E0E0
:1024E000CE15DF0561F06991D601ED91FC91019067
:1024F000F081E02DC6010995080F191FF1CFC80121
:10250000DF91CF911F910F91FF90EF90DF90CF90CF
:102510000895CF92DF92EF92FF920F931F93CF9384
:10252000DF93EC016C0124E0C20ED11CFC01E158E8
:10253000FF4F0190F081E02DC60109958E3FEFEF2E
:102540009E07C8F48E010E571F4F7E01F1E8EF0E73
:10255000F11C9C01F8014081F7016081C6010E94D5
:10256000740DC15ADF4F98819130A9F078F0923004
:10257000A1F09330B9F081E090E0DF91CF911F910D
:102580000F91FF90EF90DF90CF900895F701908129
:10259000890F8083F0CFF801FACFF7019081981B63
:1025A000892FF7CFF801FACF089590E080E00895E1
:1025B0002F923F924F925F926F927F928F929F9253
:1025C000AF92BF92CF92DF92EF92FF920F931F9341
:1025D000CF93DF9300D0CDB7DEB7FC014B01042FC2
:1025E0009681878199838A83C080D180C114D10468
:1025F00009F4BEC0418550E0D60114968D919C919E
:1026000084179507B8F4312C832D0F900F90DF912C
:10261000CF911F910F91FF90EF90DF90CF90BF90DF
:10262000AF909F908F907F906F905F904F903F9072
:102630002F900895F601808191E090936D02809330
:102640008F0210926E021092900220E0BE016F5F26
:102650007F4FC6010E94B306382E8823A1F210E0F6
:10266000B12CA12C22242394A016B10668F68091E7
:102670006C028111FCCFD60114968D919C9178014A
:10268000EA18FB088E159F0508F47C01F60190817D
:102690008E2D813208F080E220926C0241E0980198
:1026A0002E193F09A216B30608F440E040936B02CE
:1026B000FFEFF0936A02109269022FEF280F209328
:1026C00068022092470220914702990F922B909323
:1026D000470290914602913009F03FC010924602A5
:1026E000909147029093BB009091BC0093FDF8CF6E
:1026F00025EC2093BC0090916C029130E1F3909115
:102700006902981710F480916902E8E4F2E0A6E209
:10271000B2E090E0981325C0109225029093240215
:102720009E151F0409F06FCF34016A0C7B1C230136
:10273000C201861997098E159F05B8F4D601119626
:102740008D919C91DC01ED91FC910284F385E02D4B
:102750000995F20181932F01EBCF95EE9093BC0088
:10276000CACF21912D939F5FD5CFAE0CBF1C7CCFDC
:10277000A281B381109709F446CF2481358110E0FE
:10278000418550E02330310571F4816089839A835B
:102790004F5F5F4F9401BE016F5F7F4FCD010E947D
:1027A000D910382E31CF2115310519F4906899834D
:1027B000F1CF2230310511F49F77F9CF2130310567
:1027C00049F7906CF4CFCF93DF93EC01BC01655FC8
:1027D0007F4F48850E94D812882301F1488550E038
:1027E00030E020E060E070E0CB0124173507CCF446
:1027F000982F872F762F6627EA85E1110AC0FA0104
:10280000E21BF30BEC0FFD1FE2856E2B2F5F3F4F9A
:10281000ECCFFE01E20FF31FE385F7CF6FEF7FEF01
:10282000CB01DF91CF910895CF93DF93CDB7DEB782
:1028300063970FB6F894DEBF0FBECDBF8091A303A0
:102840009091A403188A198A1A8A1B8A9A83898309
:102850001C821B8281E08A8723EA30E038872F833D
:102860001B868987CE0101960E94E313DC01CB0110
:1028700026E0B695A795979587952A95D1F781700B
:1028800063960FB6F894DEBF0FBECDBFDF91CF9138
:1028900008958F929F92AF92BF92CF92DF92EF9264
:1028A000FF920F931F93CF93DF93EC014A015B01DB
:1028B000888199810E94E3132A8101E010E002C01F
:1028C000000F111F2A95E2F701501109012E000C8B
:1028D000220B330BAB81680179010A2E04C0CC0CAA
:1028E000DD1CEE1CFF1C0A94D2F7C094D094E09437
:1028F000F094C622D722E822F922E881F981B901B1
:10290000A801482159216A217B2104C0440F551F89
:10291000661F771FAA95D2F74C295D296E297F295A
:102920002085CF01DF91CF911F910F91FF90EF9004
:10293000DF90CF90BF90AF909F908F900C947611C6
:10294000CF93DF93CDB7DEB767970FB6F894DEBFAE
:102950000FBECDBF2091A3033091A403188A198A1A
:102960001A8A1B8A3A8329831C821B8291E09A87E8
:1029700020E830E038872F831B8699879E012F5FE0
:102980003F4F3D8B2C8B9E8B9F8B482F50E070E0F0
:1029900060E0CE0144960E94491467960FB6F89401
:1029A000DEBF0FBECDBFDF91CF910895EF92FF92B2
:1029B0000F931F93CF93DF93CDB7DEB767970FB613
:1029C000F894DEBF0FBECDBFF82E80E00E94A014A9
:1029D0008091A3039091A403188A198A1A8A1B8AEA
:1029E0009A8389831C821B8281E08A872FEA30E0E8
:1029F00038872F831B8689878E010F5F1F4F1D8BA2
:102A00000C8B82E08E8B83E08F8B42E050E060E0A5
:102A100070E0CE0144960E944914FF2009F4A5C03D
:102A200060E380E00E94321261E081E00E94321295
:102A300060E082E00E94321260E083E00E94321285
:102A400060E084E00E94321262E485E00E9432126B
:102A500060E086E00E94321260E087E00E9432125D
:102A600060E588E00E94321260E089E00E94321244
:102A700060E08AE00E94321260E08BE00E94321235
:102A800060E28CE00E94321264E08DE00E9432121B
:102A900060E08EE00E94321260E38FE00E9432120A
:102AA00061E080E10E94321260E581E10E94321211
:102AB00060E082E10E94321266E083E10E943212FD
:102AC0008091A3039091A403188A198A1A8A1B8AF9
:102AD0009A8389831C821B8281E08A8720E830E008
:102AE00038872F831B8689871D8B0C8B8E8B84E008
:102AF0008F8B41E050E060E070E0CE0144960E9490
:102B0000491409EE13E0EE24E394F12C8C899D899D
:102B10000E94E313AB01BC018E89970102C0220F12
:102B2000331F8A95E2F7C9010197092E000CAA0B01
:102B3000BB0B2F8904C076956795579547952A95C5
:102B4000D2F784239523A623B723892B8A2B8B2B9B
:102B500009F44DC00150110909F449C061E070E069
:102B600080E090E00E94FF08D1CF60E080E00E940A
:102B7000321260E081E00E94321260E082E00E9446
:102B8000321260E483E00E94321262E084E00E942C
:102B9000321260E085E00E94321260E186E00E941D
:102BA000321263E087E00E94321260E588E00E9402
:102BB000321260E189E00E94321263E08AE00E94F2
:102BC000321260E08BE00E94321260E08CE00E94E2
:102BD000321260E08DE00E94321264E28EE00E94C8
:102BE000321260E08FE00E94321260E05ACF6796A6
:102BF0000FB6F894DEBF0FBECDBFDF91CF911F910E
:102C00000F91FF90EF900895EF92FF921F93CF9353
:102C1000DF93CDB7DEB7AA970FB6F894DEBF0FBE2D
:102C2000CDBF7C01FC01838194811BA21CA21DA24B
:102C30001EA29D8B8C8B1F8A1E8A11E01D8F82E93C
:102C400090E09B8F8A8F1E8E1C8FCE0144960E942F
:102C5000E31380E060FD20C0F70183819481188A2E
:102C6000198A1A8A1B8A9A8389831C821B821A8773
:102C700080E890E098878F831B861987CE010196A4
:102C800098A78FA319A71AA641E050E060E070E072
:102C900086960E94491481E0AA960FB6F894DEBF8A
:102CA0000FBECDBFDF91CF911F91FF90EF900895A0
:102CB000FC01A081B18150962C9182AD38E0839FB8
:102CC000C0011124289FA001299F500D112470E0FC
:102CD00060E080AD91AD0C94E31A1F93CF93DF9326
:102CE000EC010E945D0F1BAD8AAD180FE881F981E0
:102CF0008189181768F0EC81FD8130E020E040E028
:102D000060E1CE01099580E0DF91CF911F91089598
:102D1000FE01E658FF4F8081882319F0CE010E9402
:102D20005816612FCE010E944A0F81E0EDCFCF935C
:102D3000DF93EC01FC01E658FF4F8081882319F0F6
:102D4000CE010E94581660E0CE01DF91CF910C9425
:102D50004A0F1F920F920FB60F9211242F933F9399
:102D60004F935F936F937F938F939F93AF93BF9393
:102D7000EF93FF938091B900887F803609F44AC0B1
:102D8000F0F5883209F4A7C018F5803109F49BC02A
:102D9000B8F4882309F4F9C0883009F494C0FF918D
:102DA000EF91BF91AF919F918F917F916F915F91C3
:102DB0004F913F912F910F900FBE0F901F9018953C
:102DC000883109F488C0803251F780936A0214C0B8
:102DD000803409F49DC040F48033B9F38833F9F6A8
:102DE00080936A0285ECB0C0803509F485C08835CF
:102DF00009F496C0883499F60E94D106D0CF88395C
:102E000009F48CC038F5883729F050F4883611F071
:102E1000803729F683E080936C021092230257C01A
:102E2000883809F47BC0803919F0803809F0B7CFB1
:102E300080912302803208F071C0E091230281E08A
:102E40008E0F809323028091BB00F0E0ED5FFD4F79
:102E500080833DC0803B39F0E0F4803A09F479C0CA
:102E6000883A09F09CCF84E080936C0210920002B3
:102E70001092FF01E091FD01F091FE010995809112
:102E8000FF0181110FC081E08093FF011092DD01ED
:102E900009C0803C09F4A6CF883C09F4A3CF883B45
:102EA00009F07DCFE091000281E08E0F8093000257
:102EB000F0E0E352FE4F80818093BB0090910002CE
:102EC0008091FF0129C0809147028093BB0085EC6F
:102ED0008093BC0064CF909169028091680298173A
:102EE00058F5E091690281E08E0F80936902F0E06D
:102EF000E85BFD4F8081E9CFE091690281E08E0FB0
:102F0000809369028091BB00F0E0E85BFD4F808315
:102F100090916902809168029817C8F285E8D8CF2D
:102F2000E091690281E08E0F809369028091BB007D
:102F3000F0E0E85BFD4F808380916B0281115CCFF4
:102F400081E08093460284EA8093BC0010926C0278
:102F500026CF85EC8093BC0010926C0280912302F6
:102F6000803230F4E0912302F0E0ED5FFD4F1082FB
:102F70006091230270E0E0910102F091020283E08F
:102F800092E00995109223020ACF10926A0234CF80
:102F90001F920F920FB60F9211242F933F938F938E
:102FA0009F93AF93BF938091D5019091D601A0914B
:102FB000D701B091D8013091D40123E0230F2D37F0
:102FC00068F126E8230F0296A11DB11D2093D401BC
:102FD0008093D5019093D601A093D701B093D801E7
:102FE0008091D9019091DA01A091DB01B091DC01CF
:102FF0000196A11DB11D8093D9019093DA01A09390
:10300000DB01B093DC01BF91AF919F918F913F9114
:103010002F910F900FBE0F901F9018950196A11D34
:10302000B11DD4CFCF93109294021092930288EEE8
:1030300093E0A0E0B0E08093950290939602A09375
:103040009702B093980289E691E090939202809360
:10305000910287E891E09093A1038093A0031092DE
:10306000A2031092A4031092A303109220031092C3
:103070001F0384EA95E090939D0380939C03109234
:103080009E0310929F03109239038BE791E0909377
:103090001E0380931D0310922203109221031092AD
:1030A000360310922D0310922E0310922F031092CC
:1030B00030038FEF8093370380933B03EFE3F3E01C
:1030C00085E593E0CFEFC1938E179F07E1F780EB83
:1030D00099E0909326038093250385EA9AE09093E4
:1030E0002803809327038FEB9FE090932A0380931C
:1030F00029038EE490E190932C0380932B0330E01E
:1031000020E040E069E081E293E00E94B009109283
:103110006D0310926C038EEA95E0909356038093B2
:1031200055038DE992E090935A038093590381E00F
:1031300080935B0310925C031092790310929903C1
:1031400080939A0380939B0389E891E090935803BE
:103150008093570381E293E00E941B0B1092680357
:1031600010926A03C0936903C0936B03E091570305
:10317000F09158030280F381E02D81E293E00995FC
:1031800081E196E090936F0380936E0310927C032D
:10319000C0934A03C0934B03C0934C03CF9108954F
:1031A000CF93DF93CDB7DEB763970FB6F894DEBF4A
:1031B0000FBECDBF789484B5836084BD85B5836030
:1031C00085BD80916E00816080936E0082E0809367
:1031D00081008091810081608093810080918000D6
:1031E0008160809380008091B10084608093B10001
:1031F0008091B00081608093B00087E880937A006E
:103200001092C100E0912503F091260330E020E008
:1032100040E06AE081E293E0099581E293E00E9458
:10322000971681E293E00E946D168111FACF60E05B
:1032300081E293E00E944A0FE0912503F09126037A
:1032400030E020E040E06BE081E293E0099580917E
:103250006C0390916D038B5C904051F08BEC90E08F
:1032600090936D0380936C030E94030D0E9470067F
:1032700081E293E00E94971604EA15E064EF71E0A2
:1032800080E090E00E94FF08109324030093230342
:103290008FE891E00E940D0F81E293E00E946D168D
:1032A0008111ECCF60ED77E080E090E00E94FF08B4
:1032B0008091A3039091A403188A198A1A8A1B8A01
:1032C0009A8389831C821B8211E01A8781E890E02F
:1032D00098878F831B86198720E044E650E060E0E2
:1032E00070E0CE0101960E9476118091A303909127
:1032F000A403188A198A1A8A1B8A9A8389831C82D2
:103300001B821A878AEC90E098878F831B8682E065
:10331000898720E047EE53E060E070E0CE0101963F
:103320000E9476118091A3039091A403188A198AB0
:103330001A8A1B8A9A8389831C821B821A878AEACB
:1033400090E098878F831B86198720E049E050E042
:1033500060E070E0CE0101960E9476111092BE03EB
:103360001092BD0381E00E94D61481E00E94A01457
:1033700081E090E09093BE038093BD0325E9422E47
:10338000512C34EA632E35E0732E0AEA10E041E84E
:10339000E42EF12C5AECC52ED12C6EE9A62E64E059
:1033A000B62E90E0892E90E0992E68EE73E080E0D2
:1033B00090E00E94FF0881E00E94D61481E00E9404
:1033C000A0140E941414811107C061E070E080E035
:1033D00090E00E94FF08F5CF8091A3039091A40391
:1033E000188A198A1A8A1B8A9A8389831C821B82EB
:1033F00081E08A8758864F821B8682E089874CE06D
:1034000065EA73E0CE0101960E94D812382E80E062
:103410000E94D61481E00E94A0140E94141481110D
:1034200007C061E070E080E090E00E94FF08F5CF07
:1034300031104DC08CEF282E3324339421E0221517
:1034400008F040C08091A3039091A403188A198AC0
:103450001A8A1B8A9A8389831C821B823A86188760
:103460000F831B863986CE0101960E94E31380915B
:10347000A3039091A403188A198A1A8A1B8A9A8333
:1034800089831C821B823A86F886EF821B863986E6
:10349000CE0101960E94E3138091A3039091A403AF
:1034A000188A198A1A8A1B8A9A8389831C821B822A
:1034B0003A86D886CF821B8682E08987CE01019624
:1034C0000E94E313239428E02212B8CF0AC04CE0F4
:1034D00061EB73E0CE0101960E94D812882309F4B3
:1034E000A9CF68EE73E080E090E00E94FF0881E2DF
:1034F00093E00E94971680916C0390916D038E5912
:10350000944051F0B0926D03A0926C038EE994E068
:103510000E94030D0E9470067092240360922303A0
:1035200081EA91E00E940D0F81E293E00E946D1606
:103530008111E1CF8114910409F437CF0E9400007A
:1035400030CFA1E21A2EAA1BBB1BFD010DC0AA1F82
:10355000BB1FEE1FFF1FA217B307E407F50720F0FC
:10356000A21BB30BE40BF50B661F771F881F991F77
:103570001A9469F760957095809590959B01AC01C0
:10358000BD01CF0108950E94D41AA59F900DB49F4C
:10359000900DA49F800D911D11240895EE0FFF1F23
:1035A0000590F491E02D0994A29FB001B39FC00152
:1035B000A39F700D811D1124911DB29F700D811D5F
:1035C0001124911D0895DC0101C06D9341505040BC
:0835D000E0F70895F894FFCF25
:1035D8001815A015C019FF1815A115C819FF181539
:1035E800AE19FF1815AF19FF1815AE15D5168015A9
:1035F800A8163F15D316001540158D16141520165C
:103608000015A115C815DA1612158116CF15D91689
:10361800F115DB1640152E15A415A619FF00011487
:103628000A6464323200127A0000042896100800F6
:103638000080004000000000005B072E07D5120440
:10364800072707140705070000000089126112D533
:1036580012D4120000000004161B0B850B0F0B413F
:10366800533733343120496E6974696E672E2E2EB4
:0E3678000048656C6C6F20576F726C64210007
:00000001FF
