:100000000C9415020C943D020C943D020C943D029C
:100010000C943D020C943D020C943D020C943D0264
:100020000C943D020C943D020C943D020C943D0254
:100030000C943D020C943D020C943D020C943D0244
:100040000C940C100C943D020C943D020C943D0257
:100050000C943D020C943D020C943D020C943D0224
:100060000C94F10E0C943D0200407A10F35A00A05B
:10007000724E18090010A5D4E80000E87648170071
:1000800000E40B54020000CA9A3B000000E1F505B1
:10009000000080969800000040420F000000A086FB
:1000A00001000000102700000000E803000000002D
:1000B0006400000000000A000000000001000000D1
:1000C00000002C76D888DC674F0823DFC1DFAE59EB
:1000D000E1B1B796E5E3E453C63AE651997696E87E
:1000E000E6C28426EB898C9B62ED407C6FFCEFBC02
:1000F0009C9F40F2BAA56FA5F490055A2AF75C932D
:100100006B6CF9676DC11BFCE0E40D47FEF520E662
:10011000B500D0ED902E0300943577050080841E45
:10012000080000204E0A000000C80C333333330FA0
:10013000986E12831141EF8D2114893BE65516CF3D
:10014000FEE6DB18D1844B381BF77C1D901DA4BB49
:10015000E424203284725E228100C9F124ECA1E5FE
:100160003D270000000000000000002F00000000FC
:100170000700070000147F147F1400242A7F2A122E
:10018000006264081323003649552250000005031D
:10019000000000001C224100000041221C0000144D
:1001A000083E08140008083E0808000000A060008F
:1001B000000808080808000060600000002010081F
:1001C0000402003E5149453E0000427F400000428B
:1001D00061514946002141454B31001814127F10EE
:1001E000002745454539003C4A494930000171091D
:1001F000050300364949493600064949291E0000D1
:100200003636000000005636000000081422410077
:1002100000141414141400004122140800020151A7
:10022000090600324959513E007C1211127C007FB0
:1002300049494936003E41414122007F4141221C4B
:10024000007F49494941007F09090901003E4149B0
:10025000497A007F0808087F0000417F41000020A4
:1002600040413F01007F08142241007F4040404050
:10027000007F020C027F007F0408107F003E414196
:10028000413E007F09090906003E4151215E007F81
:10029000091929460046494949310001017F0101F8
:1002A000003F4040403F001F2040201F003F40389B
:1002B000403F0063140814630007087008070061DA
:1002C0005149454300007F414100020408102000CD
:1002D000000041417F000004020102040040404050
:1002E0004040000001020400002054545478007F74
:1002F0004844443800384444442000384444487F4B
:1003000000385454541800087E0901020018A4A4AF
:10031000A47C007F080404780000447D4000004075
:1003200080847D00007F102844000000417F400051
:10033000007C04180478007C0804047800384444E5
:10034000443800FC242424180018242418FC007CC1
:100350000804040800485454542000043F4440203A
:10036000003C4040207C001C2040201C003C4030D1
:10037000403C004428102844001CA0A0A07C00445D
:1003800064544C4400000877410000000063000002
:10039000000041770800000804080804003D4040C0
:1003A000207D003D4040403D002154545479007D63
:1003B0001211127D003944444439003D4242423D0D
:1003C000000205020000007E014955730000000094
:1003D000240027002A0000000000250028002B0030
:1003E0000000000023002600290004040404040483
:1003F00004040202020202020303030303030102D4
:1004000004081020408001020408102001020408A2
:100410001020000000080002010000030407000093
:100420000000000000005610181411241FBECFEF6A
:10043000D8E0DEBFCDBF22E0A8E4B1E001C01D924C
:10044000A137B207E1F711E0A0E0B1E0E6E8F4E39C
:1004500002C005900D92A834B107D9F712E0C4E1AB
:10046000D2E004C02197FE010E94C517C331D10715
:10047000C9F70E948B100C94361A0C94000020913E
:100480003F028217E8F4909140026917C8F4362FB2
:1004900036953695369590E0329F800D911D11244A
:1004A000E0914802F0914902E80FF91F677021E0DE
:1004B00030E001C0220F6A95EAF78081822B8083A9
:1004C00008956F927F928F929F92AF92BF92CF9238
:1004D000DF92EF92FF920F931F93CF93DF93D82F6A
:1004E000C62F942E822E842F8D1B990B8C0197FF83
:1004F00003C011950195110966246A94D91510F469
:1005000066246394882D8C1B990B7C0197FF03C094
:10051000F194E194F108AA24BB24AE18BF08772413
:100520007A94C81510F4772473946801CE18DF0804
:100530006C2F8D2F0E943F029D1202C08C1681F0FD
:10054000C601880F991FA816B9061CF4CE18DF083B
:10055000D60D8017910764F7C00ED11EC70DE8CFE6
:10056000DF91CF911F910F91FF90EF90DF90CF908F
:10057000BF90AF909F908F907F906F900895209143
:10058000EA01260F3327331F21323105ECF4209185
:100590000E02FC0190E080E0243069F082E00895D2
:1005A000A091EA012191AC0146535E4FA40FB52FF3
:1005B000B11D2C930196861798F38091EA01680F7C
:1005C0006093EA0180E0089581E008950895E09144
:1005D000C3018091C201E81730F4F0E0EE55FE4F00
:1005E000808190E008958FEF9FEF08959091C3016F
:1005F0008091C2012FEF3FEF981748F4E92FF0E008
:10060000EE55FE4F208130E09F5F9093C301C901FA
:1006100008958091C2019091C301891B990B08959F
:10062000CF92DF92EF92FF920F931F93CF93DF93BE
:100630007C01CB018A012091A101222389F0EB01E9
:100640006B01C40ED51ECC15DD0569F06991D7018B
:10065000ED91FC910190F081E02DC7010995F3CF58
:10066000642F0E94BF02C801DF91CF911F910F91AB
:10067000FF90EF90DF90CF900895CF93DF931F927C
:10068000CDB7DEB769832091A1012223F9F0209133
:10069000A001203258F021E030E0FC0133832283B6
:1006A00090E080E00F90DF91CF91089580919F01BD
:1006B000E82FF0E0E158FE4F998190838F5F80939F
:1006C0009F018093A00181E090E0ECCF61E0CE013A
:1006D00001960E94BF02F7CF8FB7F89480917E01F8
:1006E0008FBF08958CBD9DBD0895833081F028F49F
:1006F000813099F08230A9F008958730A9F08830D0
:10070000C9F08430B1F4809180008F7D03C0809166
:1007100080008F7780938000089584B58F7784BDA3
:10072000089584B58F7DFBCF8091B0008F77809343
:10073000B00008958091B0008F7DF9CFCF93DF9303
:10074000282F30E0F901EE5EFB4F8491F901E25071
:10075000FC4FD491F901E651FC4FC491CC23A1F098
:1007600081110E947503EC2FF0E0EE0FFF1FE052A5
:10077000FC4FA591B491EC91ED2381E090E009F458
:1007800080E0DF91CF91089580E090E0FACF1F9351
:10079000CF93DF93282F30E0F901EE5EFB4F849179
:1007A000F901E250FC4FD491F901E651FC4FC4919C
:1007B000CC23A9F0162F81110E947503EC2FF0E0D5
:1007C000EE0FFF1FEA52FC4FA591B4918FB7F8943A
:1007D000EC91111108C0D095DE23DC938FBFDF911F
:1007E000CF911F910895DE2BF8CF1F93CF93DF9306
:1007F000C1E0C093C901882399F1D091B80010914C
:10080000BA008091BC008A7B8093BC0060E082E1EA
:100810000E94C70360E083E10E94C70310920E02AA
:10082000C093100210920F0261E082E10E94C703A0
:1008300061E083E10E94C7038091B9008E7F8093BD
:10084000B9008091B9008D7F8093B90088E48093CE
:10085000B80085E48093BC001093BA00D093B80030
:10086000DF91CF911F910895FC0183858F3F11F097
:100870000C94C7030895CF93DF9390E0FC01E250FE
:10088000FC4F249186519C4FFC0184918823D1F028
:1008900090E0880F991FFC01E453FC4FA591B4919F
:1008A000FC01EA52FC4FC591D49161110EC09FB773
:1008B000F8948C91E22FE0958E238C932881E2238B
:1008C000E8839FBFDF91CF9108958FB7F894EC91A3
:1008D000E22BEC938FBFF6CF8230910538F0880F72
:1008E000991F880F991F05970197F1F70895AF9207
:1008F000BF92CF92DF92EF92FF920F931F93CF930D
:10090000DF93EC0188819981892B89F06EBD0DB44C
:1009100007FEFDCFBEB48B2DDF91CF911F910F91BC
:10092000FF90EF90DF90CF90BF90AF9008958885B3
:10093000998511E0892B09F010E8AA24A394862F49
:10094000812309F0A12C062F2C813D814E815F81EE
:1009500060E271EA87E090E00E94A317F22EB02EC9
:10096000E12CC22ED12CFF2019F0C6010E946C048C
:100970008A85877F09F042C08D858F3F89F0902F4F
:10098000912381E009F480E08A1551F0EF85F88920
:100990008F89992369F19081892B8083AA24A3945C
:1009A000E989FA898081998D892B8083FF2019F04C
:1009B000C6010E946C048E858F3F39F0EB89FC895B
:1009C0008081988D892309F0E12AE989FA8990814B
:1009D000898D8095892380838E858F3F09F0BE2C79
:1009E00088859985892BB9F5110F1111BCCF93CF4B
:1009F0009081809589238083A12CD2CFE989FA89BF
:100A00008081998D892B8083FF2019F0C6010E9477
:100A10006C048D858F3F49F0EF85F8898F89902F81
:100A20009123A9F09081892B8083E989FA899081AB
:100A3000898D8095892380838E858F3F69F2EB892C
:100A4000FC898081988D892339F2E12AC5CF908174
:100A500080958923E9CF1695C8CF8F929F92AF9248
:100A6000BF92CF92DF92EF92FF920F931F93CF939B
:100A7000DF93EC014B016A01B22EA32E888199818C
:100A8000892B31F0EA81FB81808191810E94720380
:100A900070E060E0CE010E9434047401C80CD91CDF
:100AA000EC14FD0479F4EB2CFA2C0E0D1F1DE0164E
:100AB000F10679F06FEFCE010E947704F701819380
:100AC0007F01F5CFF70161917F01CE010E9477048C
:100AD000E7CF61E070E0CE010E94340481E0DF9155
:100AE000CF911F910F91FF90EF90DF90CF90BF902B
:100AF000AF909F908F9008958F929F92AF92BF92E8
:100B0000CF92DF92EF92FF920F931F93CF93DF93D9
:100B1000EC01B62EA72E6A01490188819981892BA3
:100B200031F0EA81FB81808191810E94720370E043
:100B300060E0CE010E9434047401080D191DE01616
:100B4000F10671F40B2D1A2DC00ED11E0C151D05CA
:100B500071F0F80161918F01CE010E947704F6CF08
:100B6000F70161917F01CE010E947704E8CF61E037
:100B700070E0CE010E94340481E0DF91CF911F919B
:100B80000F91FF90EF90DF90CF90BF90AF909F902C
:100B90008F9008953FB7F8948091790190917A01F0
:100BA000A0917B01B0917C0126B5A89B05C02F3F89
:100BB00019F00196A11DB11D3FBFBA2FA92F982F83
:100BC0008827BC01CD01620F711D811D911D42E07E
:100BD000660F771F881F991F4A95D1F708958F9246
:100BE0009F92AF92BF92CF92DF92EF92FF920F93BC
:100BF0001F93CF93DF93EA01122FDC0111968D91A1
:100C00009C91DC01ED91FC910280F381E02D09952E
:100C1000C817D90709F0A9C0D091A00191E0D1323D
:100C200008F09BC0C0917D010E94CA056B017C0148
:100C300080910E0281116BC082E080930E021093AE
:100C400010028FEF80930D0210923202D093310286
:100C5000AFE7B1E0E1E1F2E080E0D81394C0109298
:100C6000330280913302CC0FC82BC09333028091A2
:100C70000F02813009F08BC010920F020E94CA054A
:100C80006B017C01809133028093BB008091C50190
:100C90009091C601A091C701B091C801892B8A2B00
:100CA0008B2BA1F00E94CA050091C5011091C601CD
:100CB0002091C7013091C8016C197D098E099F09E7
:100CC000061717072807390708F442C08091BC00AF
:100CD00083FDD8CF85EC8093BC000E94CA056B01D0
:100CE0007C0180910E02823009F453C080910D0284
:100CF00090E08F3F91F180910D0292E0803269F196
:100D000080910D0294E0803341F593E026C08091FC
:100D1000C5019091C601A091C701B091C801892B6E
:100D20008A2B8B2B09F484CF0E94CA058090C501C1
:100D30009090C601A090C701B090C8016C197D09C0
:100D40008E099F0986169706A806B90608F070CF87
:100D50008091C4010E94F50395E010929F011092CA
:100D6000A0011092A10181E0911180E0DF91CF916B
:100D70001F910F91FF90EF90DF90CF90BF90AF90B9
:100D80009F908F9008959D9191938F5F66CF85EE90
:100D9000A2CF8091C5019091C601A091C701B091E9
:100DA000C801892B8A2B8B2B09F49BCF0E94CA0583
:100DB0000091C5011091C6012091C7013091C80171
:100DC0006C197D098E099F0906171707280739072F
:100DD00008F087CFBDCFAF92BF92CF92DF92EF9254
:100DE000FF920F931F93CF93DF9300D0CDB7DEB761
:100DF000DC01211103C018962C911897253008F0BA
:100E000043C01F964D935D936D937C93529790E0F2
:100E100080E0E22EF12C8E159F05B4F41A962C91E9
:100E20001A9721110AC0FD01E80FF91F4387452FCA
:100E3000562F672F77270196EECFF701E81BF90BA6
:100E4000EA0FFB1F4287F3CF6D018BE0C80ED11C68
:100E500016969C91169717968C91179799838A836B
:100E6000AD90BC901197A114B10409F441C019963A
:100E70000C9110E098012E0D3F1DD50114968D9117
:100E80009C918217930710F480E016C0F5018181D0
:100E90009281208131E03093A10120937D01109255
:100EA0009F011092A0010115110599F421E0A701FD
:100EB000B601C5010E94EF050F900F90DF91CF9111
:100EC0001F910F91FF90EF90DF90CF90BF90AF9068
:100ED0000895DC01ED91FC910280F381E02DA801E1
:100EE000BE016F5F7F4F09950817190769F6DECFBE
:100EF0001296ED91FC911397309731F214962D9143
:100F00003C91159719960C9110E02330310571F43E
:100F10008E7F89839A830F5F1F4F9E012F5F3F4F04
:100F2000A701B601CF010E947C05C6CF211531056E
:100F300019F49F779983F1CF2230310511F490682D
:100F4000F9CF2130310549F79F779064F3CFCF93E4
:100F5000DF93CDB7DEB763970FB6F894DEBF0FBE51
:100F6000CDBF2091510230915202188A198A1A8AF3
:100F70001B8A3A8329831C821B8221E02A8790E006
:100F800098878F831B862987462F50E070E060E0AA
:100F900020E0CE0101960E94EB0663960FB6F8940E
:100FA000DEBF0FBECDBFDF91CF9108958F929F928C
:100FB000AF92BF92CF92DF92EF92FF924B015C0112
:100FC0000E94CA056B017C010E94CA056C197D094B
:100FD0008E099F09683E734081059105A8F321E0C1
:100FE000821A9108A108B10888EEC80E83E0D81EC5
:100FF000E11CF11C81149104A104B10429F7FF90B4
:10100000EF90DF90CF90BF90AF909F908F9008951A
:10101000089590E080E008952F923F924F925F9262
:101020006F927F928F929F92AF92BF92CF92DF92F8
:10103000EF92FF920F931F93CF93DF9300D000D0D6
:10104000CDB7DEB7FC014B01042F968187819983D0
:101050008A83208031802114310409F439C141850B
:1010600050E0D10114968D919C9184179507C8F496
:10107000B12C8B2D0F900F900F900F90DF91CF918F
:101080001F910F91FF90EF90DF90CF90BF90AF90A6
:101090009F908F907F906F905F904F903F902F9098
:1010A0000895F101808191E09093A10180937D01E9
:1010B00010929F011092A00120E0BE016F5F7F4F50
:1010C000C1010E94EF05B82E882391F2802F90E095
:1010D0009C838B83D12CC12C01E0AB81BC81CA16CF
:1010E000DB0638F6F101848195817D01EC18FD085D
:1010F0008E159F0508F47C01D101AC900E94CA05B1
:101100002B013C0180910E02811172C01E2D113203
:1011100008F010E200930E0221E08B819C818E1971
:101120009F09C816D90608F420E020931002BFEFEB
:10113000B0930D02109232028FEF810F8093310233
:101140000093330280913302AA0CA82AA0923302A2
:1011500080910F02813009F092C010920F020E941C
:10116000CA052B013C01809133028093BB00809122
:10117000C5019091C601A091C701B091C801892B0A
:101180008A2B8B2BA1F00E94CA052091C5013091BA
:10119000C6014091C7015091C801641975098609BB
:1011A0009709261737074807590708F442C0809166
:1011B000BC0083FDD8CFE5ECE093BC000E94CA05DB
:1011C0002B013C0180910E02813009F45CC08091BA
:1011D0003202811710F410913202A1E1B2E0E2EA8A
:1011E000F1E080E0811751F19D9191938F5FFACFEB
:1011F0008091C5019091C601A091C701B091C8012D
:10120000892B8A2B8B2B09F47DCF0E94CA05209154
:10121000C5013091C6014091C7015091C8016419C0
:10122000750986099709261737074807590708F0EF
:1012300069CF8091C4010E94F50310E01092C301B0
:101240001093C2011E151F0409F012CF34016C0C5B
:101250007D1C2301C201861997098E159F05A8F5EB
:10126000D10111968D919C91DC01ED91FC9102844C
:10127000F385E02D0995F20181932F01EBCFF5EE77
:10128000F093BC009BCF8091C5019091C601A091C5
:10129000C701B091C801892B8A2B8B2B09F492CFFF
:1012A0000E94CA052091C5013091C6014091C70135
:1012B0005091C801641975098609970926173707DF
:1012C0004807590708F07ECFB4CFCE0CDF1C05CFFE
:1012D000A281B381109709F4CBCE2481358110E02F
:1012E000418550E02330310571F4816089839A8310
:1012F0004F5F5F4F9401BE016F5F7F4FCD010E9432
:101300002D05B82EB6CE2115310519F490689983B4
:10131000F1CF2230310511F49F77F9CF213031051B
:1013200049F7906CF4CFCF93DF93EC01BC01655F7C
:101330007F4F48850E940C08882301F1488550E0C2
:1013400030E020E060E070E0CB0124173507CCF4FA
:10135000982F872F762F6627EA85E1110AC0FA01B8
:10136000E21BF30BEC0FFD1FE2856E2B2F5F3F4F4F
:10137000ECCFFE01E20FF31FE385F7CF6FEF7FEFB6
:10138000CB01DF91CF910895CF93DF93CDB7DEB737
:1013900063970FB6F894DEBF0FBECDBF80915102A8
:1013A00090915202188A198A1A8A1B8A9A83898311
:1013B0001C821B8281E08A8723EA30E038872F83F2
:1013C0001B868987CE0101960E949309DC01CB011F
:1013D00026E0B695A795979587952A95D1F78170C0
:1013E00063960FB6F894DEBF0FBECDBFDF91CF91ED
:1013F00008958F929F92AF92BF92CF92DF92EF9219
:10140000FF920F931F93CF93DF93EC014A015B018F
:10141000888199810E9493092A8101E010E002C02D
:10142000000F111F2A95E2F701501109012E000C3F
:10143000220B330BAB81680179010A2E04C0CC0C5E
:10144000DD1CEE1CFF1C0A94D2F7C094D094E094EB
:10145000F094C622D722E822F922E881F981B90165
:10146000A801482159216A217B2104C0440F551F3E
:10147000661F771FAA95D2F74C295D296E297F290F
:101480002085CF01DF91CF911F910F91FF90EF90B9
:10149000DF90CF90BF90AF909F908F900C94EB0611
:1014A000CF93DF93CDB7DEB767970FB6F894DEBF63
:1014B0000FBECDBF2091510230915202188A198A75
:1014C0001A8A1B8A3A8329831C821B8291E09A879D
:1014D00020E830E038872F831B8699879E012F5F95
:1014E0003F4F3D8B2C8B9E8B9F8B482F50E070E0A5
:1014F00060E0CE0144960E94F90967960FB6F89411
:10150000DEBF0FBECDBFDF91CF910895EF92FF9266
:101510000F931F93CF93DF93CDB7DEB767970FB6C7
:10152000F894DEBF0FBECDBFF82E80E00E94500AB7
:101530008091510290915202188A198A1A8A1B8A44
:101540009A8389831C821B8281E08A872FEA30E09C
:1015500038872F831B8689878E010F5F1F4F1D8B56
:101560000C8B82E08E8B83E08F8B42E050E060E05A
:1015700070E0CE0144960E94F909FF2009F4A5C04D
:1015800060E380E00E94A70761E081E00E94A70776
:1015900060E082E00E94A70760E083E00E94A70766
:1015A00060E084E00E94A70762E485E00E94A7074C
:1015B00060E086E00E94A70760E087E00E94A7073E
:1015C00060E588E00E94A70760E089E00E94A70725
:1015D00060E08AE00E94A70760E08BE00E94A70716
:1015E00060E28CE00E94A70764E08DE00E94A707FC
:1015F00060E08EE00E94A70760E38FE00E94A707EB
:1016000061E080E10E94A70760E581E10E94A707F1
:1016100060E082E10E94A70766E083E10E94A707DD
:101620008091510290915202188A198A1A8A1B8A53
:101630009A8389831C821B8281E08A8720E830E0BC
:1016400038872F831B8689871D8B0C8B8E8B84E0BC
:101650008F8B41E050E060E070E0CE0144960E9444
:10166000F90909EE13E0EE24E394F12C8C899D89AD
:101670000E949309AB01BC018E89970102C0220F21
:10168000331F8A95E2F7C9010197092E000CAA0BB6
:10169000BB0B2F8904C076956795579547952A957A
:1016A000D2F784239523A623B723892B8A2B8B2B50
:1016B00009F44DC00150110909F449C061E070E01E
:1016C00080E090E00E94D607D1CF60E080E00E94E9
:1016D000A70760E081E00E94A70760E082E00E9427
:1016E000A70760E483E00E94A70762E084E00E940D
:1016F000A70760E085E00E94A70760E186E00E94FE
:10170000A70763E087E00E94A70760E588E00E94E2
:10171000A70760E189E00E94A70763E08AE00E94D2
:10172000A70760E08BE00E94A70760E08CE00E94C2
:10173000A70760E08DE00E94A70764E28EE00E94A8
:10174000A70760E08FE00E94A70760E05ACF679686
:101750000FB6F894DEBF0FBECDBFDF91CF911F91C2
:101760000F91FF90EF900895EF92FF921F93CF9308
:10177000DF93CDB7DEB7AA970FB6F894DEBF0FBEE2
:10178000CDBF7C01FC01838194811BA21CA21DA200
:101790001EA29D8B8C8B1F8A1E8A11E01D8F82E9F1
:1017A00090E09B8F8A8F1E8E1C8FCE0144960E94E4
:1017B000930980E060FD20C0F70183819481188A3D
:1017C000198A1A8A1B8A9A8389831C821B821A8728
:1017D00080E890E098878F831B861987CE01019659
:1017E00098A78FA319A71AA641E050E060E070E027
:1017F00086960E94F90981E0AA960FB6F894DEBF9A
:101800000FBECDBFDF91CF911F91FF90EF90089554
:101810000F931F93CF93DF93DC0152968C915297D5
:1018200017969C911797891708F084C053964C918E
:10183000539718969C911897491708F07BC060320F
:101840000CF478C0062E000C770B6052710996E0FC
:10185000969FF001979FF00D1124EE59FE4F742FC3
:1018600076957695769566E0680F542F577024919B
:10187000319611E0180F17963C911797831708F5CA
:1018800018969C9118974917E0F490E0739F800D8B
:10189000911D112455963C915597311120951E9616
:1018A000CD91DC911F9751111CC08C179D0748F4F6
:1018B0005096CD91DC915197C80FD91F8881282B64
:1018C0002883812F1613D3CF81E090E052962C917C
:1018D00052972A5F52962C93DF91CF911F910F91CF
:1018E000089530E0052E02C0220F331F0A94E2F75C
:1018F0008C179D0748F45096CD91DC915197C80FF5
:10190000D91F0881022B08831796CC9117978C0F4B
:10191000911D1E96CD91DC911F978C179D0788F61F
:101920005096CD91DC915197C80FD91F8881832B98
:101930008883C7CF90E080E0C9CF0F931F93CF93E8
:10194000DF93EC01062F18E08C8160E007FF48C0B0
:101950000E943B0461E08C810E94C70360E08D819E
:101960000E943B0461E08D810E94C7038D810E942B
:101970009E03892BD9F360E08D810E94C70361E04B
:101980008D810E943B04000F1150F1F660E08C81C4
:101990000E943B0461E08C810E94C70360E08D815E
:1019A0000E943B0461E08D810E94C7038D810E94EB
:1019B0009E03892BD9F38C810E949E038C0160E0E9
:1019C0008D810E94C70361E08D810E943B0481E00C
:1019D000012B09F080E0DF91CF911F910F910895C5
:1019E0000E94C70361E08C810E943B04B7CFCF9374
:1019F000DF93EC0160E08D810E943B0461E08D810A
:101A00000E94C70360E08C810E943B0461E08C81EE
:101A10000E94C7038C810E949E03892BD9F38D817C
:101A20000E949E03892BB1F3DF91CF910895CF934C
:101A3000DF93EC018C810E949E03892BD9F38D8169
:101A40000E949E03892BB1F360E08C810E94C70342
:101A500061E08C810E943B0460E08D810E94C7039D
:101A600061E08D81DF91CF910C943B04CF92DF92A6
:101A7000EF92FF920F931F93CF93DF93EC01F12C22
:101A8000E12CD12C8D85F81608F062C0CE010E94A1
:101A9000170D6985660FCE010E949D0C60E0CE0196
:101AA0000E949D0C60EB6F0D8A859B850197D9F58F
:101AB000CE010E949D0C60E0CE010E949D0C60E171
:101AC000CE010E949D0CCE010E94F70CCE010E9417
:101AD000170D6985660FCE010E949D0C60E4CE0152
:101AE0000E949D0C8C85882341F060E0CE010E940D
:101AF0009D0C60E0CE010E949D0C0E2D1D2D9F813E
:101B0000802F8E198917E8F468018FEFC81AD80A58
:101B100088899989080F191FF8016081CE010E94F8
:101B20009D0C8601ECCFCE010E949D0C61E2CE019E
:101B30000E949D0C60E0CE010E949D0C6F8161505F
:101B4000BFCFCE010E94F70CF394E02ED12E9ACF96
:101B5000DF91CF911F910F91FF90EF90DF90CF9089
:101B60000895CF92DF92EF92FF920F931F93CF933E
:101B7000DF93FC01462F46954695469580E050E060
:101B80009585891740F590E06A01C80ED11C7781D0
:101B90009717F8F4A92FB0E07C9D80017D9D100D72
:101BA00011240A0F1B1F20893189879FA00DB11DA9
:101BB0001124A20FB31FE684F7840E151F0538F415
:101BC000200F311FE90128812C939F5FE0CF1C92E9
:101BD000FCCF8F5FD5CF677009F44EC08FB7F894F4
:101BE0000091340210913502209136023091370273
:101BF0008FBF70E030E08585381728F54781349F26
:101C000080011124C80150E0EA01C80FD91FA78143
:101C1000282F201B2A17A8F4A089B189E684F7840D
:101C2000CE15DF0528F4CA0FDB1F2881C0E820FF8E
:101C3000C0E0A80FB91F2C9126952C2B2C93019650
:101C4000E3CF3F5FD8CF8FB7F89400913402109163
:101C5000350220913602309137028FBF8FB7F8944A
:101C600000913402109135022091360230913702F2
:101C70008FBF7F5F6713BECFCF01DF91CF911F91E1
:101C80000F91FF90EF90DF90CF900C94360DCF9294
:101C9000DF92EF92FF920F931F93CF93DF93EC01AC
:101CA0007B016A0110E000E00C151D0508F042C040
:101CB000F701E00FF11F6081C80101966D3061F4FA
:101CC0001A8A2B89285F2B8BF701E80FF91F2081D7
:101CD0002A3071F48C010CC06A30D9F41A8A2B892D
:101CE000285F2B8BF701E80FF91F20812D3091F32E
:101CF0008C89882359F09B898885981738F068E08B
:101D0000CE010E94B10D888588508B8B0F5F1F4FCD
:101D1000CBCF6C3039F46885CE010E94B10D1A8AA0
:101D20001B8AE6CFE881F9810190F081E02DCE0198
:101D30000995DECF8C89882319F0CE010E94360DDB
:101D4000C601DF91CF911F910F91FF90EF90DF902F
:101D5000CF90089585ED8093BC008091C50190914E
:101D6000C601A091C701B091C8010796A11DB11D80
:101D700023E0B695A795979587952A95D1F7209159
:101D8000BC0024FD03C010920E0208954091C501CD
:101D90005091C6016091C7017091C801452B462B37
:101DA000472B69F30097A105B10541F025E32A957A
:101DB000F1F700000197A109B109E1CF8091C401B9
:101DC0000C94F503FC01808991890C94D918CF9368
:101DD000DF93EC010E94E20ECE01DF91CF910C94D3
:101DE000D9181F920F920FB60F9211242F933F9381
:101DF0004F935F936F937F938F939F93AF93BF9313
:101E0000EF93FF938091B900887F803609F44AC030
:101E1000F0F5883209F4A5C018F5803109F499C0AD
:101E2000B8F4882309F4F5C0883009F492C0FF9112
:101E3000EF91BF91AF919F918F917F916F915F9142
:101E40004F913F912F910F900FBE0F901F901895BB
:101E5000883109F486C0803251F780930D0214C096
:101E6000803409F49BC040F48033B9F38833F9F629
:101E700080930D0285ECAEC0803509F483C08835AF
:101E800009F494C0883499F60E94AA0ED0CF8839FC
:101E900009F48AC038F5883729F050F4883611F0F3
:101EA000803729F683E080930E0210920C0255C011
:101EB000883809F479C0803919F0803809F0B7CF33
:101EC00080910C02803208F06FC0E0910C0281E03A
:101ED0008E0F80930C028091BB00F0E0E451FE4F26
:101EE00080833BC0803B39F0D0F4803A09F477C05E
:101EF000883A09F09CCF84E080930E021092EB01A7
:101F00001092EA01F0E0E0E009958091EA01811188
:101F10000FC081E08093EA011092CA0109C0803CA1
:101F200009F4A8CF883C09F4A5CF883B09F07FCFFE
:101F3000E091EB0181E08E0F8093EB01F0E0E6533E
:101F4000FE4F80818093BB009091EB018091EA016C
:101F500029C0809133028093BB0085EC8093BC0044
:101F600066CF9091320280913102981758F5E09136
:101F7000320281E08E0F80933202F0E0EF5EFD4F7F
:101F80008081E9CFE091320281E08E0F80933202AE
:101F90008091BB00F0E0EF5EFD4F808390913202B4
:101FA000809131029817C8F285E8D8CFE0913202CB
:101FB00081E08E0F809332028091BB00F0E0EF5EF3
:101FC000FD4F80838091100281115ECF81E080936C
:101FD0000F0284EA8093BC0010920E0228CF85EC99
:101FE0008093BC0010920E0280910C02803230F47B
:101FF000E0910C02F0E0E451FE4F108260910C027F
:1020000070E08CEE91E0F0E0E0E0099510920C02B7
:102010000ECF10920D0238CF1F920F920FB60F9273
:1020200011242F933F938F939F93AF93BF938091EE
:10203000340290913502A0913602B091370230916E
:10204000780123E0230F2D3758F50196A11DB11D0E
:10205000209378018093340290933502A093360246
:10206000B09337028091790190917A01A0917B0120
:10207000B0917C010196A11DB11D809379019093CF
:102080007A01A0937B01B0937C01BF91AF919F91A6
:102090008F913F912F910F900FBE0F901F90189529
:1020A00026E8230F0296A11DB11DD2CFCF93DF9357
:1020B000EEE4F2E086E491E0918380831282148260
:1020C0001382C8E3D2E01B821A8286E391E09983EF
:1020D000888382E18C8383E18D838FEF8E8380E818
:1020E0008F8380E488878CE3898781E090E09B87F9
:1020F0008A8788E08D8780E094E09F878E870E94A2
:102100003D18998B888B1A8A1B8A1C8A1D8A1C860B
:10211000DF91CF910895CF93DF93CDB7DEB7A1972D
:102120000FB6F894DEBF0FBECDBF789484B5826041
:1021300084BD84B5816084BD85B5826085BD85B56B
:10214000816085BD80916E00816080936E001092E9
:102150008100809181008260809381008091810064
:1021600081608093810080918000816080938000F5
:102170008091B10084608093B1008091B000816053
:102180008093B00080917A00846080937A0080917F
:102190007A00826080937A0080917A0081608093D7
:1021A0007A0080917A00806880937A001092C10052
:1021B00068EE73E080E090E00E94D60760E08091D6
:1021C0003C020E943B0460E080913D020E943B047F
:1021D00080913E028F3F99F061E00E943B0460E0F5
:1021E00080913E020E94C7036AE070E080E090E0C8
:1021F0000E94D60761E080913E020E94C70364E618
:1022000070E080E090E00E94D60788E392E00E94B0
:10221000170D60914102660F88E392E00E949D0CC9
:1022200060E088E392E00E949D0C6EEA88E392E011
:102230000E949D0C65ED88E392E00E949D0C60E891
:1022400088E392E00E949D0C68EA88E392E00E9495
:102250009D0C60914002615088E392E00E949D0CC9
:1022600063ED88E392E00E949D0C60E088E392E0D9
:102270000E949D0C60E488E392E00E949D0C6DE852
:1022800088E392E00E949D0C64E188E392E00E9462
:102290009D0C60E288E392E00E949D0C60E088E380
:1022A00092E00E949D0C61EA88E392E00E949D0CFE
:1022B00068EC88E392E00E949D0C80913F02803898
:1022C00009F015C180914002803209F006C16AED23
:1022D00088E392E00E949D0C62E088E392E00E9415
:1022E0009D0C61E888E392E00E949D0C60E888E321
:1022F00092E00E949D0C69ED88E392E00E949D0CA3
:1023000062E288E392E00E949D0C6BED88E392E02C
:102310000E949D0C60E288E392E00E949D0C64EABA
:1023200088E392E00E949D0C66EA88E392E00E94B6
:102330009D0C6EE288E392E00E949D0C88E392E09F
:102340000E94F70C64E670E080E090E00E94D607FF
:10235000409146025091470270E060E0809148024F
:10236000909149020E94281A10924A0210924B0240
:1023700088E392E00E94360D88E392E00E94170DF8
:1023800060914102660F88E392E00E949D0C60E03C
:1023900088E392E00E949D0C6DE888E392E00E9441
:1023A0009D0C64E188E392E00E949D0C6FEA88E353
:1023B00092E00E949D0C88E392E00E94F70C8091CD
:1023C000420290914302019711F4109244022AE0D4
:1023D00040E86AE080E00E94610288E392E00E94A7
:1023E000360D8091510290915202188A198A1A8AE8
:1023F0001B8A9A8389831C821B8211E01A8781E8D9
:1024000090E098878F831B86198720E044E650E090
:1024100060E070E0CE0101960E94EB0680915102CF
:1024200090915202188A198A1A8A1B8A9A83898380
:102430001C821B821A878AEC90E098878F831B8608
:1024400082E0898720E047EE53E060E070E0CE0153
:1024500001960E94EB068091510290915202188AD7
:10246000198A1A8A1B8A9A8389831C821B821A877B
:102470008AEA90E098878F831B86198720E049E0DD
:1024800050E060E070E0CE0101960E94EB061092F1
:102490006C0210926B0281E00E94860A81E00E9429
:1024A000500A81E090E090936C0280936B02B5E952
:1024B0002B2E312CA2E04A2E81E00E94860A81E078
:1024C0000E94500A0E94C40981111AC061E070E0A4
:1024D00080E090E00E94D607F5CF803409F001CF6C
:1024E0006AED88E392E00E949D0C62E1F6CE8036B0
:1024F00009F0F7CE80914002803109F0F2CEE7CEAC
:102500008091510290915202188A198A1A8A1B8A64
:102510009A8389831C821B8281E08A8738862F8276
:102520001B8649864CE063E572E0CE0101960E946D
:102530000C08182F80E00E94860A81E00E94500A51
:102540000E94C409811107C061E070E080E090E062
:102550000E94D607F5CF111198C0F8E4EF2EF1E0F4
:10256000FF2E0CEF11E0023008F487C08091510279
:1025700090915202188A198A1A8A1B8A9A8389832F
:102580001C821B821A878AEA90E098878F831B86B9
:102590001987CE0101960E949309812C912C540138
:1025A0006B30710558F4660F771F660F771F6A5FEF
:1025B0007E4FFB0180809180A280B3808091510288
:1025C00090915202188A198A1A8A1B8A9A838983DF
:1025D0001C821B821A8781E890E098878F831B8674
:1025E0001987CE0101960E94930970E06F5F7F4FBB
:1025F000072E000C880B990B0E947316A5019401FD
:102600000E94AE164B015C018091510290915202E2
:10261000188A198A1A8A1B8A9A8389831C821B82C8
:102620001A87EAECF0E0F887EF831B864986CE0133
:1026300001960E9493096F5F7F4F90E080E00E94B7
:102640007116A50194010E94AE1625E83BEE41E308
:1026500050E40E94AE1620E030E04AE754E40E94C5
:10266000CB179B01AC0160E070E0CB010E94CB175F
:10267000F70160837183828393830F5FF4E0EF0E31
:10268000F11C083009F06FCF0AC04CE06FE572E032
:10269000CE0101960E940C08882309F45ECF68EEF3
:1026A00073E080E090E00E94D60764EF71E080E084
:1026B00090E00E94D607409146025091470270E098
:1026C00060E080914802909149020E94281A10927D
:1026D0004A0210924B026EE184E20E943F0262E0E5
:1026E00084E20E943F0220E142E360E186E10E9431
:1026F000610243E2F42E53E0852E912CB12CA12CE3
:102700000EE010E064EE662E77247A9473EFC72E05
:10271000DD24DA94EFEFAE1ABE0AC80CD91C60E1D2
:10272000600F262F88E4E82EEF184E2D8F2D0E9483
:10273000610260E1601B262F4E2D8F2D0E946102E9
:1027400064E36F19262F94E2592E500E452D34E282
:10275000E32EE01A8E2D0E9461026CEE6F0D262F83
:10276000452D8E2D0E946102A016B1060CF44AC0C0
:1027700080914C02811105C040924A02F8E2F09328
:102780004B026091500170915101809152019091E2
:1027900053018E010F5F1F4F22E044E00E941C1482
:1027A0006C010097E9F1FC0101900020E9F73197F5
:1027B0008F01081B190BB8016F5F7F4F90E080E01D
:1027C0000E9462197C01009781F1FC011082B60120
:1027D0000E942F1AA801B70188E392E00E94470ED9
:1027E000E114F10419F0C7010E94D91888E392E0BE
:1027F0000E94360D80E090E0892B09F45DCE0E94A6
:10280000000058CED7FC07C00150110982E0680EC5
:10281000711CC60CD71C92E0890E911CFA947ACFD9
:1028200010E000E0F12CE12CD5CF10E000E0D2CF99
:1028300088E392E00C94E20EEF920F931F93CF93F4
:10284000DF93E80134E047FD34E1042E000C550B22
:1028500057FF03C0519541955109E32E022F242FB4
:10286000AE010E943A14CE01DF91CF911F910F91DA
:10287000EF900895A9E0B0E0E0E4F4E10C94721761
:102880006A01F22EB02E102FFBE3AF2EA01608F433
:102890001BE31F5F012F27E0AE014F5F5F4F0E94D8
:1028A0009915BC018981982F9970913009F43FC026
:1028B0009BE2E1FC04C09E2D9170E0FC3AC05E2DCD
:1028C0005071E82FE87083FF46C084E0911101C089
:1028D00083E0EF2DE81B8F1508F0E0E0D6018E2F86
:1028E00020E2552351F1992329F0D6019C93C6018A
:1028F00001966C0196012D5F3F4FE2FE24C08EE4ED
:10290000D6018C9391E411969C93119712968C9317
:10291000D9018E2F90E281111BC0E20FF32FF11D20
:1029200010828EEF9FEF2996ECE00C948E179DE2BB
:10293000C6CF90E2C4CF2D9381508111FCCFCE0E33
:10294000D11CE0E0D0CF8EE6D6018C9391E6DBCFB0
:102950009D938150E0CF482F447082FF3DC084E0BA
:10296000911101C083E08F1510F4EF2DE81BD60103
:102970008E2F20E2552309F1992329F0D6019C934B
:10298000C60101966C0196012D5F3F4FE2FE1BC010
:1029900089E4D6018C938EE411968C93119786E48A
:1029A00012968C93D9018E2F90E2882309F4B5CF2B
:1029B0009D938150FACF2D9381508111FCCFCE0E83
:1029C000D11CE0E0D9CF89E6D6018C938EE6119632
:1029D0008C93119786E6E4CF9B0177FF02C030E02D
:1029E00020E0A1E0B0E0911102C0B0E0A0E0F90168
:1029F0003196AE0FBF1F8B2C912CBB2009F461C008
:102A00005401EFEFAE1ABE0AAA0DBB1DFA161B0643
:102A100019F014F04F2D4A1B511188C0E3FC59C026
:102A20007601A42FB0E2A1114FC0C40ED11C99238E
:102A300009F45BC040E0D6011196F60190836D0168
:102A4000552309F448C0012F060F9A81582F507161
:102A500084FF03C0913309F4015010160CF047C0F5
:102A6000093008F008E0EEE2FE2E5B01A01AB10882
:102A700085019194819491082F3F320729F4D60162
:102A8000FC92F60131966F016217730794F10217F9
:102A900013077CF5DB01A21BB30BAA24A394B12C72
:102AA000AC0EBD1EAA0DBB1D11968C912150310993
:102AB000D601119628153905F4F0F60180836D01D1
:102AC000DBCFB12CA12CA0CFF701B1937F01A15096
:102AD000AACF9111B0CFD601942F50E302C05D93DD
:102AE00091509111FCCFC40ED11C40E0ACCF01E05D
:102AF000BACF80E3DBCF6217730731F4963388F4E3
:102B0000953311F4552369F0F6018083FD01842F7C
:102B100090E2811108C0A40FB11D1C9290E080E0EA
:102B200002CF81E3F1CF91938150F3CF911183CF05
:102B30008ACF283008F027E03327DA01990F311DBA
:102B400087FD916000966105710539F432602E5F52
:102B50003D9330E32A95E1F708959F3F30F08038A8
:102B60007105610509F03C5F3C5F3D93913008F0D1
:102B70008068911DDF93CF931F930F93FF92EF9285
:102B8000192F987F9695E92F96959695E90FFF272F
:102B9000EE53FF4F99273327EE24FF24A701E701C7
:102BA00005900894079428F4360FE71EF81E491F75
:102BB000511D660F771F881F991F0694A1F7059076
:102BC000079428F4E70EF81E491F561FC11D770F02
:102BD000881F991F661F0694A1F70590079428F493
:102BE000F80E491F561FC71FD11D880F991F661F5A
:102BF000771F0694A1F70590079420F4490F561FFC
:102C0000C71FD81F990F661F771F881F0694A9F743
:102C100084911095177041F0D695C79557954795B3
:102C2000F794E7941A95C1F7E8E6F0E068941590F8
:102C3000159135916591959105907FE27395E11815
:102C4000F10A430B560BC90BD009C0F7E10CF11E7A
:102C5000431F561FC91FD01D7EF4703311F48A958F
:102C6000E6CFE894015030F0080F0AF4002702176D
:102C700008F4202F2395022F7A3328F079E37D93EF
:102C80002A95E9F710C07D932A9589F606949795C1
:102C90006795379517951794E118F10A430B560B72
:102CA000C90BD00998F023957E9173957A3308F07B
:102CB00070E37C932013B8F77E9170617D9330F0C0
:102CC000839571E37D9370E32A95E1F71124EF90EA
:102CD000FF900F911F91CF91DF91992787FD9095DC
:102CE0000895E89409C097FB3EF4909580957095FF
:102CF00061957F4F8F4F9F4F9923A9F0F92F96E948
:102D0000BB279395F695879577956795B795F111BC
:102D1000F8CFFAF4BB0F11F460FF1BC06F5F7F4F59
:102D20008F4F9F4F16C0882311F096E911C077236B
:102D300021F09EE8872F762F05C0662371F096E874
:102D4000862F70E060E02AF09A95660F771F881F43
:102D5000DAF7880F9695879597F908950E94C1161E
:102D60000C9432170E94241738F00E942B1720F081
:102D7000952311F00C941B170C94211711240C941B
:102D800066170E94431770F3959FC1F3950F50E0AB
:102D9000551F629FF001729FBB27F00DB11D639F0D
:102DA000AA27F00DB11DAA1F649F6627B00DA11DB3
:102DB000661F829F2227B00DA11D621F739FB00D59
:102DC000A11D621F839FA00D611D221F749F3327C9
:102DD000A00D611D231F849F600D211D822F762F62
:102DE0006A2F11249F5750409AF0F1F088234AF03F
:102DF000EE0FFF1FBB1F661F771F881F91505040AB
:102E0000A9F79E3F510580F00C941B170C94661790
:102E10005F3FE4F3983ED4F3869577956795B79531
:102E2000F795E7959F5FC1F7FE2B880F911D96954B
:102E3000879597F9089597F99F6780E870E060E0BB
:102E400008959FEF80EC089500240A941616170643
:102E500018060906089500240A941216130614068B
:102E600005060895092E0394000C11F4882352F0EE
:102E7000BB0F40F4BF2B11F460FF04C06F5F7F4FA6
:102E80008F4F9F4F089557FD9058440F551F59F08D
:102E90005F3F71F04795880F97FB991F61F09F3F47
:102EA00079F087950895121613061406551FF2CF70
:102EB0004695F1DF08C0161617061806991FF1CFC0
:102EC00086957105610508940895E894BB276627E7
:102ED0007727CB0197F908952F923F924F925F92F7
:102EE0006F927F928F929F92AF92BF92CF92DF921A
:102EF000EF92FF920F931F93CF93DF93CDB7DEB77F
:102F0000CA1BDB0B0FB6F894DEBF0FBECDBF099412
:102F10002A88398848885F846E847D848C849B8469
:102F2000AA84B984C884DF80EE80FD800C811B8177
:102F3000AA81B981CE0FD11D0FB6F894DEBF0FBEA6
:102F4000CDBFED010895A1E21A2EAA1BBB1BFD0106
:102F50000DC0AA1FBB1FEE1FFF1FA217B307E40778
:102F6000F50720F0A21BB30BE40BF50B661F771FD0
:102F7000881F991F1A9469F76095709580959095B0
:102F80009B01AC01BD01CF010895EE0FFF1F05901D
:102F9000F491E02D09940E94DF170C9432170E94DF
:102FA0002B1758F00E94241740F029F45F3F29F0B6
:102FB0000C941B1751110C9466170C9421170E9446
:102FC000431768F39923B1F3552391F3951B550BE0
:102FD000BB27AA2762177307840738F09F5F5F4FEC
:102FE000220F331F441FAA1FA9F335D00E2E3AF02B
:102FF000E0E832D091505040E695001CCAF72BD043
:10300000FE2F29D0660F771F881FBB1F2617370793
:103010004807AB07B0E809F0BB0B802DBF01FF27C5
:1030200093585F4F3AF09E3F510578F00C941B1770
:103030000C9466175F3FE4F3983ED4F3869577953A
:103040006795B795F7959F5FC9F7880F911D96957E
:10305000879597F90895E1E0660F771F881FBB1FDA
:10306000621773078407BA0720F0621B730B840B87
:10307000BA0BEE1F88F7E09508950F931F93CF9337
:10308000DF938230910510F482E090E0E0916F02CE
:10309000F091700230E020E0B0E0A0E0309799F4C9
:1030A0002115310509F44AC0281B390B243031059C
:1030B000D8F58A819B816115710589F1FB019383A4
:1030C0008283FE0111C04081518102811381481722
:1030D0005907E0F04817590799F4109761F01296D4
:1030E0000C93129713961C933296CF01DF91CF91D8
:1030F0001F910F91089500936F0210937002F4CF07
:103100002115310551F04217530738F0A901DB01B1
:103110009A01BD01DF01F801C1CFEF01F9CF909312
:10312000700280936F02CDCFFE01E20FF31F8193F7
:1031300091932250310939832883D7CF20916D0292
:1031400030916E02232B41F4209102013091030152
:1031500030936E0220936D022091000130910101A5
:103160002115310541F42DB73EB74091040150912E
:103170000501241B350BE0916D02F0916E02E21700
:10318000F307A0F42E1B3F0B2817390778F0AC018A
:103190004E5F5F4F2417350748F04E0F5F1F509367
:1031A0006E0240936D02819391939FCFF0E0E0E037
:1031B0009CCFCF93DF930097E9F0FC013297138205
:1031C0001282A0916F02B0917002ED0130E020E018
:1031D0001097A1F420813181820F931F20916D02FD
:1031E00030916E022817390709F061C0F0936E0222
:1031F000E0936D02DF91CF910895EA01CE17DF07CA
:10320000E8F54A815B819E0141155105B1F7E9015D
:10321000FB83EA8349915991C40FD51FEC17FD0731
:1032200061F4808191810296840F951FE901998351
:103230008883828193819B838A83F0E0E0E0129609
:103240008D919C9113970097B9F52D913C91119711
:10325000CD010296820F931F20916D0230916E0274
:103260002817390739F6309751F5109270021092ED
:103270006F02B0936E02A0936D02BCCFD383C28362
:1032800040815181840F951FC817D90761F44E5FA3
:103290005F4F88819981480F591F518340838A81EC
:1032A0009B81938382832115310509F0B0CFF09380
:1032B0007002E0936F029ECFFD01DC01C0CF13824C
:1032C0001282D7CFB0E0A0E0E8E6F9E10C946E17E7
:1032D0008C01009751F4CB010E943D188C01C8016C
:1032E000CDB7DEB7E0E10C948A17FC01E60FF71FBB
:1032F0009C0122503109E217F30708F49DC0D9015F
:10330000CD91DC911197C617D70798F0C530D1053C
:1033100030F3CE0104978617970708F3C61BD70B27
:103320002297C193D1936D937C93CF010E94D918BA
:10333000D6CF5B01AC1ABD0A4C018C0E9D1EA0912C
:103340006F02B0917002512C412CF12CE12C10979E
:1033500031F580916D0290916E028815990509F002
:103360005CC04616570608F058C080910001909145
:103370000101009741F48DB79EB74091040150912F
:103380000501841B950BE817F90708F055C0F09369
:103390006E02E0936D02F90171836083A0CF8D917D
:1033A0009C91119712966C90129713967C9013979C
:1033B000A815B90559F56C0142E0C40ED11CCA1418
:1033C000DB0420F1AC014A195B09DA01129615976A
:1033D00080F06282738251834083D9016D937C9324
:1033E000E114F10471F0D7011396FC93EE93129758
:1033F00076CF22968C0F9D1FF90191838083F30174
:10340000EFCFF0937002E0936F0269CF4816590630
:1034100008F42C017D01D3019ACFCB010E943D1805
:103420007C01009749F0AE01B8010E941F1AC80143
:103430000E94D918870153CF10E000E050CFFB0164
:10344000DC0102C001900D9241505040D8F7089520
:10345000DC0101C06D9341505040E0F70895FB013D
:10346000DC0101900D920020E1F7089512E0C4E123
:10347000D2E004C0FE010E94C5172196C531D107D4
:06348000C9F7F894FFCF2C
:103486000000710280000000003F0000803F000045
:103496000040000080400000004100008041000024
:1034A600004200008042000000430000804300000C
:1034B600004400000000080C470E09080808E20E48
:0834C600E70E00000000B40B4A
:00000001FF
