:100000000C9475050C949D050C949D050C949D0510
:100010000C949D050C949D050C949D050C949D05D8
:100020000C949D050C949D050C949D050C949D05C8
:100030000C949D050C949D050C949D050C949D05B8
:100040000C9433190C949D050C949D050C949D05FE
:100050000C949D050C949D050C949D050C949D0598
:100060000C9414180C949D05000000002300260039
:10007000290000000000240027002A0000000000E2
:10008000250028002B0004040404040404040202D4
:100090000202020203030303030301020408102007
:1000A0004080010204081020010204081020000012
:1000B0000008000201000003040700000000000027
:1000C00000005F0003020304030504050A00FE07A5
:1000D000FE07000142028803B620050062072107DF
:1000E0003943C7A00422079B52476209230E3D42B1
:1000F0004F294906A53228A52401240C3D4257B6B4
:10010000D4B624D92200250C3D424FA474ABB44888
:100110000900260D3D424F9644495649A4480927F7
:10012000061953C7002808BB425752AA152909BB14
:10013000424756AA94002A0A2D4647965406A52DF2
:100140002B0A2D4657180D5218012C079B3E8F5233
:10015000022D060D4EC7202E089B3E4FB224002FC5
:10016000083D4267AD6308300B3D425796D46C4959
:100170002D02310A3D4257262561D320320C3D42E3
:10018000CF92859194858300330C3D42C7206699B8
:10019000AA250B00340C3D425F2625A564D0C2047D
:1001A000350B3D42C73131855AB200360C3D42977E
:1001B000948589494B1600370B3D42C7206661562E
:1001C000CC00380C3D42CF9269C99269C902390C02
:1001D0003D42CF92498A126691043A0ABB3E4FB221
:1001E000A4C992003B09BB3E4FB2A44A093C08BCDB
:1001F000425FD4D8003D081D4AC7A00E023E08BC8D
:100200004247D8D4063F0A3D42CF9235E6500440DB
:100210000C3D42CF92494B62491700410C3D425779
:1002200096D4B461C8B400420D3D42C71055A264D3
:10023000AA448302430A3D42CF92896DC902440F0A
:100240003D42C71055A2244AA2241A1400450B3D72
:1002500042C7311C92301C04460A3D42C7311C92F1
:10026000B008470B3D42CF9289A52D5900480A3D61
:100270004247661B86CC164908BB42C71275194A0D
:100280000A3D42D716B64491044B0D3D4247262500
:10029000252D892A59004C083D4247D8E3204D0BB3
:1002A0003D4247A62D4BA2D9024E0C3D4247A64DDA
:1002B0004A226D5A004F0A3D42CF92794B160050A8
:1002C0000C3D42C79064DAA0844500510A453ECFF8
:1002D0009279A9AC01520D3D42C79064DAA0942AEC
:1002E0005900530B3D42CF92A9AB962C0054093DC7
:1002F00042C720853D0155093D4247E65BB20056A5
:100300000D3D4247664B4A4994641100570A3D42ED
:1003100047E69228C92D580B3D4247A625B54A4DC0
:100320000B590A3D4247A625B5B0095A0A3D42C7B6
:1003300020661D07015B08BB42C710751A5C083DAB
:10034000424798760C5D08BB42C7D469085E081D19
:10035000525796D4025F060D3EC7206006125B47D7
:1003600014610A2D42CF9A0C5A3204620B3D424767
:1003700058316993A200630A2D42CF928959B20085
:10038000640A3D4267C5B4498A12650A2D42CF927C
:100390000D43BA00660B3D429754C98628AC0167ED
:1003A0000C3D3ACFA069C9106AC902680A3D4247AC
:1003B000583169B6006908BB424F28B50C6A0BCCAE
:1003C0003A5FACD5242951006B0B3D4247589392BC
:1003D000A992056C08BB4287D4CB006D0B2D4287D8
:1003E000D2A2244AA2056E092D424762D26C016F47
:1003F000092D42CF92D99205700C3D3A4762D22620
:1004000045094300710A3D3A8F699314252C7209FE
:100410002D424762128B0073092D42CF921E1400A9
:10042000740C3D424F980D51588A140075092D42A5
:1004300047E6A42801760B2D4247A625A5248B006C
:10044000770A2D42476649942E00780A2D42479636
:10045000D42AB500790C3D3A47665294504B1600A9
:100460007A092D42C7A0B50D027B0ABC429712261D
:1004700062140A7C063943C7217D0BBC428718856C
:100480004A9848007E091D524FA4245202000000E1
:1004900004FFFF00005F0003030404030505100FC1
:1004A000FEFD0BFD0BFE01C2046706362005008C25
:1004B000142109B28514074ACC00220843BD151146
:1004C0002D012316A7847891602418099922C14828
:1004D000C8140946829118002417D77C78C18A2451
:1004E000328A5062C4222D42094D2292620C0025AC
:1004F0001FBC845DC2A084284A1445A2925058149F
:10050000138724C190281812C56292605004261BDC
:10051000BC847D7480482C128BE2903984340A8D1F
:1005200042329A70442B954400270641BD1304289B
:100530000DD47475A19028A4B7982C18290ED474E2
:1005400015C1982C26D229244A032A0B55B45629C2
:1005500029934C21002B0B778C78E1B45B380D008C
:100560002C085275141609002D07249C1587002E9F
:1005700006328514062F0DB48475996249B1A458CA
:100580000C00300DB7845833891ABF49D446003166
:1005900009B58558129AFE44320DB7843824514D5E
:1005A000AAA8DBE1103310B7843824514D2A949166
:1005B000A534D284043411B78498C2B5882C220A99
:1005C000894292A354483511B7843896523865242D
:1005D000994A69A40909003610B7845824118D2A54
:1005E00059A9B195242400370FB784180FC1484C7E
:1005F0002A942A4AD5003811B78438A4118D668907
:10060000912236A61105003910B7845814518DADCA
:10061000B222A5914424003A0772851426033B09AF
:10062000927514268B04003C0A778CD8C1D1F272E3
:10063000003D08379C1877C0013E0A778C18E14DC1
:100640008B61003F0EB6843714114928538C033553
:1006500001401DBD849ED6E14836922849482A149F
:100660009188229268992849867248EC20024117A5
:10067000BA849B72881C101147C4A1684C1813DA05
:10068000A2A2A864464215B9841A37259948265271
:100690003B0925428950223B8C004317BA847B9545
:1006A000C850229E03E61039440E9183C491A1AC38
:1006B000044419BB841C87A07024158925628958BD
:1006C000229688255291707288014517B9841A07BD
:1006D0008950228D885244C1A228284A9146840715
:1006E000024617B9841A078950228D885244C1A244
:1006F00028280ACA01622A004719BB847C95D05079
:10070000248EC8011139480E129E4552D16C488A78
:10071000004818BB841C348A542415494552D141E1
:100720002415494552915442234909B4851714911F
:10073000FE424A0EB7847944A95E44129124B4065D
:100740004B18BB841C249230288B8AC29238A02C70
:10075000998A86B29970422A4C17B9841A64394032
:100760000E9003E40039400E9046A411E181004D43
:1007700024BD841E54CA74341D456411514416119D
:100780004564115148121285242151481212C55452
:100790004622024E1CBB841CD3C934440C4566A1BE
:1007A000902C1413A54D4241527414968C23004F83
:1007B00018BB847CC5D9482A9103E8003A800EA072
:1007C000032452D16C58035017B9841A87906C22B5
:1007D000940825B2894D0E9003E400311500511F95
:1007E000EB6C7CC5D9482A9103E8003A800EA0CC76
:1007F0002422896844AC8344E1491C30015217BB70
:10080000841C87A06C269409658A56995026541337
:100810004A6A13005312B9845A94C84C228D482353
:1008200064E7319152025417BA841B879268A62D4F
:100830002887C82172881C2287C80134005518BB3C
:10084000841CC48938240E8943E29038240E8943DD
:10085000E298305A035619BA841BB48934248DC9DE
:1008600082B2A02C2A094BC29238400E11025724A2
:10087000BD841E14CA44260BC96421992C268948BC
:1008800082928824288948829288242A13CBC432F1
:100890001900581BBB841C25CA50268C8AE20049CB
:1008A0001C300744E480903428134E48055919BA87
:1008B000841BB48934260BCAA292B0240E9043E460
:1008C0001039440EA0015A0FB8841987E19036D52B
:1008D0003A230E0F035B09D4741526FD27025C0F23
:1008E000B68417D170341C0D47C3D170005D09D494
:1008F000741524FD27035E0F77A478E1E830129386
:1009000088621199005F0617741707600834C516CE
:10091000326100610E788459349158569149442BC4
:10092000036218B9841A73801C2007C80192D94841
:10093000512294082532518404630E77845824117F
:100940008D2A8C884414006417B984BA73801C20E3
:1009500007C82622D14428114A8422D16C32650F5F
:1009600078845934914478A80364A20A00660DB6CD
:10097000845623896E25A16E24006710B76CB89247
:100980008A8C26A9844D57A1A4026817B9841A73CA
:10099000801C2007C80192D9484D2413C94432094C
:1009A00003690AA4843522E9482F046A0DD56A75C3
:1009B000EA8099BE512413006B11B88419639D26F7
:1009C0002215195122134946036C09B4841523FDDD
:1009D0000B016D127E841F93D16C3452539229C93E
:1009E00094642A1C6E1079841A93D9484D2413C933
:1009F000443209036F0E788459349144C82811C9D0
:100A000048007014A96C1A93D948512294082523E0
:100A100095991C20A6027116A96C5994906822948D
:100A20000825429168369103E4003101720B778406
:100A3000179315558D3400730A7684373722DB05FA
:100A400000740FA68456D1A0AC24D41411852600BE
:100A5000751179841AA3914C2413C94432916836D4
:100A600019761078831794892C248B498292A85880
:100A70000677187D831C14CA44260BC96431494487
:100A8000129444245199582603780F788419A38925
:100A9000484695D26292D1007914A86B1794892C9C
:100AA000248B498292A8581C9404A7007A08768463
:100AB0001737BD1D7B0DD57476A298B6D4A04C31E6
:100AC0002A7C07B1871807027D0FD57416D2A04C77
:100AD000311A8B690BC9007E0927A43813CA040098
:100AE00000000004FFFF00007D1911241FBECFEF9E
:100AF000D8E0DEBFCDBF11E0A0E0B1E0E6EEF8E364
:100B000002C005900D92AE3AB107D9F727E0AEEAE0
:100B1000B1E001C01D92A534B207E1F715E0C5E7C9
:100B2000D5E004C02197FE010E94551CC437D107AF
:100B3000C9F70E943C1A0C94711C0C9400006623A7
:100B400029F06A3019F0862F90E008958FEF9FEF1B
:100B50000895CF92DF92EF92FF920F931F93CF935E
:100B6000DF93EC01842F8770E1E0F0E0082E01C0F4
:100B7000EE0F0A94EAF73E2F7E0199E7E90EF11C89
:100B8000D7019C9110E0923018F41E2F913029F17A
:100B900050E0487FE8ADF9ADC880D980D6015096C5
:100BA0009C91949F6001959FD00C11246C0D7D2D1C
:100BB000711DDF01A60FB71F011115C08C91812B8C
:100BC00083278D932150D1F7DF91CF911F910F9102
:100BD000FF90EF90DF90CF90089530E0D9CF110FC4
:100BE000330F222389F39C91912B93279C938F5F42
:100BF000877021508111F3CF9CADA90FB11DF70172
:100C00009081923028F4913009F031E011E0E9CF81
:100C100031E0E7CF80E0089580E008958091F2060A
:100C20009091F306892BA1F18091100780931C0706
:100C30004091110740931D0790911B07992341F1A3
:100C4000913069F490911207891714F490931C075E
:100C5000809113078417E4F480931D070895309161
:100C60000D0720910F07082E000C990B622F022E02
:100C7000000C770B630F711D37FD7A958617970768
:100C80001CF4320F30931C07241714F420931D0713
:100C900008959B01DC011896ED91FC9141E067E11C
:100CA000099420910002260F3327331F213231058A
:100CB000ECF420916D02FC0190E080E0243069F0BA
:100CC00082E00895A09100022191AC0142525E4F52
:100CD000A40FB52FB11D2C930196861798F3809120
:100CE0000002680F6093000280E0089581E008959B
:100CF000089508950895E091260280912502E8174D
:100D000030F4F0E0E95DFD4F808190E008958FEFD1
:100D10009FEF089590912602809125022FEF3FEFDB
:100D2000981748F4E92FF0E0E95DFD4F208130E0AD
:100D30009F5F90932602C9010895809125029091AA
:100D40002602891B990B0895CF92DF92EF92FF92B2
:100D50000F931F93CF93DF937C01CB018A012091E6
:100D60007302222389F0EB016B01C40ED51ECC1552
:100D7000DD0569F06991D701ED91FC910190F08159
:100D8000E02DC7010995F3CF642F0E945106C801D9
:100D9000DF91CF911F910F91FF90EF90DF90CF9057
:100DA0000895CF93DF931F92CDB7DEB7698320916B
:100DB00073022223F9F020919602203258F021E0AC
:100DC00030E0FC013383228390E080E00F90DF91DC
:100DD000CF91089580917402E82FF0E0EB58FD4F19
:100DE000998190838F5F809374028093960281E053
:100DF00090E0ECCF61E0CE0101960E945106F7CF62
:100E0000833081F028F4813099F08230A9F0089580
:100E10008730A9F08830C9F08430B1F48091800027
:100E20008F7D03C0809180008F778093800008952C
:100E300084B58F7784BD089584B58F7DFBCF809175
:100E4000B0008F778093B00008958091B0008F7DBF
:100E5000F9CF1F93CF93DF93282F30E0F901E255AC
:100E6000FF4F8491F901E656FF4FD491F901EA57FB
:100E7000FF4FC491CC23A9F0162F81110E940007C7
:100E8000EC2FF0E0EE0FFF1FE458FF4FA591B49157
:100E90008FB7F894EC91111108C0D095DE23DC9344
:100EA0008FBFDF91CF911F910895DE2BF8CFFC010A
:100EB00083858F3F11F00C942907089510926D02DD
:100EC00081E080936C021092470261E082E10E940F
:100ED000290761E083E10E942907E9EBF0E08081C6
:100EE0008E7F808380818D7F808388E48093B800AB
:100EF00085E48093BC000895CF93DF9391E09093B5
:100F0000DD018823B9F0C091B800D091BA0080917A
:100F1000BC008A7B8093BC0060E082E10E942907CC
:100F200060E083E10E9429070E945E07D093BA0027
:100F3000C093B800DF91CF910895CF93DF9390E0F5
:100F4000FC01E656FF4F24918A579F4FFC01849184
:100F50008823D1F090E0880F991FFC01EE58FF4FD5
:100F6000A591B491FC01E458FF4FC591D491623032
:100F700071F49FB7F8943C91822F809583238C93D2
:100F8000E8812E2B28839FBFDF91CF9108958FB7E3
:100F9000F894EC912E2B2C938FBFF6CF82309105D5
:100FA00038F0880F991F880F991F05970197F1F75F
:100FB0000895AF92BF92CF92DF92EF92FF920F937C
:100FC0001F93CF93DF93EC0188819981892B89F05E
:100FD0006EBD0DB407FEFDCFBEB48B2DDF91CF915A
:100FE0001F910F91FF90EF90DF90CF90BF90AF9047
:100FF00008958885998511E0892B09F010E8AA24C5
:10100000A394862F812309F0A12C062F2C813D81EA
:101010004E815F8160E271EA87E090E00E94281CC7
:10102000F22EB02EE12CC22ED12CFF2019F0C601D9
:101030000E94CE078A85877F09F042C08D858F3F49
:1010400089F0902F912381E009F480E08A1551F016
:10105000EF85F8898F89992369F19081892B8083A5
:10106000AA24A394E989FA898081998D892B8083A8
:10107000FF2019F0C6010E94CE078E858F3F39F000
:10108000EB89FC898081988D892309F0E12AE9891F
:10109000FA899081898D8095892380838E858F3F01
:1010A00009F0BE2C88859985892BB9F5110F11118E
:1010B000BCCF93CF9081809589238083A12CD2CF00
:1010C000E989FA898081998D892B8083FF2019F025
:1010D000C6010E94CE078D858F3F49F0EF85F889C4
:1010E0008F89902F9123A9F09081892B8083E989A2
:1010F000FA899081898D8095892380838E858F3FA1
:1011000069F2EB89FC898081988D892339F2E12A83
:10111000C5CF908180958923E9CF1695C8CF3FB779
:10112000F8948091D9019091DA01A091DB01B091FE
:10113000DC0126B5A89B05C02F3F19F00196A11D23
:10114000B11D3FBFBA2FA92F982F8827BC01CD0111
:10115000620F711D811D911D42E0660F771F881F70
:10116000991F4A95D1F708958F929F92AF92BF929F
:10117000CF92DF92EF92FF920F931F93CF93DF9363
:10118000D0919602D13208F0D7C0182FC0919502A5
:101190000E948F086B017C0180916D0281116BC0F0
:1011A00082E080936D0210936C028FEF80936B024C
:1011B00010926A02D0936902A5E7B2E0E9E4F2E096
:1011C00080E0D81391C01092480280914802CC0F61
:1011D000C82BC093480280914702813009F088C033
:1011E000109247020E948F086B017C018091480297
:1011F0008093BB0080916F0290917002A091710268
:10120000B0917202892B8A2B8B2BA1F00E948F0840
:1012100000916F0210917002209171023091720260
:101220006C197D098E099F090617170728073907CA
:1012300008F442C08091BC0083FDD8CF85EC809338
:10124000BC000E948F086B017C0180916D0282308E
:1012500009F450C080916B028F3F09F46FC08091F8
:101260006B02803209F46CC080916B02803309F408
:1012700069C084E026C080916F0290917002A091B5
:101280007102B0917202892B8A2B8B2B09F484CFC7
:101290000E948F0880906F0290907002A09071025F
:1012A000B09072026C197D098E099F098616970607
:1012B000A806B90608F070CF80916E020E947C07E4
:1012C00085E0109274021092960210927302DF91E0
:1012D000CF911F910F91FF90EF90DF90CF90BF9033
:1012E000AF909F908F9008959D9191938F5F69CF5C
:1012F00085EEA5CF80916F0290917002A09171024E
:10130000B0917202892B8A2B8B2B09F49ECF0E94FD
:101310008F0800916F02109170022091710230913C
:1013200072026C197D098E099F0906171707280795
:10133000390708F08ACFC0CF81E0C3CF80E0C1CFAA
:1013400082E0BFCF83E0BDCF1F93CF93DF93EA014D
:10135000122FDC0111968D919C91DC01ED91FC9195
:101360000280F381E02D0995C817D90729F4812F50
:101370000E94B40891E0811190E0892FDF91CF9114
:101380001F9108958F929F92AF92BF92CF92DF925A
:10139000EF92FF926B017C010E948F084B015C0170
:1013A000C114D104E104F104B9F00E948F08681956
:1013B00079098A099B09683E73408105910580F38C
:1013C00021E0C21AD108E108F10888EE880E83E016
:1013D000981EA11CB11CE4CFFF90EF90DF90CF903E
:1013E000BF90AF909F908F900895DC011A96ED9179
:1013F000FC9130E020E00994DC011696ED91FC911F
:1014000030E020E040E069E10994DC011696ED91BE
:10141000FC9130E020E040E068E109949A01DC01B1
:101420001696ED91FC91462F67E10994EF92FF9299
:101430000F931F93CF93DF931F92CDB7DEB77C013D
:101440008B01D8016C91673129F150F46531A0F41A
:101450000F90DF91CF911F910F91FF90EF90089522
:101460006A3118F16E3FA1F7F8014181498369E2C1
:10147000C7010E94F5090BC0F80141814983D701DA
:101480001696ED91FC9130E020E0C70109950E5FC2
:101490001F4FD7CFF80181818983AE014F5F5F4F26
:1014A00061E0C7010E940E0AF2CF0F5F1F4FD70104
:1014B0001696ED91FC9130E020E040E0C7010995DF
:1014C000C0CF462FDC011696ED91FC9130E020E074
:1014D00066E10994462FDC011696ED91FC9130E00F
:1014E00020E065E10994EF92FF920F931F93CF9351
:1014F000DF93EC01042F79016D3009F446C050F4FC
:101500006B30C9F1693009F49FC06A3009F465C0D5
:1015100080E05CC06E3009F44BC06F3099F70E94D8
:10152000050AF7011381110F110F110F6C89160FA6
:1015300060E4CE010E946A0A612F62956F7060615B
:10154000CE010E946A0A612F6F70CE010E94610A6B
:10155000F7016481606BCE010E94610AF70140814E
:1015600051816281660F660F660FCE010E940E0ADE
:101570000150A1F727C063E171E0442311F06EE050
:1015800071E0CE010E94160A20C0411109C067E037
:1015900071E00E94160AE881F98182898C8B15C05E
:1015A00060E071E00E94160AE881F9818389F6CF34
:1015B0000E94050A61E8CE010E946A0A602FCE01EE
:1015C0000E94610ACE010E94FC0981E0DF91CF9167
:1015D0001F910F91FF90EF900895EA85FB8530E011
:1015E00020E040E068E2CE010995EE81FF8130E025
:1015F00020E040E064E1CE01099541E06BE4CE01DA
:101600000E94F509E881F981448169E2CE010E94D6
:10161000F50940E06BE4CE010E94F509E881F9810B
:10162000448169E2CE010E94F50941E06BE4CE01FC
:101630000E94F509E881F981458169E2CE010E94A5
:10164000F50968E171E09DCF8DE491E0998388838D
:1016500082E0A4CFDC011896ED91FC9130E020E00F
:1016600040E069E10994DC011896ED91FC9130E0CD
:1016700020E040E068E10994CF93DF931F92CDB75B
:10168000DEB76983BE016F5F7F4F0E9449060F90EE
:10169000DF91CF910895EF92FF921F93CF93DF9345
:1016A000EC01162F7A010E94330B60E4CE010E94F8
:1016B0003C0BE885F9859701412F67E1CE0109953B
:1016C000CE01DF91CF911F91FF90EF900C942A0BE8
:1016D000EF92FF921F93CF93DF93EC01142F7901C8
:1016E000663181F138F4643109F44BC0653179F029
:1016F00080E022C06831C9F150F16931C9F78091A9
:10170000D301882391F1CE010E942A0B2EC0809133
:10171000D301882319F0CE010E942A0BCE010E942A
:10172000330B60E0CE010E943C0B612FCE010E9482
:101730003C0B81E08093D301DF91CF911F91FF900B
:10174000EF900895642F0E943C0B81E0F5CF8091CB
:10175000D301882319F0CE010E942A0BA701193169
:1017600038F4612FCE010E944B0B1092D301EDCFC4
:1017700068E1CE010E944B0B185188E1E80EF11C84
:10178000EDCF8E898F3F11F488E78E8BE885F98540
:101790009701412F64E1CE01DF91CF911F91FF901E
:1017A000EF9009940F93342FFC01EF5BFF4F4081C2
:1017B000461B01110EC0421B01E0DC01DE965C916C
:1017C000DE97451BD496ED91FC91632F09950F91FF
:1017D0000895415000E0F1CFCF93DF93FC01A08149
:1017E000B18182AD982F990F990F990F95AF5096AF
:1017F0009C915097903208F09FE1990F990F990FA3
:1018000094AF23AD922F990F990F990F96AF5196E0
:101810003C915197682F620F7727771F361717066D
:1018200014F4832F821B97AFEF01C05CDF4F880F4A
:10183000880F880F890F888356968C915697229629
:1018400054969C919883EF5BFF4F8083DF91CF91FB
:1018500008950F93FC01EB5BFF4F3081319650816F
:10186000451730F4301738F0041728F080E013C023
:101870003017D0F3FBCFFC01ED5BFF4F30818C5B69
:101880009F4FFC018081681740F481E0321718F007
:1018900081E0261758F70F9108953217C8F3E6CF65
:1018A0003F924F925F926F927F928F929F92AF92F0
:1018B000BF92CF92DF92EF92FF920F931F93CF933D
:1018C000DF93EC017C0183E4E80EF11CF701108248
:1018D0003297108131978081181728F0F12FF81B6B
:1018E0008F2FF70180838FAD181B4E01F4E48F0E0C
:1018F000911CF40110835E01F5E4AF0EB11CF501FB
:101900001082339730806E01F6E4CF0ED11CF601C1
:101910003082349670803297508031966080329752
:101920004080072D252D462D642DCE010E94290CC7
:10193000CD58DF4F811113C01882DF91CF911F91D5
:101940000F91FF90EF90DF90CF90BF90AF909F905E
:101950008F907F906F905F904F903F90089581E0BF
:101960008883F7018081841508F44082511610F4B1
:10197000F4015082662011F0F50160827314E8F6DC
:10198000F6017082DACF0F93DC01802FFD01ED5854
:10199000FF4F90819923E9F12223D9F1223020F0E1
:1019A000023079F56F5F621B082F0170FD0180FD29
:1019B00032C0EB5BFF4F8081481758F13196808130
:1019C000481738F53297908131978081260F261776
:1019D000F0F46917D8F42FEF290F8217D0F46817A5
:1019E00008F4682F291708F4922F961BD696ED91CC
:1019F000FC91D7970480F581E02D292FCD01099521
:101A000008C0033089F64F5F421BCECF682F69179D
:101A100020F30F910895ED5BFF4F80816817C8F3A5
:101A2000319680816817A8F732969081319780812E
:101A3000240F241778F4491760F42FEF290F821729
:101A400040F7481708F4482F291708F4922F941BE1
:101A5000CDCF482F4917E8F6F2CF213039F020F0EA
:101A6000223031F0840F0895860F0895841B089565
:101A7000861B0895213039F020F0223031F0861B8A
:101A80000895840F0895860F0895841B08955F922A
:101A90006F927F928F929F92AF92BF92CF92DF927E
:101AA000EF92FF920F931F93CF93DF935C01162F5A
:101AB000642EEC01C15BDF4FDC80ED804C0189E7D7
:101AC000880E911CFE80FD18C12EF11608F4CF2C53
:101AD0005B800C85202F4E2D6D2D8A810E942D0D4F
:101AE000782E202F4E2D6D2D852D0E943A0D482FDA
:101AF000662071F08A85F40180832C2D672DC50145
:101B00000E94C30C1F1548F01F19E394D12CDACFA3
:101B100089858111F7CF8B85EECF1D0D1C83ED825A
:101B2000DF91CF911F910F91FF90EF90DF90CF90B9
:101B3000BF90AF909F908F907F906F905F9008952F
:101B4000DC0118964C911897ED91FC911197249116
:101B500030E0042E02C0359527950A94E2F7842FD1
:101B6000860F883068F031961196FC93EE93E491DD
:101B700098E0941B01C0EE0F9A95EAF72E2B88503F
:101B800018968C938FEF9FEF01C0880F6A95EAF744
:101B9000809582230895FC01E60FF11D849190E069
:101BA000982F88273196E4918E0F911D0895CF9339
:101BB000DF93EC01FC018491809303073196E4915B
:101BC000E0930407FE013296E491E0930507FE01DD
:101BD0003396E491E0930607FE013496E491E09396
:101BE0000707FE013596E491E0930807FE0136965B
:101BF000E491E0930907FE013796E491E0930A0728
:101C0000FE013896E491E0930B07FE013996E491CA
:101C1000E0930C07FE013A96E491E0930D07FE0174
:101C20003B96E491E0930E07FE013C96E491E0932D
:101C30000F07FE013D96E491E0931007FE013E96EA
:101C4000E491E0931107FE013F96E491E0931207BF
:101C5000FE017096E491E093130761E1CE010E94CA
:101C6000CB0D909315078093140763E1CE010E947A
:101C7000CB0D909317078093160765E1CE010E9464
:101C8000CB0D9093190780931807DF91CF9108959A
:101C90006F927F928F929F92AF92BF92CF92DF927C
:101CA000EF92FF920F931F93CF93DF93EC01062FD8
:101CB000142F7901FC01E55AFF4F8081813009F42E
:101CC00045C0D0F1823009F44BC0833009F452C0D2
:101CD000FE01EF5AFF4F00833196108337978081C2
:101CE000918147962FEFE216F10411F008F0E6C05B
:101CF000E1E6EE16F10408F447C0FE01E159FF4F9A
:101D000020813181820F931F9C012F5F3F4FF9018A
:101D10004491411142C0712C872DDF91CF911F91C9
:101D20000F91FF90EF90DF90CF90BF90AF909F907A
:101D30008F907F906F900895FE01E35BFF4F0190BD
:101D4000F081E02DCE010995180FC2CFFE01E35BB3
:101D5000FF4F0190F081E02DCE010995081BB8CF0F
:101D6000FE01E35BFF4F0190F081E02DCE0109956C
:101D7000181BAECFFE01E35BFF4F0190F081E02D19
:101D8000CE010995080FA4CFF1E4EF16F10408F491
:101D9000BBCFFE01E359FF4FB3CFFC0144914E1579
:101DA0001F0409F086C00296009709F4B4CF7E01A3
:101DB000FFE4EF0EF11CF70191838083108671968A
:101DC0006081C7010E94A00DF70186837296608131
:101DD000C7010E94A00DA82EF70187836E01F9E7C5
:101DE000CF0ED11CF6019081F701928781E091110D
:101DF00080E0F7018387FE01EE59FF4FB0806B2D25
:101E0000C7010E94A00D882EFE01ED59FF4F1081E1
:101E1000612FC7010E94A00D982EFE01EC59FF4FC3
:101E20000081602FC7010E94A00D015041E050E0E9
:101E30009A0101C0220F0A95EAF7782E721AF7016B
:101E4000068110160CF068CFBA94CA0101C0880F41
:101E5000BA94EAF7881AB4849A0C115001C0440F5E
:101E60001A95EAF7F42FF9199F2E2B2D4F2F682D75
:101E7000F70182810E942D0D182FF70182832B2DEF
:101E8000492D682D83810E943A0DF7018383F1E08B
:101E9000BF1609F47CC0BF1608F43FC022E0B2169A
:101EA00009F47BC093E0B91609F482C0082F212FF2
:101EB00038C0F9012491820F911D26CFFE01EF5801
:101EC000FF4F00811181080F191F680160E0C601F2
:101ED0000E94CB0D080F191F62E0C6010E94CB0DB6
:101EE000F4E0CF0ED11C8E159F0580F3F80184918C
:101EF00090E0982F88273196E4918E2B009709F473
:101F00000ACFE816F90619F4C80103964DCFF80177
:101F10003296E4910E0F111DE9CF202F210F082FCB
:101F20000A0D482F612FCE010E94290C882309F445
:101F3000F3CEF701148215828E01025A1F4F4E0113
:101F4000FFE58F0E911CF8016081C7010E94A00D72
:101F5000682EF4016081C7010E94A00DB82E40E0F8
:101F6000662DCE010E94470D41E06B2DCE010E94EF
:101F7000470D61E0C7010E94A00D8111F0CFF7016C
:101F800085818A1504F38285F6018083C5CEBA184F
:101F900021E0210F080F1B0DC4CF91E0392F301B1A
:101FA00021E0210F9A1901E0080F890F130FB9CF13
:101FB000212F2A0D982F901B01E0080F81E0890F37
:101FC000B0CFEF92FF921F93CF93DF931092BF0693
:101FD0007C0110E0D8E1C0E0F70161917F01E09160
:101FE000A906F091AA0687EA96E009958F3F98071F
:101FF000F1F08E3F2FEF920779F39C014D2F6C2F5C
:1020000087EA96E00E94480E90910207913049F0CD
:1020100030F0923041F0933041F0180FDDCFC80F0F
:10202000FCCFD80FFACFC81BF8CFD81BF6CF812F23
:10203000DF91CF911F91FF90EF900895CF93DF93A1
:10204000EC016BAFEEA9FFA90190F081E02D09959D
:10205000EEA9FFA90280F381E02DCE01DF91CF919F
:102060000994AF92BF92CF92DF92EF92FF920F93BB
:102070001F93CF93DF9300D000D01F92CDB7DEB770
:102080008C01DC01DA96AC90DA97DB96EC90DB976A
:10209000ED91FC91B188FE2CD12CC12CD801ED9191
:1020A000FC9111978089D8962D913C911C82FD82DC
:1020B0008B83B8E08B9FC00111248C9DA0018D9D66
:1020C000500D9C9D500D1124240F351F3A832983F8
:1020D000D8011496ED91FC919E012F5F3F4F41E096
:1020E0006FE0C8010995F3948F2D8E198A1528F495
:1020F000BFEFCB1ADB0AFB1488F20F900F900F9002
:102100000F900F90DF91CF911F910F91FF90EF9063
:10211000DF90CF90BF90AF9008958FB7F8948091E3
:10212000D2018FBF0895CF93DF93EC01962F6831D2
:1021300009F445C0B901993130F4943199F09731DF
:1021400059F080E006C0993109F45BC09032C9F7BC
:1021500081E0DF91CF91089550E087E992E00E94FD
:10216000A406F6CF8C859D85AE85BF85892B8A2BED
:102170008B2B71F4E881F981A585B0E020EA36E87F
:1021800041E050E00E944A1C6C877D878E879F87C4
:10219000109226021092250210927402109296025A
:1021A0000E945E0788E796E09093FF018093FE010E
:1021B00089E796E09093030280930202C9CF2C85B1
:1021C0003D854E855F8560E074E284EF90E00E947B
:1021D000281C2051310941095109569547953795D9
:1021E00027952093B8008E8990E09595879591E08A
:1021F000909373028093950210927402109296024B
:10220000A7CF81E00E94B408A3CF0F931F93CF9371
:10221000DF93EC01862F642F8C3208F03AC08A32AB
:1022200008F060C0883209F44BC0893209F460C0FC
:10223000803408F470C0982F9F73FE01E90FF11DE0
:10224000868D8F3F09F44EC0903108F436C0282F98
:1022500030E0F901E255FF4F8491F901E656FF4F56
:102260000491F901EA57FF4F1491112379F081117C
:102270000E940007E12FF0E0EE0FFF1FE859FF4F2B
:10228000A591B491EC910E2381E009F480E0898F4F
:1022900029C08D3299F108F4CBCF94EB980F92308E
:1022A00008F0C6CF8F73C80FD11D8E8D41112FC07E
:1022B00061E00E949D0760E08E8D0E94290712C098
:1022C0008E01025E1F4FD0E0F80181918F018F3F98
:1022D00031F061E0D03108F062E00E949D07DF5FDD
:1022E000D63191F781E0DF91CF911F910F91089541
:1022F00070E090E080E00E94C209F4CF85E090E0B9
:10230000433010F082E090E00E94CE07EBCF62E015
:102310000E949D07E7CF80E0E6CF8CBD9DBD08956C
:102320008F929F92AF92BF92CF92DF92EF92FF92E5
:102330000F931F93CF93DF93EC014B016A01B22EF1
:10234000A32E88819981892B31F0EA81FB818081DC
:1023500091810E948D1170E060E0CE010E945707CC
:102360007401C80CD91CEC14FD0479F4EB2CFA2C84
:102370000E0D1F1DE016F10679F06FEFCE010E94E1
:10238000D907F70181937F01F5CFF70161917F01B3
:10239000CE010E94D907E7CF61E070E0CE010E9434
:1023A000570781E0DF91CF911F910F91FF90EF9040
:1023B000DF90CF90BF90AF909F908F9008958F92B5
:1023C0009F92AF92BF92CF92DF92EF92FF920F93C4
:1023D0001F93CF93DF93EC01B62EA72E6A0149011C
:1023E00088819981892B31F0EA81FB8180819181FB
:1023F0000E948D1170E060E0CE010E9457077401C9
:10240000080D191DE016F10671F40B2D1A2DC00EE2
:10241000D11E0C151D0571F0F80161918F01CE01DF
:102420000E94D907F6CFF70161917F01CE010E948A
:10243000D907E8CF61E070E0CE010E94570781E044
:10244000DF91CF911F910F91FF90EF90DF90CF9090
:10245000BF90AF909F908F900895AF92BF92CF9210
:10246000DF92EF92FF920F931F93CF93DF9300D0F1
:10247000CDB7DEB7DC01211103C018962C91189757
:10248000253008F043C01F964D935D936D937C9368
:10249000529790E080E0E22EF12C8E159F05B4F467
:1024A0001A962C911A9721110AC0FD01E80FF91F05
:1024B0004387452F562F672F77270196EECFF701D9
:1024C000E81BF90BEA0FFB1F4287F3CF6D018BE08E
:1024D000C80ED11C16969C91169717968C9117973B
:1024E00099838A83AD90BC901197A114B10409F42B
:1024F00041C019960C9110E098012E0D3F1DD50199
:1025000014968D919C918217930710F480E016C069
:10251000F50181819281208131E030937302209313
:10252000950210927402109296020115110599F409
:1025300021E0A701B601C5010E94A4090F900F90E8
:10254000DF91CF911F910F91FF90EF90DF90CF908F
:10255000BF90AF900895DC01ED91FC910280F38172
:10256000E02DA801BE016F5F7F4F0995081719077D
:1025700069F6DECF1296ED91FC911397309731F208
:1025800014962D913C91159719960C9110E02330DB
:10259000310571F48E7F89839A830F5F1F4F9E01EF
:1025A0002F5F3F4FA701B601CF010E94DF11C6CFB9
:1025B0002115310519F49F779983F1CF2230310528
:1025C00011F49068F9CF2130310549F79F77906475
:1025D000F3CFCF93DF93CDB7DEB763970FB6F89401
:1025E000DEBF0FBECDBF2091290730912A07188A80
:1025F000198A1A8A1B8A3A8329831C821B8221E04A
:102600002A8790E098878F831B862987462F50E082
:1026100070E060E020E0CE0101960E942D126396EA
:102620000FB6F894DEBF0FBECDBFDF91CF910895F6
:10263000CF92DF92EF92FF920F931F93CF93DF938E
:102640006C01EB017B01E40EF51E10E000E0CE15FD
:10265000DF0561F06991D601ED91FC910190F08167
:10266000E02DC6010995080F191FF1CFC801DF91B0
:10267000CF911F910F91FF90EF90DF90CF90089531
:10268000CF92DF92EF92FF920F931F93CF93DF933E
:10269000EC016C0124E0C20ED11CFC01E158FF4F9B
:1026A0000190F081E02DC60109958E3FEFEF9E0766
:1026B000C8F48E010E571F4F7E01F1E8EF0EF11C9A
:1026C0009C01F8014081F7016081C6010E94480E1B
:1026D000C15ADF4F98819130A9F078F09230A1F083
:1026E0009330B9F081E090E0DF91CF911F910F918D
:1026F000FF90EF90DF90CF900895F7019081890FC0
:102700008083F0CFF801FACFF7019081981B892FD1
:10271000F7CFF801FACF089590E080E008952F9266
:102720003F924F925F926F927F928F929F92AF9261
:10273000BF92CF92DF92EF92FF920F931F93CF93AE
:10274000DF9300D000D0CDB7DEB7FC014B01042FE2
:102750009681878199838A83208031802114310476
:1027600009F439C1418550E0D10114968D919C91B5
:1027700084179507C8F4B12C8B2D0F900F900F90F4
:102780000F90DF91CF911F910F91FF90EF90DF900D
:10279000CF90BF90AF909F908F907F906F905F9001
:1027A0004F903F902F900895F101808191E0909398
:1027B000730280939502109274021092960220E0A8
:1027C000BE016F5F7F4FC1010E94A409B82E88230C
:1027D00091F2802F90E09C838B83D12CC12C01E05F
:1027E000AB81BC81CA16DB0638F6F1018481958184
:1027F0007D01EC18FD088E159F0508F47C01D101C0
:10280000AC900E948F082B013C0180916D028111D8
:1028100072C01E2D113208F010E200936D0221E00B
:102820008B819C818E199F09C816D90608F420E077
:1028300020936C02BFEFB0936B0210926A028FEF8D
:10284000810F809369020093480280914802AA0C8C
:10285000A82AA092480280914702813009F092C0D4
:10286000109247020E948F082B013C018091480280
:102870008093BB0080916F0290917002A0917102D1
:10288000B0917202892B8A2B8B2BA1F00E948F08AA
:1028900020916F023091700240917102509172024A
:1028A00064197509860997092617370748075907D4
:1028B00008F442C08091BC0083FDD8CFE5ECE093E2
:1028C000BC000E948F082B013C0180916D02813079
:1028D00009F45CC080916A02811710F410916A02B9
:1028E000A9E4B2E0E7E2F2E080E0811751F19D91C6
:1028F00091938F5FFACF80916F0290917002A091B7
:102900007102B0917202892B8A2B8B2B09F47DCF37
:102910000E948F0820916F023091700240917102E5
:1029200050917202641975098609970926173707AD
:102930004807590708F069CF80916E020E947C0712
:1029400010E010922602109325021E151F0409F0B4
:1029500012CF34016C0C7D1C2301C201861997092A
:102960008E159F05A8F5D10111968D919C91DC01E2
:10297000ED91FC910284F385E02D0995F20181939C
:102980002F01EBCFF5EEF093BC009BCF80916F024F
:1029900090917002A0917102B0917202892B8A2BE2
:1029A0008B2B09F492CF0E948F0820916F023091F7
:1029B0007002409171025091720264197509860982
:1029C0009709261737074807590708F07ECFB4CF75
:1029D000CE0CDF1C05CFA281B381109709F4CBCEBA
:1029E0002481358110E0418550E02330310571F4B8
:1029F000816089839A834F5F5F4F9401BE016F5F4F
:102A00007F4FCD010E949011B82EB6CE2115310511
:102A100019F490689983F1CF2230310511F49F7732
:102A2000F9CF2130310549F7906CF4CFCF93DF9384
:102A3000EC01BC01655F7F4F48850E948F1388239E
:102A400001F1488550E030E020E060E070E0CB012B
:102A500024173507CCF4982F872F762F6627EA8521
:102A6000E1110AC0FA01E21BF30BEC0FFD1FE28536
:102A70006E2B2F5F3F4FECCFFE01E20FF31FE3857C
:102A8000F7CF6FEF7FEFCB01DF91CF910895CF9319
:102A9000DF93CDB7DEB763970FB6F894DEBF0FBEF6
:102AA000CDBF8091290790912A07188A198A1A8A1E
:102AB0001B8A9A8389831C821B8281E08A8723EA8E
:102AC00030E038872F831B868987CE0101960E94CC
:102AD0001615DC01CB0126E0B695A795979587954D
:102AE0002A95D1F7817063960FB6F894DEBF0FBEBA
:102AF000CDBFDF91CF9108958F929F92AF92BF92F9
:102B0000CF92DF92EF92FF920F931F93CF93DF93B9
:102B1000EC014A015B01888199810E9416152A8186
:102B200001E010E002C0000F111F2A95E2F70150EA
:102B30001109012E000C220B330BAB8168017901C6
:102B40000A2E04C0CC0CDD1CEE1CFF1C0A94D2F72C
:102B5000C094D094E094F094C622D722E822F922BF
:102B6000E881F981B901A801482159216A217B2115
:102B700004C0440F551F661F771FAA95D2F74C2932
:102B80005D296E297F292085CF01DF91CF911F918B
:102B90000F91FF90EF90DF90CF90BF90AF909F90FC
:102BA0008F900C942D12CF93DF93CDB7DEB767973C
:102BB0000FB6F894DEBF0FBECDBF2091290730912C
:102BC0002A07188A198A1A8A1B8A3A8329831C823F
:102BD0001B8291E09A8720E830E038872F831B869C
:102BE00099879E012F5F3F4F3D8B2C8B9E8B9F8B38
:102BF000482F50E070E060E0CE0144960E947C15C2
:102C000067960FB6F894DEBF0FBECDBFDF91CF91B0
:102C10000895EF92FF920F931F93CF93DF93CDB759
:102C2000DEB767970FB6F894DEBF0FBECDBFF82EA4
:102C300080E00E94D3158091290790912A07188A75
:102C4000198A1A8A1B8A9A8389831C821B8281E0D3
:102C50008A872FEA30E038872F831B8689878E0189
:102C60000F5F1F4F1D8B0C8B82E08E8B83E08F8B51
:102C700042E050E060E070E0CE0144960E947C1596
:102C8000FF2009F4A5C060E380E00E94E91261E042
:102C900081E00E94E91260E082E00E94E91260E0B7
:102CA00083E00E94E91260E084E00E94E91262E49D
:102CB00085E00E94E91260E086E00E94E91260E08F
:102CC00087E00E94E91260E588E00E94E91260E076
:102CD00089E00E94E91260E08AE00E94E91260E067
:102CE0008BE00E94E91260E28CE00E94E91264E04D
:102CF0008DE00E94E91260E08EE00E94E91260E33C
:102D00008FE00E94E91261E080E10E94E91260E533
:102D100081E10E94E91260E082E10E94E91266E02E
:102D200083E10E94E9128091290790912A07188A6D
:102D3000198A1A8A1B8A9A8389831C821B8281E0E2
:102D40008A8720E830E038872F831B8689871D8B90
:102D50000C8B8E8B84E08F8B41E050E060E070E064
:102D6000CE0144960E947C1509EE13E0EE24E39414
:102D7000F12C8C899D890E941615AB01BC018E89AE
:102D8000970102C0220F331F8A95E2F7C90101970C
:102D9000092E000CAA0BBB0B2F8904C076956795F2
:102DA000579547952A95D2F784239523A623B723D1
:102DB000892B8A2B8B2B09F44DC00150110909F482
:102DC00049C061E070E080E090E00E94C209D1CF8C
:102DD00060E080E00E94E91260E081E00E94E91278
:102DE00060E082E00E94E91260E483E00E94E91260
:102DF00062E084E00E94E91260E085E00E94E9124E
:102E000060E186E00E94E91263E087E00E94E91237
:102E100060E588E00E94E91260E189E00E94E91221
:102E200063E08AE00E94E91260E08BE00E94E91210
:102E300060E08CE00E94E91260E08DE00E94E912FF
:102E400064E28EE00E94E91260E08FE00E94E912E5
:102E500060E05ACF67960FB6F894DEBF0FBECDBFC5
:102E6000DF91CF911F910F91FF90EF900895EF9216
:102E7000FF921F93CF93DF93CDB7DEB7AA970FB61C
:102E8000F894DEBF0FBECDBF7C01FC01838194812D
:102E90001BA21CA21DA21EA29D8B8C8B1F8A1E8AA8
:102EA00011E01D8F82E990E09B8F8A8F1E8E1C8F10
:102EB000CE0144960E94161580E060FD20C0F70107
:102EC00083819481188A198A1A8A1B8A9A83898332
:102ED0001C821B821A8780E890E098878F831B866C
:102EE0001987CE01019698A78FA319A71AA641E0CA
:102EF00050E060E070E086960E947C1581E0AA9622
:102F00000FB6F894DEBF0FBECDBFDF91CF911F91FA
:102F1000FF90EF90089585ED8093BC0080916F0243
:102F200090917002A0917102B09172020796A11D5A
:102F3000B11D23E0B695A795979587952A95D1F76A
:102F40002091BC0024FD03C010926D0208954091B1
:102F50006F02509170026091710270917202452B64
:102F6000462B472B69F30097A105B10541F025E3F6
:102F70002A95F1F700000197A109B109E1CF8091ED
:102F80006E020C947C07FC01A081B18150962C91BB
:102F900082AD38E0839FC0011124289FA001299FA2
:102FA000500D112470E060E080AD91AD0C946A1C6E
:102FB0001F93CF93DF93EC010E9431101BAD8AADBC
:102FC000180FE881F9818189181768F0EC81FD817B
:102FD00030E020E040E060E1CE01099580E0DF9143
:102FE000CF911F910895FE01E658FF4F80818823FD
:102FF00019F0CE010E94C317612FCE010E941E104E
:1030000081E0EDCFCF93DF93EC01FC01E658FF4F59
:103010008081882319F0CE010E94C31760E0CE01A1
:10302000DF91CF910C941E101F920F920FB60F924A
:1030300011242F933F934F935F936F937F938F93BD
:103040009F93AF93BF93EF93FF938091B900887FD5
:10305000803609F44AC0F0F5883209F4A7C018F5A3
:10306000803109F49BC0B8F4882309F4F9C0883092
:1030700009F494C0FF91EF91BF91AF919F918F910F
:103080007F916F915F914F913F912F910F900FBE64
:103090000F901F901895883109F488C0803251F73D
:1030A00080936B0214C0803409F49DC040F48033D7
:1030B000B9F38833F9F680936B0285ECB0C08035A4
:1030C00009F485C0883509F496C0883499F60E94C1
:1030D0008B17D0CF883909F48CC038F5883729F0A0
:1030E00050F4883611F0803729F683E080936D0222
:1030F0001092240257C0883809F47BC0803919F037
:10310000803809F0B7CF80912402803208F071C076
:10311000E091240281E08E0F809324028091BB0015
:10312000F0E0EC5FFD4F80833DC0803B39F0E0F480
:10313000803A09F479C0883A09F09CCF84E0809302
:103140006D021092010210920002E091FE01F091D6
:10315000FF0109958091000281110FC081E08093E9
:1031600000021092DE0109C0803C09F4A6CF883C21
:1031700009F4A3CF883B09F07DCFE091010281E003
:103180008E0F80930102F0E0E252FE4F8081809327
:10319000BB00909101028091000229C080914802F9
:1031A0008093BB0085EC8093BC0064CF90916A0251
:1031B00080916902981758F5E0916A0281E08E0FBC
:1031C00080936A02F0E0E75BFD4F8081E9CFE091F8
:1031D0006A0281E08E0F80936A028091BB00F0E06A
:1031E000E75BFD4F808390916A0280916902981796
:1031F000C8F285E8D8CFE0916A0281E08E0F809313
:103200006A028091BB00F0E0E75BFD4F8083809114
:103210006C0281115CCF81E08093470284EA809345
:10322000BC0010926D0226CF85EC8093BC001092FA
:103230006D0280912402803230F4E0912402F0E0AB
:10324000EC5FFD4F10826091240270E0E091020279
:10325000F091030284E092E00995109224020ACFD3
:1032600010926B0234CF1F920F920FB60F9211245F
:103270002F933F938F939F93AF93BF938091D501EB
:103280009091D601A091D701B091D8013091D4018D
:1032900023E0230F2D3758F50196A11DB11D209372
:1032A000D4018093D5019093D601A093D701B09318
:1032B000D8018091D9019091DA01A091DB01B09100
:1032C000DC010196A11DB11D8093D9019093DA0113
:1032D000A093DB01B093DC01BF91AF919F918F91DF
:1032E0003F912F910F900FBE0F901F90189526E8D9
:1032F000230F0296A11DB11DD2CFCF9310929A0237
:103300001092990288EE93E0A0E0B0E080939B02D7
:1033100090939C02A0939D02B0939E0289E691E057
:10332000909398028093970287E891E09093270703
:10333000809326071092280710922A0710922907D7
:103340001092A6061092A5068FE995E090932307A8
:103350008093220710922407109225071092BF062F
:103360008BE791E09093A4068093A3061092A806A1
:103370001092A7061092BC061092B3061092B406E3
:103380001092B5061092B6068FEF8093BD0680931B
:10339000C106E5ECF6E08BED96E0CFEFC1938E171A
:1033A0009F07E1F783E79AE09093AC068093AB0622
:1033B00088E69BE09093AE068093AD0683E990E1AA
:1033C0009093B0068093AF0685E091E19093B206AA
:1033D0008093B10630E020E040E069E087EA96E0C3
:1033E0000E94730A1092F3061092F20689EA95E0A1
:1033F0009093DC068093DB0683EA92E09093E006EC
:103400008093DF0688E08093E1061092E206109236
:10341000FF0610921F0781E0809320078093210709
:1034200089E891E09093DE068093DD0687EA96E0D6
:103430000E94EC0B1092EE061092F006C093EF067D
:10344000C093F106E091DD06F091DE060280F38183
:10345000E02D87EA96E009958CE096E09093F506DA
:103460008093F40610920207C093D006C093D10651
:10347000C093D206CF910895CF93DF93CDB7DEB737
:1034800063970FB6F894DEBF0FBECDBF789484B5B6
:10349000826084BD84B5816084BD85B5826085BD50
:1034A00085B5816085BD80916E00816080936E00DE
:1034B00010928100809181008260809381008091D0
:1034C0008100816080938100809180008160809381
:1034D00080008091B10084608093B1008091B00041
:1034E00081608093B00080917A00846080937A003C
:1034F00080917A00826080937A0080917A00816066
:1035000080937A0080917A00806880937A0010928C
:10351000C100E091AB06F091AC0630E020E040E065
:103520006AE087EA96E0099587EA96E00E94021829
:1035300087EA96E00E94D8178111FACF60E087EA07
:1035400096E00E941E10E091AB06F091AC0630E0D0
:1035500020E040E06BE087EA96E009958091F20672
:103560009091F306825C904051F082EC90E0909351
:10357000F3068093F2060E94D70D0E940E0687EA9A
:1035800096E00E9402180FE915E064EF71E080E018
:1035900090E00E94C2091093AA060093A9068FE842
:1035A00091E00E94E10F87EA96E00E94D81781110E
:1035B000ECCF60ED77E080E090E00E94C20980915E
:1035C000290790912A07188A198A1A8A1B8A9A83CE
:1035D00089831C821B8211E01A8781E890E098871A
:1035E0008F831B86198720E044E650E060E070E09E
:1035F000CE0101960E942D128091290790912A07F1
:10360000188A198A1A8A1B8A9A8389831C821B82C8
:103610001A878AEC90E098878F831B8682E08987DF
:1036200020E047EE53E060E070E0CE0101960E949A
:103630002D128091290790912A07188A198A1A8ACF
:103640001B8A9A8389831C821B821A878AEA90E0EC
:1036500098878F831B86198720E049E050E060E05F
:1036600070E0CE0101960E942D1210924407109234
:10367000430781E00E94091681E00E94D31581E092
:1036800090E0909344078093430725E9422E512C04
:103690003FE9632E35E0732E0AEA10E041E8E42E9C
:1036A000F12C5AECC52ED12C65E9A62E64E0B62E7D
:1036B00090E0892E90E0992E68EE73E080E090E033
:1036C0000E94C20981E00E94091681E00E94D31580
:1036D0000E944715811107C061E070E080E090E032
:1036E0000E94C209F5CF8091290790912A07188A74
:1036F000198A1A8A1B8A9A8389831C821B8281E019
:103700008A8758864F821B8682E089874CE06BE26D
:1037100077E0CE0101960E948F13382E80E00E9440
:10372000091681E00E94D3150E944715811107C038
:1037300061E070E080E090E00E94C209F5CF3110B6
:103740004DC08CEF282E3324339421E0221508F04D
:1037500040C08091290790912A07188A198A1A8AED
:103760001B8A9A8389831C821B823A8618870F835F
:103770001B863986CE0101960E9416158091290775
:1037800090912A07188A198A1A8A1B8A9A83898330
:103790001C821B823A86F886EF821B863986CE0110
:1037A00001960E9416158091290790912A07188A80
:1037B000198A1A8A1B8A9A8389831C821B823A86F9
:1037C000D886CF821B8682E08987CE0101960E942F
:1037D0001615239428E02212B8CF0AC04CE067E304
:1037E00077E0CE0101960E948F13882309F4A9CFB8
:1037F00068EE73E080E090E00E94C20987EA96E0FC
:103800000E9402188091F2069091F3068559944027
:1038100051F0B092F306A092F20685E994E00E947E
:10382000D70D0E940E067092AA066092A90681EA40
:1038300091E00E94E10F87EA96E00E94D81781117B
:10384000E1CF8114910409F437CF0E94000030CFFA
:10385000A1E21A2EAA1BBB1BFD010DC0AA1FBB1F94
:10386000EE1FFF1FA217B307E407F50720F0A21B06
:10387000B30BE40BF50B661F771F881F991F1A9473
:1038800069F760957095809590959B01AC01BD019D
:10389000CF0108950E945B1CA59F900DB49F900DD1
:1038A000A49F800D911D11240895EE0FFF1F059018
:1038B000F491E02D0994A29FB001B39FC001A39F92
:1038C000700D811D1124911DB29F700D811D112459
:1038D000911D0895DC0101C06D9341505040E0F707
:0638E0000895F894FFCFEB
:1038E6001815A015C019FF1815A115C819FF181528
:1038F600AE19FF1815AF19FF1815AE15D516801598
:10390600A8163F15D316001540158D16141520164A
:103916000015A115C815DA1612158116CF15D91678
:10392600F115DB1640152E15A415A619FF00011476
:103936000A6464323200093D000304289610080226
:10394600028000400000000000D106A4068C137A15
:10395600069D068A067B0600000000401318138C9D
:10396600138B13000000003717EC0B500CD20B41E1
:10397600533733343120496E6974696E672E2E2EA3
:0E3986000048656C6C6F20576F726C642100F6
:00000001FF
