:100000000C9475050C949D050C949D050C949D0510
:100010000C949D050C949D050C949D050C949D05D8
:100020000C949D050C949D050C949D050C949D05C8
:100030000C949D050C949D050C949D050C949D05B8
:100040000C94C3170C949D050C949D050C949D0570
:100050000C949D050C949D050C949D050C949D0598
:100060000C94A4160C949D050000000023002600AB
:10007000290000000000240027002A0000000000E2
:10008000250028002B0004040404040404040202D4
:100090000202020203030303030301020408102007
:1000A0004080010204081020010204081020000012
:1000B0000008000201000003040700000000000027
:1000C00000005F0003020304030504050A00FE07A5
:1000D000FE07000142028803B620050062072107DF
:1000E0003943C7A00422079B52476209230E3D42B1
:1000F0004F294906A53228A52401240C3D4257B6B4
:10010000D4B624D92200250C3D424FA474ABB44888
:100110000900260D3D424F9644495649A4480927F7
:10012000061953C7002808BB425752AA152909BB14
:10013000424756AA94002A0A2D4647965406A52DF2
:100140002B0A2D4657180D5218012C079B3E8F5233
:10015000022D060D4EC7202E089B3E4FB224002FC5
:10016000083D4267AD6308300B3D425796D46C4959
:100170002D02310A3D4257262561D320320C3D42E3
:10018000CF92859194858300330C3D42C7206699B8
:10019000AA250B00340C3D425F2625A564D0C2047D
:1001A000350B3D42C73131855AB200360C3D42977E
:1001B000948589494B1600370B3D42C7206661562E
:1001C000CC00380C3D42CF9269C99269C902390C02
:1001D0003D42CF92498A126691043A0ABB3E4FB221
:1001E000A4C992003B09BB3E4FB2A44A093C08BCDB
:1001F000425FD4D8003D081D4AC7A00E023E08BC8D
:100200004247D8D4063F0A3D42CF9235E6500440DB
:100210000C3D42CF92494B62491700410C3D425779
:1002200096D4B461C8B400420D3D42C71055A264D3
:10023000AA448302430A3D42CF92896DC902440F0A
:100240003D42C71055A2244AA2241A1400450B3D72
:1002500042C7311C92301C04460A3D42C7311C92F1
:10026000B008470B3D42CF9289A52D5900480A3D61
:100270004247661B86CC164908BB42C71275194A0D
:100280000A3D42D716B64491044B0D3D4247262500
:10029000252D892A59004C083D4247D8E3204D0BB3
:1002A0003D4247A62D4BA2D9024E0C3D4247A64DDA
:1002B0004A226D5A004F0A3D42CF92794B160050A8
:1002C0000C3D42C79064DAA0844500510A453ECFF8
:1002D0009279A9AC01520D3D42C79064DAA0942AEC
:1002E0005900530B3D42CF92A9AB962C0054093DC7
:1002F00042C720853D0155093D4247E65BB20056A5
:100300000D3D4247664B4A4994641100570A3D42ED
:1003100047E69228C92D580B3D4247A625B54A4DC0
:100320000B590A3D4247A625B5B0095A0A3D42C7B6
:1003300020661D07015B08BB42C710751A5C083DAB
:10034000424798760C5D08BB42C7D469085E081D19
:10035000525796D4025F060D3EC7206006125B47D7
:1003600014610A2D42CF9A0C5A3204620B3D424767
:1003700058316993A200630A2D42CF928959B20085
:10038000640A3D4267C5B4498A12650A2D42CF927C
:100390000D43BA00660B3D429754C98628AC0167ED
:1003A0000C3D3ACFA069C9106AC902680A3D4247AC
:1003B000583169B6006908BB424F28B50C6A0BCCAE
:1003C0003A5FACD5242951006B0B3D4247589392BC
:1003D000A992056C08BB4287D4CB006D0B2D4287D8
:1003E000D2A2244AA2056E092D424762D26C016F47
:1003F000092D42CF92D99205700C3D3A4762D22620
:1004000045094300710A3D3A8F699314252C7209FE
:100410002D424762128B0073092D42CF921E1400A9
:10042000740C3D424F980D51588A140075092D42A5
:1004300047E6A42801760B2D4247A625A5248B006C
:10044000770A2D42476649942E00780A2D42479636
:10045000D42AB500790C3D3A47665294504B1600A9
:100460007A092D42C7A0B50D027B0ABC429712261D
:1004700062140A7C063943C7217D0BBC428718856C
:100480004A9848007E091D524FA4245202000000E1
:1004900004FFFF00005F0003030404030505100FC1
:1004A000FEFD0BFD0BFE01C2046706362005008C25
:1004B000142109B28514074ACC00220843BD151146
:1004C0002D012316A7847891602418099922C14828
:1004D000C8140946829118002417D77C78C18A2451
:1004E000328A5062C4222D42094D2292620C0025AC
:1004F0001FBC845DC2A084284A1445A2925058149F
:10050000138724C190281812C56292605004261BDC
:10051000BC847D7480482C128BE2903984340A8D1F
:1005200042329A70442B954400270641BD1304289B
:100530000DD47475A19028A4B7982C18290ED474E2
:1005400015C1982C26D229244A032A0B55B45629C2
:1005500029934C21002B0B778C78E1B45B380D008C
:100560002C085275141609002D07249C1587002E9F
:1005700006328514062F0DB48475996249B1A458CA
:100580000C00300DB7845833891ABF49D446003166
:1005900009B58558129AFE44320DB7843824514D5E
:1005A000AAA8DBE1103310B7843824514D2A949166
:1005B000A534D284043411B78498C2B5882C220A99
:1005C000894292A354483511B7843896523865242D
:1005D000994A69A40909003610B7845824118D2A54
:1005E00059A9B195242400370FB784180FC1484C7E
:1005F0002A942A4AD5003811B78438A4118D668907
:10060000912236A61105003910B7845814518DADCA
:10061000B222A5914424003A0772851426033B09AF
:10062000927514268B04003C0A778CD8C1D1F272E3
:10063000003D08379C1877C0013E0A778C18E14DC1
:100640008B61003F0EB6843714114928538C033553
:1006500001401DBD849ED6E14836922849482A149F
:100660009188229268992849867248EC20024117A5
:10067000BA849B72881C101147C4A1684C1813DA05
:10068000A2A2A864464215B9841A37259948265271
:100690003B0925428950223B8C004317BA847B9545
:1006A000C850229E03E61039440E9183C491A1AC38
:1006B000044419BB841C87A07024158925628958BD
:1006C000229688255291707288014517B9841A07BD
:1006D0008950228D885244C1A228284A9146840715
:1006E000024617B9841A078950228D885244C1A244
:1006F00028280ACA01622A004719BB847C95D05079
:10070000248EC8011139480E129E4552D16C488A78
:10071000004818BB841C348A542415494552D141E1
:100720002415494552915442234909B4851714911F
:10073000FE424A0EB7847944A95E44129124B4065D
:100740004B18BB841C249230288B8AC29238A02C70
:10075000998A86B29970422A4C17B9841A64394032
:100760000E9003E40039400E9046A411E181004D43
:1007700024BD841E54CA74341D456411514416119D
:100780004564115148121285242151481212C55452
:100790004622024E1CBB841CD3C934440C4566A1BE
:1007A000902C1413A54D4241527414968C23004F83
:1007B00018BB847CC5D9482A9103E8003A800EA072
:1007C000032452D16C58035017B9841A87906C22B5
:1007D000940825B2894D0E9003E400311500511F95
:1007E000EB6C7CC5D9482A9103E8003A800EA0CC76
:1007F0002422896844AC8344E1491C30015217BB70
:10080000841C87A06C269409658A56995026541337
:100810004A6A13005312B9845A94C84C228D482353
:1008200064E7319152025417BA841B879268A62D4F
:100830002887C82172881C2287C80134005518BB3C
:10084000841CC48938240E8943E29038240E8943DD
:10085000E298305A035619BA841BB48934248DC9DE
:1008600082B2A02C2A094BC29238400E11025724A2
:10087000BD841E14CA44260BC96421992C268948BC
:1008800082928824288948829288242A13CBC432F1
:100890001900581BBB841C25CA50268C8AE20049CB
:1008A0001C300744E480903428134E48055919BA87
:1008B000841BB48934260BCAA292B0240E9043E460
:1008C0001039440EA0015A0FB8841987E19036D52B
:1008D0003A230E0F035B09D4741526FD27025C0F23
:1008E000B68417D170341C0D47C3D170005D09D494
:1008F000741524FD27035E0F77A478E1E830129386
:1009000088621199005F0617741707600834C516CE
:10091000326100610E788459349158569149442BC4
:10092000036218B9841A73801C2007C80192D94841
:10093000512294082532518404630E77845824117F
:100940008D2A8C884414006417B984BA73801C20E3
:1009500007C82622D14428114A8422D16C32650F5F
:1009600078845934914478A80364A20A00660DB6CD
:10097000845623896E25A16E24006710B76CB89247
:100980008A8C26A9844D57A1A4026817B9841A73CA
:10099000801C2007C80192D9484D2413C94432094C
:1009A00003690AA4843522E9482F046A0DD56A75C3
:1009B000EA8099BE512413006B11B88419639D26F7
:1009C0002215195122134946036C09B4841523FDDD
:1009D0000B016D127E841F93D16C3452539229C93E
:1009E00094642A1C6E1079841A93D9484D2413C933
:1009F000443209036F0E788459349144C82811C9D0
:100A000048007014A96C1A93D948512294082523E0
:100A100095991C20A6027116A96C5994906822948D
:100A20000825429168369103E4003101720B778406
:100A3000179315558D3400730A7684373722DB05FA
:100A400000740FA68456D1A0AC24D41411852600BE
:100A5000751179841AA3914C2413C94432916836D4
:100A600019761078831794892C248B498292A85880
:100A70000677187D831C14CA44260BC96431494487
:100A8000129444245199582603780F788419A38925
:100A9000484695D26292D1007914A86B1794892C9C
:100AA000248B498292A8581C9404A7007A08768463
:100AB0001737BD1D7B0DD57476A298B6D4A04C31E6
:100AC0002A7C07B1871807027D0FD57416D2A04C77
:100AD000311A8B690BC9007E0927A43813CA040098
:100AE00000000004FFFF00000D1811241FBECFEF0F
:100AF000D8E0DEBFCDBF11E0A0E0B1E0E6E2F6E372
:100B000002C005900D92AE3AB107D9F723E0AEEAE4
:100B1000B1E001C01D92A53CB207E1F715E0C5E7C1
:100B2000D5E004C02197FE010E94F51AC437D10711
:100B3000C9F70E94CB180C94111B0C94000066237B
:100B400029F06A3019F0862F90E008958FEF9FEF1B
:100B50000895CF92DF92EF92FF920F931F93CF935E
:100B6000DF93EC01842F8770E1E0F0E0082E01C0F4
:100B7000EE0F0A94EAF73E2F7E0199E7E90EF11C89
:100B8000D7019C9110E0923018F41E2F913029F17A
:100B900050E0487FE8ADF9ADC880D980D6015096C5
:100BA0009C91949F6001959FD00C11246C0D7D2D1C
:100BB000711DDF01A60FB71F011115C08C91812B8C
:100BC00083278D932150D1F7DF91CF911F910F9102
:100BD000FF90EF90DF90CF90089530E0D9CF110FC4
:100BE000330F222389F39C91912B93279C938F5F42
:100BF000877021508111F3CF9CADA90FB11DF70172
:100C00009081923028F4913009F031E011E0E9CF81
:100C100031E0E7CF80E0089580E00895809172038D
:100C200090917303892BA1F18091900380939C0391
:100C30004091910340939D0390919B03992341F12F
:100C4000913069F490919203891714F490939C0366
:100C5000809193038417E4F480939D030895309169
:100C60008D0320918F03082E000C990B622F022E0A
:100C7000000C770B630F711D37FD7A958617970768
:100C80001CF4320F30939C03241714F420939D031B
:100C900008959B01DC011896ED91FC9141E067E11C
:100CA000099420910002260F3327331F213231058A
:100CB000ECF420916D02FC0190E080E0243069F0BA
:100CC00082E00895A09100022191AC0142525E4F52
:100CD000A40FB52FB11D2C930196861798F3809120
:100CE0000002680F6093000280E0089581E008959B
:100CF000089508950895E091260280912502E8174D
:100D000030F4F0E0E95DFD4F808190E008958FEFD1
:100D10009FEF089590912602809125022FEF3FEFDB
:100D2000981748F4E92FF0E0E95DFD4F208130E0AD
:100D30009F5F90932602C9010895809125029091AA
:100D40002602891B990B0895CF92DF92EF92FF92B2
:100D50000F931F93CF93DF937C01CB018A012091E6
:100D60007302222389F0EB016B01C40ED51ECC1552
:100D7000DD0569F06991D701ED91FC910190F08159
:100D8000E02DC7010995F3CF642F0E945106C801D9
:100D9000DF91CF911F910F91FF90EF90DF90CF9057
:100DA0000895CF93DF931F92CDB7DEB7698320916B
:100DB00073022223F9F020919602203258F021E0AC
:100DC00030E0FC013383228390E080E00F90DF91DC
:100DD000CF91089580917402E82FF0E0EB58FD4F19
:100DE000998190838F5F809374028093960281E053
:100DF00090E0ECCF61E0CE0101960E945106F7CF62
:100E0000833081F028F4813099F08230A9F0089580
:100E10008730A9F08830C9F08430B1F48091800027
:100E20008F7D03C0809180008F778093800008952C
:100E300084B58F7784BD089584B58F7DFBCF809175
:100E4000B0008F778093B00008958091B0008F7DBF
:100E5000F9CF1F93CF93DF93282F30E0F901E255AC
:100E6000FF4F8491F901E656FF4FD491F901EA57FB
:100E7000FF4FC491CC23A9F0162F81110E940007C7
:100E8000EC2FF0E0EE0FFF1FE458FF4FA591B49157
:100E90008FB7F894EC91111108C0D095DE23DC9344
:100EA0008FBFDF91CF911F910895DE2BF8CFFC010A
:100EB00083858F3F11F00C942907089510926D02DD
:100EC00081E080936C021092470261E082E10E940F
:100ED000290761E083E10E942907E9EBF0E08081C6
:100EE0008E7F808380818D7F808388E48093B800AB
:100EF00085E48093BC000895CF93DF9391E09093B5
:100F0000DD018823B9F0C091B800D091BA0080917A
:100F1000BC008A7B8093BC0060E082E10E942907CC
:100F200060E083E10E9429070E945E07D093BA0027
:100F3000C093B800DF91CF910895CF93DF9390E0F5
:100F4000FC01E656FF4F24918A579F4FFC01849184
:100F50008823D1F090E0880F991FFC01EE58FF4FD5
:100F6000A591B491FC01E458FF4FC591D491623032
:100F700071F49FB7F8943C91822F809583238C93D2
:100F8000E8812E2B28839FBFDF91CF9108958FB7E3
:100F9000F894EC912E2B2C938FBFF6CF82309105D5
:100FA00038F0880F991F880F991F05970197F1F75F
:100FB0000895AF92BF92CF92DF92EF92FF920F937C
:100FC0001F93CF93DF93EC0188819981892B89F05E
:100FD0006EBD0DB407FEFDCFBEB48B2DDF91CF915A
:100FE0001F910F91FF90EF90DF90CF90BF90AF9047
:100FF00008958885998511E0892B09F010E8AA24C5
:10100000A394862F812309F0A12C062F2C813D81EA
:101010004E815F8160E271EA87E090E00E94C81A29
:10102000F22EB02EE12CC22ED12CFF2019F0C601D9
:101030000E94CE078A85877F09F042C08D858F3F49
:1010400089F0902F912381E009F480E08A1551F016
:10105000EF85F8898F89992369F19081892B8083A5
:10106000AA24A394E989FA898081998D892B8083A8
:10107000FF2019F0C6010E94CE078E858F3F39F000
:10108000EB89FC898081988D892309F0E12AE9891F
:10109000FA899081898D8095892380838E858F3F01
:1010A00009F0BE2C88859985892BB9F5110F11118E
:1010B000BCCF93CF9081809589238083A12CD2CF00
:1010C000E989FA898081998D892B8083FF2019F025
:1010D000C6010E94CE078D858F3F49F0EF85F889C4
:1010E0008F89902F9123A9F09081892B8083E989A2
:1010F000FA899081898D8095892380838E858F3FA1
:1011000069F2EB89FC898081988D892339F2E12A83
:10111000C5CF908180958923E9CF1695C8CF3FB779
:10112000F8948091D9019091DA01A091DB01B091FE
:10113000DC0126B5A89B05C02F3F19F00196A11D23
:10114000B11D3FBFBA2FA92F982F8827BC01CD0111
:10115000620F711D811D911D42E0660F771F881F70
:10116000991F4A95D1F708958F929F92AF92BF929F
:10117000CF92DF92EF92FF920F931F93CF93DF9363
:10118000D0919602D13208F0D7C0182FC0919502A5
:101190000E948F086B017C0180916D0281116BC0F0
:1011A00082E080936D0210936C028FEF80936B024C
:1011B00010926A02D0936902A5E7B2E0E9E4F2E096
:1011C00080E0D81391C01092480280914802CC0F61
:1011D000C82BC093480280914702813009F088C033
:1011E000109247020E948F086B017C018091480297
:1011F0008093BB0080916F0290917002A091710268
:10120000B0917202892B8A2B8B2BA1F00E948F0840
:1012100000916F0210917002209171023091720260
:101220006C197D098E099F090617170728073907CA
:1012300008F442C08091BC0083FDD8CF85EC809338
:10124000BC000E948F086B017C0180916D0282308E
:1012500009F450C080916B028F3F09F46FC08091F8
:101260006B02803209F46CC080916B02803309F408
:1012700069C084E026C080916F0290917002A091B5
:101280007102B0917202892B8A2B8B2B09F484CFC7
:101290000E948F0880906F0290907002A09071025F
:1012A000B09072026C197D098E099F098616970607
:1012B000A806B90608F070CF80916E020E947C07E4
:1012C00085E0109274021092960210927302DF91E0
:1012D000CF911F910F91FF90EF90DF90CF90BF9033
:1012E000AF909F908F9008959D9191938F5F69CF5C
:1012F00085EEA5CF80916F0290917002A09171024E
:10130000B0917202892B8A2B8B2B09F49ECF0E94FD
:101310008F0800916F02109170022091710230913C
:1013200072026C197D098E099F0906171707280795
:10133000390708F08ACFC0CF81E0C3CF80E0C1CFAA
:1013400082E0BFCF83E0BDCF1F93CF93DF93EA014D
:10135000122FDC0111968D919C91DC01ED91FC9195
:101360000280F381E02D0995C817D90729F4812F50
:101370000E94B40891E0811190E0892FDF91CF9114
:101380001F9108958F929F92AF92BF92CF92DF925A
:10139000EF92FF926B017C010E948F084B015C0170
:1013A000C114D104E104F104B9F00E948F08681956
:1013B00079098A099B09683E73408105910580F38C
:1013C00021E0C21AD108E108F10888EE880E83E016
:1013D000981EA11CB11CE4CFFF90EF90DF90CF903E
:1013E000BF90AF909F908F900895DC011A96ED9179
:1013F000FC9130E020E00994DC011696ED91FC911F
:1014000030E020E040E069E10994DC011696ED91BE
:10141000FC9130E020E040E068E109949A01DC01B1
:101420001696ED91FC91462F67E10994EF92FF9299
:101430000F931F93CF93DF931F92CDB7DEB77C013D
:101440008B01D8016C91673129F150F46531A0F41A
:101450000F90DF91CF911F910F91FF90EF90089522
:101460006A3118F16E3FA1F7F8014181498369E2C1
:10147000C7010E94F5090BC0F80141814983D701DA
:101480001696ED91FC9130E020E0C70109950E5FC2
:101490001F4FD7CFF80181818983AE014F5F5F4F26
:1014A00061E0C7010E940E0AF2CF0F5F1F4FD70104
:1014B0001696ED91FC9130E020E040E0C7010995DF
:1014C000C0CF462FDC011696ED91FC9130E020E074
:1014D00066E10994462FDC011696ED91FC9130E00F
:1014E00020E065E10994EF92FF920F931F93CF9351
:1014F000DF93EC01042F79016D3009F446C050F4FC
:101500006B30C9F1693009F49FC06A3009F465C0D5
:1015100080E046C06E3009F452C06F3099F70E94E7
:10152000050AF7011381110F110F110F6C89160FA6
:1015300060E4CE010E946A0A612F62956F7060615B
:10154000CE010E946A0A612F6F70CE010E94610A6B
:10155000F7016481606BCE010E94610AF70140814E
:1015600051816281660F660F660FCE010E940E0ADE
:101570000150A1F72EC063E171E0442311F06EE049
:1015800071E0CE010E94160A0AC0411110C067E046
:1015900071E00E94160AE881F98182898C8B81E0D2
:1015A000DF91CF911F910F91FF90EF90089560E030
:1015B00071E00E94160AE881F9818389EFCF0E94C9
:1015C000050A61E8CE010E946A0A602FCE010E94DE
:1015D000610ACE010E94FC09E2CFEA85FB8530E07A
:1015E00020E040E068E2CE010995EE81FF8130E025
:1015F00020E040E064E1CE01099541E06BE4CE01DA
:101600000E94F509E881F981448169E2CE010E94D6
:10161000F50940E06BE4CE010E94F509E881F9810B
:10162000448169E2CE010E94F50941E06BE4CE01FC
:101630000E94F509E881F981458169E2CE010E94A5
:10164000F50968E171E09DCF8DE491E0998388838D
:101650001C8AA5CFDC011896ED91FC9130E020E0CA
:1016600040E069E10994DC011896ED91FC9130E0CD
:1016700020E040E068E10994CF93DF931F92CDB75B
:10168000DEB76983BE016F5F7F4F0E9449060F90EE
:10169000DF91CF910895EF92FF921F93CF93DF9345
:1016A000EC01162F7A010E94330B60E4CE010E94F8
:1016B0003C0BE885F9859701412F67E1CE0109953B
:1016C000CE01DF91CF911F91FF90EF900C942A0BE8
:1016D000EF92FF921F93CF93DF93EC01142F7901C8
:1016E000663181F138F4643109F44BC0653179F029
:1016F00080E022C06831C9F150F16931C9F78091A9
:10170000D301882391F1CE010E942A0B2EC0809133
:10171000D301882319F0CE010E942A0BCE010E942A
:10172000330B60E0CE010E943C0B612FCE010E9482
:101730003C0B81E08093D301DF91CF911F91FF900B
:10174000EF900895642F0E943C0B81E0F5CF8091CB
:10175000D301882319F0CE010E942A0BA701193169
:1017600038F4612FCE010E944B0B1092D301EDCFC4
:1017700068E1CE010E944B0B185188E1E80EF11C84
:10178000EDCF8E898F3F11F488E78E8BE885F98540
:101790009701412F64E1CE01DF91CF911F91FF901E
:1017A000EF9009940F93DC01DE963C91DE97431B8A
:1017B000D496ED91FC9109950F910895CF93DF9305
:1017C000FC01A081B18182AD982F990F990F990FDB
:1017D00095AF50969C915097903208F09FE1990FE9
:1017E000990F990F94AF23AD922F990F990F990FDD
:1017F00096AF51963C915197682F620F7727771FCC
:101800003617170614F4832F821B97AFEF01C05CC5
:10181000DF4F880F880F880F890F8883219680EF0C
:10182000888354968D919C915597813F910508F43A
:101830008883EE5BFF4F56968C918083DF91CF912A
:1018400008950F93FC01EB5BFF4F3081319650817F
:10185000451730F4301738F0041728F080E013C033
:101860003017D0F3FBCFFC01ED5BFF4F30818C5B79
:101870009F4FFC018081681740F481E0321718F017
:1018800081E0261758F70F9108953217C8F3E6CF75
:101890002F923F924F925F926F927F928F929F9280
:1018A000AF92BF92CF92DF92EF92FF920F931F936E
:1018B000CF93DF93EC014C0183E4880E911CF4017B
:1018C0001082329720805E01F4E4AF0EB11CF50166
:1018D00020823FAC6E01F5E4CF0ED11CF6013082C0
:1018E000359740807E01F6E4EF0EF11CF70140824F
:1018F0003496108132976080319670803297508094
:10190000012F262D472D652DCE010E94210CCD588B
:10191000DF4F811114C01882DF91CF911F910F9179
:10192000FF90EF90DF90CF90BF90AF909F908F90FF
:101930007F906F905F904F903F902F90089581E03F
:101940008883552011F0F4015082621410F4F501DF
:101950006082371410F4F60170821415E8F6F7016E
:101960001083DACF0F93DC01802FFD01ED58FF4F7C
:1019700090819923E9F12223D9F1223020F002301D
:1019800079F56F5F621B082F0170FD0180FD32C089
:10199000EB5BFF4F8081481758F1319680814817E3
:1019A00038F53297908131978081260F2617F0F411
:1019B0006917D8F42FEF290F8217D0F4681708F4AD
:1019C000682F291708F4922F961BD696ED91FC915B
:1019D000D7970480F581E02D292FCD01099508C006
:1019E000033089F64F5F421BCECF682F691720F373
:1019F0000F910895ED5BFF4F80816817C8F3319612
:101A000080816817A8F73296908131978081240FE2
:101A1000241778F4491760F42FEF290F821740F745
:101A2000481708F4482F291708F4922F941BCDCF9C
:101A3000482F4917E8F6F2CF213039F020F0223054
:101A400031F0840F0895860F0895841B0895861B36
:101A50000895213039F020F0223031F0861B0895AE
:101A6000840F0895860F0895841B08955F926F92E6
:101A70007F928F929F92AF92BF92CF92DF92EF921E
:101A8000FF920F931F93CF93DF935C01162F642E69
:101A9000EC01C15BDF4FDC80ED804C0189E7880EF3
:101AA000911CFE80FD18C12EF11608F4CF2C5B802E
:101AB0000C85202F4E2D6D2D8A810E941C0D782EB5
:101AC000202F4E2D6D2D852D0E94290D482F66202B
:101AD00071F08A85F40180832C2D672DC5010E9449
:101AE000B20C1F1548F01F19E394D12CDACF898569
:101AF0008111F7CF8B85EECF1D0D1C83ED82DF9119
:101B0000CF911F910F91FF90EF90DF90CF90BF90FA
:101B1000AF909F908F907F906F905F900895DC01C1
:101B200018964C911897ED91FC911197249130E003
:101B3000042E02C0359527950A94E2F7842F860F6C
:101B4000883068F031961196FC93EE93E49198E01A
:101B5000941B01C0EE0F9A95EAF72E2B8850189629
:101B60008C938FEF9FEF01C0880F6A95EAF78095FD
:101B700082230895FC01E60FF11D849190E0982FD7
:101B800088273196E4918E0F911D0895CF93DF93AE
:101B9000EC01FC018491809383033196E491E093FE
:101BA0008403FE013296E491E0938503FE013396AF
:101BB000E491E0938603FE013496E491E093870379
:101BC000FE013596E491E0938803FE013696E49198
:101BD000E0938903FE013796E491E0938A03FE01C6
:101BE0003896E491E0938B03FE013996E491E093FB
:101BF0008C03FE013A96E491E0938D03FE013B963F
:101C0000E491E0938E03FE013C96E491E0938F0310
:101C1000FE013D96E491E0939003FE013E96E4912F
:101C2000E0939103FE013F96E491E0939203FE015D
:101C30007096E491E093930361E1CE010E94BA0DA6
:101C4000909395038093940363E1CE010E94BA0DB3
:101C5000909397038093960365E1CE010E94BA0D9D
:101C60009093990380939803DF91CF9108956F9299
:101C70007F928F929F92AF92BF92CF92DF92EF921C
:101C8000FF920F931F93CF93DF93EC01062F142F36
:101C90007901FC01E55AFF4F8081813009F445C08C
:101CA000D0F1823009F44BC0833009F452C0FE01F8
:101CB000EF5AFF4F008331961083379780819181CF
:101CC00047962FEFE216F10411F008F0E6C0E1E6C6
:101CD000EE16F10408F447C0FE01E159FF4F2081E0
:101CE0003181820F931F9C012F5F3F4FF901449177
:101CF000411142C0712C872DDF91CF911F910F911F
:101D0000FF90EF90DF90CF90BF90AF909F908F901B
:101D10007F906F900895FE01E35BFF4F0190F0818B
:101D2000E02DCE010995180FC2CFFE01E35BFF4FF6
:101D30000190F081E02DCE010995081BB8CFFE017E
:101D4000E35BFF4F0190F081E02DCE010995181B58
:101D5000AECFFE01E35BFF4F0190F081E02DCE019D
:101D60000995080FA4CFF1E4EF16F10408F4BBCFF6
:101D7000FE01E359FF4FB3CFFC0144914E151F0400
:101D800009F086C00296009709F4B4CF7E01FFE403
:101D9000EF0EF11CF70191838083108671966081AC
:101DA000C7010E948F0DF701868372966081C7017B
:101DB0000E948F0DA82EF70187836E01F9E7CF0EE1
:101DC000D11CF6019081F701928781E0911180E0AA
:101DD000F7018387FE01EE59FF4FB0806B2DC701DD
:101DE0000E948F0D882EFE01ED59FF4F1081612F4B
:101DF000C7010E948F0D982EFE01EC59FF4F008104
:101E0000602FC7010E948F0D015041E050E09A0100
:101E100001C0220F0A95EAF7782E721AF70106819F
:101E200010160CF068CFBA94CA0101C0880FBA949A
:101E3000EAF7881AB4849A0C115001C0440F1A951D
:101E4000EAF7F42FF9199F2E2B2D4F2F682DF7014C
:101E500082810E941C0D182FF70182832B2D492DA2
:101E6000682D83810E94290DF7018383F1E0BF165D
:101E700009F47CC0BF1608F43FC022E0B21609F492
:101E80007BC093E0B91609F482C0082F212F38C017
:101E9000F9012491820F911D26CFFE01EF58FF4FCB
:101EA00000811181080F191F680160E0C6010E94BE
:101EB000BA0D080F191F62E0C6010E94BA0DF4E0C6
:101EC000CF0ED11C8E159F0580F3F801849190E010
:101ED000982F88273196E4918E2B009709F40ACF2A
:101EE000E816F90619F4C80103964DCFF8013296A9
:101EF000E4910E0F111DE9CF202F210F082F0A0D9D
:101F0000482F612FCE010E94210C882309F4F3CEC3
:101F1000F701148215828E01025A1F4F4E01FFE510
:101F20008F0E911CF8016081C7010E948F0D682EF1
:101F3000F4016081C7010E948F0DB82E40E0662D2C
:101F4000CE010E94360D41E06B2DCE010E94360D70
:101F500061E0C7010E948F0D8111F0CFF7018581EB
:101F60008A1504F38285F6018083C5CEBA1821E074
:101F7000210F080F1B0DC4CF91E0392F301B21E03A
:101F8000210F9A1901E0080F890F130FB9CF212FE4
:101F90002A0D982F901B01E0080F81E0890FB0CF28
:101FA000EF92FF921F93CF93DF9310923F037C0138
:101FB00010E0D8E1C0E0F70161917F01E0912903D1
:101FC000F0912A0387E293E009958F3F9807F1F09B
:101FD0008E3F2FEF920779F39C014D2F6C2F87E2F4
:101FE00093E00E94370E90918203913049F030F0D7
:101FF000923041F0933041F0180FDDCFC80FFCCF85
:10200000D80FFACFC81BF8CFD81BF6CF812FDF919E
:10201000CF911F91FF90EF900895CF93DF93EC0144
:102020006BAFEEA9FFA90190F081E02D0995EEA913
:10203000FFA90280F381E02DCE01DF91CF910994B9
:10204000AF92BF92CF92DF92EF92FF920F931F93C6
:10205000CF93DF9300D000D01F92CDB7DEB78C01B5
:10206000DC01DA96AC90DA97DB96EC90DB97ED9199
:10207000FC91B188FE2CD12CC12CD801ED91FC91A2
:1020800011978089D8962D913C911C82FD828B837B
:10209000B8E08B9FC00111248C9DA0018D9D500D37
:1020A0009C9D500D1124240F351F3A832983D8019C
:1020B0001496ED91FC919E012F5F3F4F41E06FE040
:1020C000C8010995F3948F2D8E198A1528F4BFEF56
:1020D000CB1ADB0AFB1488F20F900F900F900F9031
:1020E0000F90DF91CF911F910F91FF90EF90DF90B4
:1020F000CF90BF90AF9008958FB7F8948091D201A0
:102100008FBF0895CF93DF93EC01962F683109F4C8
:1021100045C0B901993130F4943199F0973159F0B3
:1021200080E006C0993109F45BC09032C9F781E0C4
:10213000DF91CF91089550E087E992E00E94A406D4
:10214000F6CF8C859D85AE85BF85892B8A2B8B2B01
:1021500071F4E881F981A585B0E020EA36E841E034
:1021600050E00E94EA1A6C877D878E879F871092C5
:1021700026021092250210927402109296020E947A
:102180005E0788E796E09093FF018093FE0189E760
:1021900096E09093030280930202C9CF2C853D857F
:1021A0004E855F8560E074E284EF90E00E94C81A7B
:1021B0002051310941095109569547953795279581
:1021C0002093B8008E8990E09595879591E0909343
:1021D0007302809395021092740210929602A7CF18
:1021E00081E00E94B408A3CF0F931F93CF93DF9396
:1021F000EC01862F642F8C3208F03AC08A3208F046
:1022000060C0883209F44BC0893209F460C0803460
:1022100008F470C0982F9F73FE01E90FF11D868DA1
:102220008F3F09F44EC0903108F436C0282F30E0BB
:10223000F901E255FF4F8491F901E656FF4F0491F1
:10224000F901EA57FF4F1491112379F081110E948F
:102250000007E12FF0E0EE0FFF1FE859FF4FA591B7
:10226000B491EC910E2381E009F480E0898F29C0BC
:102270008D3299F108F4CBCF94EB980F923008F09F
:10228000C6CF8F73C80FD11D8E8D41112FC061E055
:102290000E949D0760E08E8D0E94290712C08E016A
:1022A000025E1F4FD0E0F80181918F018F3F31F026
:1022B00061E0D03108F062E00E949D07DF5FD63117
:1022C00091F781E0DF91CF911F910F91089570E018
:1022D00090E080E00E94C209F4CF85E090E04330B6
:1022E00010F082E090E00E94CE07EBCF62E00E9407
:1022F0009D07E7CF80E0E6CF8CBD9DBD08958F920E
:102300009F92AF92BF92CF92DF92EF92FF920F9384
:102310001F93CF93DF93EC014B016A01B22EA32EE2
:1023200088819981892B31F0EA81FB8180819181BB
:102330000E947C1170E060E0CE010E94570774019A
:10234000C80CD91CEC14FD0479F4EB2CFA2C0E0DFE
:102350001F1DE016F10679F06FEFCE010E94D9073C
:10236000F70181937F01F5CFF70161917F01CE01E4
:102370000E94D907E7CF61E070E0CE010E945707C5
:1023800081E0DF91CF911F910F91FF90EF90DF904F
:10239000CF90BF90AF909F908F9008958F929F9213
:1023A000AF92BF92CF92DF92EF92FF920F931F9363
:1023B000CF93DF93EC01B62EA72E6A0149018881E5
:1023C0009981892B31F0EA81FB81808191810E9482
:1023D0007C1170E060E0CE010E9457077401080D87
:1023E000191DE016F10671F40B2D1A2DC00ED11E29
:1023F0000C151D0571F0F80161918F01CE010E944D
:10240000D907F6CFF70161917F01CE010E94D9076C
:10241000E8CF61E070E0CE010E94570781E0DF91D4
:10242000CF911F910F91FF90EF90DF90CF90BF90D1
:10243000AF909F908F900895AF92BF92CF92DF920E
:10244000EF92FF920F931F93CF93DF9300D0CDB7FE
:10245000DEB7DC01211103C018962C9118972530A6
:1024600008F043C01F964D935D936D937C935297F4
:1024700090E080E0E22EF12C8E159F05B4F41A96C0
:102480002C911A9721110AC0FD01E80FF91F43870B
:10249000452F562F672F77270196EECFF701E81BC0
:1024A000F90BEA0FFB1F4287F3CF6D018BE0C80EDB
:1024B000D11C16969C91169717968C911797998315
:1024C0008A83AD90BC901197A114B10409F441C066
:1024D00019960C9110E098012E0D3F1DD501149610
:1024E0008D919C918217930710F480E016C0F5013E
:1024F00081819281208131E0309373022093950293
:1025000010927402109296020115110599F421E0BF
:10251000A701B601C5010E94A4090F900F90DF9199
:10252000CF911F910F91FF90EF90DF90CF90BF90D0
:10253000AF900895DC01ED91FC910280F381E02DD4
:10254000A801BE016F5F7F4F09950817190769F64B
:10255000DECF1296ED91FC911397309731F21496DD
:102560002D913C91159719960C9110E0233031056F
:1025700071F48E7F89839A830F5F1F4F9E012F5FB7
:102580003F4FA701B601CF010E94CE11C6CF211542
:10259000310519F49F779983F1CF2230310511F479
:1025A0009068F9CF2130310549F79F779064F3CFD8
:1025B000CF93DF93CDB7DEB763970FB6F894DEBF46
:1025C0000FBECDBF2091A9033091AA03188A198AA2
:1025D0001A8A1B8A3A8329831C821B8221E02A875C
:1025E00090E098878F831B862987462F50E070E004
:1025F00060E020E0CE0101960E941C1263960FB6A7
:10260000F894DEBF0FBECDBFDF91CF910895CF927A
:10261000DF92EF92FF920F931F93CF93DF936C01A2
:10262000EB017B01E40EF51E10E000E0CE15DF05A6
:1026300061F06991D601ED91FC910190F081E02D5E
:10264000C6010995080F191FF1CFC801DF91CF917D
:102650001F910F91FF90EF90DF90CF900895CF9250
:10266000DF92EF92FF920F931F93CF93DF93EC01D2
:102670006C0124E0C20ED11CFC01E158FF4F019017
:10268000F081E02DC60109958E3FEFEF9E07C8F45B
:102690008E010E571F4F7E01F1E8EF0EF11C9C01D9
:1026A000F8014081F7016081C6010E94370EC15ACE
:1026B000DF4F98819130A9F078F09230A1F09330FB
:1026C000B9F081E090E0DF91CF911F910F91FF90E1
:1026D000EF90DF90CF900895F7019081890F80836C
:1026E000F0CFF801FACFF7019081981B892FF7CF2F
:1026F000F801FACF089590E080E008952F923F927C
:102700004F925F926F927F928F929F92AF92BF9201
:10271000CF92DF92EF92FF920F931F93CF93DF93AD
:1027200000D000D01F92CDB7DEB77C01DC01189637
:102730000C914C01BBE08B0E911CFC0196818781B2
:1027400099838A83208031802114310409F424C1C3
:10275000418550E0D10114968D919C911597841775
:10276000950708F46CC18C9191E09093730280936B
:102770009502109274021092960220E0BE016F5FE3
:102780007F4FC1010E94A409882309F458C1E02F9A
:10279000F0E0FC83EB83B12CA12C01E08B819C81C8
:1027A000A816B90608F018C1D10114968D919C9114
:1027B000CB80DC80CA18DB088C159D0508F46C0101
:1027C000F101F081FD830E948F082B013C01809173
:1027D0006D02811172C01C2D113208F010E20093BD
:1027E0006D0221E08B819C818C199D09A816B90688
:1027F00008F420E020936C028FEF80936B0210921C
:102800006A02810F80936902009348029091480206
:102810008D81880F892B80934802809147028130F7
:1028200009F091C0109247020E948F082B013C01D1
:10283000809148028093BB0080916F02909170025A
:10284000A0917102B0917202892B8A2B8B2BA1F07F
:102850000E948F0820916F023091700240917102A6
:10286000509172026419750986099709261737076E
:102870004807590708F442C08091BC0083FDD8CFB7
:1028800095EC9093BC000E948F082B013C01809135
:102890006D02813009F45BC080916A02811710F4E7
:1028A00010916A02E9E4F2E0A7E2B2E080E0811769
:1028B00051F191919D938F5FFACF80916F0290912A
:1028C0007002A0917102B0917202892B8A2B8B2B1E
:1028D00009F47DCF0E948F0820916F023091700221
:1028E0004091710250917202641975098609970925
:1028F000261737074807590708F069CF80916E02FD
:102900000E947C0710E010922602109325021C15ED
:102910001D0409F094C034016A0C7B1C2301C20120
:10292000861997098C159D05A0F5F1018181928189
:10293000DC01ED91FC910284F385E02D0995F20113
:1029400081932F01ECCFA5EEA093BC009CCF80918A
:102950006F0290917002A0917102B0917202892B66
:102960008A2B8B2B09F493CF0E948F0820916F0242
:102970003091700240917102509172026419750990
:1029800086099709261737074807590708F07FCFA8
:10299000B5CFAC0CBD1C02CFD7010280F381E02D76
:1029A000309709F44CC014962D913C91159710E086
:1029B00019964C9150E02330310561F5816089838F
:1029C0009A834F5F5F4F9401BE016F5F7F4FCF01CE
:1029D0000E947F11882399F1F701408550E030E093
:1029E00020E060E070E0CB01241735075CF5982FFC
:1029F000872F762F6627D7011A96EC91E1111AC01E
:102A0000FA01E21BF30BEE0DFF1DE2856E2B2F5F2B
:102A10003F4FEACF2115310519F490689983D3CF40
:102A20002230310511F49F77F9CF2130310559F665
:102A3000906CF4CFF701E20FF31FE385E7CF6FEF60
:102A40007FEFCB010F900F900F900F900F90DF91C1
:102A5000CF911F910F91FF90EF90DF90CF90BF909B
:102A6000AF909F908F907F906F905F904F903F902E
:102A70002F9008958F929F92AF92BF92CF92DF9244
:102A8000EF92FF920F931F93CF93DF93EC014A01D4
:102A90005B01888199810E947E132A8101E010E008
:102AA00002C0000F111F2A95E2F701501109012EF3
:102AB000000C220B330BAB81680179010A2E04C094
:102AC000CC0CDD1CEE1CFF1C0A94D2F7C094D094F1
:102AD000E094F094C622D722E822F922E881F98115
:102AE000B901A801482159216A217B2104C0440F62
:102AF000551F661F771FAA95D2F74C295D296E29AD
:102B00007F292085CF01DF91CF911F910F91FF90F9
:102B1000EF90DF90CF90BF90AF909F908F900C94EC
:102B20001C12CF93DF93CDB7DEB767970FB6F8943B
:102B3000DEBF0FBECDBF2091A9033091AA03188A32
:102B4000198A1A8A1B8A3A8329831C821B8291E084
:102B50009A8720E830E038872F831B8699879E016B
:102B60002F5F3F4F3D8B2C8B9E8B9F8B482F50E0D0
:102B700070E060E0CE0144960E943A1567960FB669
:102B8000F894DEBF0FBECDBFDF91CF910895EF92D5
:102B9000FF921F93CF93DF93CDB7DEB7AA970FB6FF
:102BA000F894DEBF0FBECDBF7C01FC018381948110
:102BB0001BA21CA21DA21EA29D8B8C8B1F8A1E8A8B
:102BC00011E01D8F82E990E09B8F8A8F1E8E1C8FF3
:102BD000CE0144960E947E1380E060FD20C0F70184
:102BE00083819481188A198A1A8A1B8A9A83898315
:102BF0001C821B821A8780E890E098878F831B864F
:102C00001987CE01019698A78FA319A71AA641E0AC
:102C100050E060E070E086960E943A1581E0AA9646
:102C20000FB6F894DEBF0FBECDBFDF91CF911F91DD
:102C3000FF90EF90089585ED8093BC0080916F0226
:102C400090917002A0917102B09172020796A11D3D
:102C5000B11D23E0B695A795979587952A95D1F74D
:102C60002091BC0024FD03C010926D020895409194
:102C70006F02509170026091710270917202452B47
:102C8000462B472B69F30097A105B10541F025E3D9
:102C90002A95F1F700000197A109B109E1CF8091D0
:102CA0006E020C947C07FC01A081B18150962C919E
:102CB00082AD38E0839FC0011124289FA001299F85
:102CC000500D112470E060E080AD91AD0C940A1BB2
:102CD0001F93CF93DF93EC010E9420101BAD8AADB0
:102CE000180FE881F9818189181768F0EC81FD815E
:102CF00030E020E040E060E1CE01099580E0DF9126
:102D0000CF911F910895FE01E658FF4F80818823DF
:102D100019F0CE010E945316612FCE010E940D10B2
:102D200081E0EDCFCF93DF93EC01FC01E658FF4F3C
:102D30008081882319F0CE010E94531660E0CE01F5
:102D4000DF91CF910C940D101F920F920FB60F923E
:102D500011242F933F934F935F936F937F938F93A0
:102D60009F93AF93BF93EF93FF938091B900887FB8
:102D7000803609F44AC0F0F5883209F4A7C018F586
:102D8000803109F49BC0B8F4882309F4F9C0883075
:102D900009F494C0FF91EF91BF91AF919F918F91F2
:102DA0007F916F915F914F913F912F910F900FBE47
:102DB0000F901F901895883109F488C0803251F720
:102DC00080936B0214C0803409F49DC040F48033BA
:102DD000B9F38833F9F680936B0285ECB0C0803587
:102DE00009F485C0883509F496C0883499F60E94A4
:102DF0001B16D0CF883909F48CC038F5883729F0F4
:102E000050F4883611F0803729F683E080936D0204
:102E10001092240257C0883809F47BC0803919F019
:102E2000803809F0B7CF80912402803208F071C059
:102E3000E091240281E08E0F809324028091BB00F8
:102E4000F0E0EC5FFD4F80833DC0803B39F0E0F463
:102E5000803A09F479C0883A09F09CCF84E08093E5
:102E60006D021092010210920002E091FE01F091B9
:102E7000FF0109958091000281110FC081E08093CC
:102E800000021092DE0109C0803C09F4A6CF883C04
:102E900009F4A3CF883B09F07DCFE091010281E0E6
:102EA0008E0F80930102F0E0E252FE4F808180930A
:102EB000BB00909101028091000229C080914802DC
:102EC0008093BB0085EC8093BC0064CF90916A0234
:102ED00080916902981758F5E0916A0281E08E0F9F
:102EE00080936A02F0E0E75BFD4F8081E9CFE091DB
:102EF0006A0281E08E0F80936A028091BB00F0E04D
:102F0000E75BFD4F808390916A0280916902981778
:102F1000C8F285E8D8CFE0916A0281E08E0F8093F5
:102F20006A028091BB00F0E0E75BFD4F80838091F7
:102F30006C0281115CCF81E08093470284EA809328
:102F4000BC0010926D0226CF85EC8093BC001092DD
:102F50006D0280912402803230F4E0912402F0E08E
:102F6000EC5FFD4F10826091240270E0E09102025C
:102F7000F091030284E092E00995109224020ACFB6
:102F800010926B0234CF1F920F920FB60F92112442
:102F90002F933F938F939F93AF93BF938091D501CE
:102FA0009091D601A091D701B091D8013091D40170
:102FB00023E0230F2D3758F50196A11DB11D209355
:102FC000D4018093D5019093D601A093D701B093FB
:102FD000D8018091D9019091DA01A091DB01B091E3
:102FE000DC010196A11DB11D8093D9019093DA01F6
:102FF000A093DB01B093DC01BF91AF919F918F91C2
:103000003F912F910F900FBE0F901F90189526E8BB
:10301000230F0296A11DB11DD2CFCF9310929A0219
:103020001092990288EE93E0A0E0B0E080939B02BA
:1030300090939C02A0939D02B0939E0289E691E03A
:10304000909398028093970287E891E09093A7036A
:103050008093A6031092A8031092AA031092A903CA
:1030600010922603109225038FE995E09093A30315
:103070008093A2031092A4031092A50310923F0321
:103080008BE791E09093240380932303109228030D
:103090001092270310923C031092330310923403D2
:1030A00010923503109236038FEF80933D03809387
:1030B0004103E5E4F3E08BE593E0CFEFC1938E1796
:1030C0009F07E1F783E79AE090932C0380932B030B
:1030D00088E69BE090932E0380932D0382E890E195
:1030E0009093300380932F0384EF90E19093320309
:1030F0008093310330E020E040E069E087E293E034
:103100000E94730A109273031092720389EA95E089
:1031100090935C0380935B0383EA92E09093600357
:1031200080935F0381E080936103109262031092A9
:103130007F0310929F038093A0038093A10389E8EB
:1031400091E090935E0380935D0387E293E00E9499
:10315000DE0B10926E0310927003C0936F03C09346
:103160007103E0915D03F0915E030280F381E02D35
:1031700087E293E009958CE096E090937503809345
:10318000740310928203C0935003C0935103C09301
:103190005203CF910895CF93DF93CDB7DEB76797F2
:1031A0000FB6F894DEBF0FBECDBF789484B58260B1
:1031B00084BD84B5816084BD85B5826085BD85B5DB
:1031C000816085BD80916E00816080936E00109259
:1031D00081008091810082608093810080918100D4
:1031E0008160809381008091800081608093800065
:1031F0008091B10084608093B1008091B0008160C3
:103200008093B00080917A00846080937A008091EE
:103210007A00826080937A0080917A008160809346
:103220007A0080917A00806880937A001092C100C1
:10323000E0912B03F0912C0330E020E040E06AE0C5
:1032400087E293E0099587E293E00E94921687E275
:1032500093E00E9468168111FACF60E087E293E064
:103260000E940D10E0912B03F0912C0330E020E040
:1032700040E06BE087E293E00995809172039091C2
:103280007303825C904051F082EC90E09093730362
:10329000809372030E94C60D0E940E0687E293E09F
:1032A0000E9492160FE915E064EF71E080E090E073
:1032B0000E94C20910932A03009329038FE891E02A
:1032C0000E94D00F87E293E00E9468168111ECCF34
:1032D00060ED77E080E090E00E94C2098091A90350
:1032E0009091AA03188A198A1A8A1B8A9A83898359
:1032F0001C821B8211E01A8781E890E098878F83F7
:103300001B86198720E044E650E060E070E0CE01C3
:1033100001967C010E941C128091A9039091AA033E
:10332000188A198A1A8A1B8A9A8389831C821B82AB
:103330001A878AEC90E098878F831B8602E00987C2
:1033400020E047EE53E060E070E0C7010E941C12ED
:103350008091A9039091AA03188A198A1A8A1B8A54
:103360009A8389831C821B821A878AEA90E0988755
:103370008F831B86198720E049E050E060E070E011
:10338000C7010E941C121092C4031092C30380E074
:103390000E9491158091A9039091AA03188A198A15
:1033A0001A8A1B8A9A8389831C821B821A878FEA56
:1033B00090E098878F831B861987FD8AEC8A0E8B95
:1033C00083E08F8B42E050E060E070E0CE014496F5
:1033D0000E943A1560E380E00E94D81261E081E02B
:1033E0000E94D81260E082E00E94D81260E083E080
:1033F0000E94D81260E084E00E94D81262E485E066
:103400000E94D81260E086E00E94D81260E087E057
:103410000E94D81260E588E00E94D81260E089E03E
:103420000E94D81260E08AE00E94D81260E08BE02F
:103430000E94D81260E28CE00E94D81264E08DE015
:103440000E94D81260E08EE00E94D81260E38FE004
:103450000E94D81261E080E10E94D81260E581E10B
:103460000E94D81260E082E10E94D81266E083E1F7
:103470000E94D8128091A9039091AA03188A198AF0
:103480001A8A1B8A9A8389831C821B821A8780E886
:1034900090E098878F831B861987FD8AEC8A1E8BA4
:1034A00084E08F8B41E050E060E070E0CE01449614
:1034B0000E943A1509EE13E0EE24E394F12C8C8976
:1034C0009D890E947E13AB01BC018E89970102C0C9
:1034D000220F331F8A95E2F7C9010197092E000CCC
:1034E000AA0BBB0B2F8904C0769567955795479516
:1034F0002A95D2F784239523A623B723892B8A2BD9
:103500008B2B51F00150110939F061E070E080E03F
:1035100090E00E94C209D3CF81E00E94911581E022
:1035200090E09093C4038093C3030FE915E080E01B
:10353000E82E80E0F82E95E9C92E94E0D92E87E296
:1035400093E00E94921680917203909173038559C3
:10355000944051F0D0927303C092720385E994E0D5
:103560000E94C60D0E940E0610932A0300932903A1
:1035700081EA91E00E94D00F87E293E00E946816F2
:103580008111F2CFE114F104D1F20E940000D7CFF3
:10359000A1E21A2EAA1BBB1BFD010DC0AA1FBB1F57
:1035A000EE1FFF1FA217B307E407F50720F0A21BC9
:1035B000B30BE40BF50B661F771F881F991F1A9436
:1035C00069F760957095809590959B01AC01BD0160
:1035D000CF0108950E94FB1AA59F900DB49F900DF6
:1035E000A49F800D911D11240895EE0FFF1F0590DB
:1035F000F491E02D0994A29FB001B39FC001A39F55
:10360000700D811D1124911DB29F700D811D11241B
:10361000911D0895DC0101C06D9341505040E0F7C9
:063620000895F894FFCFAD
:103626001815A015C019FF1815A115C819FF1815EA
:10363600AE19FF1815AF19FF1815AE15D51680155A
:10364600A8163F15D316001540158D16141520160D
:103656000015A115C815DA1612158116CF15D9163B
:10366600F115DB1640152E15A415A619FF00011439
:103676000A6464323200127A0000042896100800A8
:10368600008000400000000000D106A4067B137AEB
:10369600069D068A067B06000000002F1307137B93
:1036A600137A1300000000C715DE0B480CD20B413D
:1036B600533733343120496E6974696E672E2E2E66
:0E36C6000048656C6C6F20576F726C642100B9
:00000001FF
