:100000000C9498010C94C0010C94C0010C94C00194
:100010000C94C0010C94C0010C94C0010C94C0015C
:100020000C94C0010C94C0010C94C0010C94C0014C
:100030000C94C0010C94C0010C94C0010C94C0013C
:100040000C94300E0C94C0010C94C0010C94C001AF
:100050000C94C0010C94C0010C94C0010C94C0011C
:100060000C94150D0C94C00100000000000000006D
:10007000002F000000000700070000147F147F1409
:1000800000242A7F2A12006264081323003649558F
:10009000225000000503000000001C224100000067
:1000A00041221C000014083E08140008083E0808FD
:1000B000000000A060000008080808080000606058
:1000C0000000002010080402003E5149453E000097
:1000D000427F4000004261514946002141454B3179
:1000E000001814127F10002745454539003C4A4945
:1000F00049300001710905030036494949360006B7
:100100004949291E0000363600000000563600001E
:100110000008142241000014141414140000412299
:10012000140800020151090600324959513E007C71
:100130001211127C007F49494936003E414141225B
:10014000007F4141221C007F49494941007F090944
:100150000901003E4149497A007F0808087F0000F4
:10016000417F4100002040413F01007F08142241AF
:10017000007F40404040007F020C027F007F040867
:10018000107F003E4141413E007F09090906003EC3
:100190004151215E007F09192946004649494931EC
:1001A0000001017F0101003F4040403F001F20400F
:1001B000201F003F4038403F0063140814630007CD
:1001C0000870080700615149454300007F41410024
:1001D000020408102000000041417F0000040201D9
:1001E00002040040404040400000010204000020A2
:1001F00054545478007F48444438003844444420E0
:1002000000384444487F00385454541800087E098C
:1002100001020018A4A4A47C007F08040478000054
:10022000447D4000004080847D00007F1028440011
:100230000000417F4000007C04180478007C080422
:10024000047800384444443800FC2424241800185E
:10025000242418FC007C080404080048545454204A
:1002600000043F444020003C4040207C001C2040D3
:10027000201C003C4030403C004428102844001C16
:10028000A0A0A07C004464544C44000008774100C6
:100290000000006300000000417708000008040827
:1002A0000804003D4040207D003D4040403D00218D
:1002B00054545479007D1211127D0039444444395C
:1002C000003D4242423D000205020000007E01491D
:1002D000557300000000240027002A0000000000E1
:1002E000250028002B000000000023002600290024
:1002F00004040404040404040202020202020303CC
:1003000003030303010204081020408001020408D3
:100310001020010204081020000000080002010063
:100320000003040700000000000000007A0EC8115E
:1003300011241FBECFEFD8E0DEBFCDBF11E0A0E09B
:10034000B1E0EAE5F6E202C005900D92AC31B107EA
:10035000D9F722E0ACE1B1E001C01D92A531B207AE
:10036000E1F711E0C7E9D1E004C02197FE010E9446
:10037000EE11C639D107C9F70E94AF0E0C942013B5
:100380000C9400002091E3018217E8F49091E401BD
:100390006917C8F4362F36953695369590E0329F1A
:1003A000800D911D1124E091EC01F091ED01E80F19
:1003B000F91F677021E030E001C0220F6A95EAF76B
:1003C0008081822B808308956F927F928F929F927B
:1003D000AF92BF92CF92DF92EF92FF920F931F9353
:1003E000CF93DF93D82FC62F942E822E842F8D1B70
:1003F000990B8C0197FF03C0119501951109662493
:100400006A94D91510F466246394882D8C1B990B7B
:100410007C0197FF03C0F194E194F108AA24BB2466
:10042000AE18BF0877247A94C81510F47724739413
:100430006801CE18DF086C2F8D2F0E94C2019D121B
:1004400002C08C1681F0C601880F991FA816B90644
:100450001CF4CE18DF08D60D8017910764F7C00E84
:10046000D11EC70DE8CFDF91CF911F910F91FF9063
:10047000EF90DF90CF90BF90AF909F908F907F9044
:100480006F90089520918E01260F3327331F21325C
:100490003105ECF42091B201FC0190E080E02430C1
:1004A00069F082E00895A0918E012191AC0142593A
:1004B0005E4FA40FB52FB11D2C930196861798F3AC
:1004C00080918E01680F60938E0180E0089581E035
:1004D00008950895E091670180916601E81730F46E
:1004E000F0E0EA5BFE4F808190E008958FEF9FEF90
:1004F000089590916701809166012FEF3FEF981763
:1005000048F4E92FF0E0EA5BFE4F208130E09F5F86
:1005100090936701C90108958091660190916701E8
:10052000891B990B0895CF92DF92EF92FF920F9360
:100530001F93CF93DF937C01CB018A01209145016A
:10054000222389F0EB016B01C40ED51ECC15DD050D
:1005500069F06991D701ED91FC910190F081E02D56
:10056000C7010995F3CF642F0E944202C801DF91B1
:10057000CF911F910F91FF90EF90DF90CF90089552
:10058000CF93DF931F92CDB7DEB7698320914501EA
:100590002223F9F020914401203258F021E030E08C
:1005A000FC013383228390E080E00F90DF91CF91B4
:1005B000089580914301E82FF0E0ED5DFE4F9981B1
:1005C00090838F5F809343018093440181E090E0AA
:1005D000ECCF61E0CE0101960E944202F7CF8FB7C7
:1005E000F894809122018FBF08958CBD9DBD089520
:1005F000833081F028F4813099F08230A9F0089599
:100600008730A9F08830C9F08430B1F4809180003F
:100610008F7D03C0809180008F7780938000089544
:1006200084B58F7784BD089584B58F7DFBCF80918D
:10063000B0008F778093B00008958091B0008F7DD7
:10064000F9CFCF93DF93282F30E0F901E85EFC4F1C
:100650008491F901EC5FFC4FD491F901E051FD4F19
:10066000C491CC23A1F081110E94F802EC2FF0E09C
:10067000EE0FFF1FEA51FD4FA591B491EC91ED23D0
:1006800081E090E009F480E0DF91CF91089580E06F
:1006900090E0FACF1F93CF93DF93282F30E0F9013A
:1006A000E85EFC4F8491F901EC5FFC4FD491F901B5
:1006B000E051FD4FC491CC23A9F0162F81110E9467
:1006C000F802EC2FF0E0EE0FFF1FE452FD4FA59172
:1006D000B4918FB7F894EC91111108C0D095DE2336
:1006E000DC938FBFDF91CF911F910895DE2BF8CF60
:1006F0001F93CF93DF93C1E0C0936D01882399F1DD
:10070000D091B8001091BA008091BC008A7B809390
:10071000BC0060E082E10E944A0360E083E10E9445
:100720004A031092B201C093B4011092B30161E088
:1007300082E10E944A0361E083E10E944A038091C2
:10074000B9008E7F8093B9008091B9008D7F80932E
:10075000B90088E48093B80085E48093BC001093CE
:10076000BA00D093B800DF91CF911F910895FC019A
:1007700083858F3F11F00C944A030895CF93DF9344
:1007800090E0FC01EC5FFC4F249180519D4FFC01F7
:1007900084918823D1F090E0880F991FFC01EE52DC
:1007A000FD4FA591B491FC01E452FD4FC591D49148
:1007B00061110EC09FB7F8948C91E22FE0958E23C3
:1007C0008C932881E223E8839FBFDF91CF91089526
:1007D0008FB7F894EC91E22BEC938FBFF6CF823079
:1007E000910538F0880F991F880F991F0597019779
:1007F000F1F70895AF92BF92CF92DF92EF92FF92FE
:100800000F931F93CF93DF93EC0188819981892BFC
:1008100089F06EBD0DB407FEFDCFBEB48B2DDF9108
:10082000CF911F910F91FF90EF90DF90CF90BF90ED
:10083000AF9008958885998511E0892B09F010E81B
:10084000AA24A394862F812309F0A12C062F2C81A2
:100850003D814E815F8160E271EA87E090E00E9415
:10086000CC11F22EB02EE12CC22ED12CFF2019F08B
:10087000C6010E94EF038A85877F09F042C08D85FB
:100880008F3F89F0902F912381E009F480E08A1551
:1008900051F0EF85F8898F89992369F19081892B2F
:1008A0008083AA24A394E989FA898081998D892B70
:1008B0008083FF2019F0C6010E94EF038E858F3FD1
:1008C00039F0EB89FC898081988D892309F0E12A30
:1008D000E989FA899081898D8095892380838E8525
:1008E0008F3F09F0BE2C88859985892BB9F5110FAA
:1008F0001111BCCF93CF9081809589238083A12C47
:10090000D2CFE989FA898081998D892B8083FF2054
:1009100019F0C6010E94EF038D858F3F49F0EF85E6
:10092000F8898F89902F9123A9F09081892B80835A
:10093000E989FA899081898D8095892380838E85C4
:100940008F3F69F2EB89FC898081988D892339F288
:10095000E12AC5CF908180958923E9CF1695C8CF2C
:100960008F929F92AF92BF92CF92DF92EF92FF92BF
:100970000F931F93CF93DF93EC014B016A01B22ECB
:10098000A32E88819981892B31F0EA81FB818081B6
:1009900091810E94F50270E060E0CE010E94B703F1
:1009A0007401C80CD91CEC14FD0479F4EB2CFA2C5E
:1009B0000E0D1F1DE016F10679F06FEFCE010E94BB
:1009C000FA03F70181937F01F5CFF70161917F0170
:1009D000CE010E94FA03E7CF61E070E0CE010E94F1
:1009E000B70381E0DF91CF911F910F91FF90EF90BE
:1009F000DF90CF90BF90AF909F908F9008958F928F
:100A00009F92AF92BF92CF92DF92EF92FF920F939D
:100A10001F93CF93DF93EC01B62EA72E6A014901F5
:100A200088819981892B31F0EA81FB8180819181D4
:100A30000E94F50270E060E0CE010E94B7037401ED
:100A4000080D191DE016F10671F40B2D1A2DC00EBC
:100A5000D11E0C151D0571F0F80161918F01CE01B9
:100A60000E94FA03F6CFF70161917F01CE010E9447
:100A7000FA03E8CF61E070E0CE010E94B70381E0A5
:100A8000DF91CF911F910F91FF90EF90DF90CF906A
:100A9000BF90AF909F908F9008953FB7F89480914A
:100AA0001D0190911E01A0911F01B091200126B55A
:100AB000A89B05C02F3F19F00196A11DB11D3FBF96
:100AC000BA2FA92F982F8827BC01CD01620F711D65
:100AD000811D911D42E0660F771F881F991F4A955F
:100AE000D1F708958F929F92AF92BF92CF92DF92EB
:100AF000EF92FF920F931F93CF93DF93EA01122F90
:100B0000DC0111968D919C91DC01ED91FC910280AC
:100B1000F381E02D0995C817D90709F0A9C0D09134
:100B2000440191E0D13208F09BC0C09121010E94A4
:100B30004D056B017C018091B20181116BC082E097
:100B40008093B2011093B4018FEF8093B1011092A2
:100B5000D601D093D501A3E2B1E0E5EBF1E080E06E
:100B6000D81394C01092D7018091D701CC0FC82B15
:100B7000C093D7018091B301813009F08BC01092EE
:100B8000B3010E944D056B017C018091D7018093D8
:100B9000BB008091690190916A01A0916B01B091B5
:100BA0006C01892B8A2B8B2BA1F00E944D050091A3
:100BB000690110916A0120916B0130916C016C19EF
:100BC0007D098E099F09061717072807390708F4BA
:100BD00042C08091BC0083FDD8CF85EC8093BC00DF
:100BE0000E944D056B017C018091B201823009F4B5
:100BF00053C08091B10190E08F3F91F18091B1019C
:100C000092E0803269F18091B10194E0803341F546
:100C100093E026C08091690190916A01A0916B01D7
:100C2000B0916C01892B8A2B8B2B09F484CF0E9405
:100C30004D058090690190906A01A0906B01B09081
:100C40006C016C197D098E099F0986169706A80606
:100C5000B90608F070CF809168010E94780395E092
:100C600010924301109244011092450181E09111CC
:100C700080E0DF91CF911F910F91FF90EF90DF9077
:100C8000CF90BF90AF909F908F9008959D9191933A
:100C90008F5F66CF85EEA2CF8091690190916A0146
:100CA000A0916B01B0916C01892B8A2B8B2B09F4DD
:100CB0009BCF0E944D050091690110916A0120911E
:100CC0006B0130916C016C197D098E099F09061723
:100CD00017072807390708F087CFBDCFAF92BF921B
:100CE000CF92DF92EF92FF920F931F93CF93DF93F8
:100CF00000D0CDB7DEB7DC01211103C018962C91CE
:100D00001897253008F043C01F964D935D936D935F
:100D10007C93529790E080E0E22EF12C8E159F0597
:100D2000B4F41A962C911A9721110AC0FD01E80F0C
:100D3000F91F4387452F562F672F77270196EECF50
:100D4000F701E81BF90BEA0FFB1F4287F3CF6D0198
:100D50008BE0C80ED11C16969C91169717968C9115
:100D6000179799838A83AD90BC901197A114B10411
:100D700009F441C019960C9110E098012E0D3F1D09
:100D8000D50114968D919C918217930710F480E001
:100D900016C0F50181819281208131E030934501B7
:100DA0002093210110924301109244010115110575
:100DB00099F421E0A701B601C5010E9472050F90C8
:100DC0000F90DF91CF911F910F91FF90EF90DF90E7
:100DD000CF90BF90AF900895DC01ED91FC9102801F
:100DE000F381E02DA801BE016F5F7F4F09950817C1
:100DF000190769F6DECF1296ED91FC9113973097A3
:100E000031F214962D913C91159719960C9110E0A2
:100E10002330310571F48E7F89839A830F5F1F4FD2
:100E20009E012F5F3F4FA701B601CF010E94FF0433
:100E3000C6CF2115310519F49F779983F1CF223060
:100E4000310511F49068F9CF2130310549F79F77CA
:100E50009064F3CFCF93DF93CDB7DEB763970FB630
:100E6000F894DEBF0FBECDBF2091F5013091F601A1
:100E7000188A198A1A8A1B8A3A8329831C821B8240
:100E800021E02A8790E098878F831B862987462F49
:100E900050E070E060E020E0CE0101960E946E0616
:100EA00063960FB6F894DEBF0FBECDBFDF91CF9132
:100EB00008958F929F92AF92BF92CF92DF92EF925E
:100EC000FF924B015C010E944D056B017C010E9469
:100ED0004D056C197D098E099F09683E7340810597
:100EE0009105A8F321E0821A9108A108B10888EEC3
:100EF000C80E83E0D81EE11CF11C81149104A104EA
:100F0000B10429F7FF90EF90DF90CF90BF90AF90A2
:100F10009F908F900895089590E080E008952F921B
:100F20003F924F925F926F927F928F929F92AF9279
:100F3000BF92CF92DF92EF92FF920F931F93CF93C6
:100F4000DF9300D000D01F92CDB7DEB77C01DC016B
:100F500018960C914C01BBE08B0E911CFC01968104
:100F6000878199838A83208031802114310409F498
:100F700024C1418550E0D10114968D919C91159723
:100F80008417950708F46CC18C9191E0909345010A
:100F900080932101109243011092440120E0BE0190
:100FA0006F5F7F4FC1010E947205882309F458C109
:100FB000E02FF0E0FC83EB83B12CA12C01E08B81CE
:100FC0009C81A816B90608F018C1D10114968D911C
:100FD0009C91CB80DC80CA18DB088C159D0508F439
:100FE0006C01F101F081FD830E944D052B013C0154
:100FF0008091B201811172C01C2D113208F010E2F3
:101000000093B20121E08B819C818C199D09A81667
:10101000B90608F420E02093B4018FEF8093B1016A
:101020001092D601810F8093D5010093D701909142
:10103000D7018D81880F892B8093D7018091B301CF
:10104000813009F091C01092B3010E944D052B012F
:101050003C018091D7018093BB0080916901909100
:101060006A01A0916B01B0916C01892B8A2B8B2BAB
:10107000A1F00E944D052091690130916A014091D3
:101080006B0150916C01641975098609970926173F
:1010900037074807590708F442C08091BC0083FD18
:1010A000D8CF95EC9093BC000E944D052B013C01DC
:1010B0008091B201813009F45BC08091D601811723
:1010C00010F41091D601E5EBF1E0A6E4B1E080E088
:1010D000811751F191919D938F5FFACF80916901B2
:1010E00090916A01A0916B01B0916C01892B8A2BC0
:1010F0008B2B09F47DCF0E944D0520916901309121
:101100006A0140916B0150916C016419750986095F
:101110009709261737074807590708F069CF8091C4
:1011200068010E94780310E0109267011093660135
:101130001C151D0409F094C034016A0C7B1C2301AA
:10114000C201861997098C159D05A0F5F1018181D1
:101150009281DC01ED91FC910284F385E02D0995EB
:10116000F20181932F01ECCFA5EEA093BC009CCFA0
:101170008091690190916A01A0916B01B0916C011D
:10118000892B8A2B8B2B09F493CF0E944D0520913C
:10119000690130916A0140916B0150916C016419B1
:1011A000750986099709261737074807590708F070
:1011B0007FCFB5CFAC0CBD1C02CFD7010280F3812D
:1011C000E02D309709F44CC014962D913C91159761
:1011D00010E019964C9150E02330310561F58160A3
:1011E00089839A834F5F5F4F9401BE016F5F7F4F8A
:1011F000CF010E94B004882399F1F701408550E0A7
:1012000030E020E060E070E0CB01241735075CF5AA
:10121000982F872F762F6627D7011A96EC91E11128
:101220001AC0FA01E21BF30BEE0DFF1DE2856E2BD7
:101230002F5F3F4FEACF2115310519F4906899834C
:10124000D3CF2230310511F49F77F9CF213031050A
:1012500059F6906CF4CFF701E20FF31FE385E7CF67
:101260006FEF7FEFCB010F900F900F900F900F90CB
:10127000DF91CF911F910F91FF90EF90DF90CF9072
:10128000BF90AF909F908F907F906F905F904F90A6
:101290003F902F9008958F929F92AF92BF92CF92DE
:1012A000DF92EF92FF920F931F93CF93DF93EC01A6
:1012B0004A015B01888199810E948F072A8101E0A0
:1012C00010E002C0000F111F2A95E2F7015011092A
:1012D000012E000C220B330BAB81680179010A2E21
:1012E00004C0CC0CDD1CEE1CFF1C0A94D2F7C09489
:1012F000D094E094F094C622D722E822F922E88123
:10130000F981B901A801482159216A217B2104C032
:10131000440F551F661F771FAA95D2F74C295D29E8
:101320006E297F292085CF01DF91CF911F910F91E9
:10133000FF90EF90DF90CF90BF90AF909F908F90F5
:101340000C946E06CF93DF93CDB7DEB767970FB6D9
:10135000F894DEBF0FBECDBF2091F5013091F601AC
:10136000188A198A1A8A1B8A3A8329831C821B824B
:1013700091E09A8720E830E038872F831B86998791
:101380009E012F5F3F4F3D8B2C8B9E8B9F8B482F59
:1013900050E070E060E0CE0144960E944B096796F1
:1013A0000FB6F894DEBF0FBECDBFDF91CF91089589
:1013B000EF92FF921F93CF93DF93CDB7DEB7AA973B
:1013C0000FB6F894DEBF0FBECDBF7C01FC01838158
:1013D00094811BA21CA21DA21EA29D8B8C8B1F8A16
:1013E0001E8A11E01D8F82E990E09B8F8A8F1E8EEE
:1013F0001C8FCE0144960E948F0780E060FD20C0C4
:10140000F70183819481188A198A1A8A1B8A9A8320
:1014100089831C821B821A8780E890E098878F83DB
:101420001B861987CE01019698A78FA319A71AA624
:1014300041E050E060E070E086960E944B0981E058
:10144000AA960FB6F894DEBF0FBECDBFDF91CF9145
:101450001F91FF90EF9008950F931F93CF93DF9309
:10146000DC0152968C91529717969C911797891789
:1014700008F084C053964C91539718969C911897F6
:10148000491708F07BC060320CF478C0062E000CBF
:10149000770B6052710996E0969FF001979FF00DCF
:1014A0001124E859FF4F742F76957695769566E06E
:1014B000680F542F57702491319611E0180F17962A
:1014C0003C911797831708F518969C911897491720
:1014D000E0F490E0739F800D911D112455963C918E
:1014E0005597311120951E96CD91DC911F97511182
:1014F0001CC08C179D0748F45096CD91DC915197F4
:10150000C80FD91F8881282B2883812F1613D3CF8A
:1015100081E090E052962C9152972A5F52962C933C
:10152000DF91CF911F910F91089530E0052E02C0F9
:10153000220F331F0A94E2F78C179D0748F4509648
:10154000CD91DC915197C80FD91F0881022B0883D8
:101550001796CC9117978C0F911D1E96CD91DC910B
:101560001F978C179D0788F65096CD91DC91519767
:10157000C80FD91F8881832B8883C7CF90E080E074
:10158000C9CF0F931F93CF93DF93EC01062F18E081
:101590008C8160E007FF48C00E94BE0361E08C813F
:1015A0000E944A0360E08D810E94BE0361E08D814C
:1015B0000E944A038D810E942103892BD9F360E0A8
:1015C0008D810E944A0361E08D810E94BE03000F5D
:1015D0001150F1F660E08C810E94BE0361E08C81C5
:1015E0000E944A0360E08D810E94BE0361E08D810C
:1015F0000E944A038D810E942103892BD9F38C819B
:101600000E9421038C0160E08D810E944A0361E009
:101610008D810E94BE0381E0012B09F080E0DF9103
:10162000CF911F910F9108950E944A0361E08C8130
:101630000E94BE03B7CFCF93DF93EC0160E08D81B2
:101640000E94BE0361E08D810E944A0360E08C81AC
:101650000E94BE0361E08C810E944A038C810E943B
:101660002103892BD9F38D810E942103892BB1F3AA
:10167000DF91CF910895CF93DF93EC018C810E948D
:101680002103892BD9F38D810E942103892BB1F38A
:1016900060E08C810E944A0361E08C810E94BE035D
:1016A00060E08D810E944A0361E08D81DF91CF91DE
:1016B0000C94BE03CF92DF92EF92FF920F931F9391
:1016C000CF93DF93EC01F12CE12CD12C8D85F81612
:1016D00008F062C0CE010E943B0B6985660FCE0107
:1016E0000E94C10A60E0CE010E94C10A60EB6F0D4A
:1016F0008A859B850197D9F5CE010E94C10A60E0D9
:10170000CE010E94C10A60E1CE010E94C10ACE0151
:101710000E941B0BCE010E943B0B6985660FCE0118
:101720000E94C10A60E4CE010E94C10A8C85882310
:1017300041F060E0CE010E94C10A60E0CE010E944B
:10174000C10A0E2D1D2D9F81802F8E198917E8F457
:1017500068018FEFC81AD80A88899989080F191F5C
:10176000F8016081CE010E94C10A8601ECCFCE0152
:101770000E94C10A61E2CE010E94C10A60E0CE016E
:101780000E94C10A6F816150BFCFCE010E941B0B26
:10179000F394E02ED12E9ACFDF91CF911F910F912C
:1017A000FF90EF90DF90CF900895CF92DF92EF926D
:1017B000FF920F931F93CF93DF93FC01462F469523
:1017C0004695469580E050E09585891740F590E074
:1017D0006A01C80ED11C77819717F8F4A92FB0E0E1
:1017E0007C9D80017D9D100D11240A0F1B1F2089F7
:1017F0003189879FA00DB11D1124A20FB31FE6846C
:10180000F7840E151F0538F4200F311FE9012881D8
:101810002C939F5FE0CF1C92FCCF8F5FD5CF67707A
:1018200009F44EC08FB7F8940091D8011091D901F6
:101830002091DA013091DB018FBF70E030E08585C7
:10184000381728F54781349F80011124C80150E0E2
:10185000EA01C80FD91FA781282F201B2A17A8F437
:10186000A089B189E684F784CE15DF0528F4CA0F74
:10187000DB1F2881C0E820FFC0E0A80FB91F2C9112
:1018800026952C2B2C930196E3CF3F5FD8CF8FB7B3
:10189000F8940091D8011091D9012091DA0130918A
:1018A000DB018FBF8FB7F8940091D8011091D90157
:1018B0002091DA013091DB018FBF7F5F6713BECFCC
:1018C000CF01DF91CF911F910F91FF90EF90DF90AB
:1018D000CF900C945A0BCF92DF92EF92FF920F931E
:1018E0001F93CF93DF93EC017B016A0110E000E0CE
:1018F0000C151D0508F042C0F701E00FF11F6081D3
:10190000C80101966D3061F41A8A2B89285F2B8BF0
:10191000F701E80FF91F20812A3071F48C010CC007
:101920006A30D9F41A8A2B89285F2B8BF701E80FCC
:10193000F91F20812D3091F38C89882359F09B89E0
:101940008885981738F068E0CE010E94D50B88850D
:1019500088508B8B0F5F1F4FCBCF6C3039F468856D
:10196000CE010E94D50B1A8A1B8AE6CFE881F98145
:101970000190F081E02DCE010995DECF8C8988237E
:1019800019F0CE010E945A0BC601DF91CF911F9131
:101990000F91FF90EF90DF90CF90089585ED8093A9
:1019A000BC008091690190916A01A0916B01B09196
:1019B0006C010796A11DB11D23E0B695A7959795DB
:1019C00087952A95D1F72091BC0024FD03C0109281
:1019D000B20108954091690150916A0160916B01D3
:1019E00070916C01452B462B472B69F30097A1059D
:1019F000B10541F025E32A95F1F700000197A1090F
:101A0000B109E1CF809168010C947803FC018089D1
:101A100091890C949012CF93DF93EC010E94060DF4
:101A2000CE01DF91CF910C9490121F920F920FB6BE
:101A30000F9211242F933F934F935F936F937F9354
:101A40008F939F93AF93BF93EF93FF938091B900D0
:101A5000887F803609F44AC0F0F5883209F4A5C0C1
:101A600018F5803109F499C0B8F4882309F4F5C059
:101A7000883009F492C0FF91EF91BF91AF919F918F
:101A80008F917F916F915F914F913F912F910F9027
:101A90000FBE0F901F901895883109F486C08032D0
:101AA00051F78093B10114C0803409F49BC040F415
:101AB0008033B9F38833F9F68093B10185ECAEC079
:101AC000803509F483C0883509F494C0883499F6C8
:101AD0000E94CE0CD0CF883909F48AC038F58837F7
:101AE00029F050F4883611F0803729F683E080938E
:101AF000B2011092B00155C0883809F479C080391C
:101B000019F0803809F0B7CF8091B001803208F029
:101B10006FC0E091B00181E08E0F8093B0018091A1
:101B2000BB00F0E0E057FE4F80833BC0803B39F0C4
:101B3000D0F4803A09F477C0883A09F09CCF84E069
:101B40008093B20110928F0110928E01F0E0E0E0DC
:101B5000099580918E0181110FC081E080938E01E3
:101B600010926E0109C0803C09F4A8CF883C09F4AA
:101B7000A5CF883B09F07FCFE0918F0181E08E0FE8
:101B800080938F01F0E0E259FE4F80818093BB008B
:101B900090918F0180918E0129C08091D70180930F
:101BA000BB0085EC8093BC0066CF9091D6018091FC
:101BB000D501981758F5E091D60181E08E0F8093FA
:101BC000D601F0E0EB54FE4F8081E9CFE091D601E1
:101BD00081E08E0F8093D6018091BB00F0E0EB5442
:101BE000FE4F80839091D6018091D5019817C8F25D
:101BF00085E8D8CFE091D60181E08E0F8093D601A1
:101C00008091BB00F0E0EB54FE4F80838091B401E3
:101C100081115ECF81E08093B30184EA8093BC00A0
:101C20001092B20128CF85EC8093BC001092B201D3
:101C30008091B001803230F4E091B001F0E0E057E3
:101C4000FE4F10826091B00170E080E991E0F0E019
:101C5000E0E009951092B0010ECF1092B10138CF9B
:101C60001F920F920FB60F9211242F933F938F93D1
:101C70009F93AF93BF938091D8019091D901A09188
:101C8000DA01B091DB0130911C0123E0230F2D37E5
:101C900058F50196A11DB11D20931C018093D80118
:101CA0009093D901A093DA01B093DB0180911D01DB
:101CB00090911E01A0911F01B09120010196A11DDC
:101CC000B11D80931D0190931E01A0931F01B0933D
:101CD0002001BF91AF919F918F913F912F910F90D4
:101CE0000FBE0F901F90189526E8230F0296A11D96
:101CF000B11DD2CFCF93DF93E2EFF1E08AE191E023
:101D000091838083128214821382CCEDD1E01B82F6
:101D10001A828AE091E09983888382E18C8383E14F
:101D20008D838FEF8E8380E88F8380E488878CE3B8
:101D3000898781E090E09B878A8788E08D8780E0B3
:101D400094E09F878E870E94F411998B888B1A8A62
:101D50001B8A1C8A1D8A1C86DF91CF910895CF9320
:101D6000DF93CDB7DEB767970FB6F894DEBF0FBE2F
:101D7000CDBF789484B5826084BD84B5816084BD14
:101D800085B5826085BD85B5816085BD80916E0019
:101D9000816080936E00109281008091810082604A
:101DA0008093810080918100816080938100809187
:101DB00080008160809380008091B1008460809376
:101DC000B1008091B00081608093B00080917A0072
:101DD000846080937A0080917A00826080937A0098
:101DE00080917A00816080937A0080917A00806887
:101DF00080937A001092C10068EE73E080E090E07A
:101E00000E94590760E08091E0010E94BE0360E0FB
:101E10008091E1010E94BE038091E2018F3F99F021
:101E200061E00E94BE0360E08091E2010E944A03EB
:101E30006AE070E080E090E00E94590761E08091E4
:101E4000E2010E944A0364E670E080E090E00E94B4
:101E500059078CED91E00E943B0B6091E501660F04
:101E60008CED91E00E94C10A60E08CED91E00E944F
:101E7000C10A6EEA8CED91E00E94C10A65ED8CED1D
:101E800091E00E94C10A60E88CED91E00E94C10AD5
:101E900068EA8CED91E00E94C10A6091E401615012
:101EA0008CED91E00E94C10A63ED8CED91E00E94FF
:101EB000C10A60E08CED91E00E94C10A60E48CED03
:101EC00091E00E94C10A6DE88CED91E00E94C10A88
:101ED00064E18CED91E00E94C10A60E28CED91E03A
:101EE0000E94C10A60E08CED91E00E94C10A61EAA3
:101EF0008CED91E00E94C10A68EC8CED91E00E94AB
:101F0000C10A8091E301803809F0AFC18091E401FA
:101F1000803209F0A0C16AED8CED91E00E94C10A07
:101F200062E08CED91E00E94C10A61E88CED91E0E5
:101F30000E94C10A60E88CED91E00E94C10A69ED3F
:101F40008CED91E00E94C10A62E28CED91E00E946A
:101F5000C10A6BED8CED91E00E94C10A60E28CED4C
:101F600091E00E94C10A64EA8CED91E00E94C10AEE
:101F700066EA8CED91E00E94C10A6EE28CED91E080
:101F80000E94C10A8CED91E00E941B0B64E670E098
:101F900080E090E00E9459074091EA015091EB01E6
:101FA00070E060E08091EC019091ED010E941913C6
:101FB0001092EE011092EF018CED91E00E945A0B0D
:101FC0008CED91E00E943B0B6091E501660F8CED7A
:101FD00091E00E94C10A60E08CED91E00E94C10A8C
:101FE0006DE88CED91E00E94C10A64E18CED91E016
:101FF0000E94C10A6FEA8CED91E00E94C10A8CED4B
:1020000091E00E941B0B2AE040E86AE080E00E9419
:10201000E4018CED91E00E945A0B8091F5019091C2
:10202000F601188A198A1A8A1B8A9A8389831C8264
:102030001B8211E01A8781E890E098878F831B86C6
:10204000198720E044E650E060E070E0CE010196A0
:102050007C010E946E068091F5019091F601188A2C
:10206000198A1A8A1B8A9A8389831C821B821A877F
:102070008AEC90E098878F831B8602E0098720E036
:1020800047EE53E060E070E0C7010E946E06809169
:10209000F5019091F601188A198A1A8A1B8A9A8387
:1020A00089831C821B821A878AEA90E098878F8333
:1020B0001B86198720E049E050E060E070E0C7012E
:1020C0000E946E061092100210920F0280E00E9491
:1020D000A2098091F5019091F601188A198A1A8A4D
:1020E0001B8A9A8389831C821B821A878FEA90E05D
:1020F00098878F831B861987FD8AEC8A0E8B83E075
:102100008F8B42E050E060E070E0CE0144960E9488
:102110004B0960E380E00E942A0761E081E00E94B1
:102120002A0760E082E00E942A0760E083E00E94C4
:102130002A0760E084E00E942A0762E485E00E94AA
:102140002A0760E086E00E942A0760E087E00E949C
:102150002A0760E588E00E942A0760E089E00E9483
:102160002A0760E08AE00E942A0760E08BE00E9474
:102170002A0760E28CE00E942A0764E08DE00E945A
:102180002A0760E08EE00E942A0760E38FE00E9449
:102190002A0761E080E10E942A0760E581E10E9450
:1021A0002A0760E082E10E942A0766E083E10E943C
:1021B0002A078091F5019091F601188A198A1A8AE6
:1021C0001B8A9A8389831C821B821A8780E890E08D
:1021D00098878F831B861987FD8AEC8A1E8B84E083
:1021E0008F8B41E050E060E070E0CE0144960E94A9
:1021F0004B0909EE13E0EE24E394F12C8C899D89C0
:102200000E948F07AB01BC018E89970102C0220F8B
:10221000331F8A95E2F7C9010197092E000CAA0B1A
:10222000BB0B2F8904C076956795579547952A95DE
:10223000D2F784239523A623B723892B8A2B8B2BB4
:10224000E9F001501109D1F061E070E080E090E028
:102250000E945907D3CF803409F067CE6AED8CED28
:1022600091E00E94C10A62E15CCE803609F05DCE49
:102270008091E401803109F058CE4DCE81E00E947A
:10228000A20981E090E09093100280930F02F0E0A9
:102290006F2EF0E07F2E64EF71E080E090E00E940E
:1022A00059074091EA015091EB0170E060E08091A4
:1022B000EC019091ED010E9419131092EE01109221
:1022C000EF016EE184E20E94C20162E084E20E94BA
:1022D000C20120E142E360E186E10E94E40143E2C1
:1022E000542E53E0A52EB12CD12CC12C0EE010E0C1
:1022F00064EE862E99249A9473EFE72EFF24FA94C5
:10230000E0E12E2E9FEFC91AD90AEA0CFB1C60E10E
:10231000600F262F88E4482E4518442D852D0E94F5
:10232000E401622D601B262F442D852D0E94E401BF
:1023300064E36519262F94E2392E300E432D34E2E2
:10234000432E401A842D0E94E4016CEE650D262F69
:10235000432D842D0E94E401C016D1065CF08CED63
:1023600091E00E945A0B6114710409F494CF0E9409
:10237000000091CFF7FC07C00150110932E0830E35
:10238000911CE80CF91C82E0A80EB11C5A94BACF3B
:102390008CED91E00C94060DA1E21A2EAA1BBB1B3A
:1023A000FD010DC0AA1FBB1FEE1FFF1FA217B30721
:1023B000E407F50720F0A21BB30BE40BF50B661F37
:1023C000771F881F991F1A9469F7609570958095FB
:1023D00090959B01AC01BD01CF010895EE0FFF1F49
:1023E0000590F491E02D09940F931F93CF93DF9301
:1023F0008230910510F482E090E0E0911302F091B8
:10240000140230E020E0B0E0A0E0309799F421150C
:10241000310509F44AC0281B390B24303105D8F5A1
:102420008A819B816115710589F1FB019383828308
:10243000FE0111C040815181028113814817590763
:10244000E0F04817590799F4109761F012960C9331
:10245000129713961C933296CF01DF91CF911F9163
:102460000F9108950093130210931402F4CF2115D5
:10247000310551F04217530738F0A901DB019A01E9
:10248000BD01DF01F801C1CFEF01F9CF9093140234
:1024900080931302CDCFFE01E20FF31F819391933E
:1024A0002250310939832883D7CF209111023091EE
:1024B0001202232B41F42091020130910301309349
:1024C0001202209311022091000130910101211587
:1024D000310541F42DB73EB74091040150910501FB
:1024E000241B350BE0911102F0911202E217F30761
:1024F000A0F42E1B3F0B2817390778F0AC014E5F74
:102500005F4F2417350748F04E0F5F1F509312029C
:1025100040931102819391939FCFF0E0E0E09CCF34
:10252000CF93DF930097E9F0FC0132971382128278
:10253000A0911302B0911402ED0130E020E0109759
:10254000A1F420813181820F931F209111023091DB
:1025500012022817390709F061C0F0931202E093C4
:102560001102DF91CF910895EA01CE17DF07E8F558
:102570004A815B819E0141155105B1F7E901FB8359
:10258000EA8349915991C40FD51FEC17FD0761F4F7
:10259000808191810296840F951FE9019983888338
:1025A000828193819B838A83F0E0E0E012968D9193
:1025B0009C9113970097B9F52D913C911197CD01FE
:1025C0000296820F931F2091110230911202281758
:1025D000390739F6309751F5109214021092130210
:1025E000B0931202A0931102BCCFD383C283408167
:1025F0005181840F951FC817D90761F44E5F5F4F53
:1026000088819981480F591F518340838A819B811A
:10261000938382832115310509F0B0CFF093140222
:10262000E09313029ECFFD01DC01C0CF1382128222
:10263000D7CFDC0101C06D9341505040E0F70895C1
:1026400011E0C7E9D1E004C0FE010E94EE1121961D
:0A265000C839D107C9F7F894FFCF8D
:10265A00000015028000000000002C0A6B0C8C0799
:0C266A008B07060D0B0D00000000D809C6
:00000001FF
