:100000000C9476050C949E050C949E050C949E050C
:100010000C949E050C949E050C949E050C949E05D4
:100020000C949E050C949E050C949E050C949E05C4
:100030000C949E050C949E050C949E050C949E05B4
:100040000C9405150C949E050C949E050C949E052D
:100050000C949E050C949E050C949E050C949E0594
:100060000C944F150C949E05000000002300260000
:10007000290000000000240027002A0000000000E2
:10008000250028002B0004040404040404040202D4
:100090000202020203030303030302020301020438
:1000A00008102040800102040810200102040810FA
:1000B0002040804000000009000302000004050801
:1000C00000000000000000000000005F00030203C9
:1000D00004030504050C00FE07FE08FF014202862A
:1000E00003AE2005006A0721073943C7A004220791
:1000F0009B56476209230D35424F65504A493228C5
:100100001500240E4D3E57B654946C4B94CA1601FC
:10011000250A3D428734659D2601260D3D424F96B6
:1001200044495649A4480927061957C700280BCB4C
:100130003E571225512DCA02290CCB3E4716655158
:10014000254A22002A0B3D4257A5B2654B53042B8A
:100150000A2D4657180D5218012C081B3E8F3224C9
:10016000002D060D4EC7202E069242C7102F0A3DC5
:1001700042671666C52C04300ABC428F12794A14B5
:10018000003108BB424F227519320A3D42CF928599
:1001900059DB20330C3D42C7206699AA250B003459
:1001A0000C3D425F2625A564D0C204350B3D42C7F5
:1001B0007148432D5900360C3D429794854392690E
:1001C000C902370B3D42C7206661169600380C3DC8
:1001D00042CF9269C99269C902390C3D42CF9269F6
:1001E000C9106691043A08AA42C7100D013B0933B1
:1001F0003E8F511912003C07AB4657522B3D081D4C
:100200004AC7A00E023E08AB46475629013F0A3DA9
:1002100042CF9235E65004400D3D42CF92294392A1
:100220002843BA00410B3D42CF9269C390D90242A4
:100230000D3D42C71055A264AA448302430A3D42C1
:10024000CF92896DC902440F3D42C71055A2244A7E
:10025000A2241A1400450B3D42C7311C92301C04E5
:10026000460A3D42C7311C92B008470B3D42CF922F
:1002700089A52D5900480A3D4247661B86CC164980
:1002800008BB42C71275194A0A3D42D716B64491B7
:10029000044B0D3D42472625252D892A59004C083F
:1002A0003D4247D8E3204D0A3D4247B62C89E61629
:1002B0004E0C3D4247A64D4A226D5A004F0A3D4220
:1002C000CF92794B1600500C3D42C79064DAA0845F
:1002D0004500510B3D42CF92B92452A404520D3D2A
:1002E00042C79064DAA0942A5900530B3D42CF9242
:1002F000A9AB962C0054093D42C720853D01550904
:100300003D4247E65BB200560B3D4247E69694926B
:100310002C02570A3D4247E62551BA00580B3D4290
:1003200047A625B54A4D0B590A3D4247A625B5B00B
:10033000095A0A3D42C720661D07015B08CB3EC72C
:1003400010F5695C093D42471AA6C5345D08CB3EED
:10035000C7D4A7215E081D565796D4025F060D3AF2
:10036000C72060069B564756610A2D42CF9A0C5A09
:100370003204620C3D4247180E49661B1400630AA2
:100380002D42CF928959B200640A3D426765D06C14
:10039000C910650A2D42CF920D4ABA00660A3D4245
:1003A0009754C9B6B006670C3D3ACF92D992214C0A
:1003B0001600680A3D4247180E49E6166908BB4216
:1003C0004F28B50C6A0ACC3A5FACB54989026B0B71
:1003D0003D4247589392A992056C08BB4287D4CB03
:1003E000006D0B2D4287D2A2244AA2146E092D4221
:1003F0004762D26C016F092D42CF92D99205700CE1
:100400003D3AC79064B641094300710A3D3ACFA016
:10041000D992212C72092D424762128B0073092D4B
:1004200042CFA01E1400740A3D4257180D525815B1
:1004300075092D4247E6A42801760A2D4247664BEE
:100440006A1100770A2D42476649942E00780A2DDA
:10045000424796D42AB500790A3D3A47664B6A8DE1
:10046000007A092D42C7A0B50D027B0ACB3E571278
:1004700055B2A8167C06493FC7037D0BCB3E4716F5
:10048000D592A812017E091D4A4FA42452020000F1
:100490000004FFFF00005F000303040403050510D0
:1004A0000FFEFD0BFD0BFE01C204670636200500A2
:1004B0008C142109B28514074ACC00220843BD15CB
:1004C000112D012316A7847891602418099922C15F
:1004D00048C8140946829118002417D77C78C18A2D
:1004E00024328A5062C4222D42094D2292620C00AD
:1004F000251FBC845DC2A084284A1445A29250588E
:1005000014138724C190281812C5629260500426E3
:100510001BBC847D7480482C128BE2903984340A91
:100520008D42329A70442B954400270641BD130436
:10053000280DD47475A19028A4B7982C18290ED42E
:100540007415C1982C26D229244A032A0B55B45677
:100550002929934C21002B0B778C78E1B45B380D63
:10056000002C085275141609002D07249C158700CD
:100570002E06328514062F0DB48475996249B1A4F4
:10058000580C00300DB7845833891ABF49D446003F
:100590003109B58558129AFE44320DB7843824517A
:1005A0004DAAA8DBE1103310B7843824514D2A94AA
:1005B00091A534D284043411B78498C2B5882C2212
:1005C0000A894292A354483511B784389652386547
:1005D00024994A69A40909003610B7845824118D5A
:1005E0002A59A9B195242400370FB784180FC148A0
:1005F0004C2A942A4AD5003811B78438A4118D6644
:1006000089912236A61105003910B7845814518DEE
:10061000ADB222A5914424003A0772851426033B0B
:1006200009927514268B04003C0A778CD8C1D1F24C
:1006300072003D08379C1877C0013E0A778C18E19C
:100640004D8B61003F0EB6843714114928538C033B
:100650003501401DBD849ED6E14836922849482A7E
:10066000149188229268992849867248EC200241A8
:1006700017BA849B72881C101147C4A1684C1813C8
:10068000DAA2A2A864464215B9841A3725994826E9
:10069000523B0925428950223B8C004317BA847B88
:1006A00095C850229E03E61039440E9183C491A14F
:1006B000AC044419BB841C87A07024158925628969
:1006C00058229688255291707288014517B9841A6C
:1006D000078950228D885244C1A228284A91468415
:1006E00007024617B9841A078950228D885244C1DF
:1006F000A228280ACA01622A004719BB847C95D027
:1007000050248EC8011139480E129E4552D16C48B2
:100710008A004818BB841C348A542415494552D198
:10072000412415494552915442234909B48517146F
:1007300091FE424A0EB7847944A95E44129124B4D2
:10074000064B18BB841C249230288B8AC29238A096
:100750002C998A86B29970422A4C17B9841A643946
:10076000400E9003E40039400E9046A411E1810050
:100770004D24BD841E54CA74341D45641151441661
:10078000114564115148121285242151481212C595
:10079000544622024E1CBB841CD3C934440C45660B
:1007A000A1902C1413A54D4241527414968C230031
:1007B0004F18BB847CC5D9482A9103E8003A800EC3
:1007C000A0032452D16C58035017B9841A87906C37
:1007D00022940825B2894D0E9003E4003115005192
:1007E0001FEB6C7CC5D9482A9103E8003A800EA023
:1007F000CC2422896844AC8344E1491C300152175F
:10080000BB841C87A06C269409658A56995026548F
:10081000134A6A13005312B9845A94C84C228D4863
:100820002364E7319152025417BA841B879268A659
:100830002D2887C82172881C2287C80134005518CA
:10084000BB841CC48938240E8943E29038240E8965
:1008500043E298305A035619BA841BB48934248D64
:10086000C982B2A02C2A094BC29238400E110257FD
:1008700024BD841E14CA44260BC96421992C2689E0
:100880004882928824288948829288242A13CBC4DB
:10089000321900581BBB841C25CA50268C8AE200E2
:1008A000491C300744E480903428134E48055919F8
:1008B000BA841BB48934260BCAA292B0240E90438A
:1008C000E41039440EA0015A0FB8841987E190361C
:1008D000D53A230E0F035B09D4741526FD27025C5D
:1008E0000FB68417D170341C0D47C3D170005D0959
:1008F000D4741524FD27035E0F77A478E1E8301245
:100900009388621199005F0617741707600834C551
:1009100016326100610E78845934915856914944D9
:100920002B036218B9841A73801C2007C80192D95E
:1009300048512294082532518404630E7784582448
:10094000118D2A8C884414006417B984BA73801CF2
:100950002007C82622D14428114A8422D16C32654E
:100960000F78845934914478A80364A20A00660D74
:10097000B6845623896E25A16E24006710B76CB823
:10098000928A8C26A9844D57A1A4026817B9841AAB
:1009900073801C2007C80192D9484D2413C94432E2
:1009A0000903690AA4843522E9482F046A0DD56A2F
:1009B00075EA8099BE512413006B11B88419639DA8
:1009C000262215195122134946036C09B4841523B4
:1009D000FD0B016D127E841F93D16C34525392290A
:1009E000C994642A1C6E1079841A93D9484D241333
:1009F000C9443209036F0E788459349144C82811D0
:100A0000C948007014A96C1A93D94851229408253A
:100A10002395991C20A6027116A96C5994906822FE
:100A2000940825429168369103E4003101720B77F6
:100A300084179315558D3400730A7684373722DB7B
:100A40000500740FA68456D1A0AC24D414118526B9
:100A500000751179841AA3914C2413C9443291680A
:100A60003619761078831794892C248B498292A8A2
:100A7000580677187D831C14CA44260BC964314973
:100A800044129444245199582603780F788419A36A
:100A900089484695D26292D1007914A86B1794893F
:100AA0002C248B498292A8581C9404A7007A0876BB
:100AB000841737BD1D7B0DD57476A298B6D4A04C93
:100AC000312A7C07B1871807027D0FD57416D2A092
:100AD0004C311A8B690BC9007E0927A43813CA044C
:100AE0000000000004FFFF000000D31611241FBE09
:100AF000CFEFD8E0DEBFCDBF11E0A0E0B1E0ECEF7A
:100B0000F5E302C005900D92A23AB107D9F727E0AC
:100B1000A2EAB1E001C01D92A733B207E1F715E0E8
:100B2000C6E7D5E004C02197FE010E94BB19C53776
:100B3000D107C9F70E9492170C94FC1A0C9400007C
:100B4000662329F06A3019F0862F90E008958FEF20
:100B50009FEF0895CF92DF92EF92FF920F931F9332
:100B6000CF93DF93EC01842F8770E1E0F0E0082E53
:100B700001C0EE0F0A94EAF73E2F7E0199E7E90ED5
:100B8000F11CD7019C9110E0923018F41E2F913087
:100B900029F150E0487FE8ADF9ADC880D980D60191
:100BA00050969C91949F6001959FD00C11246C0DE0
:100BB0007D2D711DDF01A60FB71F011115C08C918E
:100BC000812B83278D932150D1F7DF91CF911F91F6
:100BD0000F91FF90EF90DF90CF90089530E0D9CF44
:100BE000110F330F222389F39C91912B93279C9310
:100BF0008F5F877021508111F3CF9CADA90FB11D7C
:100C0000F7019081923028F4913009F031E011E041
:100C1000E9CF31E0E7CF80E0089580E00895982F94
:100C20002091840281E0213208F043C0809160026B
:100C30008111FCCF8091830232E030936002909367
:100C40005F029FEF90935E0210925D0220935C0220
:100C5000A3E6B2E0ECE3F2E090E0291331C0109299
:100C60003B0290913B02880F892B80933B0280913D
:100C70003A02813049F510923A0280913B0280930A
:100C8000BB008091BC0083FDF8CF85EC8093BC0055
:100C9000809160028230E1F380915E028F3FB1F07B
:100CA00080915E028032A1F080915E02803391F0EB
:100CB00084E0109262021092840210926102089500
:100CC0003D9131939F5FC9CF85EEE0CF80E0F1CFBA
:100CD00082E0EFCF83E0EDCF089508958091E006A4
:100CE0009091E106892BA1F18091FE0680930A077D
:100CF0004091FF0640930B0790910907992341F11A
:100D0000913069F490910007891714F490930A07C1
:100D1000809101078417E4F480930B0708953091C4
:100D2000FB062091FD06082E000C990B622F022E67
:100D3000000C770B630F711D37FD7A9586179707A7
:100D40001CF4320F30930A07241714F420930B0776
:100D500008959B01DC011896ED91FC9141E067E15B
:100D600009941F93CF93DF93EA01122FDC011196B0
:100D70008D919C91DC01ED91FC910280F381E02D3D
:100D80000995C817D90729F4812F0E940F0691E011
:100D9000811190E0892FDF91CF911F9108958430C8
:100DA00081F028F48230E9F08330F9F0089588303A
:100DB00071F0893091F08530B9F4809180008F7D99
:100DC00003C0809180008F77809380000895809188
:100DD000B0008F778093B00008958091B0008F7D30
:100DE000F9CF84B58F7784BD089584B58F7DFBCF0F
:100DF0001F93CF93DF93282F30E0F901EC54FF4F7E
:100E00008491F901E356FF4FD491F901EA57FF4F5E
:100E1000C491CC23A9F0162F81110E94CF06EC2F8C
:100E2000F0E0EE0FFF1FE458FF4FA591B4918FB78C
:100E3000F894EC91111108C0D095DE23DC938FBF9C
:100E4000DF91CF911F910895DE2BF8CF10923902D8
:100E50001092380210926202109284021092600284
:100E600081E080935F0210923A0261E082E10E9489
:100E7000F80661E083E10E94F806E9EBF0E080818A
:100E80008E7F808380818D7F808388E48093B8000B
:100E900085E48093BC008CE696E0909337028093C3
:100EA00036028DE696E090933502809334020895E1
:100EB000CF93DF93EC018B818823A1F0888191E0AF
:100EC00090936102809383021092620210928402D6
:100ED00081E00E940F0691E0811190E0892FDF915F
:100EE000CF9108950E94260781E08B83CE010E9456
:100EF0005807982F8111E2CFF1CFFC0183858F3FF6
:100F000011F00C94F8060895CF93DF9390E0FC0164
:100F1000E356FF4F24918A579F4FFC018491882309
:100F2000D1F090E0880F991FFC01EE58FF4FA5917A
:100F3000B491FC01E458FF4FC591D491623071F433
:100F40009FB7F8943C91822F809583238C93E881FE
:100F50002E2B28839FBFDF91CF9108958FB7F894F0
:100F6000EC912E2B2C938FBFF6CF8230910538F069
:100F7000880F991F880F991F05970197F1F708951A
:100F8000AF92BF92CF92DF92EF92FF920F931F9397
:100F9000CF93DF93EC0188819981892B89F06EBD15
:100FA0000DB407FEFDCFBEB48B2DDF91CF911F9105
:100FB0000F91FF90EF90DF90CF90BF90AF9008958A
:100FC0008885998511E0892B09F010E8AA24A3945B
:100FD000862F812309F0A12C062F2C813D814E8183
:100FE0005F8160E271EA87E090E00E948E19F22E44
:100FF000B02EE12CC22ED12CFF2019F0C6010E9488
:10100000B5078A85877F09F042C08D858F3F89F0BB
:10101000902F912381E009F480E08A1551F0EF854B
:10102000F8898F89992369F19081892B8083AA247B
:10103000A394E989FA898081998D892B8083FF2087
:1010400019F0C6010E94B5078E858F3F39F0EB89F4
:10105000FC898081988D892309F0E12AE989FA8940
:101060009081898D8095892380838E858F3F09F0BB
:10107000BE2C88859985892BB9F5110F1111BCCF2C
:1010800093CF9081809589238083A12CD2CFE98949
:10109000FA898081998D892B8083FF2019F0C60100
:1010A0000E94B5078D858F3F49F0EF85F8898F89BC
:1010B000902F9123A9F09081892B8083E989FA8967
:1010C0009081898D8095892380838E858F3F69F2F9
:1010D000EB89FC898081988D892339F2E12AC5CF7B
:1010E000908180958923E9CF1695C8CF3FB7F894B2
:1010F0008091100290911102A0911202B0911302FE
:1011000026B5A89B05C02F3F19F00196A11DB11D62
:101110003FBFBA2FA92F982F8827BC01CD01620F9E
:10112000711D811D911D42E0660F771F881F991F59
:101130004A95D1F708958F929F92AF92BF92CF9226
:10114000DF92EF92FF926B017C010E9476084B01C7
:101150005C01C114D104E104F104B9F00E947608E5
:10116000681979098A099B09683E734081059105D0
:1011700080F321E0C21AD108E108F10888EE880E58
:1011800083E0981EA11CB11CE4CFFF90EF90DF908C
:10119000CF90BF90AF909F908F900895DC011A96EA
:1011A000ED91FC9130E020E00994DC011696ED9180
:1011B000FC9130E020E040E069E10994DC01169602
:1011C000ED91FC9130E020E040E068E109949A0163
:1011D000DC011696ED91FC91462F67E10994EF92A0
:1011E000FF920F931F93CF93DF931F92CDB7DEB77C
:1011F0007C018B01D8016C91673129F150F4653184
:10120000A0F40F90DF91CF911F910F91FF90EF907D
:1012100008956A3118F16E3FA1F7F80141814983C1
:1012200069E2C7010E94CE080BC0F80141814983E1
:10123000D7011696ED91FC9130E020E0C7010995A9
:101240000E5F1F4FD7CFF80181818983AE014F5FB9
:101250005F4F61E0C7010E94E708F2CF0F5F1F4FA9
:10126000D7011696ED91FC9130E020E040E0C701F7
:101270000995C0CF462FDC011696ED91FC9130E028
:1012800020E066E10994462FDC011696ED91FC9171
:1012900030E020E065E10994EF92FF920F931F93F5
:1012A000CF93DF93EC01042F79016D3009F446C030
:1012B00050F46B30C9F1693009F49FC06A3009F409
:1012C00065C080E05CC06E3009F44BC06F3099F7A8
:1012D0000E94DE08F7011381110F110F110F6C89A5
:1012E000160F60E4CE010E944309612F62956F7072
:1012F0006061CE010E944309612F6F70CE010E9490
:101300003A09F7016481606BCE010E943A09F70146
:10131000408151816281660F660F660FCE010E9487
:10132000E7080150A1F727C069E171E0442311F0FB
:1013300064E171E0CE010E94EF0820C0411109C0B4
:101340006DE071E00E94EF08E881F98182898C8B61
:1013500015C066E071E00E94EF08E881F981838999
:10136000F6CF0E94DE0861E8CE010E944309602F9B
:10137000CE010E943A09CE010E94D50881E0DF919A
:10138000CF911F910F91FF90EF900895EA85FB8513
:1013900030E020E040E068E2CE010995EE81FF8177
:1013A00030E020E040E064E1CE01099541E06BE4EB
:1013B000CE010E94CE08E881F981448169E2CE0124
:1013C0000E94CE0840E06BE4CE010E94CE08E88186
:1013D000F981448169E2CE010E94CE0841E06BE4CC
:1013E000CE010E94CE08E881F981458169E2CE01F3
:1013F0000E94CE086EE171E09DCF83E591E0998374
:10140000888382E0A4CFDC011896ED91FC9130E056
:1014100020E040E069E10994DC011896ED91FC912F
:1014200030E020E040E068E10994CF93DF931F9221
:10143000CDB7DEB76983BE016F5F7F4F0E94A906FB
:101440000F90DF91CF910895EF92FF921F93CF936A
:10145000DF93EC01162F7A010E940C0A60E4CE01A2
:101460000E94150AE885F9859701412F67E1CE01B1
:101470000995CE01DF91CF911F91FF90EF900C94D1
:10148000030AEF92FF921F93CF93DF93EC01142F87
:101490007901663181F138F4643109F44BC065316A
:1014A00079F080E022C06831C9F150F16931C9F7A3
:1014B00080910A02882391F1CE010E94030A2EC076
:1014C00080910A02882319F0CE010E94030ACE01FE
:1014D0000E940C0A60E0CE010E94150A612FCE0125
:1014E0000E94150A81E080930A02DF91CF911F913B
:1014F000FF90EF900895642F0E94150A81E0F5CFC8
:1015000080910A02882319F0CE010E94030AA701E4
:10151000193138F4612FCE010E94240A10920A0278
:10152000EDCF68E1CE010E94240A185188E1E80E4F
:10153000F11CEDCF8E898F3F11F488E78E8BE88503
:10154000F9859701412F64E1CE01DF91CF911F9181
:10155000FF90EF9009940F93DC01DE963C91DE97AB
:10156000431BD496ED91FC9109950F910895CF936B
:10157000DF93FC01A081B18182AD982F990F990F63
:10158000990F95AF50969C915097903208F09FE13B
:10159000990F990F990F94AF23AD922F990F990F2F
:1015A000990F96AF51963C915197682F620F77270C
:1015B000771F3617170614F4832F821B97AFEF019E
:1015C000C05CDF4F880F880F880F890F88832196B2
:1015D00080EF888354968D919C915597813F91051A
:1015E00008F48883EE5BFF4F56968C918083DF91E1
:1015F000CF9108950F93FC01EB5BFF4F3081319643
:101600005081451730F4301738F0041728F080E087
:1016100013C03017D0F3FBCFFC01ED5BFF4F3081DF
:101620008C5B9F4FFC018081681740F481E032178A
:1016300018F081E0261758F70F9108953217C8F374
:10164000E6CF2F923F924F925F926F927F928F924E
:101650009F92AF92BF92CF92DF92EF92FF920F9341
:101660001F93CF93DF93EC014C0183E4880E911C10
:10167000F4011082329720805E01F4E4AF0EB11CB9
:10168000F50120823FAC6E01F5E4CF0ED11CF601CE
:101690003082359740807E01F6E4EF0EF11CF701B1
:1016A00040823496108132976080319670803297F4
:1016B0005080012F262D472D652DCE010E94FA0A5C
:1016C000CD58DF4F811114C01882DF91CF911F9147
:1016D0000F91FF90EF90DF90CF90BF90AF909F90D1
:1016E0008F907F906F905F904F903F902F900895D4
:1016F00081E08883552011F0F4015082621410F4C7
:10170000F5016082371410F4F60170821415E8F6C2
:10171000F7011083DACF0F93DC01802FFD01ED5824
:10172000FF4F90819923E9F12223D9F1223020F053
:10173000023079F56F5F621B082F0170FD0180FD9B
:1017400032C0EB5BFF4F8081481758F131968081A2
:10175000481738F53297908131978081260F2617E8
:10176000F0F46917D8F42FEF290F8217D0F4681717
:1017700008F4682F291708F4922F961BD696ED913E
:10178000FC91D7970480F581E02D292FCD01099593
:1017900008C0033089F64F5F421BCECF682F691710
:1017A00020F30F910895ED5BFF4F80816817C8F318
:1017B000319680816817A8F73296908131978081A1
:1017C000240F241778F4491760F42FEF290F82179C
:1017D00040F7481708F4482F291708F4922F941B54
:1017E000CDCF482F4917E8F6F2CF213039F020F05D
:1017F000223031F0840F0895860F0895841B0895D8
:10180000861B0895213039F020F0223031F0861BFC
:101810000895840F0895860F0895841B08955F929C
:101820006F927F928F929F92AF92BF92CF92DF92F0
:10183000EF92FF920F931F93CF93DF935C01162FCC
:10184000642EEC01C15BDF4FDC80ED804C0189E749
:10185000880E911CFE80FD18C12EF11608F4CF2CC5
:101860005B800C85202F4E2D6D2D8A810E94F50BFB
:10187000782E202F4E2D6D2D852D0E94020C482F85
:10188000662071F08A85F40180832C2D672DC501B7
:101890000E948B0B1F1548F01F19E394D12CDACF4F
:1018A00089858111F7CF8B85EECF1D0D1C83ED82CD
:1018B000DF91CF911F910F91FF90EF90DF90CF902C
:1018C000BF90AF909F908F907F906F905F900895A2
:1018D000DC0118964C911897ED91FC911197249189
:1018E00030E0042E02C0359527950A94E2F7842F44
:1018F000860F883068F031961196FC93EE93E49150
:1019000098E0941B01C0EE0F9A95EAF72E2B8850B1
:1019100018968C938FEF9FEF01C0880F6A95EAF7B6
:10192000809582230895FC01E60FF11D849190E0DB
:10193000982F88273196E4918E0F911D0895CF93AB
:10194000DF93EC01FC0184918093F1063196E491E0
:10195000E093F206FE013296E491E093F306FE0175
:101960003396E491E093F406FE013496E491E0931B
:10197000F506FE013596E491E093F606FE013696F3
:10198000E491E093F706FE013796E491E093F806C0
:10199000FE013896E491E093F906FE013996E49150
:1019A000E093FA06FE013A96E491E093FB06FE010D
:1019B0003B96E491E093FC06FE013C96E491E093B3
:1019C000FD06FE013D96E491E093FE06FE013E9683
:1019D000E491E093FF06FE013F96E491E093000757
:1019E000FE017096E491E093010761E1CE010E944F
:1019F000930C909303078093020763E1CE010E944A
:101A0000930C909305078093040765E1CE010E9433
:101A1000930C9093070780930607DF91CF91089569
:101A20006F927F928F929F92AF92BF92CF92DF92EE
:101A3000EF92FF920F931F93CF93DF93EC01062F4A
:101A4000142F7901FC01E55AFF4F8081813009F4A0
:101A500045C0D0F1823009F44BC0833009F452C044
:101A6000FE01EF5AFF4F0083319610833797808134
:101A7000918147962FEFE216F10411F008F0E6C0CD
:101A8000E1E6EE16F10408F447C0FE01E159FF4F0C
:101A900020813181820F931F9C012F5F3F4FF901FD
:101AA0004491411142C0712C872DDF91CF911F913C
:101AB0000F91FF90EF90DF90CF90BF90AF909F90ED
:101AC0008F907F906F900895FE01E35BFF4F019030
:101AD000F081E02DCE010995180FC2CFFE01E35B26
:101AE000FF4F0190F081E02DCE010995081BB8CF82
:101AF000FE01E35BFF4F0190F081E02DCE010995DF
:101B0000181BAECFFE01E35BFF4F0190F081E02D8B
:101B1000CE010995080FA4CFF1E4EF16F10408F403
:101B2000BBCFFE01E359FF4FB3CFFC0144914E15EB
:101B30001F0409F086C00296009709F4B4CF7E0115
:101B4000FFE4EF0EF11CF7019183808310867196FC
:101B50006081C7010E94680CF701868372966081DC
:101B6000C7010E94680CA82EF70187836E01F9E770
:101B7000CF0ED11CF6019081F701928781E091117F
:101B800080E0F7018387FE01EE59FF4FB0806B2D97
:101B9000C7010E94680C882EFE01ED59FF4F10818D
:101BA000612FC7010E94680C982EFE01EC59FF4F6F
:101BB0000081602FC7010E94680C015041E050E095
:101BC0009A0101C0220F0A95EAF7782E721AF701DE
:101BD000068110160CF068CFBA94CA0101C0880FB4
:101BE000BA94EAF7881AB4849A0C115001C0440FD1
:101BF0001A95EAF7F42FF9199F2E2B2D4F2F682DE8
:101C0000F70182810E94F50B182FF70182832B2D9B
:101C1000492D682D83810E94020CF7018383F1E036
:101C2000BF1609F47CC0BF1608F43FC022E0B2160C
:101C300009F47BC093E0B91609F482C0082F212F64
:101C400038C0F9012491820F911D26CFFE01EF5873
:101C5000FF4F00811181080F191F680160E0C60164
:101C60000E94930C080F191F62E0C6010E94930C9A
:101C7000F4E0CF0ED11C8E159F0580F3F8018491FE
:101C800090E0982F88273196E4918E2B009709F4E5
:101C90000ACFE816F90619F4C80103964DCFF801EA
:101CA0003296E4910E0F111DE9CF202F210F082F3E
:101CB0000A0D482F612FCE010E94FA0A882309F4E9
:101CC000F3CEF701148215828E01025A1F4F4E0186
:101CD000FFE58F0E911CF8016081C7010E94680C1E
:101CE000682EF4016081C7010E94680CB82E40E0A4
:101CF000662DCE010E940F0C41E06B2DCE010E949B
:101D00000F0C61E0C7010E94680C8111F0CFF70150
:101D100085818A1504F38285F6018083C5CEBA18C1
:101D200021E0210F080F1B0DC4CF91E0392F301B8C
:101D300021E0210F9A1901E0080F890F130FB9CF85
:101D4000212F2A0D982F901B01E0080F81E0890FA9
:101D5000B0CFEF92FF921F93CF93DF931092AD0617
:101D600085E9E82E81E0F82E10E0D8E1C0E0F70127
:101D700061917F01E0919706F091980685E996E0E0
:101D800009958F3F9807F1F08E3F2FEF920779F377
:101D90009C014D2F6C2F85E996E00E94100D9091CB
:101DA000F006913049F030F0923041F0933041F03C
:101DB000180FDDCFC80FFCCFD80FFACFC81BF8CF54
:101DC000D81BF6CF812FDF91CF911F91FF90EF901D
:101DD0000895CF93DF93EC016BAFEEA9FFA90190BB
:101DE000F081E02D0995EEA9FFA90280F381E02D95
:101DF000CE01DF91CF910994AF92BF92CF92DF9243
:101E0000EF92FF920F931F93CF93DF9300D000D0F8
:101E10001F92CDB7DEB78C01DC01DA96AC90DA9771
:101E2000DB96EC90DB97ED91FC91B188FE2CD12CE8
:101E3000C12CD801ED91FC9111978089D8962D91F4
:101E40003C911C82FD828B83B8E08B9FC0011124E2
:101E50008C9DA0018D9D500D9C9D500D1124240F33
:101E6000351F3A832983D8011496ED91FC919E0188
:101E70002F5F3F4F41E06FE0C8010995F3948F2D2C
:101E80008E198A1528F4BFEFCB1ADB0AFB1488F2EF
:101E90000F900F900F900F900F90DF91CF911F91A7
:101EA0000F91FF90EF90DF90CF90BF90AF9008958B
:101EB0008FB7F894809109028FBF08950F931F93F5
:101EC000CF93DF93EC01862F642F8C3208F03AC059
:101ED0008A3208F060C0883209F44BC0893209F4B4
:101EE00060C0803408F470C0982F9F73FE01E90F22
:101EF000F11D868D8F3F09F44EC0903108F436C035
:101F0000282F30E0F901EC54FF4F8491F901E3569A
:101F1000FF4F0491F901EA57FF4F1491112379F013
:101F200081110E94CF06E12FF0E0EE0FFF1FE8596C
:101F3000FF4FA591B491EC910E2381E009F480E06C
:101F4000898F29C08D3299F108F4CBCF94EB980F8B
:101F5000923008F0C6CF8F73C80FD11D8E8D4111FE
:101F60002FC061E00E94840760E08E8D0E94F80619
:101F700012C08E01025E1F4FD0E0F80181918F01E7
:101F80008F3F31F061E0D03108F062E00E948407B9
:101F9000DF5FD63191F781E0DF91CF911F910F91F3
:101FA000089570E090E080E00E949B08F4CF85E007
:101FB00090E0433010F082E090E00E94B507EBCF54
:101FC00062E00E948407E7CF80E0E6CF8CBD9DBD34
:101FD00008958F929F92AF92BF92CF92DF92EF922D
:101FE000FF920F931F93CF93DF93EC014B016A0194
:101FF000B22EA32E88819981892B31F0EA81FB8151
:10200000808191810E94E60F70E060E0CE010E9425
:102010007D077401C80CD91CEC14FD0479F4EB2C79
:10202000FA2C0E0D1F1DE016F10679F06FEFCE01B0
:102030000E94C007F70181937F01F5CFF7016191FD
:102040007F01CE010E94C007E7CF61E070E0CE01C2
:102050000E947D0781E0DF91CF911F910F91FF904A
:10206000EF90DF90CF90BF90AF909F908F900895AA
:102070008F929F92AF92BF92CF92DF92EF92FF9298
:102080000F931F93CF93DF93EC01B62EA72E6A0117
:10209000490188819981892B31F0EA81FB81808116
:1020A00091810E94E60F70E060E0CE010E947D0702
:1020B0007401080D191DE016F10671F40B2D1A2D8F
:1020C000C00ED11E0C151D0571F0F80161918F0134
:1020D000CE010E94C007F6CFF70161917F01CE01CA
:1020E0000E94C007E8CF61E070E0CE010E947D074A
:1020F00081E0DF91CF911F910F91FF90EF90DF90E2
:10210000CF90BF90AF909F908F900895AF92BF9265
:10211000CF92DF92EF92FF920F931F93CF93DF93B3
:1021200000D0CDB7DEB7DC01211103C018962C9189
:102130001897253008F043C01F964D935D936D931B
:102140007C93529790E080E0E22EF12C8E159F0553
:10215000B4F41A962C911A9721110AC0FD01E80FC8
:10216000F91F4387452F562F672F77270196EECF0C
:10217000F701E81BF90BEA0FFB1F4287F3CF6D0154
:102180008BE0C80ED11C16969C91169717968C91D1
:10219000179799838A83AD90BC901197A114B104CD
:1021A00009F441C019960C9110E098012E0D3F1DC5
:1021B000D50114968D919C918217930710F480E0BD
:1021C00016C0F50181819281208131E03093610256
:1021D000209383021092620210928402011511056D
:1021E00099F421E0A701B601C5010E94B1060F9044
:1021F0000F90DF91CF911F910F91FF90EF90DF90A3
:10220000CF90BF90AF900895DC01ED91FC910280DA
:10221000F381E02DA801BE016F5F7F4F099508177C
:10222000190769F6DECF1296ED91FC91139730975E
:1022300031F214962D913C91159719960C9110E05E
:102240002330310571F48E7F89839A830F5F1F4F8E
:102250009E012F5F3F4FA701B601CF010E943810AA
:10226000C6CF2115310519F49F779983F1CF22301C
:10227000310511F49068F9CF2130310549F79F7786
:102280009064F3CF85ED8093BC008091BC0084FD09
:10229000FCCF1092600208952091E601260F3327AB
:1022A000331F21323105ECF420916002FC0190E0F3
:1022B00080E0243069F082E00895A091E601219148
:1022C000AC014A535E4FA40FB52FB11D2C9301965C
:1022D000861798F38091E601680F6093E60180E02D
:1022E000089581E008950895E091390280913802BF
:1022F000E81730F4F0E0EC5EFD4F808190E0089547
:102300008FEF9FEF089590913902809138022FEF5F
:102310003FEF981748F4E92FF0E0EC5EFD4F208185
:1023200030E09F5F90933902C9010895809138028F
:1023300090913902891B990B0895CF92DF92EF9209
:10234000FF920F931F93CF93DF937C01CB018A0100
:1023500020916102222389F0EB016B01C40ED51E8E
:10236000CC15DD0569F06991D701ED91FC910190E3
:10237000F081E02DC7010995F3CF642F0E944C1125
:10238000C801DF91CF911F910F91FF90EF90DF90E7
:10239000CF900895CF93DF93EC01962F683189F1A8
:1023A000B901993130F4943199F0973159F080E0C6
:1023B00006C0993109F447C09032C9F781E0DF9136
:1023C000CF91089550E085E892E00E949D11F6CFEC
:1023D0008C859D85AE85BF85892B8A2B8B2B71F4CF
:1023E000E881F981A585B0E020EA36E841E050E0D7
:1023F0000E94B0196C877D878E879F870E94260771
:10240000DDCF2C853D854E855F8560E074E284EFED
:1024100090E00E948E1920513109410951095695C9
:102420004795379527952093B8008E8990E095952C
:10243000879591E0909361028093830210926202EB
:1024400010928402BBCF81E00E940F06B7CFCF93DA
:10245000DF931F92CDB7DEB76983209161022223FB
:10246000F9F020918402203258F021E030E0FC01A4
:102470003383228390E080E00F90DF91CF91089525
:1024800080916202E82FF0E0ED59FD4F9981908331
:102490008F5F809362028093840281E090E0ECCFB2
:1024A00061E0CE0101960E944C11F7CFCF92DF92EE
:1024B000EF92FF920F931F93CF93DF936C01EB0189
:1024C0007B01E40EF51E10E000E0CE15DF0561F0A3
:1024D0006991D601ED91FC910190F081E02DC6014A
:1024E0000995080F191FF1CFC801DF91CF911F91F6
:1024F0000F91FF90EF90DF90CF900895CF92DF92F1
:10250000EF92FF920F931F93CF93DF93EC016C0137
:1025100024E0C20ED11CFC01E158FF4F0190F08174
:10252000E02DC60109958E3FEFEF9E07C8F48E019E
:102530000E571F4F7E01F1E8EF0EF11C9C01F801D0
:102540004081F7016081C6010E94100DC15ADF4F22
:1025500098819130A9F078F09230A1F09330B9F0E1
:1025600081E090E0DF91CF911F910F91FF90EF906C
:10257000DF90CF900895F7019081890F8083F0CF8D
:10258000F801FACFF7019081981B892FF7CFF80156
:10259000FACF089590E080E008952F923F924F92F5
:1025A0005F926F927F928F929F92AF92BF92CF92E3
:1025B000DF92EF92FF920F931F93CF93DF9300D0A0
:1025C000CDB7DEB77C01DC0118960C914C01BBE065
:1025D0008B0E911CFC019681878199838A83C08030
:1025E000D180C114D10409F4A9C0418550E0D601BD
:1025F00014968D919C9115978417950708F4F1C056
:102600008C9191E090936102809383021092620218
:102610001092840220E0BE016F5F7F4FC6010E94CE
:10262000B106882309F4DDC0602E712CB12CA12CD9
:10263000A614B70408F0A2C0809160028111FCCFFB
:10264000F6018481958183010A191B09801791077E
:1026500008F48C01D6019C91802F013208F080E2B1
:10266000B1E0B093600241E09301201B310BA21650
:10267000B30608F440E040935F02EFEFE0935E02A0
:1026800010925D022FEF280F20935C02F1E0F0938F
:102690003B0220913B02990F922B90933B02909129
:1026A0003A02913009F03FC010923A0290913B02F9
:1026B0009093BB009091BC0093FDF8CF25EC209344
:1026C000BC00909160029130E1F390915D02981707
:1026D00010F480915D02ECE3F2E0A4E1B2E090E05E
:1026E000981325C010923902909338029017110662
:1026F00009F077C024014A0C5B1C1201C101841946
:10270000950980179107B8F4D60111968D919C9187
:10271000DC01ED91FC910284F385E02D0995F10136
:1027200081931F01EBCF95EE9093BC00CACF21910E
:102730002D939F5FD5CFA00EB11E7ACFD701028017
:10274000F381E02D309709F44CC014962D913C9103
:10275000159710E019964C9150E02330310561F542
:10276000816089839A834F5F5F4F9401BE016F5FE1
:102770007F4FCF010E94E90F882399F1F70140852F
:1027800050E030E020E060E070E0CB012417350736
:102790005CF5982F872F762F6627D7011A96EC9134
:1027A000E1111AC0FA01E21BF30BEE0DFF1DE285E9
:1027B0006E2B2F5F3F4FEACF2115310519F490683A
:1027C0009983D3CF2230310511F49F77F9CF21308F
:1027D000310559F6906CF4CFF701E20FF31FE38552
:1027E000E7CF6FEF7FEFCB010F900F90DF91CF918D
:1027F0001F910F91FF90EF90DF90CF90BF90AF901F
:102800009F908F907F906F905F904F903F902F9010
:1028100008958F929F92AF92BF92CF92DF92EF92E4
:10282000FF920F931F93CF93DF93EC014A015B015B
:10283000888199810E94CD122A8101E010E002C0B6
:10284000000F111F2A95E2F701501109012E000C0B
:10285000220B330BAB81680179010A2E04C0CC0C2A
:10286000DD1CEE1CFF1C0A94D2F7C094D094E094B7
:10287000F094C622D722E822F922E881F981B90131
:10288000A801482159216A217B2104C0440F551F0A
:10289000661F771FAA95D2F74C295D296E297F29DB
:1028A0002085CF01DF91CF911F910F91FF90EF9085
:1028B000DF90CF90BF90AF909F908F900C94861038
:1028C000EF92FF921F93CF93DF93CDB7DEB7AA9716
:1028D0000FB6F894DEBF0FBECDBF7C01FC01838133
:1028E00094811BA21CA21DA21EA29D8B8C8B1F8AF1
:1028F0001E8A11E01D8F82E990E09B8F8A8F1E8EC9
:102900001C8FCE0144960E94CD1280E060FD20C055
:10291000F70183819481188A198A1A8A1B8A9A83FB
:1029200089831C821B821A8780E890E098878F83B6
:102930001B861987CE01019698A78FA319A71AA6FF
:1029400041E050E060E070E086960E94091481E06A
:10295000AA960FB6F894DEBF0FBECDBFDF91CF9120
:102960001F91FF90EF900895FC01A081B1815096D6
:102970002C9182AD38E0839FC0011124289FA001D3
:10298000299F500D112470E060E080AD91AD0C9452
:10299000F51A1F93CF93DF93EC010E94FC0E1BAD41
:1029A0008AAD180FE881F9818189181768F0EC81E8
:1029B000FD8130E020E040E060E1CE01099580E05B
:1029C000DF91CF911F910895FE01E658FF4F80815E
:1029D000882319F0CE010E94B414612FCE010E9409
:1029E000E90E81E0EDCFCF93DF93EC01FC01E658D7
:1029F000FF4F8081882319F0CE010E94B41460E05B
:102A0000CE01DF91CF910C94E90E1F920F920FB679
:102A10000F9211242F933F938F939F93AF93BF9364
:102A200080910C0290910D02A0910E02B0910F02C4
:102A300030910B0223E0230F2D3768F126E8230F96
:102A40000296A11DB11D20930B0280930C0290935E
:102A50000D02A0930E02B0930F028091100290918C
:102A60001102A0911202B09113020196A11DB11D95
:102A70008093100290931102A0931202B09313025C
:102A8000BF91AF919F918F913F912F910F900FBE6A
:102A90000F901F9018950196A11DB11DD4CF1F92C4
:102AA0000F920FB60F9211242F933F934F935F9382
:102AB0006F937F938F939F93AF93BF93EF93FF9306
:102AC0008091B900887F803609F44AC0F0F58832D9
:102AD00009F4A7C018F5803109F49BC0B8F4882325
:102AE00009F4F9C0883009F494C0FF91EF91BF91C7
:102AF000AF919F918F917F916F915F914F913F9196
:102B00002F910F900FBE0F901F901895883109F4E8
:102B100088C0803251F780935E0214C0803409F47B
:102B20009DC040F48033B9F38833F9F680935E0298
:102B300085ECB0C0803509F485C0883509F496C0AD
:102B4000883499F60E944211D0CF883909F48CC09C
:102B500038F5883729F050F4883611F0803729F697
:102B600083E0809360021092080257C0883809F40D
:102B70007BC0803919F0803809F0B7CF8091080206
:102B8000803208F071C0E091080281E08E0F8093DE
:102B900008028091BB00F0E0E851FE4F80833DC009
:102BA000803B39F0E0F4803A09F479C0883A09F0C2
:102BB0009CCF84E0809360021092E7011092E601BE
:102BC000E0913602F091370209958091E60181117A
:102BD0000FC081E08093E6011092C60109C0803CDD
:102BE00009F4A6CF883C09F4A3CF883B09F07DCF38
:102BF000E091E70181E08E0F8093E701F0E0EA5376
:102C0000FE4F80818093BB009091E7018091E601A7
:102C100029C080913B028093BB0085EC8093BC006F
:102C200064CF90915D0280915C02981758F5E09115
:102C30005D0281E08E0F80935D02F0E0E45CFD4F69
:102C40008081E9CFE0915D0281E08E0F80935D028B
:102C50008091BB00F0E0E45CFD4F808390915D02C9
:102C600080915C029817C8F285E8D8CFE0915D02A8
:102C700081E08E0F80935D028091BB00F0E0E45C08
:102C8000FD4F808380915F0281115CCF81E0809352
:102C90003A0284EA8093BC001092600226CF85EC51
:102CA0008093BC001092600280910802803230F460
:102CB000E0910802F0E0E851FE4F108260910802B6
:102CC00070E0E0913402F091350288EE91E00995D0
:102CD000109208020ACF10925E0234CFCF93DF9396
:102CE000CDB7DEB763970FB6F894DEBF0FBECDBF8A
:102CF0002091170730911807188A198A1A8A1B8A97
:102D00003A8329831C821B8221E02A8790E09887DE
:102D10008F831B862987462F50E070E060E020E01B
:102D2000CE0101960E94861063960FB6F894DEBF1E
:102D30000FBECDBFDF91CF910895CF93DF93CDB775
:102D4000DEB767970FB6F894DEBF0FBECDBF2091F8
:102D5000170730911807188A198A1A8A1B8A3A832A
:102D600029831C821B8291E09A8720E830E0388713
:102D70002F831B8699879E012F5F3F4F3D8B2C8BA6
:102D80009E8B9F8B482F50E070E060E0CE01449610
:102D90000E94091467960FB6F894DEBF0FBECDBF30
:102DA000DF91CF910895CF931092880210928702FD
:102DB00088EE93E0A0E0B0E08093890290938A02CD
:102DC000A0938B02B0938C028FE691E090938602E1
:102DD000809385028DE891E0909315078093140706
:102DE0001092160710921807109217071092940667
:102DF0001092930680EA95E0909311078093100754
:102E000010921207109213071092AD0681E891E01C
:102E100090939206809391061092960610929506D2
:102E20001092AA061092A1061092A2061092A30672
:102E30001092A4068FEF8093AB068093AF06E3EB6E
:102E4000F6E089EC96E0CFEFC1938E179F07E1F78C
:102E50008CE499E090939A068093990681E49AE035
:102E600090939C0680939B068AEC91E190939E063A
:102E700080939D068EE59FE09093A00680939F0629
:102E800030E020E040E069E085E996E00E944C09EE
:102E90001092E1061092E0068AEA95E09093CA0645
:102EA0008093C90681E992E09093CE068093CD0687
:102EB00088E08093CF061092D0061092ED06109213
:102EC0000D0781E080930E0780930F078FE891E054
:102ED0009093CC068093CB0685E996E00E94B70AD2
:102EE0001092DC061092DE06C093DD06C093DF066A
:102EF000E091CB06F091CC060280F381E02D85E9CC
:102F000096E009958DE096E09093E3068093E206C3
:102F10001092F006C093BE06C093BF06C093C006D1
:102F2000CF910895CF93DF93CDB7DEB767970FB6F4
:102F3000F894DEBF0FBECDBF789484B5836084BDA6
:102F400085B5836085BD80916E00816080936E0041
:102F500082E0809381008091810081608093810074
:102F6000809180008160809380008091B1008460B6
:102F70008093B1008091B00081608093B00087E8B9
:102F800080937A001092C100E0919906F0919A0620
:102F900030E020E040E06AE085E996E0099585E9C7
:102FA00096E00E94F31485E996E00E94C91481110D
:102FB000FACF60E085E996E00E94E90EE09199067B
:102FC000F0919A0630E020E040E06BE085E996E081
:102FD00009958091E0069091E1068B5C904051F05C
:102FE0008BEC90E09093E1068093E0060E949F0CAA
:102FF0000E946E0660ED77E080E090E00E949B0802
:103000008091170790911807009711F00E946C1A91
:1030100086E090E00E94D0197C0189E3F70180836B
:1030200085E892E092838183138280E290E0958329
:103030008483F0921807E09217070E94260711E098
:10304000F7011383C7010E945807882349F040E025
:1030500050E0BA0184E197E00E946014811107C03A
:103060006AE070E080E090E00E949B08F9CF8091D8
:10307000170790911807188A198A1A8A1B8A9A8347
:1030800089831C821B821A8781E890E098878F834E
:103090001B86198720E044E650E060E070E0CE0136
:1030A00001967C010E948610809117079091180765
:1030B000188A198A1A8A1B8A9A8389831C821B821E
:1030C0001A878AEC90E098878F831B8602E0098735
:1030D00020E047EE53E060E070E0C7010E948610F8
:1030E0008091170790911807188A198A1A8A1B8AE3
:1030F0009A8389831C821B821A878AEA90E09887C8
:103100008F831B86198720E049E050E060E070E083
:10311000C7010E948610109232071092310780E09A
:103120000E949D168091170790911807188A198A96
:103130001A8A1B8A9A8389831C821B821A878FEAC8
:1031400090E098878F831B861987FD8AEC8A0E8B07
:1031500083E08F8B42E050E060E070E0CE01449667
:103160000E94091460E380E00E946E1661E081E035
:103170000E946E1660E082E00E946E1660E083E0BE
:103180000E946E1660E084E00E946E1662E485E0A4
:103190000E946E1660E086E00E946E1660E087E096
:1031A0000E946E1660E588E00E946E1660E089E07D
:1031B0000E946E1660E08AE00E946E1660E08BE06E
:1031C0000E946E1660E28CE00E946E1664E08DE054
:1031D0000E946E1660E08EE00E946E1660E38FE043
:1031E0000E946E1661E080E10E946E1660E581E14A
:1031F0000E946E1660E082E10E946E1666E083E136
:103200000E946E168091170790911807188A198AE4
:103210001A8A1B8A9A8389831C821B821A8780E8F8
:1032200090E098878F831B861987FD8AEC8A1E8B16
:1032300084E08F8B41E050E060E070E0CE01449686
:103240000E94091409EE13E0EE24E394F12C8C891A
:103250009D890E94CD12AB01BC018E89F70102C08D
:10326000EE0FFF1F8A95E2F7CF010197092E000CA0
:10327000AA0BBB0B2F8904C0769567955795479588
:103280002A95D2F784239523A623B723892B8A2B4B
:103290008B2B51F00150110939F061E070E080E0B2
:1032A00090E00E949B08D3CF81E00E949D1681E0B0
:1032B00090E0909332078093310700EA15E080E0B8
:1032C000E82E80E0F82E96E9C92E94E0D92E85E903
:1032D00096E00E94F3148091E0069091E1068659F1
:1032E000944051F0D092E106C092E00686E994E065
:1032F0000E949F0C0E946E061093980600939706FA
:103300000E94A90E85E996E00E94C9148111E3CFBD
:10331000E114F104E1F20E940000D9CFA1E21A2EDB
:10332000AA1BBB1BFD010DC0AA1FBB1FEE1FFF1F69
:10333000A217B307E407F50720F0A21BB30BE40BB9
:10334000F50B661F771F881F991F1A9469F7609500
:103350007095809590959B01AC01BD01CF010895BA
:103360000E94C119A59F900DB49F900DA49F800D40
:10337000911D11240895EE0FFF1F0590F491E02D8B
:103380000994A29FB001B39FC001A39F700D811D3E
:103390001124911DB29F700D811D1124911D08955E
:1033A0000F931F93CF93DF938230910510F482E047
:1033B00090E0E0913507F091360730E020E0B0E092
:1033C000A0E0309799F42115310509F44AC0281B73
:1033D000390B24303105D8F58A819B81611571053F
:1033E00089F1FB0193838283FE0111C040815181E9
:1033F0000281138148175907E0F04817590799F4DB
:10340000109761F012960C93129713961C933296B4
:10341000CF01DF91CF911F910F9108950093350750
:1034200010933607F4CF2115310551F04217530799
:1034300038F0A901DB019A01BD01DF01F801C1CF1C
:10344000EF01F9CF9093360780933507CDCFFE017A
:10345000E20FF31F8193919322503109398328831E
:10346000D7CF2091330730913407232B41F420919B
:1034700002013091030130933407209333072091E8
:103480000001309101012115310541F42DB73EB7FE
:103490004091040150910501241B350BE091330745
:1034A000F0913407E217F307A0F42E1B3F0B281707
:1034B000390778F0AC014E5F5F4F2417350748F0AD
:1034C0004E0F5F1F509334074093330781939193BE
:1034D0009FCFF0E0E0E09CCFCF93DF930097E9F03F
:1034E000FC01329713821282A0913507B091360702
:1034F000ED0130E020E01097A1F420813181820FAE
:10350000931F20913307309134072817390709F0AA
:1035100061C0F0933407E0933307DF91CF910895B2
:10352000EA01CE17DF07E8F54A815B819E0141156C
:103530005105B1F7E901FB83EA8349915991C40F21
:10354000D51FEC17FD0761F4808191810296840FED
:10355000951FE90199838883828193819B838A8364
:10356000F0E0E0E012968D919C9113970097B9F5E9
:103570002D913C911197CD010296820F931F2091BE
:103580003307309134072817390739F6309751F54A
:103590001092360710923507B0933407A093330783
:1035A000BCCFD383C28340815181840F951FC8173C
:1035B000D90761F44E5F5F4F88819981480F591F89
:1035C000518340838A819B819383828321153105B6
:1035D00009F0B0CFF0933607E09335079ECFFD0199
:1035E000DC01C0CF13821282D7CFDC0101C06D9302
:0C35F00041505040E0F70895F894FFCFE0
:1035FC000000370780001815A015C019FF1815A179
:10360C0015C819FF1815AE19FF1815AF19FF1815A5
:10361C00AE15D5168015A8163F15D31600154015F6
:10362C008D16141520160015A115C815DA161215CD
:10363C008116CF15D916F115DB1640152E15A415CC
:10364C00A619FF0001140A6464323200093D00031C
:10365C000428961008020280004000000000002799
:10366C00129D11CA1273119611831174110000006E
:10367C00007E125612CA12C912000000006014B764
:10368C000A210BAB0A48656C6C6F20576F726C6427
:02369C0021000B
:00000001FF
